{"abi":[{"inputs":[{"internalType":"string","name":"sellerName","type":"string"},{"internalType":"string","name":"sellerPhone","type":"string"},{"internalType":"string","name":"sellerBuisnessName","type":"string"}],"name":"createSeller","outputs":[],"stateMutability":"payable","type":"function"},{"inputs":[],"name":"getSellers","outputs":[{"internalType":"address[]","name":"","type":"address[]"}],"stateMutability":"view","type":"function"},{"inputs":[{"internalType":"uint256","name":"","type":"uint256"}],"name":"sellers","outputs":[{"internalType":"address","name":"","type":"address"}],"stateMutability":"view","type":"function"}],"devdoc":{"methods":{}},"evm":{"assembly":"    /* \"Rubics\":280:1206  contract Factory {\r... */\n  mstore(0x40, 0x80)\n  callvalue\n    /* \"--CODEGEN--\":8:17   */\n  dup1\n    /* \"--CODEGEN--\":5:7   */\n  iszero\n  tag_1\n  jumpi\n    /* \"--CODEGEN--\":30:31   */\n  0x00\n    /* \"--CODEGEN--\":27:28   */\n  dup1\n    /* \"--CODEGEN--\":20:32   */\n  revert\n    /* \"--CODEGEN--\":5:7   */\ntag_1:\n    /* \"Rubics\":280:1206  contract Factory {\r... */\n  pop\n  dataSize(sub_0)\n  dup1\n  dataOffset(sub_0)\n  0x00\n  codecopy\n  0x00\n  return\nstop\n\nsub_0: assembly {\n        /* \"Rubics\":280:1206  contract Factory {\r... */\n      mstore(0x40, 0x80)\n      jumpi(tag_1, lt(calldatasize, 0x04))\n      shr(0xe0, calldataload(0x00))\n      dup1\n      0x7ee454cb\n      eq\n      tag_2\n      jumpi\n      dup1\n      0xcee26ed5\n      eq\n      tag_3\n      jumpi\n      dup1\n      0xd1ef59a3\n      eq\n      tag_4\n      jumpi\n    tag_1:\n      0x00\n      dup1\n      revert\n        /* \"Rubics\":899:993  function getSellers() public view returns (address[] memory) {\r... */\n    tag_2:\n      callvalue\n        /* \"--CODEGEN--\":8:17   */\n      dup1\n        /* \"--CODEGEN--\":5:7   */\n      iszero\n      tag_5\n      jumpi\n        /* \"--CODEGEN--\":30:31   */\n      0x00\n        /* \"--CODEGEN--\":27:28   */\n      dup1\n        /* \"--CODEGEN--\":20:32   */\n      revert\n        /* \"--CODEGEN--\":5:7   */\n    tag_5:\n        /* \"Rubics\":899:993  function getSellers() public view returns (address[] memory) {\r... */\n      pop\n      tag_6\n      tag_7\n      jump\t// in\n    tag_6:\n      mload(0x40)\n      tag_8\n      swap2\n      swap1\n      jump(tag_9)\n    tag_8:\n      mload(0x40)\n      dup1\n      swap2\n      sub\n      swap1\n      return\n        /* \"Rubics\":304:328  address[] public sellers */\n    tag_3:\n      callvalue\n        /* \"--CODEGEN--\":8:17   */\n      dup1\n        /* \"--CODEGEN--\":5:7   */\n      iszero\n      tag_10\n      jumpi\n        /* \"--CODEGEN--\":30:31   */\n      0x00\n        /* \"--CODEGEN--\":27:28   */\n      dup1\n        /* \"--CODEGEN--\":20:32   */\n      revert\n        /* \"--CODEGEN--\":5:7   */\n    tag_10:\n        /* \"Rubics\":304:328  address[] public sellers */\n      pop\n      tag_11\n      0x04\n      dup1\n      calldatasize\n      sub\n      tag_12\n      swap2\n      swap1\n      dup2\n      add\n      swap1\n      jump(tag_13)\n    tag_12:\n      tag_14\n      jump\t// in\n    tag_11:\n      mload(0x40)\n      tag_15\n      swap2\n      swap1\n      jump(tag_16)\n    tag_15:\n      mload(0x40)\n      dup1\n      swap2\n      sub\n      swap1\n      return\n        /* \"Rubics\":337:891  function createSeller(\r... */\n    tag_4:\n      tag_17\n      0x04\n      dup1\n      calldatasize\n      sub\n      tag_18\n      swap2\n      swap1\n      dup2\n      add\n      swap1\n      jump(tag_19)\n    tag_18:\n      tag_20\n      jump\t// in\n    tag_17:\n      stop\n        /* \"Rubics\":899:993  function getSellers() public view returns (address[] memory) {\r... */\n    tag_7:\n        /* \"Rubics\":942:958  address[] memory */\n      0x60\n        /* \"Rubics\":978:985  sellers */\n      0x00\n        /* \"Rubics\":971:985  return sellers */\n      dup1\n      sload\n      dup1\n      0x20\n      mul\n      0x20\n      add\n      mload(0x40)\n      swap1\n      dup2\n      add\n      0x40\n      mstore\n      dup1\n      swap3\n      swap2\n      swap1\n      dup2\n      dup2\n      mstore\n      0x20\n      add\n      dup3\n      dup1\n      sload\n      dup1\n      iszero\n      tag_22\n      jumpi\n      0x20\n      mul\n      dup3\n      add\n      swap2\n      swap1\n      0x00\n      mstore\n      keccak256(0x00, 0x20)\n      swap1\n    tag_23:\n      dup2\n      0x00\n      swap1\n      sload\n      swap1\n      0x0100\n      exp\n      swap1\n      div\n      0xffffffffffffffffffffffffffffffffffffffff\n      and\n      0xffffffffffffffffffffffffffffffffffffffff\n      and\n      dup2\n      mstore\n      0x20\n      add\n      swap1\n      0x01\n      add\n      swap1\n      dup1\n      dup4\n      gt\n      tag_23\n      jumpi\n    tag_22:\n      pop\n      pop\n      pop\n      pop\n      pop\n      swap1\n      pop\n        /* \"Rubics\":899:993  function getSellers() public view returns (address[] memory) {\r... */\n      swap1\n      jump\t// out\n        /* \"Rubics\":304:328  address[] public sellers */\n    tag_14:\n      0x00\n      dup2\n      dup2\n      sload\n      dup2\n      lt\n      tag_24\n      jumpi\n      invalid\n    tag_24:\n      swap1\n      0x00\n      mstore\n      keccak256(0x00, 0x20)\n      add\n      0x00\n      swap2\n      pop\n      sload\n      swap1\n      0x0100\n      exp\n      swap1\n      div\n      0xffffffffffffffffffffffffffffffffffffffff\n      and\n      dup2\n      jump\t// out\n        /* \"Rubics\":337:891  function createSeller(\r... */\n    tag_20:\n        /* \"Rubics\":561:579  300000000000000000 */\n      0x0429d069189e0000\n        /* \"Rubics\":548:557  msg.value */\n      callvalue\n        /* \"Rubics\":548:579  msg.value == 300000000000000000 */\n      eq\n        /* \"Rubics\":540:580  require(msg.value == 300000000000000000) */\n      tag_27\n      jumpi\n      0x00\n      dup1\n      revert\n    tag_27:\n        /* \"Rubics\":591:608  address newSeller */\n      0x00\n        /* \"Rubics\":652:661  msg.value */\n      callvalue\n        /* \"Rubics\":681:691  sellerName */\n      dup5\n        /* \"Rubics\":710:720  msg.sender */\n      caller\n        /* \"Rubics\":775:786  sellerPhone */\n      dup6\n        /* \"Rubics\":805:823  sellerBuisnessName */\n      dup6\n        /* \"Rubics\":633:838  (new Seller).value(msg.value)(\r... */\n      mload(0x40)\n      tag_28\n      swap1\n      tag_29\n      jump\t// in\n    tag_28:\n      tag_30\n      swap5\n      swap4\n      swap3\n      swap2\n      swap1\n      jump(tag_31)\n    tag_30:\n      mload(0x40)\n      dup1\n      swap2\n      sub\n      swap1\n      dup3\n      create\n      swap1\n      pop\n      dup1\n      iszero\n        /* \"--CODEGEN--\":8:17   */\n      dup1\n        /* \"--CODEGEN--\":5:7   */\n      iszero\n      tag_32\n      jumpi\n        /* \"--CODEGEN--\":45:61   */\n      returndatasize\n        /* \"--CODEGEN--\":42:43   */\n      0x00\n        /* \"--CODEGEN--\":39:40   */\n      dup1\n        /* \"--CODEGEN--\":24:62   */\n      returndatacopy\n        /* \"--CODEGEN--\":77:93   */\n      returndatasize\n        /* \"--CODEGEN--\":74:75   */\n      0x00\n        /* \"--CODEGEN--\":67:94   */\n      revert\n        /* \"--CODEGEN--\":5:7   */\n    tag_32:\n        /* \"Rubics\":633:838  (new Seller).value(msg.value)(\r... */\n      pop\n        /* \"Rubics\":591:849  address newSeller = address(\r... */\n      swap1\n      pop\n        /* \"Rubics\":860:867  sellers */\n      0x00\n        /* \"Rubics\":873:882  newSeller */\n      dup2\n        /* \"Rubics\":860:883  sellers.push(newSeller) */\n      swap1\n      dup1\n        /* \"--CODEGEN--\":39:40   */\n      0x01\n        /* \"--CODEGEN--\":33:36   */\n      dup2\n        /* \"--CODEGEN--\":27:37   */\n      sload\n        /* \"--CODEGEN--\":23:41   */\n      add\n        /* \"--CODEGEN--\":57:67   */\n      dup1\n        /* \"--CODEGEN--\":52:55   */\n      dup3\n        /* \"--CODEGEN--\":45:68   */\n      sstore\n        /* \"--CODEGEN--\":79:89   */\n      dup1\n        /* \"--CODEGEN--\":72:89   */\n      swap2\n      pop\n        /* \"--CODEGEN--\":0:93   */\n      pop\n        /* \"Rubics\":860:883  sellers.push(newSeller) */\n      0x01\n      swap1\n      sub\n      swap1\n      0x00\n      mstore\n      keccak256(0x00, 0x20)\n      add\n      0x00\n      swap1\n      swap2\n      swap1\n      swap2\n      swap1\n      swap2\n      0x0100\n      exp\n      dup2\n      sload\n      dup2\n      0xffffffffffffffffffffffffffffffffffffffff\n      mul\n      not\n      and\n      swap1\n      dup4\n      0xffffffffffffffffffffffffffffffffffffffff\n      and\n      mul\n      or\n      swap1\n      sstore\n      pop\n        /* \"Rubics\":337:891  function createSeller(\r... */\n      pop\n      pop\n      pop\n      pop\n      jump\t// out\n        /* \"Rubics\":280:1206  contract Factory {\r... */\n    tag_29:\n      dataSize(sub_0)\n      dup1\n      dataOffset(sub_0)\n      dup4\n      codecopy\n      add\n      swap1\n      jump\t// out\n        /* \"--CODEGEN--\":6:448   */\n    tag_35:\n      0x00\n        /* \"--CODEGEN--\":108:111   */\n      dup3\n        /* \"--CODEGEN--\":101:105   */\n      0x1f\n        /* \"--CODEGEN--\":93:99   */\n      dup4\n        /* \"--CODEGEN--\":89:106   */\n      add\n        /* \"--CODEGEN--\":85:112   */\n      slt\n        /* \"--CODEGEN--\":75:77   */\n      tag_37\n      jumpi\n        /* \"--CODEGEN--\":126:127   */\n      0x00\n        /* \"--CODEGEN--\":123:124   */\n      dup1\n        /* \"--CODEGEN--\":116:128   */\n      revert\n        /* \"--CODEGEN--\":75:77   */\n    tag_37:\n        /* \"--CODEGEN--\":163:169   */\n      dup2\n        /* \"--CODEGEN--\":150:170   */\n      calldataload\n        /* \"--CODEGEN--\":185:250   */\n      tag_38\n        /* \"--CODEGEN--\":200:249   */\n      tag_39\n        /* \"--CODEGEN--\":242:248   */\n      dup3\n        /* \"--CODEGEN--\":200:249   */\n      jump(tag_40)\n    tag_39:\n        /* \"--CODEGEN--\":185:250   */\n      jump(tag_41)\n    tag_38:\n        /* \"--CODEGEN--\":176:250   */\n      swap2\n      pop\n        /* \"--CODEGEN--\":270:276   */\n      dup1\n        /* \"--CODEGEN--\":263:268   */\n      dup3\n        /* \"--CODEGEN--\":256:277   */\n      mstore\n        /* \"--CODEGEN--\":306:310   */\n      0x20\n        /* \"--CODEGEN--\":298:304   */\n      dup4\n        /* \"--CODEGEN--\":294:311   */\n      add\n        /* \"--CODEGEN--\":339:343   */\n      0x20\n        /* \"--CODEGEN--\":332:337   */\n      dup4\n        /* \"--CODEGEN--\":328:344   */\n      add\n        /* \"--CODEGEN--\":374:377   */\n      dup6\n        /* \"--CODEGEN--\":365:371   */\n      dup4\n        /* \"--CODEGEN--\":360:363   */\n      dup4\n        /* \"--CODEGEN--\":356:372   */\n      add\n        /* \"--CODEGEN--\":353:378   */\n      gt\n        /* \"--CODEGEN--\":350:352   */\n      iszero\n      tag_42\n      jumpi\n        /* \"--CODEGEN--\":391:392   */\n      0x00\n        /* \"--CODEGEN--\":388:389   */\n      dup1\n        /* \"--CODEGEN--\":381:393   */\n      revert\n        /* \"--CODEGEN--\":350:352   */\n    tag_42:\n        /* \"--CODEGEN--\":401:442   */\n      tag_43\n        /* \"--CODEGEN--\":435:441   */\n      dup4\n        /* \"--CODEGEN--\":430:433   */\n      dup3\n        /* \"--CODEGEN--\":425:428   */\n      dup5\n        /* \"--CODEGEN--\":401:442   */\n      jump(tag_44)\n    tag_43:\n        /* \"--CODEGEN--\":68:448   */\n      pop\n      pop\n      pop\n      swap3\n      swap2\n      pop\n      pop\n      jump\n        /* \"--CODEGEN--\":456:586   */\n    tag_45:\n      0x00\n        /* \"--CODEGEN--\":536:542   */\n      dup2\n        /* \"--CODEGEN--\":523:543   */\n      calldataload\n        /* \"--CODEGEN--\":514:543   */\n      swap1\n      pop\n        /* \"--CODEGEN--\":548:581   */\n      tag_47\n        /* \"--CODEGEN--\":575:580   */\n      dup2\n        /* \"--CODEGEN--\":548:581   */\n      jump(tag_48)\n    tag_47:\n        /* \"--CODEGEN--\":508:586   */\n      swap3\n      swap2\n      pop\n      pop\n      jump\n        /* \"--CODEGEN--\":593:1402   */\n    tag_19:\n      0x00\n      dup1\n      0x00\n        /* \"--CODEGEN--\":761:763   */\n      0x60\n        /* \"--CODEGEN--\":749:758   */\n      dup5\n        /* \"--CODEGEN--\":740:747   */\n      dup7\n        /* \"--CODEGEN--\":736:759   */\n      sub\n        /* \"--CODEGEN--\":732:764   */\n      slt\n        /* \"--CODEGEN--\":729:731   */\n      iszero\n      tag_50\n      jumpi\n        /* \"--CODEGEN--\":777:778   */\n      0x00\n        /* \"--CODEGEN--\":774:775   */\n      dup1\n        /* \"--CODEGEN--\":767:779   */\n      revert\n        /* \"--CODEGEN--\":729:731   */\n    tag_50:\n        /* \"--CODEGEN--\":840:841   */\n      0x00\n        /* \"--CODEGEN--\":829:838   */\n      dup5\n        /* \"--CODEGEN--\":825:842   */\n      add\n        /* \"--CODEGEN--\":812:843   */\n      calldataload\n        /* \"--CODEGEN--\":863:881   */\n      0xffffffffffffffff\n        /* \"--CODEGEN--\":855:861   */\n      dup2\n        /* \"--CODEGEN--\":852:882   */\n      gt\n        /* \"--CODEGEN--\":849:851   */\n      iszero\n      tag_51\n      jumpi\n        /* \"--CODEGEN--\":895:896   */\n      0x00\n        /* \"--CODEGEN--\":892:893   */\n      dup1\n        /* \"--CODEGEN--\":885:897   */\n      revert\n        /* \"--CODEGEN--\":849:851   */\n    tag_51:\n        /* \"--CODEGEN--\":915:978   */\n      tag_52\n        /* \"--CODEGEN--\":970:977   */\n      dup7\n        /* \"--CODEGEN--\":961:967   */\n      dup3\n        /* \"--CODEGEN--\":950:959   */\n      dup8\n        /* \"--CODEGEN--\":946:968   */\n      add\n        /* \"--CODEGEN--\":915:978   */\n      jump(tag_35)\n    tag_52:\n        /* \"--CODEGEN--\":905:978   */\n      swap4\n      pop\n        /* \"--CODEGEN--\":791:984   */\n      pop\n        /* \"--CODEGEN--\":1043:1045   */\n      0x20\n        /* \"--CODEGEN--\":1032:1041   */\n      dup5\n        /* \"--CODEGEN--\":1028:1046   */\n      add\n        /* \"--CODEGEN--\":1015:1047   */\n      calldataload\n        /* \"--CODEGEN--\":1067:1085   */\n      0xffffffffffffffff\n        /* \"--CODEGEN--\":1059:1065   */\n      dup2\n        /* \"--CODEGEN--\":1056:1086   */\n      gt\n        /* \"--CODEGEN--\":1053:1055   */\n      iszero\n      tag_53\n      jumpi\n        /* \"--CODEGEN--\":1099:1100   */\n      0x00\n        /* \"--CODEGEN--\":1096:1097   */\n      dup1\n        /* \"--CODEGEN--\":1089:1101   */\n      revert\n        /* \"--CODEGEN--\":1053:1055   */\n    tag_53:\n        /* \"--CODEGEN--\":1119:1182   */\n      tag_54\n        /* \"--CODEGEN--\":1174:1181   */\n      dup7\n        /* \"--CODEGEN--\":1165:1171   */\n      dup3\n        /* \"--CODEGEN--\":1154:1163   */\n      dup8\n        /* \"--CODEGEN--\":1150:1172   */\n      add\n        /* \"--CODEGEN--\":1119:1182   */\n      jump(tag_35)\n    tag_54:\n        /* \"--CODEGEN--\":1109:1182   */\n      swap3\n      pop\n        /* \"--CODEGEN--\":994:1188   */\n      pop\n        /* \"--CODEGEN--\":1247:1249   */\n      0x40\n        /* \"--CODEGEN--\":1236:1245   */\n      dup5\n        /* \"--CODEGEN--\":1232:1250   */\n      add\n        /* \"--CODEGEN--\":1219:1251   */\n      calldataload\n        /* \"--CODEGEN--\":1271:1289   */\n      0xffffffffffffffff\n        /* \"--CODEGEN--\":1263:1269   */\n      dup2\n        /* \"--CODEGEN--\":1260:1290   */\n      gt\n        /* \"--CODEGEN--\":1257:1259   */\n      iszero\n      tag_55\n      jumpi\n        /* \"--CODEGEN--\":1303:1304   */\n      0x00\n        /* \"--CODEGEN--\":1300:1301   */\n      dup1\n        /* \"--CODEGEN--\":1293:1305   */\n      revert\n        /* \"--CODEGEN--\":1257:1259   */\n    tag_55:\n        /* \"--CODEGEN--\":1323:1386   */\n      tag_56\n        /* \"--CODEGEN--\":1378:1385   */\n      dup7\n        /* \"--CODEGEN--\":1369:1375   */\n      dup3\n        /* \"--CODEGEN--\":1358:1367   */\n      dup8\n        /* \"--CODEGEN--\":1354:1376   */\n      add\n        /* \"--CODEGEN--\":1323:1386   */\n      jump(tag_35)\n    tag_56:\n        /* \"--CODEGEN--\":1313:1386   */\n      swap2\n      pop\n        /* \"--CODEGEN--\":1198:1392   */\n      pop\n        /* \"--CODEGEN--\":723:1402   */\n      swap3\n      pop\n      swap3\n      pop\n      swap3\n      jump\n        /* \"--CODEGEN--\":1409:1650   */\n    tag_13:\n      0x00\n        /* \"--CODEGEN--\":1513:1515   */\n      0x20\n        /* \"--CODEGEN--\":1501:1510   */\n      dup3\n        /* \"--CODEGEN--\":1492:1499   */\n      dup5\n        /* \"--CODEGEN--\":1488:1511   */\n      sub\n        /* \"--CODEGEN--\":1484:1516   */\n      slt\n        /* \"--CODEGEN--\":1481:1483   */\n      iszero\n      tag_58\n      jumpi\n        /* \"--CODEGEN--\":1529:1530   */\n      0x00\n        /* \"--CODEGEN--\":1526:1527   */\n      dup1\n        /* \"--CODEGEN--\":1519:1531   */\n      revert\n        /* \"--CODEGEN--\":1481:1483   */\n    tag_58:\n        /* \"--CODEGEN--\":1564:1565   */\n      0x00\n        /* \"--CODEGEN--\":1581:1634   */\n      tag_59\n        /* \"--CODEGEN--\":1626:1633   */\n      dup5\n        /* \"--CODEGEN--\":1617:1623   */\n      dup3\n        /* \"--CODEGEN--\":1606:1615   */\n      dup6\n        /* \"--CODEGEN--\":1602:1624   */\n      add\n        /* \"--CODEGEN--\":1581:1634   */\n      jump(tag_45)\n    tag_59:\n        /* \"--CODEGEN--\":1571:1634   */\n      swap2\n      pop\n        /* \"--CODEGEN--\":1543:1640   */\n      pop\n        /* \"--CODEGEN--\":1475:1650   */\n      swap3\n      swap2\n      pop\n      pop\n      jump\n        /* \"--CODEGEN--\":1658:1831   */\n    tag_60:\n      0x00\n        /* \"--CODEGEN--\":1745:1791   */\n      tag_62\n        /* \"--CODEGEN--\":1787:1790   */\n      dup4\n        /* \"--CODEGEN--\":1779:1785   */\n      dup4\n        /* \"--CODEGEN--\":1745:1791   */\n      jump(tag_63)\n    tag_62:\n        /* \"--CODEGEN--\":1820:1824   */\n      0x20\n        /* \"--CODEGEN--\":1815:1818   */\n      dup4\n        /* \"--CODEGEN--\":1811:1825   */\n      add\n        /* \"--CODEGEN--\":1797:1825   */\n      swap1\n      pop\n        /* \"--CODEGEN--\":1738:1831   */\n      swap3\n      swap2\n      pop\n      pop\n      jump\n        /* \"--CODEGEN--\":1839:1981   */\n    tag_64:\n        /* \"--CODEGEN--\":1930:1975   */\n      tag_66\n        /* \"--CODEGEN--\":1969:1974   */\n      dup2\n        /* \"--CODEGEN--\":1930:1975   */\n      jump(tag_67)\n    tag_66:\n        /* \"--CODEGEN--\":1925:1928   */\n      dup3\n        /* \"--CODEGEN--\":1918:1976   */\n      mstore\n        /* \"--CODEGEN--\":1912:1981   */\n      pop\n      pop\n      jump\n        /* \"--CODEGEN--\":1988:2091   */\n    tag_63:\n        /* \"--CODEGEN--\":2061:2085   */\n      tag_69\n        /* \"--CODEGEN--\":2079:2084   */\n      dup2\n        /* \"--CODEGEN--\":2061:2085   */\n      jump(tag_70)\n    tag_69:\n        /* \"--CODEGEN--\":2056:2059   */\n      dup3\n        /* \"--CODEGEN--\":2049:2086   */\n      mstore\n        /* \"--CODEGEN--\":2043:2091   */\n      pop\n      pop\n      jump\n        /* \"--CODEGEN--\":2098:2211   */\n    tag_71:\n        /* \"--CODEGEN--\":2181:2205   */\n      tag_73\n        /* \"--CODEGEN--\":2199:2204   */\n      dup2\n        /* \"--CODEGEN--\":2181:2205   */\n      jump(tag_70)\n    tag_73:\n        /* \"--CODEGEN--\":2176:2179   */\n      dup3\n        /* \"--CODEGEN--\":2169:2206   */\n      mstore\n        /* \"--CODEGEN--\":2163:2211   */\n      pop\n      pop\n      jump\n        /* \"--CODEGEN--\":2249:2939   */\n    tag_74:\n      0x00\n        /* \"--CODEGEN--\":2394:2448   */\n      tag_76\n        /* \"--CODEGEN--\":2442:2447   */\n      dup3\n        /* \"--CODEGEN--\":2394:2448   */\n      jump(tag_77)\n    tag_76:\n        /* \"--CODEGEN--\":2461:2547   */\n      tag_78\n        /* \"--CODEGEN--\":2540:2546   */\n      dup2\n        /* \"--CODEGEN--\":2535:2538   */\n      dup6\n        /* \"--CODEGEN--\":2461:2547   */\n      jump(tag_79)\n    tag_78:\n        /* \"--CODEGEN--\":2454:2547   */\n      swap4\n      pop\n        /* \"--CODEGEN--\":2568:2624   */\n      tag_80\n        /* \"--CODEGEN--\":2618:2623   */\n      dup4\n        /* \"--CODEGEN--\":2568:2624   */\n      jump(tag_81)\n    tag_80:\n        /* \"--CODEGEN--\":2644:2651   */\n      dup1\n        /* \"--CODEGEN--\":2672:2673   */\n      0x00\n        /* \"--CODEGEN--\":2657:2917   */\n    tag_82:\n        /* \"--CODEGEN--\":2682:2688   */\n      dup4\n        /* \"--CODEGEN--\":2679:2680   */\n      dup2\n        /* \"--CODEGEN--\":2676:2689   */\n      lt\n        /* \"--CODEGEN--\":2657:2917   */\n      iszero\n      tag_84\n      jumpi\n        /* \"--CODEGEN--\":2749:2755   */\n      dup2\n        /* \"--CODEGEN--\":2743:2756   */\n      mload\n        /* \"--CODEGEN--\":2770:2833   */\n      tag_85\n        /* \"--CODEGEN--\":2829:2832   */\n      dup9\n        /* \"--CODEGEN--\":2814:2827   */\n      dup3\n        /* \"--CODEGEN--\":2770:2833   */\n      jump(tag_60)\n    tag_85:\n        /* \"--CODEGEN--\":2763:2833   */\n      swap8\n      pop\n        /* \"--CODEGEN--\":2850:2910   */\n      tag_86\n        /* \"--CODEGEN--\":2903:2909   */\n      dup4\n        /* \"--CODEGEN--\":2850:2910   */\n      jump(tag_87)\n    tag_86:\n        /* \"--CODEGEN--\":2840:2910   */\n      swap3\n      pop\n        /* \"--CODEGEN--\":2714:2917   */\n      pop\n        /* \"--CODEGEN--\":2704:2705   */\n      0x01\n        /* \"--CODEGEN--\":2701:2702   */\n      dup2\n        /* \"--CODEGEN--\":2697:2706   */\n      add\n        /* \"--CODEGEN--\":2692:2706   */\n      swap1\n      pop\n        /* \"--CODEGEN--\":2657:2917   */\n      jump(tag_82)\n    tag_84:\n        /* \"--CODEGEN--\":2661:2675   */\n      pop\n        /* \"--CODEGEN--\":2930:2933   */\n      dup6\n        /* \"--CODEGEN--\":2923:2933   */\n      swap4\n      pop\n        /* \"--CODEGEN--\":2373:2939   */\n      pop\n      pop\n      pop\n      swap3\n      swap2\n      pop\n      pop\n      jump\n        /* \"--CODEGEN--\":2947:3294   */\n    tag_88:\n      0x00\n        /* \"--CODEGEN--\":3059:3098   */\n      tag_90\n        /* \"--CODEGEN--\":3092:3097   */\n      dup3\n        /* \"--CODEGEN--\":3059:3098   */\n      jump(tag_91)\n    tag_90:\n        /* \"--CODEGEN--\":3110:3181   */\n      tag_92\n        /* \"--CODEGEN--\":3174:3180   */\n      dup2\n        /* \"--CODEGEN--\":3169:3172   */\n      dup6\n        /* \"--CODEGEN--\":3110:3181   */\n      jump(tag_93)\n    tag_92:\n        /* \"--CODEGEN--\":3103:3181   */\n      swap4\n      pop\n        /* \"--CODEGEN--\":3186:3238   */\n      tag_94\n        /* \"--CODEGEN--\":3231:3237   */\n      dup2\n        /* \"--CODEGEN--\":3226:3229   */\n      dup6\n        /* \"--CODEGEN--\":3219:3223   */\n      0x20\n        /* \"--CODEGEN--\":3212:3217   */\n      dup7\n        /* \"--CODEGEN--\":3208:3224   */\n      add\n        /* \"--CODEGEN--\":3186:3238   */\n      jump(tag_95)\n    tag_94:\n        /* \"--CODEGEN--\":3259:3288   */\n      tag_96\n        /* \"--CODEGEN--\":3281:3287   */\n      dup2\n        /* \"--CODEGEN--\":3259:3288   */\n      jump(tag_97)\n    tag_96:\n        /* \"--CODEGEN--\":3254:3257   */\n      dup5\n        /* \"--CODEGEN--\":3250:3289   */\n      add\n        /* \"--CODEGEN--\":3243:3289   */\n      swap2\n      pop\n        /* \"--CODEGEN--\":3039:3294   */\n      pop\n      swap3\n      swap2\n      pop\n      pop\n      jump\n        /* \"--CODEGEN--\":3301:3514   */\n    tag_16:\n      0x00\n        /* \"--CODEGEN--\":3419:3421   */\n      0x20\n        /* \"--CODEGEN--\":3408:3417   */\n      dup3\n        /* \"--CODEGEN--\":3404:3422   */\n      add\n        /* \"--CODEGEN--\":3396:3422   */\n      swap1\n      pop\n        /* \"--CODEGEN--\":3433:3504   */\n      tag_99\n        /* \"--CODEGEN--\":3501:3502   */\n      0x00\n        /* \"--CODEGEN--\":3490:3499   */\n      dup4\n        /* \"--CODEGEN--\":3486:3503   */\n      add\n        /* \"--CODEGEN--\":3477:3483   */\n      dup5\n        /* \"--CODEGEN--\":3433:3504   */\n      jump(tag_71)\n    tag_99:\n        /* \"--CODEGEN--\":3390:3514   */\n      swap3\n      swap2\n      pop\n      pop\n      jump\n        /* \"--CODEGEN--\":3521:3882   */\n    tag_9:\n      0x00\n        /* \"--CODEGEN--\":3689:3691   */\n      0x20\n        /* \"--CODEGEN--\":3678:3687   */\n      dup3\n        /* \"--CODEGEN--\":3674:3692   */\n      add\n        /* \"--CODEGEN--\":3666:3692   */\n      swap1\n      pop\n        /* \"--CODEGEN--\":3739:3748   */\n      dup2\n        /* \"--CODEGEN--\":3733:3737   */\n      dup2\n        /* \"--CODEGEN--\":3729:3749   */\n      sub\n        /* \"--CODEGEN--\":3725:3726   */\n      0x00\n        /* \"--CODEGEN--\":3714:3723   */\n      dup4\n        /* \"--CODEGEN--\":3710:3727   */\n      add\n        /* \"--CODEGEN--\":3703:3750   */\n      mstore\n        /* \"--CODEGEN--\":3764:3872   */\n      tag_101\n        /* \"--CODEGEN--\":3867:3871   */\n      dup2\n        /* \"--CODEGEN--\":3858:3864   */\n      dup5\n        /* \"--CODEGEN--\":3764:3872   */\n      jump(tag_74)\n    tag_101:\n        /* \"--CODEGEN--\":3756:3872   */\n      swap1\n      pop\n        /* \"--CODEGEN--\":3660:3882   */\n      swap3\n      swap2\n      pop\n      pop\n      jump\n        /* \"--CODEGEN--\":3889:4716   */\n    tag_31:\n      0x00\n        /* \"--CODEGEN--\":4159:4162   */\n      0x80\n        /* \"--CODEGEN--\":4148:4157   */\n      dup3\n        /* \"--CODEGEN--\":4144:4163   */\n      add\n        /* \"--CODEGEN--\":4136:4163   */\n      swap1\n      pop\n        /* \"--CODEGEN--\":4210:4219   */\n      dup2\n        /* \"--CODEGEN--\":4204:4208   */\n      dup2\n        /* \"--CODEGEN--\":4200:4220   */\n      sub\n        /* \"--CODEGEN--\":4196:4197   */\n      0x00\n        /* \"--CODEGEN--\":4185:4194   */\n      dup4\n        /* \"--CODEGEN--\":4181:4198   */\n      add\n        /* \"--CODEGEN--\":4174:4221   */\n      mstore\n        /* \"--CODEGEN--\":4235:4313   */\n      tag_103\n        /* \"--CODEGEN--\":4308:4312   */\n      dup2\n        /* \"--CODEGEN--\":4299:4305   */\n      dup8\n        /* \"--CODEGEN--\":4235:4313   */\n      jump(tag_88)\n    tag_103:\n        /* \"--CODEGEN--\":4227:4313   */\n      swap1\n      pop\n        /* \"--CODEGEN--\":4324:4404   */\n      tag_104\n        /* \"--CODEGEN--\":4400:4402   */\n      0x20\n        /* \"--CODEGEN--\":4389:4398   */\n      dup4\n        /* \"--CODEGEN--\":4385:4403   */\n      add\n        /* \"--CODEGEN--\":4376:4382   */\n      dup7\n        /* \"--CODEGEN--\":4324:4404   */\n      jump(tag_64)\n    tag_104:\n        /* \"--CODEGEN--\":4452:4461   */\n      dup2\n        /* \"--CODEGEN--\":4446:4450   */\n      dup2\n        /* \"--CODEGEN--\":4442:4462   */\n      sub\n        /* \"--CODEGEN--\":4437:4439   */\n      0x40\n        /* \"--CODEGEN--\":4426:4435   */\n      dup4\n        /* \"--CODEGEN--\":4422:4440   */\n      add\n        /* \"--CODEGEN--\":4415:4463   */\n      mstore\n        /* \"--CODEGEN--\":4477:4555   */\n      tag_105\n        /* \"--CODEGEN--\":4550:4554   */\n      dup2\n        /* \"--CODEGEN--\":4541:4547   */\n      dup6\n        /* \"--CODEGEN--\":4477:4555   */\n      jump(tag_88)\n    tag_105:\n        /* \"--CODEGEN--\":4469:4555   */\n      swap1\n      pop\n        /* \"--CODEGEN--\":4603:4612   */\n      dup2\n        /* \"--CODEGEN--\":4597:4601   */\n      dup2\n        /* \"--CODEGEN--\":4593:4613   */\n      sub\n        /* \"--CODEGEN--\":4588:4590   */\n      0x60\n        /* \"--CODEGEN--\":4577:4586   */\n      dup4\n        /* \"--CODEGEN--\":4573:4591   */\n      add\n        /* \"--CODEGEN--\":4566:4614   */\n      mstore\n        /* \"--CODEGEN--\":4628:4706   */\n      tag_106\n        /* \"--CODEGEN--\":4701:4705   */\n      dup2\n        /* \"--CODEGEN--\":4692:4698   */\n      dup5\n        /* \"--CODEGEN--\":4628:4706   */\n      jump(tag_88)\n    tag_106:\n        /* \"--CODEGEN--\":4620:4706   */\n      swap1\n      pop\n        /* \"--CODEGEN--\":4130:4716   */\n      swap6\n      swap5\n      pop\n      pop\n      pop\n      pop\n      pop\n      jump\n        /* \"--CODEGEN--\":4723:4979   */\n    tag_41:\n      0x00\n        /* \"--CODEGEN--\":4785:4787   */\n      0x40\n        /* \"--CODEGEN--\":4779:4788   */\n      mload\n        /* \"--CODEGEN--\":4769:4788   */\n      swap1\n      pop\n        /* \"--CODEGEN--\":4823:4827   */\n      dup2\n        /* \"--CODEGEN--\":4815:4821   */\n      dup2\n        /* \"--CODEGEN--\":4811:4828   */\n      add\n        /* \"--CODEGEN--\":4922:4928   */\n      dup2\n        /* \"--CODEGEN--\":4910:4920   */\n      dup2\n        /* \"--CODEGEN--\":4907:4929   */\n      lt\n        /* \"--CODEGEN--\":4886:4904   */\n      0xffffffffffffffff\n        /* \"--CODEGEN--\":4874:4884   */\n      dup3\n        /* \"--CODEGEN--\":4871:4905   */\n      gt\n        /* \"--CODEGEN--\":4868:4930   */\n      or\n        /* \"--CODEGEN--\":4865:4867   */\n      iszero\n      tag_108\n      jumpi\n        /* \"--CODEGEN--\":4943:4944   */\n      0x00\n        /* \"--CODEGEN--\":4940:4941   */\n      dup1\n        /* \"--CODEGEN--\":4933:4945   */\n      revert\n        /* \"--CODEGEN--\":4865:4867   */\n    tag_108:\n        /* \"--CODEGEN--\":4963:4973   */\n      dup1\n        /* \"--CODEGEN--\":4959:4961   */\n      0x40\n        /* \"--CODEGEN--\":4952:4974   */\n      mstore\n        /* \"--CODEGEN--\":4763:4979   */\n      pop\n      swap2\n      swap1\n      pop\n      jump\n        /* \"--CODEGEN--\":4986:5308   */\n    tag_40:\n      0x00\n        /* \"--CODEGEN--\":5130:5148   */\n      0xffffffffffffffff\n        /* \"--CODEGEN--\":5122:5128   */\n      dup3\n        /* \"--CODEGEN--\":5119:5149   */\n      gt\n        /* \"--CODEGEN--\":5116:5118   */\n      iszero\n      tag_110\n      jumpi\n        /* \"--CODEGEN--\":5162:5163   */\n      0x00\n        /* \"--CODEGEN--\":5159:5160   */\n      dup1\n        /* \"--CODEGEN--\":5152:5164   */\n      revert\n        /* \"--CODEGEN--\":5116:5118   */\n    tag_110:\n        /* \"--CODEGEN--\":5229:5233   */\n      0x1f\n        /* \"--CODEGEN--\":5225:5234   */\n      not\n        /* \"--CODEGEN--\":5218:5222   */\n      0x1f\n        /* \"--CODEGEN--\":5210:5216   */\n      dup4\n        /* \"--CODEGEN--\":5206:5223   */\n      add\n        /* \"--CODEGEN--\":5202:5235   */\n      and\n        /* \"--CODEGEN--\":5194:5235   */\n      swap1\n      pop\n        /* \"--CODEGEN--\":5293:5297   */\n      0x20\n        /* \"--CODEGEN--\":5287:5291   */\n      dup2\n        /* \"--CODEGEN--\":5283:5298   */\n      add\n        /* \"--CODEGEN--\":5275:5298   */\n      swap1\n      pop\n        /* \"--CODEGEN--\":5053:5308   */\n      swap2\n      swap1\n      pop\n      jump\n        /* \"--CODEGEN--\":5315:5466   */\n    tag_81:\n      0x00\n        /* \"--CODEGEN--\":5401:5404   */\n      dup2\n        /* \"--CODEGEN--\":5393:5404   */\n      swap1\n      pop\n        /* \"--CODEGEN--\":5439:5443   */\n      0x20\n        /* \"--CODEGEN--\":5434:5437   */\n      dup3\n        /* \"--CODEGEN--\":5430:5444   */\n      add\n        /* \"--CODEGEN--\":5422:5444   */\n      swap1\n      pop\n        /* \"--CODEGEN--\":5387:5466   */\n      swap2\n      swap1\n      pop\n      jump\n        /* \"--CODEGEN--\":5473:5610   */\n    tag_77:\n      0x00\n        /* \"--CODEGEN--\":5582:5587   */\n      dup2\n        /* \"--CODEGEN--\":5576:5588   */\n      mload\n        /* \"--CODEGEN--\":5566:5588   */\n      swap1\n      pop\n        /* \"--CODEGEN--\":5547:5610   */\n      swap2\n      swap1\n      pop\n      jump\n        /* \"--CODEGEN--\":5617:5739   */\n    tag_91:\n      0x00\n        /* \"--CODEGEN--\":5711:5716   */\n      dup2\n        /* \"--CODEGEN--\":5705:5717   */\n      mload\n        /* \"--CODEGEN--\":5695:5717   */\n      swap1\n      pop\n        /* \"--CODEGEN--\":5676:5739   */\n      swap2\n      swap1\n      pop\n      jump\n        /* \"--CODEGEN--\":5746:5854   */\n    tag_87:\n      0x00\n        /* \"--CODEGEN--\":5844:5848   */\n      0x20\n        /* \"--CODEGEN--\":5839:5842   */\n      dup3\n        /* \"--CODEGEN--\":5835:5849   */\n      add\n        /* \"--CODEGEN--\":5827:5849   */\n      swap1\n      pop\n        /* \"--CODEGEN--\":5821:5854   */\n      swap2\n      swap1\n      pop\n      jump\n        /* \"--CODEGEN--\":5862:6040   */\n    tag_79:\n      0x00\n        /* \"--CODEGEN--\":5992:5998   */\n      dup3\n        /* \"--CODEGEN--\":5987:5990   */\n      dup3\n        /* \"--CODEGEN--\":5980:5999   */\n      mstore\n        /* \"--CODEGEN--\":6029:6033   */\n      0x20\n        /* \"--CODEGEN--\":6024:6027   */\n      dup3\n        /* \"--CODEGEN--\":6020:6034   */\n      add\n        /* \"--CODEGEN--\":6005:6034   */\n      swap1\n      pop\n        /* \"--CODEGEN--\":5973:6040   */\n      swap3\n      swap2\n      pop\n      pop\n      jump\n        /* \"--CODEGEN--\":6049:6212   */\n    tag_93:\n      0x00\n        /* \"--CODEGEN--\":6164:6170   */\n      dup3\n        /* \"--CODEGEN--\":6159:6162   */\n      dup3\n        /* \"--CODEGEN--\":6152:6171   */\n      mstore\n        /* \"--CODEGEN--\":6201:6205   */\n      0x20\n        /* \"--CODEGEN--\":6196:6199   */\n      dup3\n        /* \"--CODEGEN--\":6192:6206   */\n      add\n        /* \"--CODEGEN--\":6177:6206   */\n      swap1\n      pop\n        /* \"--CODEGEN--\":6145:6212   */\n      swap3\n      swap2\n      pop\n      pop\n      jump\n        /* \"--CODEGEN--\":6220:6311   */\n    tag_70:\n      0x00\n        /* \"--CODEGEN--\":6282:6306   */\n      tag_118\n        /* \"--CODEGEN--\":6300:6305   */\n      dup3\n        /* \"--CODEGEN--\":6282:6306   */\n      jump(tag_119)\n    tag_118:\n        /* \"--CODEGEN--\":6271:6306   */\n      swap1\n      pop\n        /* \"--CODEGEN--\":6265:6311   */\n      swap2\n      swap1\n      pop\n      jump\n        /* \"--CODEGEN--\":6318:6439   */\n    tag_119:\n      0x00\n        /* \"--CODEGEN--\":6391:6433   */\n      0xffffffffffffffffffffffffffffffffffffffff\n        /* \"--CODEGEN--\":6384:6389   */\n      dup3\n        /* \"--CODEGEN--\":6380:6434   */\n      and\n        /* \"--CODEGEN--\":6369:6434   */\n      swap1\n      pop\n        /* \"--CODEGEN--\":6363:6439   */\n      swap2\n      swap1\n      pop\n      jump\n        /* \"--CODEGEN--\":6446:6518   */\n    tag_121:\n      0x00\n        /* \"--CODEGEN--\":6508:6513   */\n      dup2\n        /* \"--CODEGEN--\":6497:6513   */\n      swap1\n      pop\n        /* \"--CODEGEN--\":6491:6518   */\n      swap2\n      swap1\n      pop\n      jump\n        /* \"--CODEGEN--\":6525:6654   */\n    tag_67:\n      0x00\n        /* \"--CODEGEN--\":6612:6649   */\n      tag_124\n        /* \"--CODEGEN--\":6643:6648   */\n      dup3\n        /* \"--CODEGEN--\":6612:6649   */\n      jump(tag_125)\n    tag_124:\n        /* \"--CODEGEN--\":6599:6649   */\n      swap1\n      pop\n        /* \"--CODEGEN--\":6593:6654   */\n      swap2\n      swap1\n      pop\n      jump\n        /* \"--CODEGEN--\":6661:6782   */\n    tag_125:\n      0x00\n        /* \"--CODEGEN--\":6740:6777   */\n      tag_127\n        /* \"--CODEGEN--\":6771:6776   */\n      dup3\n        /* \"--CODEGEN--\":6740:6777   */\n      jump(tag_128)\n    tag_127:\n        /* \"--CODEGEN--\":6727:6777   */\n      swap1\n      pop\n        /* \"--CODEGEN--\":6721:6782   */\n      swap2\n      swap1\n      pop\n      jump\n        /* \"--CODEGEN--\":6789:6897   */\n    tag_128:\n      0x00\n        /* \"--CODEGEN--\":6868:6892   */\n      tag_130\n        /* \"--CODEGEN--\":6886:6891   */\n      dup3\n        /* \"--CODEGEN--\":6868:6892   */\n      jump(tag_119)\n    tag_130:\n        /* \"--CODEGEN--\":6855:6892   */\n      swap1\n      pop\n        /* \"--CODEGEN--\":6849:6897   */\n      swap2\n      swap1\n      pop\n      jump\n        /* \"--CODEGEN--\":6905:7050   */\n    tag_44:\n        /* \"--CODEGEN--\":6986:6992   */\n      dup3\n        /* \"--CODEGEN--\":6981:6984   */\n      dup2\n        /* \"--CODEGEN--\":6976:6979   */\n      dup4\n        /* \"--CODEGEN--\":6963:6993   */\n      calldatacopy\n        /* \"--CODEGEN--\":7042:7043   */\n      0x00\n        /* \"--CODEGEN--\":7033:7039   */\n      dup4\n        /* \"--CODEGEN--\":7028:7031   */\n      dup4\n        /* \"--CODEGEN--\":7024:7040   */\n      add\n        /* \"--CODEGEN--\":7017:7044   */\n      mstore\n        /* \"--CODEGEN--\":6956:7050   */\n      pop\n      pop\n      pop\n      jump\n        /* \"--CODEGEN--\":7059:7327   */\n    tag_95:\n        /* \"--CODEGEN--\":7124:7125   */\n      0x00\n        /* \"--CODEGEN--\":7131:7232   */\n    tag_133:\n        /* \"--CODEGEN--\":7145:7151   */\n      dup4\n        /* \"--CODEGEN--\":7142:7143   */\n      dup2\n        /* \"--CODEGEN--\":7139:7152   */\n      lt\n        /* \"--CODEGEN--\":7131:7232   */\n      iszero\n      tag_135\n      jumpi\n        /* \"--CODEGEN--\":7221:7222   */\n      dup1\n        /* \"--CODEGEN--\":7216:7219   */\n      dup3\n        /* \"--CODEGEN--\":7212:7223   */\n      add\n        /* \"--CODEGEN--\":7206:7224   */\n      mload\n        /* \"--CODEGEN--\":7202:7203   */\n      dup2\n        /* \"--CODEGEN--\":7197:7200   */\n      dup5\n        /* \"--CODEGEN--\":7193:7204   */\n      add\n        /* \"--CODEGEN--\":7186:7225   */\n      mstore\n        /* \"--CODEGEN--\":7167:7169   */\n      0x20\n        /* \"--CODEGEN--\":7164:7165   */\n      dup2\n        /* \"--CODEGEN--\":7160:7170   */\n      add\n        /* \"--CODEGEN--\":7155:7170   */\n      swap1\n      pop\n        /* \"--CODEGEN--\":7131:7232   */\n      jump(tag_133)\n    tag_135:\n        /* \"--CODEGEN--\":7247:7253   */\n      dup4\n        /* \"--CODEGEN--\":7244:7245   */\n      dup2\n        /* \"--CODEGEN--\":7241:7254   */\n      gt\n        /* \"--CODEGEN--\":7238:7240   */\n      iszero\n      tag_136\n      jumpi\n        /* \"--CODEGEN--\":7312:7313   */\n      0x00\n        /* \"--CODEGEN--\":7303:7309   */\n      dup5\n        /* \"--CODEGEN--\":7298:7301   */\n      dup5\n        /* \"--CODEGEN--\":7294:7310   */\n      add\n        /* \"--CODEGEN--\":7287:7314   */\n      mstore\n        /* \"--CODEGEN--\":7238:7240   */\n    tag_136:\n        /* \"--CODEGEN--\":7108:7327   */\n      pop\n      pop\n      pop\n      pop\n      jump\n        /* \"--CODEGEN--\":7335:7432   */\n    tag_97:\n      0x00\n        /* \"--CODEGEN--\":7423:7425   */\n      0x1f\n        /* \"--CODEGEN--\":7419:7426   */\n      not\n        /* \"--CODEGEN--\":7414:7416   */\n      0x1f\n        /* \"--CODEGEN--\":7407:7412   */\n      dup4\n        /* \"--CODEGEN--\":7403:7417   */\n      add\n        /* \"--CODEGEN--\":7399:7427   */\n      and\n        /* \"--CODEGEN--\":7389:7427   */\n      swap1\n      pop\n        /* \"--CODEGEN--\":7383:7432   */\n      swap2\n      swap1\n      pop\n      jump\n        /* \"--CODEGEN--\":7440:7557   */\n    tag_48:\n        /* \"--CODEGEN--\":7509:7533   */\n      tag_139\n        /* \"--CODEGEN--\":7527:7532   */\n      dup2\n        /* \"--CODEGEN--\":7509:7533   */\n      jump(tag_121)\n    tag_139:\n        /* \"--CODEGEN--\":7502:7507   */\n      dup2\n        /* \"--CODEGEN--\":7499:7534   */\n      eq\n        /* \"--CODEGEN--\":7489:7491   */\n      tag_140\n      jumpi\n        /* \"--CODEGEN--\":7548:7549   */\n      0x00\n        /* \"--CODEGEN--\":7545:7546   */\n      dup1\n        /* \"--CODEGEN--\":7538:7550   */\n      revert\n        /* \"--CODEGEN--\":7489:7491   */\n    tag_140:\n        /* \"--CODEGEN--\":7483:7557   */\n      pop\n      jump\n    stop\n\n    sub_0: assembly {\n            /* \"Rubics\":1210:5927  contract Seller is GSNRecipientUpgradeSafe {\r... */\n          mstore(0x40, 0x80)\n            /* \"Rubics\":2044:2539  constructor(\r... */\n          mload(0x40)\n          sub(codesize, bytecodeSize)\n          dup1\n          bytecodeSize\n          dup4\n          codecopy\n          dup2\n          dup2\n          add\n          0x40\n          mstore\n          tag_1\n          swap2\n          swap1\n          dup2\n          add\n          swap1\n          jump(tag_2)\n        tag_1:\n            /* \"Rubics\":2329:2339  sellerName */\n          dup4\n            /* \"Rubics\":2315:2326  seller_name */\n          0x99\n            /* \"Rubics\":2315:2339  seller_name = sellerName */\n          swap1\n          dup1\n          mload\n          swap1\n          0x20\n          add\n          swap1\n          tag_5\n          swap3\n          swap2\n          swap1\n          tag_6\n          jump\t// in\n        tag_5:\n          pop\n            /* \"Rubics\":2430:2443  sellerAddress */\n          dup3\n            /* \"Rubics\":2413:2427  seller_address */\n          0x98\n          0x00\n            /* \"Rubics\":2413:2443  seller_address = sellerAddress */\n          0x0100\n          exp\n          dup2\n          sload\n          dup2\n          0xffffffffffffffffffffffffffffffffffffffff\n          mul\n          not\n          and\n          swap1\n          dup4\n          0xffffffffffffffffffffffffffffffffffffffff\n          and\n          mul\n          or\n          swap1\n          sstore\n          pop\n            /* \"Rubics\":2469:2480  sellerPhone */\n          dup2\n            /* \"Rubics\":2454:2466  seller_phone */\n          0x9a\n            /* \"Rubics\":2454:2480  seller_phone = sellerPhone */\n          swap1\n          dup1\n          mload\n          swap1\n          0x20\n          add\n          swap1\n          tag_7\n          swap3\n          swap2\n          swap1\n          tag_6\n          jump\t// in\n        tag_7:\n          pop\n            /* \"Rubics\":2513:2531  sellerBuisnessName */\n          dup1\n            /* \"Rubics\":2491:2510  seller_buisnessName */\n          0x9b\n            /* \"Rubics\":2491:2531  seller_buisnessName = sellerBuisnessName */\n          swap1\n          dup1\n          mload\n          swap1\n          0x20\n          add\n          swap1\n          tag_8\n          swap3\n          swap2\n          swap1\n          tag_6\n          jump\t// in\n        tag_8:\n          pop\n            /* \"Rubics\":2044:2539  constructor(\r... */\n          pop\n          pop\n          pop\n          pop\n            /* \"Rubics\":1210:5927  contract Seller is GSNRecipientUpgradeSafe {\r... */\n          jump(tag_9)\n        tag_6:\n          dup3\n          dup1\n          sload\n          0x01\n          dup2\n          0x01\n          and\n          iszero\n          0x0100\n          mul\n          sub\n          and\n          0x02\n          swap1\n          div\n          swap1\n          0x00\n          mstore\n          keccak256(0x00, 0x20)\n          swap1\n          0x1f\n          add\n          0x20\n          swap1\n          div\n          dup2\n          add\n          swap3\n          dup3\n          0x1f\n          lt\n          tag_11\n          jumpi\n          dup1\n          mload\n          not(0xff)\n          and\n          dup4\n          dup1\n          add\n          or\n          dup6\n          sstore\n          jump(tag_10)\n        tag_11:\n          dup3\n          dup1\n          add\n          0x01\n          add\n          dup6\n          sstore\n          dup3\n          iszero\n          tag_10\n          jumpi\n          swap2\n          dup3\n          add\n        tag_12:\n          dup3\n          dup2\n          gt\n          iszero\n          tag_13\n          jumpi\n          dup3\n          mload\n          dup3\n          sstore\n          swap2\n          0x20\n          add\n          swap2\n          swap1\n          0x01\n          add\n          swap1\n          jump(tag_12)\n        tag_13:\n        tag_10:\n          pop\n          swap1\n          pop\n          tag_14\n          swap2\n          swap1\n          tag_15\n          jump\t// in\n        tag_14:\n          pop\n          swap1\n          jump\t// out\n        tag_15:\n          tag_16\n          swap2\n          swap1\n        tag_17:\n          dup1\n          dup3\n          gt\n          iszero\n          tag_18\n          jumpi\n          0x00\n          dup2\n          0x00\n          swap1\n          sstore\n          pop\n          0x01\n          add\n          jump(tag_17)\n        tag_18:\n          pop\n          swap1\n          jump\n        tag_16:\n          swap1\n          jump\t// out\n            /* \"--CODEGEN--\":5:139   */\n        tag_20:\n          0x00\n            /* \"--CODEGEN--\":89:95   */\n          dup2\n            /* \"--CODEGEN--\":83:96   */\n          mload\n            /* \"--CODEGEN--\":74:96   */\n          swap1\n          pop\n            /* \"--CODEGEN--\":101:134   */\n          tag_22\n            /* \"--CODEGEN--\":128:133   */\n          dup2\n            /* \"--CODEGEN--\":101:134   */\n          jump(tag_23)\n        tag_22:\n            /* \"--CODEGEN--\":68:139   */\n          swap3\n          swap2\n          pop\n          pop\n          jump\n            /* \"--CODEGEN--\":147:591   */\n        tag_24:\n          0x00\n            /* \"--CODEGEN--\":260:263   */\n          dup3\n            /* \"--CODEGEN--\":253:257   */\n          0x1f\n            /* \"--CODEGEN--\":245:251   */\n          dup4\n            /* \"--CODEGEN--\":241:258   */\n          add\n            /* \"--CODEGEN--\":237:264   */\n          slt\n            /* \"--CODEGEN--\":227:229   */\n          tag_26\n          jumpi\n            /* \"--CODEGEN--\":278:279   */\n          0x00\n            /* \"--CODEGEN--\":275:276   */\n          dup1\n            /* \"--CODEGEN--\":268:280   */\n          revert\n            /* \"--CODEGEN--\":227:229   */\n        tag_26:\n            /* \"--CODEGEN--\":308:314   */\n          dup2\n            /* \"--CODEGEN--\":302:315   */\n          mload\n            /* \"--CODEGEN--\":330:395   */\n          tag_27\n            /* \"--CODEGEN--\":345:394   */\n          tag_28\n            /* \"--CODEGEN--\":387:393   */\n          dup3\n            /* \"--CODEGEN--\":345:394   */\n          jump(tag_29)\n        tag_28:\n            /* \"--CODEGEN--\":330:395   */\n          jump(tag_30)\n        tag_27:\n            /* \"--CODEGEN--\":321:395   */\n          swap2\n          pop\n            /* \"--CODEGEN--\":415:421   */\n          dup1\n            /* \"--CODEGEN--\":408:413   */\n          dup3\n            /* \"--CODEGEN--\":401:422   */\n          mstore\n            /* \"--CODEGEN--\":451:455   */\n          0x20\n            /* \"--CODEGEN--\":443:449   */\n          dup4\n            /* \"--CODEGEN--\":439:456   */\n          add\n            /* \"--CODEGEN--\":484:488   */\n          0x20\n            /* \"--CODEGEN--\":477:482   */\n          dup4\n            /* \"--CODEGEN--\":473:489   */\n          add\n            /* \"--CODEGEN--\":519:522   */\n          dup6\n            /* \"--CODEGEN--\":510:516   */\n          dup4\n            /* \"--CODEGEN--\":505:508   */\n          dup4\n            /* \"--CODEGEN--\":501:517   */\n          add\n            /* \"--CODEGEN--\":498:523   */\n          gt\n            /* \"--CODEGEN--\":495:497   */\n          iszero\n          tag_31\n          jumpi\n            /* \"--CODEGEN--\":536:537   */\n          0x00\n            /* \"--CODEGEN--\":533:534   */\n          dup1\n            /* \"--CODEGEN--\":526:538   */\n          revert\n            /* \"--CODEGEN--\":495:497   */\n        tag_31:\n            /* \"--CODEGEN--\":546:585   */\n          tag_32\n            /* \"--CODEGEN--\":578:584   */\n          dup4\n            /* \"--CODEGEN--\":573:576   */\n          dup3\n            /* \"--CODEGEN--\":568:571   */\n          dup5\n            /* \"--CODEGEN--\":546:585   */\n          jump(tag_33)\n        tag_32:\n            /* \"--CODEGEN--\":220:591   */\n          pop\n          pop\n          pop\n          swap3\n          swap2\n          pop\n          pop\n          jump\n            /* \"--CODEGEN--\":599:1568   */\n        tag_2:\n          0x00\n          dup1\n          0x00\n          dup1\n            /* \"--CODEGEN--\":795:798   */\n          0x80\n            /* \"--CODEGEN--\":783:792   */\n          dup6\n            /* \"--CODEGEN--\":774:781   */\n          dup8\n            /* \"--CODEGEN--\":770:793   */\n          sub\n            /* \"--CODEGEN--\":766:799   */\n          slt\n            /* \"--CODEGEN--\":763:765   */\n          iszero\n          tag_35\n          jumpi\n            /* \"--CODEGEN--\":812:813   */\n          0x00\n            /* \"--CODEGEN--\":809:810   */\n          dup1\n            /* \"--CODEGEN--\":802:814   */\n          revert\n            /* \"--CODEGEN--\":763:765   */\n        tag_35:\n            /* \"--CODEGEN--\":868:869   */\n          0x00\n            /* \"--CODEGEN--\":857:866   */\n          dup6\n            /* \"--CODEGEN--\":853:870   */\n          add\n            /* \"--CODEGEN--\":847:871   */\n          mload\n            /* \"--CODEGEN--\":891:909   */\n          0xffffffffffffffff\n            /* \"--CODEGEN--\":883:889   */\n          dup2\n            /* \"--CODEGEN--\":880:910   */\n          gt\n            /* \"--CODEGEN--\":877:879   */\n          iszero\n          tag_36\n          jumpi\n            /* \"--CODEGEN--\":923:924   */\n          0x00\n            /* \"--CODEGEN--\":920:921   */\n          dup1\n            /* \"--CODEGEN--\":913:925   */\n          revert\n            /* \"--CODEGEN--\":877:879   */\n        tag_36:\n            /* \"--CODEGEN--\":943:1017   */\n          tag_37\n            /* \"--CODEGEN--\":1009:1016   */\n          dup8\n            /* \"--CODEGEN--\":1000:1006   */\n          dup3\n            /* \"--CODEGEN--\":989:998   */\n          dup9\n            /* \"--CODEGEN--\":985:1007   */\n          add\n            /* \"--CODEGEN--\":943:1017   */\n          jump(tag_24)\n        tag_37:\n            /* \"--CODEGEN--\":933:1017   */\n          swap5\n          pop\n            /* \"--CODEGEN--\":826:1023   */\n          pop\n            /* \"--CODEGEN--\":1054:1056   */\n          0x20\n            /* \"--CODEGEN--\":1072:1136   */\n          tag_38\n            /* \"--CODEGEN--\":1128:1135   */\n          dup8\n            /* \"--CODEGEN--\":1119:1125   */\n          dup3\n            /* \"--CODEGEN--\":1108:1117   */\n          dup9\n            /* \"--CODEGEN--\":1104:1126   */\n          add\n            /* \"--CODEGEN--\":1072:1136   */\n          jump(tag_20)\n        tag_38:\n            /* \"--CODEGEN--\":1062:1136   */\n          swap4\n          pop\n            /* \"--CODEGEN--\":1033:1142   */\n          pop\n            /* \"--CODEGEN--\":1194:1196   */\n          0x40\n            /* \"--CODEGEN--\":1183:1192   */\n          dup6\n            /* \"--CODEGEN--\":1179:1197   */\n          add\n            /* \"--CODEGEN--\":1173:1198   */\n          mload\n            /* \"--CODEGEN--\":1218:1236   */\n          0xffffffffffffffff\n            /* \"--CODEGEN--\":1210:1216   */\n          dup2\n            /* \"--CODEGEN--\":1207:1237   */\n          gt\n            /* \"--CODEGEN--\":1204:1206   */\n          iszero\n          tag_39\n          jumpi\n            /* \"--CODEGEN--\":1250:1251   */\n          0x00\n            /* \"--CODEGEN--\":1247:1248   */\n          dup1\n            /* \"--CODEGEN--\":1240:1252   */\n          revert\n            /* \"--CODEGEN--\":1204:1206   */\n        tag_39:\n            /* \"--CODEGEN--\":1270:1344   */\n          tag_40\n            /* \"--CODEGEN--\":1336:1343   */\n          dup8\n            /* \"--CODEGEN--\":1327:1333   */\n          dup3\n            /* \"--CODEGEN--\":1316:1325   */\n          dup9\n            /* \"--CODEGEN--\":1312:1334   */\n          add\n            /* \"--CODEGEN--\":1270:1344   */\n          jump(tag_24)\n        tag_40:\n            /* \"--CODEGEN--\":1260:1344   */\n          swap3\n          pop\n            /* \"--CODEGEN--\":1152:1350   */\n          pop\n            /* \"--CODEGEN--\":1402:1404   */\n          0x60\n            /* \"--CODEGEN--\":1391:1400   */\n          dup6\n            /* \"--CODEGEN--\":1387:1405   */\n          add\n            /* \"--CODEGEN--\":1381:1406   */\n          mload\n            /* \"--CODEGEN--\":1426:1444   */\n          0xffffffffffffffff\n            /* \"--CODEGEN--\":1418:1424   */\n          dup2\n            /* \"--CODEGEN--\":1415:1445   */\n          gt\n            /* \"--CODEGEN--\":1412:1414   */\n          iszero\n          tag_41\n          jumpi\n            /* \"--CODEGEN--\":1458:1459   */\n          0x00\n            /* \"--CODEGEN--\":1455:1456   */\n          dup1\n            /* \"--CODEGEN--\":1448:1460   */\n          revert\n            /* \"--CODEGEN--\":1412:1414   */\n        tag_41:\n            /* \"--CODEGEN--\":1478:1552   */\n          tag_42\n            /* \"--CODEGEN--\":1544:1551   */\n          dup8\n            /* \"--CODEGEN--\":1535:1541   */\n          dup3\n            /* \"--CODEGEN--\":1524:1533   */\n          dup9\n            /* \"--CODEGEN--\":1520:1542   */\n          add\n            /* \"--CODEGEN--\":1478:1552   */\n          jump(tag_24)\n        tag_42:\n            /* \"--CODEGEN--\":1468:1552   */\n          swap2\n          pop\n            /* \"--CODEGEN--\":1360:1558   */\n          pop\n            /* \"--CODEGEN--\":757:1568   */\n          swap3\n          swap6\n          swap2\n          swap5\n          pop\n          swap3\n          pop\n          jump\n            /* \"--CODEGEN--\":1575:1831   */\n        tag_30:\n          0x00\n            /* \"--CODEGEN--\":1637:1639   */\n          0x40\n            /* \"--CODEGEN--\":1631:1640   */\n          mload\n            /* \"--CODEGEN--\":1621:1640   */\n          swap1\n          pop\n            /* \"--CODEGEN--\":1675:1679   */\n          dup2\n            /* \"--CODEGEN--\":1667:1673   */\n          dup2\n            /* \"--CODEGEN--\":1663:1680   */\n          add\n            /* \"--CODEGEN--\":1774:1780   */\n          dup2\n            /* \"--CODEGEN--\":1762:1772   */\n          dup2\n            /* \"--CODEGEN--\":1759:1781   */\n          lt\n            /* \"--CODEGEN--\":1738:1756   */\n          0xffffffffffffffff\n            /* \"--CODEGEN--\":1726:1736   */\n          dup3\n            /* \"--CODEGEN--\":1723:1757   */\n          gt\n            /* \"--CODEGEN--\":1720:1782   */\n          or\n            /* \"--CODEGEN--\":1717:1719   */\n          iszero\n          tag_44\n          jumpi\n            /* \"--CODEGEN--\":1795:1796   */\n          0x00\n            /* \"--CODEGEN--\":1792:1793   */\n          dup1\n            /* \"--CODEGEN--\":1785:1797   */\n          revert\n            /* \"--CODEGEN--\":1717:1719   */\n        tag_44:\n            /* \"--CODEGEN--\":1815:1825   */\n          dup1\n            /* \"--CODEGEN--\":1811:1813   */\n          0x40\n            /* \"--CODEGEN--\":1804:1826   */\n          mstore\n            /* \"--CODEGEN--\":1615:1831   */\n          pop\n          swap2\n          swap1\n          pop\n          jump\n            /* \"--CODEGEN--\":1838:2160   */\n        tag_29:\n          0x00\n            /* \"--CODEGEN--\":1982:2000   */\n          0xffffffffffffffff\n            /* \"--CODEGEN--\":1974:1980   */\n          dup3\n            /* \"--CODEGEN--\":1971:2001   */\n          gt\n            /* \"--CODEGEN--\":1968:1970   */\n          iszero\n          tag_46\n          jumpi\n            /* \"--CODEGEN--\":2014:2015   */\n          0x00\n            /* \"--CODEGEN--\":2011:2012   */\n          dup1\n            /* \"--CODEGEN--\":2004:2016   */\n          revert\n            /* \"--CODEGEN--\":1968:1970   */\n        tag_46:\n            /* \"--CODEGEN--\":2081:2085   */\n          0x1f\n            /* \"--CODEGEN--\":2077:2086   */\n          not\n            /* \"--CODEGEN--\":2070:2074   */\n          0x1f\n            /* \"--CODEGEN--\":2062:2068   */\n          dup4\n            /* \"--CODEGEN--\":2058:2075   */\n          add\n            /* \"--CODEGEN--\":2054:2087   */\n          and\n            /* \"--CODEGEN--\":2046:2087   */\n          swap1\n          pop\n            /* \"--CODEGEN--\":2145:2149   */\n          0x20\n            /* \"--CODEGEN--\":2139:2143   */\n          dup2\n            /* \"--CODEGEN--\":2135:2150   */\n          add\n            /* \"--CODEGEN--\":2127:2150   */\n          swap1\n          pop\n            /* \"--CODEGEN--\":1905:2160   */\n          swap2\n          swap1\n          pop\n          jump\n            /* \"--CODEGEN--\":2167:2258   */\n        tag_47:\n          0x00\n            /* \"--CODEGEN--\":2229:2253   */\n          tag_49\n            /* \"--CODEGEN--\":2247:2252   */\n          dup3\n            /* \"--CODEGEN--\":2229:2253   */\n          jump(tag_50)\n        tag_49:\n            /* \"--CODEGEN--\":2218:2253   */\n          swap1\n          pop\n            /* \"--CODEGEN--\":2212:2258   */\n          swap2\n          swap1\n          pop\n          jump\n            /* \"--CODEGEN--\":2265:2386   */\n        tag_50:\n          0x00\n            /* \"--CODEGEN--\":2338:2380   */\n          0xffffffffffffffffffffffffffffffffffffffff\n            /* \"--CODEGEN--\":2331:2336   */\n          dup3\n            /* \"--CODEGEN--\":2327:2381   */\n          and\n            /* \"--CODEGEN--\":2316:2381   */\n          swap1\n          pop\n            /* \"--CODEGEN--\":2310:2386   */\n          swap2\n          swap1\n          pop\n          jump\n            /* \"--CODEGEN--\":2394:2662   */\n        tag_33:\n            /* \"--CODEGEN--\":2459:2460   */\n          0x00\n            /* \"--CODEGEN--\":2466:2567   */\n        tag_53:\n            /* \"--CODEGEN--\":2480:2486   */\n          dup4\n            /* \"--CODEGEN--\":2477:2478   */\n          dup2\n            /* \"--CODEGEN--\":2474:2487   */\n          lt\n            /* \"--CODEGEN--\":2466:2567   */\n          iszero\n          tag_55\n          jumpi\n            /* \"--CODEGEN--\":2556:2557   */\n          dup1\n            /* \"--CODEGEN--\":2551:2554   */\n          dup3\n            /* \"--CODEGEN--\":2547:2558   */\n          add\n            /* \"--CODEGEN--\":2541:2559   */\n          mload\n            /* \"--CODEGEN--\":2537:2538   */\n          dup2\n            /* \"--CODEGEN--\":2532:2535   */\n          dup5\n            /* \"--CODEGEN--\":2528:2539   */\n          add\n            /* \"--CODEGEN--\":2521:2560   */\n          mstore\n            /* \"--CODEGEN--\":2502:2504   */\n          0x20\n            /* \"--CODEGEN--\":2499:2500   */\n          dup2\n            /* \"--CODEGEN--\":2495:2505   */\n          add\n            /* \"--CODEGEN--\":2490:2505   */\n          swap1\n          pop\n            /* \"--CODEGEN--\":2466:2567   */\n          jump(tag_53)\n        tag_55:\n            /* \"--CODEGEN--\":2582:2588   */\n          dup4\n            /* \"--CODEGEN--\":2579:2580   */\n          dup2\n            /* \"--CODEGEN--\":2576:2589   */\n          gt\n            /* \"--CODEGEN--\":2573:2575   */\n          iszero\n          tag_56\n          jumpi\n            /* \"--CODEGEN--\":2647:2648   */\n          0x00\n            /* \"--CODEGEN--\":2638:2644   */\n          dup5\n            /* \"--CODEGEN--\":2633:2636   */\n          dup5\n            /* \"--CODEGEN--\":2629:2645   */\n          add\n            /* \"--CODEGEN--\":2622:2649   */\n          mstore\n            /* \"--CODEGEN--\":2573:2575   */\n        tag_56:\n            /* \"--CODEGEN--\":2443:2662   */\n          pop\n          pop\n          pop\n          pop\n          jump\n            /* \"--CODEGEN--\":2670:2787   */\n        tag_23:\n            /* \"--CODEGEN--\":2739:2763   */\n          tag_58\n            /* \"--CODEGEN--\":2757:2762   */\n          dup2\n            /* \"--CODEGEN--\":2739:2763   */\n          jump(tag_47)\n        tag_58:\n            /* \"--CODEGEN--\":2732:2737   */\n          dup2\n            /* \"--CODEGEN--\":2729:2764   */\n          eq\n            /* \"--CODEGEN--\":2719:2721   */\n          tag_59\n          jumpi\n            /* \"--CODEGEN--\":2778:2779   */\n          0x00\n            /* \"--CODEGEN--\":2775:2776   */\n          dup1\n            /* \"--CODEGEN--\":2768:2780   */\n          revert\n            /* \"--CODEGEN--\":2719:2721   */\n        tag_59:\n            /* \"--CODEGEN--\":2713:2787   */\n          pop\n          jump\n            /* \"Rubics\":1210:5927  contract Seller is GSNRecipientUpgradeSafe {\r... */\n        tag_9:\n          dataSize(sub_0)\n          dup1\n          dataOffset(sub_0)\n          0x00\n          codecopy\n          0x00\n          return\n        stop\n\n        sub_0: assembly {\n                /* \"Rubics\":1210:5927  contract Seller is GSNRecipientUpgradeSafe {\r... */\n              mstore(0x40, 0x80)\n              jumpi(tag_1, lt(calldatasize, 0x04))\n              shr(0xe0, calldataload(0x00))\n              dup1\n              0x95ee3ce0\n              gt\n              tag_17\n              jumpi\n              dup1\n              0xc6a262a0\n              gt\n              tag_18\n              jumpi\n              dup1\n              0xc6a262a0\n              eq\n              tag_13\n              jumpi\n              dup1\n              0xe06e0e22\n              eq\n              tag_14\n              jumpi\n              dup1\n              0xe95f1f3c\n              eq\n              tag_15\n              jumpi\n              dup1\n              0xef271233\n              eq\n              tag_16\n              jumpi\n              jump(tag_1)\n            tag_18:\n              dup1\n              0x95ee3ce0\n              eq\n              tag_9\n              jumpi\n              dup1\n              0xabeea531\n              eq\n              tag_10\n              jumpi\n              dup1\n              0xad61ccd5\n              eq\n              tag_11\n              jumpi\n              dup1\n              0xbd93610d\n              eq\n              tag_12\n              jumpi\n              jump(tag_1)\n            tag_17:\n              dup1\n              0x74e861d6\n              gt\n              tag_19\n              jumpi\n              dup1\n              0x74e861d6\n              eq\n              tag_5\n              jumpi\n              dup1\n              0x80274db7\n              eq\n              tag_6\n              jumpi\n              dup1\n              0x83947ea0\n              eq\n              tag_7\n              jumpi\n              dup1\n              0x875c1d9c\n              eq\n              tag_8\n              jumpi\n              jump(tag_1)\n            tag_19:\n              dup1\n              0x07877cff\n              eq\n              tag_2\n              jumpi\n              dup1\n              0x0a795662\n              eq\n              tag_3\n              jumpi\n              dup1\n              0x2986c0e5\n              eq\n              tag_4\n              jumpi\n            tag_1:\n              0x00\n              dup1\n              revert\n                /* \"Rubics\":4116:4614  function createProduct(\r... */\n            tag_2:\n              callvalue\n                /* \"--CODEGEN--\":8:17   */\n              dup1\n                /* \"--CODEGEN--\":5:7   */\n              iszero\n              tag_20\n              jumpi\n                /* \"--CODEGEN--\":30:31   */\n              0x00\n                /* \"--CODEGEN--\":27:28   */\n              dup1\n                /* \"--CODEGEN--\":20:32   */\n              revert\n                /* \"--CODEGEN--\":5:7   */\n            tag_20:\n                /* \"Rubics\":4116:4614  function createProduct(\r... */\n              pop\n              tag_21\n              0x04\n              dup1\n              calldatasize\n              sub\n              tag_22\n              swap2\n              swap1\n              dup2\n              add\n              swap1\n              jump(tag_23)\n            tag_22:\n              tag_24\n              jump\t// in\n            tag_21:\n              stop\n                /* \"Rubics\":1985:2035  mapping(address => OrdersAdmin) public ordersAdmin */\n            tag_3:\n              callvalue\n                /* \"--CODEGEN--\":8:17   */\n              dup1\n                /* \"--CODEGEN--\":5:7   */\n              iszero\n              tag_25\n              jumpi\n                /* \"--CODEGEN--\":30:31   */\n              0x00\n                /* \"--CODEGEN--\":27:28   */\n              dup1\n                /* \"--CODEGEN--\":20:32   */\n              revert\n                /* \"--CODEGEN--\":5:7   */\n            tag_25:\n                /* \"Rubics\":1985:2035  mapping(address => OrdersAdmin) public ordersAdmin */\n              pop\n              tag_26\n              0x04\n              dup1\n              calldatasize\n              sub\n              tag_27\n              swap2\n              swap1\n              dup2\n              add\n              swap1\n              jump(tag_28)\n            tag_27:\n              tag_29\n              jump\t// in\n            tag_26:\n              mload(0x40)\n              tag_30\n              swap7\n              swap6\n              swap5\n              swap4\n              swap3\n              swap2\n              swap1\n              jump(tag_31)\n            tag_30:\n              mload(0x40)\n              dup1\n              swap2\n              sub\n              swap1\n              return\n                /* \"Rubics\":1914:1934  uint256 public index */\n            tag_4:\n              callvalue\n                /* \"--CODEGEN--\":8:17   */\n              dup1\n                /* \"--CODEGEN--\":5:7   */\n              iszero\n              tag_32\n              jumpi\n                /* \"--CODEGEN--\":30:31   */\n              0x00\n                /* \"--CODEGEN--\":27:28   */\n              dup1\n                /* \"--CODEGEN--\":20:32   */\n              revert\n                /* \"--CODEGEN--\":5:7   */\n            tag_32:\n                /* \"Rubics\":1914:1934  uint256 public index */\n              pop\n              tag_33\n              tag_34\n              jump\t// in\n            tag_33:\n              mload(0x40)\n              tag_35\n              swap2\n              swap1\n              jump(tag_36)\n            tag_35:\n              mload(0x40)\n              dup1\n              swap2\n              sub\n              swap1\n              return\n                /* \"@openzeppelin/contracts-ethereum-package/contracts/GSN/GSNRecipient.sol\":1725:1819   */\n            tag_5:\n              callvalue\n                /* \"--CODEGEN--\":8:17   */\n              dup1\n                /* \"--CODEGEN--\":5:7   */\n              iszero\n              tag_37\n              jumpi\n                /* \"--CODEGEN--\":30:31   */\n              0x00\n                /* \"--CODEGEN--\":27:28   */\n              dup1\n                /* \"--CODEGEN--\":20:32   */\n              revert\n                /* \"--CODEGEN--\":5:7   */\n            tag_37:\n                /* \"@openzeppelin/contracts-ethereum-package/contracts/GSN/GSNRecipient.sol\":1725:1819   */\n              pop\n              tag_38\n              tag_39\n              jump\t// in\n            tag_38:\n              mload(0x40)\n              tag_40\n              swap2\n              swap1\n              jump(tag_41)\n            tag_40:\n              mload(0x40)\n              dup1\n              swap2\n              sub\n              swap1\n              return\n                /* \"@openzeppelin/contracts-ethereum-package/contracts/GSN/GSNRecipient.sol\":5361:5582   */\n            tag_6:\n              callvalue\n                /* \"--CODEGEN--\":8:17   */\n              dup1\n                /* \"--CODEGEN--\":5:7   */\n              iszero\n              tag_42\n              jumpi\n                /* \"--CODEGEN--\":30:31   */\n              0x00\n                /* \"--CODEGEN--\":27:28   */\n              dup1\n                /* \"--CODEGEN--\":20:32   */\n              revert\n                /* \"--CODEGEN--\":5:7   */\n            tag_42:\n                /* \"@openzeppelin/contracts-ethereum-package/contracts/GSN/GSNRecipient.sol\":5361:5582   */\n              pop\n              tag_43\n              0x04\n              dup1\n              calldatasize\n              sub\n              tag_44\n              swap2\n              swap1\n              dup2\n              add\n              swap1\n              jump(tag_45)\n            tag_44:\n              tag_46\n              jump\t// in\n            tag_43:\n              mload(0x40)\n              tag_47\n              swap2\n              swap1\n              jump(tag_48)\n            tag_47:\n              mload(0x40)\n              dup1\n              swap2\n              sub\n              swap1\n              return\n                /* \"Rubics\":4657:5417  function acceptRelayedCall(\r... */\n            tag_7:\n              callvalue\n                /* \"--CODEGEN--\":8:17   */\n              dup1\n                /* \"--CODEGEN--\":5:7   */\n              iszero\n              tag_49\n              jumpi\n                /* \"--CODEGEN--\":30:31   */\n              0x00\n                /* \"--CODEGEN--\":27:28   */\n              dup1\n                /* \"--CODEGEN--\":20:32   */\n              revert\n                /* \"--CODEGEN--\":5:7   */\n            tag_49:\n                /* \"Rubics\":4657:5417  function acceptRelayedCall(\r... */\n              pop\n              tag_50\n              0x04\n              dup1\n              calldatasize\n              sub\n              tag_51\n              swap2\n              swap1\n              dup2\n              add\n              swap1\n              jump(tag_52)\n            tag_51:\n              tag_53\n              jump\t// in\n            tag_50:\n              mload(0x40)\n              tag_54\n              swap3\n              swap2\n              swap1\n              jump(tag_55)\n            tag_54:\n              mload(0x40)\n              dup1\n              swap2\n              sub\n              swap1\n              return\n                /* \"Rubics\":1841:1867  string public seller_phone */\n            tag_8:\n              callvalue\n                /* \"--CODEGEN--\":8:17   */\n              dup1\n                /* \"--CODEGEN--\":5:7   */\n              iszero\n              tag_56\n              jumpi\n                /* \"--CODEGEN--\":30:31   */\n              0x00\n                /* \"--CODEGEN--\":27:28   */\n              dup1\n                /* \"--CODEGEN--\":20:32   */\n              revert\n                /* \"--CODEGEN--\":5:7   */\n            tag_56:\n                /* \"Rubics\":1841:1867  string public seller_phone */\n              pop\n              tag_57\n              tag_58\n              jump\t// in\n            tag_57:\n              mload(0x40)\n              tag_59\n              swap2\n              swap1\n              jump(tag_60)\n            tag_59:\n              mload(0x40)\n              dup1\n              swap2\n              sub\n              swap1\n              return\n                /* \"Rubics\":1773:1802  address public seller_address */\n            tag_9:\n              callvalue\n                /* \"--CODEGEN--\":8:17   */\n              dup1\n                /* \"--CODEGEN--\":5:7   */\n              iszero\n              tag_61\n              jumpi\n                /* \"--CODEGEN--\":30:31   */\n              0x00\n                /* \"--CODEGEN--\":27:28   */\n              dup1\n                /* \"--CODEGEN--\":20:32   */\n              revert\n                /* \"--CODEGEN--\":5:7   */\n            tag_61:\n                /* \"Rubics\":1773:1802  address public seller_address */\n              pop\n              tag_62\n              tag_63\n              jump\t// in\n            tag_62:\n              mload(0x40)\n              tag_64\n              swap2\n              swap1\n              jump(tag_41)\n            tag_64:\n              mload(0x40)\n              dup1\n              swap2\n              sub\n              swap1\n              return\n                /* \"Rubics\":1874:1907  string public seller_buisnessName */\n            tag_10:\n              callvalue\n                /* \"--CODEGEN--\":8:17   */\n              dup1\n                /* \"--CODEGEN--\":5:7   */\n              iszero\n              tag_65\n              jumpi\n                /* \"--CODEGEN--\":30:31   */\n              0x00\n                /* \"--CODEGEN--\":27:28   */\n              dup1\n                /* \"--CODEGEN--\":20:32   */\n              revert\n                /* \"--CODEGEN--\":5:7   */\n            tag_65:\n                /* \"Rubics\":1874:1907  string public seller_buisnessName */\n              pop\n              tag_66\n              tag_67\n              jump\t// in\n            tag_66:\n              mload(0x40)\n              tag_68\n              swap2\n              swap1\n              jump(tag_60)\n            tag_68:\n              mload(0x40)\n              dup1\n              swap2\n              sub\n              swap1\n              return\n                /* \"@openzeppelin/contracts-ethereum-package/contracts/GSN/GSNRecipient.sol\":2973:3200   */\n            tag_11:\n              callvalue\n                /* \"--CODEGEN--\":8:17   */\n              dup1\n                /* \"--CODEGEN--\":5:7   */\n              iszero\n              tag_69\n              jumpi\n                /* \"--CODEGEN--\":30:31   */\n              0x00\n                /* \"--CODEGEN--\":27:28   */\n              dup1\n                /* \"--CODEGEN--\":20:32   */\n              revert\n                /* \"--CODEGEN--\":5:7   */\n            tag_69:\n                /* \"@openzeppelin/contracts-ethereum-package/contracts/GSN/GSNRecipient.sol\":2973:3200   */\n              pop\n              tag_70\n              tag_71\n              jump\t// in\n            tag_70:\n              mload(0x40)\n              tag_72\n              swap2\n              swap1\n              jump(tag_73)\n            tag_72:\n              mload(0x40)\n              dup1\n              swap2\n              sub\n              swap1\n              return\n                /* \"Rubics\":2547:3723  function createOrder(\r... */\n            tag_12:\n              tag_74\n              0x04\n              dup1\n              calldatasize\n              sub\n              tag_75\n              swap2\n              swap1\n              dup2\n              add\n              swap1\n              jump(tag_76)\n            tag_75:\n              tag_77\n              jump\t// in\n            tag_74:\n              stop\n                /* \"Rubics\":3829:4108  function finalizeOrder() public {\r... */\n            tag_13:\n              callvalue\n                /* \"--CODEGEN--\":8:17   */\n              dup1\n                /* \"--CODEGEN--\":5:7   */\n              iszero\n              tag_78\n              jumpi\n                /* \"--CODEGEN--\":30:31   */\n              0x00\n                /* \"--CODEGEN--\":27:28   */\n              dup1\n                /* \"--CODEGEN--\":20:32   */\n              revert\n                /* \"--CODEGEN--\":5:7   */\n            tag_78:\n                /* \"Rubics\":3829:4108  function finalizeOrder() public {\r... */\n              pop\n              tag_79\n              tag_80\n              jump\t// in\n            tag_79:\n              stop\n                /* \"@openzeppelin/contracts-ethereum-package/contracts/GSN/GSNRecipient.sol\":6219:6506   */\n            tag_14:\n              callvalue\n                /* \"--CODEGEN--\":8:17   */\n              dup1\n                /* \"--CODEGEN--\":5:7   */\n              iszero\n              tag_81\n              jumpi\n                /* \"--CODEGEN--\":30:31   */\n              0x00\n                /* \"--CODEGEN--\":27:28   */\n              dup1\n                /* \"--CODEGEN--\":20:32   */\n              revert\n                /* \"--CODEGEN--\":5:7   */\n            tag_81:\n                /* \"@openzeppelin/contracts-ethereum-package/contracts/GSN/GSNRecipient.sol\":6219:6506   */\n              pop\n              tag_82\n              0x04\n              dup1\n              calldatasize\n              sub\n              tag_83\n              swap2\n              swap1\n              dup2\n              add\n              swap1\n              jump(tag_84)\n            tag_83:\n              tag_85\n              jump\t// in\n            tag_82:\n              stop\n                /* \"Rubics\":3731:3821  function getOrdersForAdmin() public view returns (uint256) {\r... */\n            tag_15:\n              callvalue\n                /* \"--CODEGEN--\":8:17   */\n              dup1\n                /* \"--CODEGEN--\":5:7   */\n              iszero\n              tag_86\n              jumpi\n                /* \"--CODEGEN--\":30:31   */\n              0x00\n                /* \"--CODEGEN--\":27:28   */\n              dup1\n                /* \"--CODEGEN--\":20:32   */\n              revert\n                /* \"--CODEGEN--\":5:7   */\n            tag_86:\n                /* \"Rubics\":3731:3821  function getOrdersForAdmin() public view returns (uint256) {\r... */\n              pop\n              tag_87\n              tag_88\n              jump\t// in\n            tag_87:\n              mload(0x40)\n              tag_89\n              swap2\n              swap1\n              jump(tag_36)\n            tag_89:\n              mload(0x40)\n              dup1\n              swap2\n              sub\n              swap1\n              return\n                /* \"Rubics\":1809:1834  string public seller_name */\n            tag_16:\n              callvalue\n                /* \"--CODEGEN--\":8:17   */\n              dup1\n                /* \"--CODEGEN--\":5:7   */\n              iszero\n              tag_90\n              jumpi\n                /* \"--CODEGEN--\":30:31   */\n              0x00\n                /* \"--CODEGEN--\":27:28   */\n              dup1\n                /* \"--CODEGEN--\":20:32   */\n              revert\n                /* \"--CODEGEN--\":5:7   */\n            tag_90:\n                /* \"Rubics\":1809:1834  string public seller_name */\n              pop\n              tag_91\n              tag_92\n              jump\t// in\n            tag_91:\n              mload(0x40)\n              tag_93\n              swap2\n              swap1\n              jump(tag_60)\n            tag_93:\n              mload(0x40)\n              dup1\n              swap2\n              sub\n              swap1\n              return\n                /* \"Rubics\":4116:4614  function createProduct(\r... */\n            tag_24:\n                /* \"Rubics\":4308:4333  ShopProducts shopProducts */\n              0x00\n                /* \"Rubics\":4363:4405  0x117623A2EBB93359967c83dE51360b09CdCb0E03 */\n              0x117623a2ebb93359967c83de51360b09cdcb0e03\n                /* \"Rubics\":4308:4416  ShopProducts shopProducts = ShopProducts(\r... */\n              swap1\n              pop\n                /* \"Rubics\":4427:4439  shopProducts */\n              dup1\n                /* \"Rubics\":4427:4457  shopProducts.createProductItem */\n              0xffffffffffffffffffffffffffffffffffffffff\n              and\n              0x0a97bed0\n                /* \"Rubics\":4480:4484  this */\n              address\n                /* \"Rubics\":4500:4511  productName */\n              dup8\n                /* \"Rubics\":4526:4538  productPrice */\n              dup8\n                /* \"Rubics\":4553:4568  productCategory */\n              dup8\n                /* \"Rubics\":4583:4595  productImage */\n              dup8\n                /* \"Rubics\":4427:4606  shopProducts.createProductItem(\r... */\n              mload(0x40)\n              dup7\n              0xffffffff\n              and\n              0xe0\n              shl\n              dup2\n              mstore\n              0x04\n              add\n              tag_95\n              swap6\n              swap5\n              swap4\n              swap3\n              swap2\n              swap1\n              jump(tag_96)\n            tag_95:\n              0x00\n              mload(0x40)\n              dup1\n              dup4\n              sub\n              dup2\n              0x00\n              dup8\n              dup1\n              extcodesize\n              iszero\n                /* \"--CODEGEN--\":8:17   */\n              dup1\n                /* \"--CODEGEN--\":5:7   */\n              iszero\n              tag_97\n              jumpi\n                /* \"--CODEGEN--\":30:31   */\n              0x00\n                /* \"--CODEGEN--\":27:28   */\n              dup1\n                /* \"--CODEGEN--\":20:32   */\n              revert\n                /* \"--CODEGEN--\":5:7   */\n            tag_97:\n                /* \"Rubics\":4427:4606  shopProducts.createProductItem(\r... */\n              pop\n              gas\n              call\n              iszero\n                /* \"--CODEGEN--\":8:17   */\n              dup1\n                /* \"--CODEGEN--\":5:7   */\n              iszero\n              tag_99\n              jumpi\n                /* \"--CODEGEN--\":45:61   */\n              returndatasize\n                /* \"--CODEGEN--\":42:43   */\n              0x00\n                /* \"--CODEGEN--\":39:40   */\n              dup1\n                /* \"--CODEGEN--\":24:62   */\n              returndatacopy\n                /* \"--CODEGEN--\":77:93   */\n              returndatasize\n                /* \"--CODEGEN--\":74:75   */\n              0x00\n                /* \"--CODEGEN--\":67:94   */\n              revert\n                /* \"--CODEGEN--\":5:7   */\n            tag_99:\n                /* \"Rubics\":4427:4606  shopProducts.createProductItem(\r... */\n              pop\n              pop\n              pop\n              pop\n                /* \"Rubics\":4116:4614  function createProduct(\r... */\n              pop\n              pop\n              pop\n              pop\n              pop\n              jump\t// out\n                /* \"Rubics\":1985:2035  mapping(address => OrdersAdmin) public ordersAdmin */\n            tag_29:\n              mstore(0x20, 0x9d)\n              dup1\n              0x00\n              mstore\n              keccak256(0x00, 0x40)\n              0x00\n              swap2\n              pop\n              swap1\n              pop\n              dup1\n              0x00\n              add\n              0x00\n              swap1\n              sload\n              swap1\n              0x0100\n              exp\n              swap1\n              div\n              0xffffffffffffffffffffffffffffffffffffffff\n              and\n              swap1\n              dup1\n              0x01\n              add\n              dup1\n              sload\n              0x01\n              dup2\n              0x01\n              and\n              iszero\n              0x0100\n              mul\n              sub\n              and\n              0x02\n              swap1\n              div\n              dup1\n              0x1f\n              add\n              0x20\n              dup1\n              swap2\n              div\n              mul\n              0x20\n              add\n              mload(0x40)\n              swap1\n              dup2\n              add\n              0x40\n              mstore\n              dup1\n              swap3\n              swap2\n              swap1\n              dup2\n              dup2\n              mstore\n              0x20\n              add\n              dup3\n              dup1\n              sload\n              0x01\n              dup2\n              0x01\n              and\n              iszero\n              0x0100\n              mul\n              sub\n              and\n              0x02\n              swap1\n              div\n              dup1\n              iszero\n              tag_100\n              jumpi\n              dup1\n              0x1f\n              lt\n              tag_101\n              jumpi\n              0x0100\n              dup1\n              dup4\n              sload\n              div\n              mul\n              dup4\n              mstore\n              swap2\n              0x20\n              add\n              swap2\n              jump(tag_100)\n            tag_101:\n              dup3\n              add\n              swap2\n              swap1\n              0x00\n              mstore\n              keccak256(0x00, 0x20)\n              swap1\n            tag_102:\n              dup2\n              sload\n              dup2\n              mstore\n              swap1\n              0x01\n              add\n              swap1\n              0x20\n              add\n              dup1\n              dup4\n              gt\n              tag_102\n              jumpi\n              dup3\n              swap1\n              sub\n              0x1f\n              and\n              dup3\n              add\n              swap2\n            tag_100:\n              pop\n              pop\n              pop\n              pop\n              pop\n              swap1\n              dup1\n              0x02\n              add\n              dup1\n              sload\n              0x01\n              dup2\n              0x01\n              and\n              iszero\n              0x0100\n              mul\n              sub\n              and\n              0x02\n              swap1\n              div\n              dup1\n              0x1f\n              add\n              0x20\n              dup1\n              swap2\n              div\n              mul\n              0x20\n              add\n              mload(0x40)\n              swap1\n              dup2\n              add\n              0x40\n              mstore\n              dup1\n              swap3\n              swap2\n              swap1\n              dup2\n              dup2\n              mstore\n              0x20\n              add\n              dup3\n              dup1\n              sload\n              0x01\n              dup2\n              0x01\n              and\n              iszero\n              0x0100\n              mul\n              sub\n              and\n              0x02\n              swap1\n              div\n              dup1\n              iszero\n              tag_103\n              jumpi\n              dup1\n              0x1f\n              lt\n              tag_104\n              jumpi\n              0x0100\n              dup1\n              dup4\n              sload\n              div\n              mul\n              dup4\n              mstore\n              swap2\n              0x20\n              add\n              swap2\n              jump(tag_103)\n            tag_104:\n              dup3\n              add\n              swap2\n              swap1\n              0x00\n              mstore\n              keccak256(0x00, 0x20)\n              swap1\n            tag_105:\n              dup2\n              sload\n              dup2\n              mstore\n              swap1\n              0x01\n              add\n              swap1\n              0x20\n              add\n              dup1\n              dup4\n              gt\n              tag_105\n              jumpi\n              dup3\n              swap1\n              sub\n              0x1f\n              and\n              dup3\n              add\n              swap2\n            tag_103:\n              pop\n              pop\n              pop\n              pop\n              pop\n              swap1\n              dup1\n              0x03\n              add\n              dup1\n              sload\n              0x01\n              dup2\n              0x01\n              and\n              iszero\n              0x0100\n              mul\n              sub\n              and\n              0x02\n              swap1\n              div\n              dup1\n              0x1f\n              add\n              0x20\n              dup1\n              swap2\n              div\n              mul\n              0x20\n              add\n              mload(0x40)\n              swap1\n              dup2\n              add\n              0x40\n              mstore\n              dup1\n              swap3\n              swap2\n              swap1\n              dup2\n              dup2\n              mstore\n              0x20\n              add\n              dup3\n              dup1\n              sload\n              0x01\n              dup2\n              0x01\n              and\n              iszero\n              0x0100\n              mul\n              sub\n              and\n              0x02\n              swap1\n              div\n              dup1\n              iszero\n              tag_106\n              jumpi\n              dup1\n              0x1f\n              lt\n              tag_107\n              jumpi\n              0x0100\n              dup1\n              dup4\n              sload\n              div\n              mul\n              dup4\n              mstore\n              swap2\n              0x20\n              add\n              swap2\n              jump(tag_106)\n            tag_107:\n              dup3\n              add\n              swap2\n              swap1\n              0x00\n              mstore\n              keccak256(0x00, 0x20)\n              swap1\n            tag_108:\n              dup2\n              sload\n              dup2\n              mstore\n              swap1\n              0x01\n              add\n              swap1\n              0x20\n              add\n              dup1\n              dup4\n              gt\n              tag_108\n              jumpi\n              dup3\n              swap1\n              sub\n              0x1f\n              and\n              dup3\n              add\n              swap2\n            tag_106:\n              pop\n              pop\n              pop\n              pop\n              pop\n              swap1\n              dup1\n              0x04\n              add\n              sload\n              swap1\n              dup1\n              0x05\n              add\n              0x00\n              swap1\n              sload\n              swap1\n              0x0100\n              exp\n              swap1\n              div\n              0xff\n              and\n              swap1\n              pop\n              dup7\n              jump\t// out\n                /* \"Rubics\":1914:1934  uint256 public index */\n            tag_34:\n              sload(0x9c)\n              dup2\n              jump\t// out\n                /* \"@openzeppelin/contracts-ethereum-package/contracts/GSN/GSNRecipient.sol\":1725:1819   */\n            tag_39:\n                /* \"@openzeppelin/contracts-ethereum-package/contracts/GSN/GSNRecipient.sol\":1777:1784   */\n              0x00\n                /* \"@openzeppelin/contracts-ethereum-package/contracts/GSN/GSNRecipient.sol\":1803:1812   */\n              0x65\n              0x00\n              swap1\n              sload\n              swap1\n              0x0100\n              exp\n              swap1\n              div\n              0xffffffffffffffffffffffffffffffffffffffff\n              and\n                /* \"@openzeppelin/contracts-ethereum-package/contracts/GSN/GSNRecipient.sol\":1796:1812   */\n              swap1\n              pop\n                /* \"@openzeppelin/contracts-ethereum-package/contracts/GSN/GSNRecipient.sol\":1725:1819   */\n              swap1\n              jump\t// out\n                /* \"@openzeppelin/contracts-ethereum-package/contracts/GSN/GSNRecipient.sol\":5361:5582   */\n            tag_46:\n                /* \"@openzeppelin/contracts-ethereum-package/contracts/GSN/GSNRecipient.sol\":5440:5447   */\n              0x00\n                /* \"@openzeppelin/contracts-ethereum-package/contracts/GSN/GSNRecipient.sol\":5481:5493   */\n              tag_111\n                /* \"@openzeppelin/contracts-ethereum-package/contracts/GSN/GSNRecipient.sol\":5481:5491   */\n              tag_39\n                /* \"@openzeppelin/contracts-ethereum-package/contracts/GSN/GSNRecipient.sol\":5481:5493   */\n              jump\t// in\n            tag_111:\n                /* \"@openzeppelin/contracts-ethereum-package/contracts/GSN/GSNRecipient.sol\":5467:5493   */\n              0xffffffffffffffffffffffffffffffffffffffff\n              and\n                /* \"@openzeppelin/contracts-ethereum-package/contracts/GSN/GSNRecipient.sol\":5467:5477   */\n              caller\n                /* \"@openzeppelin/contracts-ethereum-package/contracts/GSN/GSNRecipient.sol\":5467:5493   */\n              0xffffffffffffffffffffffffffffffffffffffff\n              and\n              eq\n                /* \"@openzeppelin/contracts-ethereum-package/contracts/GSN/GSNRecipient.sol\":5459:5534   */\n              tag_112\n              jumpi\n              mload(0x40)\n              0x08c379a000000000000000000000000000000000000000000000000000000000\n              dup2\n              mstore\n              0x04\n              add\n              tag_113\n              swap1\n              jump(tag_114)\n            tag_113:\n              mload(0x40)\n              dup1\n              swap2\n              sub\n              swap1\n              revert\n            tag_112:\n                /* \"@openzeppelin/contracts-ethereum-package/contracts/GSN/GSNRecipient.sol\":5551:5575   */\n              tag_115\n                /* \"@openzeppelin/contracts-ethereum-package/contracts/GSN/GSNRecipient.sol\":5567:5574   */\n              dup3\n                /* \"@openzeppelin/contracts-ethereum-package/contracts/GSN/GSNRecipient.sol\":5551:5566   */\n              tag_116\n                /* \"@openzeppelin/contracts-ethereum-package/contracts/GSN/GSNRecipient.sol\":5551:5575   */\n              jump\t// in\n            tag_115:\n                /* \"@openzeppelin/contracts-ethereum-package/contracts/GSN/GSNRecipient.sol\":5544:5575   */\n              swap1\n              pop\n                /* \"@openzeppelin/contracts-ethereum-package/contracts/GSN/GSNRecipient.sol\":5361:5582   */\n              swap2\n              swap1\n              pop\n              jump\t// out\n                /* \"Rubics\":4657:5417  function acceptRelayedCall(\r... */\n            tag_53:\n                /* \"Rubics\":4996:5003  uint256 */\n              0x00\n                /* \"Rubics\":5005:5017  bytes memory */\n              0x60\n                /* \"Rubics\":5039:5040  0 */\n              0x00\n                /* \"Rubics\":5034:5035  x */\n              sload(0x97)\n                /* \"Rubics\":5034:5040  x == 0 */\n              eq\n                /* \"Rubics\":5030:5410  if (x == 0) {\r... */\n              iszero\n              tag_118\n              jumpi\n                /* \"Rubics\":5064:5085  _approveRelayedCall() */\n              tag_119\n                /* \"Rubics\":5064:5083  _approveRelayedCall */\n              tag_120\n                /* \"Rubics\":5064:5085  _approveRelayedCall() */\n              jump\t// in\n            tag_119:\n                /* \"Rubics\":5057:5085  return _approveRelayedCall() */\n              swap2\n              pop\n              swap2\n              pop\n              jump(tag_117)\n                /* \"Rubics\":5030:5410  if (x == 0) {\r... */\n            tag_118:\n                /* \"Rubics\":5142:5398  _rejectRelayedCall(\r... */\n              tag_122\n                /* \"Rubics\":5217:5356  GSNRecipientSignatureUpgradeSafe\r... */\n              0x00\n                /* \"Rubics\":5183:5379  uint256(\r... */\n              dup1\n              dup2\n              gt\n              iszero\n              tag_123\n              jumpi\n              invalid\n            tag_123:\n                /* \"Rubics\":5142:5160  _rejectRelayedCall */\n              tag_124\n                /* \"Rubics\":5142:5398  _rejectRelayedCall(\r... */\n              jump\t// in\n            tag_122:\n                /* \"Rubics\":5118:5398  return\r... */\n              swap2\n              pop\n              swap2\n              pop\n                /* \"Rubics\":4657:5417  function acceptRelayedCall(\r... */\n            tag_117:\n              swap12\n              pop\n              swap12\n              swap10\n              pop\n              pop\n              pop\n              pop\n              pop\n              pop\n              pop\n              pop\n              pop\n              pop\n              jump\t// out\n                /* \"Rubics\":1841:1867  string public seller_phone */\n            tag_58:\n              0x9a\n              dup1\n              sload\n              0x01\n              dup2\n              0x01\n              and\n              iszero\n              0x0100\n              mul\n              sub\n              and\n              0x02\n              swap1\n              div\n              dup1\n              0x1f\n              add\n              0x20\n              dup1\n              swap2\n              div\n              mul\n              0x20\n              add\n              mload(0x40)\n              swap1\n              dup2\n              add\n              0x40\n              mstore\n              dup1\n              swap3\n              swap2\n              swap1\n              dup2\n              dup2\n              mstore\n              0x20\n              add\n              dup3\n              dup1\n              sload\n              0x01\n              dup2\n              0x01\n              and\n              iszero\n              0x0100\n              mul\n              sub\n              and\n              0x02\n              swap1\n              div\n              dup1\n              iszero\n              tag_125\n              jumpi\n              dup1\n              0x1f\n              lt\n              tag_126\n              jumpi\n              0x0100\n              dup1\n              dup4\n              sload\n              div\n              mul\n              dup4\n              mstore\n              swap2\n              0x20\n              add\n              swap2\n              jump(tag_125)\n            tag_126:\n              dup3\n              add\n              swap2\n              swap1\n              0x00\n              mstore\n              keccak256(0x00, 0x20)\n              swap1\n            tag_127:\n              dup2\n              sload\n              dup2\n              mstore\n              swap1\n              0x01\n              add\n              swap1\n              0x20\n              add\n              dup1\n              dup4\n              gt\n              tag_127\n              jumpi\n              dup3\n              swap1\n              sub\n              0x1f\n              and\n              dup3\n              add\n              swap2\n            tag_125:\n              pop\n              pop\n              pop\n              pop\n              pop\n              dup2\n              jump\t// out\n                /* \"Rubics\":1773:1802  address public seller_address */\n            tag_63:\n              0x98\n              0x00\n              swap1\n              sload\n              swap1\n              0x0100\n              exp\n              swap1\n              div\n              0xffffffffffffffffffffffffffffffffffffffff\n              and\n              dup2\n              jump\t// out\n                /* \"Rubics\":1874:1907  string public seller_buisnessName */\n            tag_67:\n              0x9b\n              dup1\n              sload\n              0x01\n              dup2\n              0x01\n              and\n              iszero\n              0x0100\n              mul\n              sub\n              and\n              0x02\n              swap1\n              div\n              dup1\n              0x1f\n              add\n              0x20\n              dup1\n              swap2\n              div\n              mul\n              0x20\n              add\n              mload(0x40)\n              swap1\n              dup2\n              add\n              0x40\n              mstore\n              dup1\n              swap3\n              swap2\n              swap1\n              dup2\n              dup2\n              mstore\n              0x20\n              add\n              dup3\n              dup1\n              sload\n              0x01\n              dup2\n              0x01\n              and\n              iszero\n              0x0100\n              mul\n              sub\n              and\n              0x02\n              swap1\n              div\n              dup1\n              iszero\n              tag_128\n              jumpi\n              dup1\n              0x1f\n              lt\n              tag_129\n              jumpi\n              0x0100\n              dup1\n              dup4\n              sload\n              div\n              mul\n              dup4\n              mstore\n              swap2\n              0x20\n              add\n              swap2\n              jump(tag_128)\n            tag_129:\n              dup3\n              add\n              swap2\n              swap1\n              0x00\n              mstore\n              keccak256(0x00, 0x20)\n              swap1\n            tag_130:\n              dup2\n              sload\n              dup2\n              mstore\n              swap1\n              0x01\n              add\n              swap1\n              0x20\n              add\n              dup1\n              dup4\n              gt\n              tag_130\n              jumpi\n              dup3\n              swap1\n              sub\n              0x1f\n              and\n              dup3\n              add\n              swap2\n            tag_128:\n              pop\n              pop\n              pop\n              pop\n              pop\n              dup2\n              jump\t// out\n                /* \"@openzeppelin/contracts-ethereum-package/contracts/GSN/GSNRecipient.sol\":2973:3200   */\n            tag_71:\n                /* \"@openzeppelin/contracts-ethereum-package/contracts/GSN/GSNRecipient.sol\":3021:3034   */\n              0x60\n                /* \"@openzeppelin/contracts-ethereum-package/contracts/GSN/GSNRecipient.sol\":3179:3193   */\n              mload(0x40)\n              dup1\n              0x40\n              add\n              0x40\n              mstore\n              dup1\n              0x05\n              dup2\n              mstore\n              0x20\n              add\n              0x312e302e30000000000000000000000000000000000000000000000000000000\n              dup2\n              mstore\n              pop\n              swap1\n              pop\n                /* \"@openzeppelin/contracts-ethereum-package/contracts/GSN/GSNRecipient.sol\":2973:3200   */\n              swap1\n              jump\t// out\n                /* \"Rubics\":2547:3723  function createOrder(\r... */\n            tag_77:\n                /* \"Rubics\":2780:2785  total */\n              dup2\n                /* \"Rubics\":2767:2776  msg.value */\n              callvalue\n                /* \"Rubics\":2767:2785  msg.value == total */\n              eq\n                /* \"Rubics\":2759:2786  require(msg.value == total) */\n              tag_133\n              jumpi\n              0x00\n              dup1\n              revert\n            tag_133:\n                /* \"Rubics\":2801:2802  0 */\n              0x00\n                /* \"Rubics\":2797:2798  x */\n              0x97\n                /* \"Rubics\":2797:2802  x = 0 */\n              dup2\n              swap1\n              sstore\n              pop\n                /* \"Rubics\":2813:2841  OrdersAdmin storage newOrder */\n              0x00\n                /* \"Rubics\":2844:2855  ordersAdmin */\n              0x9d\n                /* \"Rubics\":2844:2867  ordersAdmin[msg.sender] */\n              0x00\n                /* \"Rubics\":2856:2866  msg.sender */\n              caller\n                /* \"Rubics\":2844:2867  ordersAdmin[msg.sender] */\n              0xffffffffffffffffffffffffffffffffffffffff\n              and\n              0xffffffffffffffffffffffffffffffffffffffff\n              and\n              dup2\n              mstore\n              0x20\n              add\n              swap1\n              dup2\n              mstore\n              0x20\n              add\n              0x00\n              keccak256\n                /* \"Rubics\":2813:2867  OrdersAdmin storage newOrder = ordersAdmin[msg.sender] */\n              swap1\n              pop\n                /* \"Rubics\":2905:2915  msg.sender */\n              caller\n                /* \"Rubics\":2878:2886  newOrder */\n              dup2\n                /* \"Rubics\":2878:2902  newOrder.customerAddress */\n              0x00\n              add\n              0x00\n                /* \"Rubics\":2878:2915  newOrder.customerAddress = msg.sender */\n              0x0100\n              exp\n              dup2\n              sload\n              dup2\n              0xffffffffffffffffffffffffffffffffffffffff\n              mul\n              not\n              and\n              swap1\n              dup4\n              0xffffffffffffffffffffffffffffffffffffffff\n              and\n              mul\n              or\n              swap1\n              sstore\n              pop\n                /* \"Rubics\":2949:2960  homeAddress */\n              dup5\n                /* \"Rubics\":2926:2934  newOrder */\n              dup2\n                /* \"Rubics\":2926:2946  newOrder.homeAddress */\n              0x01\n              add\n                /* \"Rubics\":2926:2960  newOrder.homeAddress = homeAddress */\n              swap1\n              dup1\n              mload\n              swap1\n              0x20\n              add\n              swap1\n              tag_134\n              swap3\n              swap2\n              swap1\n              tag_135\n              jump\t// in\n            tag_134:\n              pop\n                /* \"Rubics\":2996:3001  phone */\n              dup6\n                /* \"Rubics\":2971:2979  newOrder */\n              dup2\n                /* \"Rubics\":2971:2993  newOrder.customerPhone */\n              0x02\n              add\n                /* \"Rubics\":2971:3001  newOrder.customerPhone = phone */\n              swap1\n              dup1\n              mload\n              swap1\n              0x20\n              add\n              swap1\n              tag_136\n              swap3\n              swap2\n              swap1\n              tag_135\n              jump\t// in\n            tag_136:\n              pop\n                /* \"Rubics\":3036:3040  name */\n              dup4\n                /* \"Rubics\":3012:3020  newOrder */\n              dup2\n                /* \"Rubics\":3012:3033  newOrder.customerName */\n              0x03\n              add\n                /* \"Rubics\":3012:3040  newOrder.customerName = name */\n              swap1\n              dup1\n              mload\n              swap1\n              0x20\n              add\n              swap1\n              tag_137\n              swap3\n              swap2\n              swap1\n              tag_135\n              jump\t// in\n            tag_137:\n              pop\n                /* \"Rubics\":3072:3077  total */\n              dup3\n                /* \"Rubics\":3051:3059  newOrder */\n              dup2\n                /* \"Rubics\":3051:3069  newOrder.cartTotal */\n              0x04\n              add\n                /* \"Rubics\":3051:3077  newOrder.cartTotal = total */\n              dup2\n              swap1\n              sstore\n              pop\n                /* \"Rubics\":3111:3116  false */\n              0x00\n                /* \"Rubics\":3088:3096  newOrder */\n              dup2\n                /* \"Rubics\":3088:3108  newOrder.isCompleted */\n              0x05\n              add\n              0x00\n                /* \"Rubics\":3088:3116  newOrder.isCompleted = false */\n              0x0100\n              exp\n              dup2\n              sload\n              dup2\n              0xff\n              mul\n              not\n              and\n              swap1\n              dup4\n              iszero\n              iszero\n              mul\n              or\n              swap1\n              sstore\n              pop\n                /* \"Rubics\":3482:3503  OrdersAdmin storage o */\n              0x00\n                /* \"Rubics\":3506:3517  ordersAdmin */\n              0x9d\n                /* \"Rubics\":3506:3529  ordersAdmin[msg.sender] */\n              0x00\n                /* \"Rubics\":3518:3528  msg.sender */\n              caller\n                /* \"Rubics\":3506:3529  ordersAdmin[msg.sender] */\n              0xffffffffffffffffffffffffffffffffffffffff\n              and\n              0xffffffffffffffffffffffffffffffffffffffff\n              and\n              dup2\n              mstore\n              0x20\n              add\n              swap1\n              dup2\n              mstore\n              0x20\n              add\n              0x00\n              keccak256\n                /* \"Rubics\":3482:3529  OrdersAdmin storage o = ordersAdmin[msg.sender] */\n              swap1\n              pop\n                /* \"Rubics\":3548:3554  orders */\n              dup3\n                /* \"Rubics\":3548:3561  orders.length */\n              mload\n                /* \"Rubics\":3540:3545  index */\n              0x9c\n                /* \"Rubics\":3540:3561  index = orders.length */\n              dup2\n              swap1\n              sstore\n              pop\n                /* \"Rubics\":3579:3588  uint256 i */\n              0x00\n                /* \"Rubics\":3591:3592  0 */\n              dup1\n                /* \"Rubics\":3579:3592  uint256 i = 0 */\n              swap1\n              pop\n                /* \"Rubics\":3574:3674  for (uint256 i = 0; i < orders.length; i++) {\r... */\n            tag_138:\n                /* \"Rubics\":3598:3604  orders */\n              dup4\n                /* \"Rubics\":3598:3611  orders.length */\n              mload\n                /* \"Rubics\":3594:3595  i */\n              dup2\n                /* \"Rubics\":3594:3611  i < orders.length */\n              lt\n                /* \"Rubics\":3574:3674  for (uint256 i = 0; i < orders.length; i++) {\r... */\n              iszero\n              tag_139\n              jumpi\n                /* \"Rubics\":3653:3659  orders */\n              dup4\n                /* \"Rubics\":3660:3661  i */\n              dup2\n                /* \"Rubics\":3653:3662  orders[i] */\n              dup2\n              mload\n              dup2\n              lt\n              tag_141\n              jumpi\n              invalid\n            tag_141:\n              0x20\n              mul\n              0x20\n              add\n              add\n              mload\n                /* \"Rubics\":3633:3634  o */\n              dup3\n                /* \"Rubics\":3633:3647  o.orderDetails */\n              0x06\n              add\n                /* \"Rubics\":3633:3650  o.orderDetails[i] */\n              0x00\n                /* \"Rubics\":3648:3649  i */\n              dup4\n                /* \"Rubics\":3633:3650  o.orderDetails[i] */\n              dup2\n              mstore\n              0x20\n              add\n              swap1\n              dup2\n              mstore\n              0x20\n              add\n              0x00\n              keccak256\n                /* \"Rubics\":3633:3662  o.orderDetails[i] = orders[i] */\n              0x00\n              dup3\n              add\n              mload\n              dup2\n              0x00\n              add\n              swap1\n              dup1\n              mload\n              swap1\n              0x20\n              add\n              swap1\n              tag_142\n              swap3\n              swap2\n              swap1\n              tag_143\n              jump\t// in\n            tag_142:\n              pop\n              0x20\n              dup3\n              add\n              mload\n              dup2\n              0x01\n              add\n              sstore\n              swap1\n              pop\n              pop\n                /* \"Rubics\":3613:3616  i++ */\n              dup1\n              dup1\n              0x01\n              add\n              swap2\n              pop\n              pop\n                /* \"Rubics\":3574:3674  for (uint256 i = 0; i < orders.length; i++) {\r... */\n              jump(tag_138)\n            tag_139:\n              pop\n                /* \"Rubics\":2547:3723  function createOrder(\r... */\n              pop\n              pop\n              pop\n              pop\n              pop\n              pop\n              pop\n              jump\t// out\n                /* \"Rubics\":3829:4108  function finalizeOrder() public {\r... */\n            tag_80:\n                /* \"Rubics\":3876:3877  1 */\n              0x01\n                /* \"Rubics\":3872:3873  x */\n              0x97\n                /* \"Rubics\":3872:3877  x = 1 */\n              dup2\n              swap1\n              sstore\n              pop\n                /* \"Rubics\":3888:3920  OrdersAdmin storage currentOrder */\n              0x00\n                /* \"Rubics\":3923:3934  ordersAdmin */\n              0x9d\n                /* \"Rubics\":3923:3946  ordersAdmin[msg.sender] */\n              0x00\n                /* \"Rubics\":3935:3945  msg.sender */\n              caller\n                /* \"Rubics\":3923:3946  ordersAdmin[msg.sender] */\n              0xffffffffffffffffffffffffffffffffffffffff\n              and\n              0xffffffffffffffffffffffffffffffffffffffff\n              and\n              dup2\n              mstore\n              0x20\n              add\n              swap1\n              dup2\n              mstore\n              0x20\n              add\n              0x00\n              keccak256\n                /* \"Rubics\":3888:3946  OrdersAdmin storage currentOrder = ordersAdmin[msg.sender] */\n              swap1\n              pop\n                /* \"Rubics\":3966:3978  currentOrder */\n              dup1\n                /* \"Rubics\":3966:3990  currentOrder.isCompleted */\n              0x05\n              add\n              0x00\n              swap1\n              sload\n              swap1\n              0x0100\n              exp\n              swap1\n              div\n              0xff\n              and\n                /* \"Rubics\":3965:3990  !currentOrder.isCompleted */\n              iszero\n                /* \"Rubics\":3957:3991  require(!currentOrder.isCompleted) */\n              tag_145\n              jumpi\n              0x00\n              dup1\n              revert\n            tag_145:\n                /* \"Rubics\":4010:4024  seller_address */\n              0x98\n              0x00\n              swap1\n              sload\n              swap1\n              0x0100\n              exp\n              swap1\n              div\n              0xffffffffffffffffffffffffffffffffffffffff\n              and\n                /* \"Rubics\":4002:4034  payable(seller_address).transfer */\n              0xffffffffffffffffffffffffffffffffffffffff\n              and\n                /* \"Rubics\":4002:4058  payable(seller_address).transfer(currentOrder.cartTotal) */\n              0x08fc\n                /* \"Rubics\":4035:4047  currentOrder */\n              dup3\n                /* \"Rubics\":4035:4057  currentOrder.cartTotal */\n              0x04\n              add\n              sload\n                /* \"Rubics\":4002:4058  payable(seller_address).transfer(currentOrder.cartTotal) */\n              swap1\n              dup2\n              iszero\n              mul\n              swap1\n              mload(0x40)\n              0x00\n              mload(0x40)\n              dup1\n              dup4\n              sub\n              dup2\n              dup6\n              dup9\n              dup9\n              call\n              swap4\n              pop\n              pop\n              pop\n              pop\n              iszero\n                /* \"--CODEGEN--\":8:17   */\n              dup1\n                /* \"--CODEGEN--\":5:7   */\n              iszero\n              tag_147\n              jumpi\n                /* \"--CODEGEN--\":45:61   */\n              returndatasize\n                /* \"--CODEGEN--\":42:43   */\n              0x00\n                /* \"--CODEGEN--\":39:40   */\n              dup1\n                /* \"--CODEGEN--\":24:62   */\n              returndatacopy\n                /* \"--CODEGEN--\":77:93   */\n              returndatasize\n                /* \"--CODEGEN--\":74:75   */\n              0x00\n                /* \"--CODEGEN--\":67:94   */\n              revert\n                /* \"--CODEGEN--\":5:7   */\n            tag_147:\n                /* \"Rubics\":4002:4058  payable(seller_address).transfer(currentOrder.cartTotal) */\n              pop\n                /* \"Rubics\":4096:4100  true */\n              0x01\n                /* \"Rubics\":4069:4081  currentOrder */\n              dup2\n                /* \"Rubics\":4069:4093  currentOrder.isCompleted */\n              0x05\n              add\n              0x00\n                /* \"Rubics\":4069:4100  currentOrder.isCompleted = true */\n              0x0100\n              exp\n              dup2\n              sload\n              dup2\n              0xff\n              mul\n              not\n              and\n              swap1\n              dup4\n              iszero\n              iszero\n              mul\n              or\n              swap1\n              sstore\n              pop\n                /* \"Rubics\":3829:4108  function finalizeOrder() public {\r... */\n              pop\n              jump\t// out\n                /* \"@openzeppelin/contracts-ethereum-package/contracts/GSN/GSNRecipient.sol\":6219:6506   */\n            tag_85:\n                /* \"@openzeppelin/contracts-ethereum-package/contracts/GSN/GSNRecipient.sol\":6377:6389   */\n              tag_149\n                /* \"@openzeppelin/contracts-ethereum-package/contracts/GSN/GSNRecipient.sol\":6377:6387   */\n              tag_39\n                /* \"@openzeppelin/contracts-ethereum-package/contracts/GSN/GSNRecipient.sol\":6377:6389   */\n              jump\t// in\n            tag_149:\n                /* \"@openzeppelin/contracts-ethereum-package/contracts/GSN/GSNRecipient.sol\":6363:6389   */\n              0xffffffffffffffffffffffffffffffffffffffff\n              and\n                /* \"@openzeppelin/contracts-ethereum-package/contracts/GSN/GSNRecipient.sol\":6363:6373   */\n              caller\n                /* \"@openzeppelin/contracts-ethereum-package/contracts/GSN/GSNRecipient.sol\":6363:6389   */\n              0xffffffffffffffffffffffffffffffffffffffff\n              and\n              eq\n                /* \"@openzeppelin/contracts-ethereum-package/contracts/GSN/GSNRecipient.sol\":6355:6430   */\n              tag_150\n              jumpi\n              mload(0x40)\n              0x08c379a000000000000000000000000000000000000000000000000000000000\n              dup2\n              mstore\n              0x04\n              add\n              tag_151\n              swap1\n              jump(tag_114)\n            tag_151:\n              mload(0x40)\n              dup1\n              swap2\n              sub\n              swap1\n              revert\n            tag_150:\n                /* \"@openzeppelin/contracts-ethereum-package/contracts/GSN/GSNRecipient.sol\":6440:6499   */\n              tag_152\n                /* \"@openzeppelin/contracts-ethereum-package/contracts/GSN/GSNRecipient.sol\":6457:6464   */\n              dup5\n                /* \"@openzeppelin/contracts-ethereum-package/contracts/GSN/GSNRecipient.sol\":6466:6473   */\n              dup5\n                /* \"@openzeppelin/contracts-ethereum-package/contracts/GSN/GSNRecipient.sol\":6475:6487   */\n              dup5\n                /* \"@openzeppelin/contracts-ethereum-package/contracts/GSN/GSNRecipient.sol\":6489:6498   */\n              dup5\n                /* \"@openzeppelin/contracts-ethereum-package/contracts/GSN/GSNRecipient.sol\":6440:6456   */\n              tag_153\n                /* \"@openzeppelin/contracts-ethereum-package/contracts/GSN/GSNRecipient.sol\":6440:6499   */\n              jump\t// in\n            tag_152:\n                /* \"@openzeppelin/contracts-ethereum-package/contracts/GSN/GSNRecipient.sol\":6219:6506   */\n              pop\n              pop\n              pop\n              pop\n              jump\t// out\n                /* \"Rubics\":3731:3821  function getOrdersForAdmin() public view returns (uint256) {\r... */\n            tag_88:\n                /* \"Rubics\":3781:3788  uint256 */\n              0x00\n                /* \"Rubics\":3808:3813  index */\n              sload(0x9c)\n                /* \"Rubics\":3801:3813  return index */\n              swap1\n              pop\n                /* \"Rubics\":3731:3821  function getOrdersForAdmin() public view returns (uint256) {\r... */\n              swap1\n              jump\t// out\n                /* \"Rubics\":1809:1834  string public seller_name */\n            tag_92:\n              0x99\n              dup1\n              sload\n              0x01\n              dup2\n              0x01\n              and\n              iszero\n              0x0100\n              mul\n              sub\n              and\n              0x02\n              swap1\n              div\n              dup1\n              0x1f\n              add\n              0x20\n              dup1\n              swap2\n              div\n              mul\n              0x20\n              add\n              mload(0x40)\n              swap1\n              dup2\n              add\n              0x40\n              mstore\n              dup1\n              swap3\n              swap2\n              swap1\n              dup2\n              dup2\n              mstore\n              0x20\n              add\n              dup3\n              dup1\n              sload\n              0x01\n              dup2\n              0x01\n              and\n              iszero\n              0x0100\n              mul\n              sub\n              and\n              0x02\n              swap1\n              div\n              dup1\n              iszero\n              tag_155\n              jumpi\n              dup1\n              0x1f\n              lt\n              tag_156\n              jumpi\n              0x0100\n              dup1\n              dup4\n              sload\n              div\n              mul\n              dup4\n              mstore\n              swap2\n              0x20\n              add\n              swap2\n              jump(tag_155)\n            tag_156:\n              dup3\n              add\n              swap2\n              swap1\n              0x00\n              mstore\n              keccak256(0x00, 0x20)\n              swap1\n            tag_157:\n              dup2\n              sload\n              dup2\n              mstore\n              swap1\n              0x01\n              add\n              swap1\n              0x20\n              add\n              dup1\n              dup4\n              gt\n              tag_157\n              jumpi\n              dup3\n              swap1\n              sub\n              0x1f\n              and\n              dup3\n              add\n              swap2\n            tag_155:\n              pop\n              pop\n              pop\n              pop\n              pop\n              dup2\n              jump\t// out\n                /* \"Rubics\":5525:5768  function _preRelayedCall(bytes memory context)\r... */\n            tag_116:\n                /* \"Rubics\":5626:5633  bytes32 */\n              0x00\n                /* \"Rubics\":5660:5661  0 */\n              dup1\n                /* \"Rubics\":5655:5656  x */\n              sload(0x97)\n                /* \"Rubics\":5655:5661  x == 0 */\n              eq\n                /* \"Rubics\":5651:5761  if (x == 0) {\r... */\n              iszero\n              tag_159\n              jumpi\n              jump(tag_160)\n            tag_159:\n            tag_160:\n                /* \"Rubics\":5525:5768  function _preRelayedCall(bytes memory context)\r... */\n              swap2\n              swap1\n              pop\n              jump\t// out\n                /* \"@openzeppelin/contracts-ethereum-package/contracts/GSN/GSNRecipient.sol\":7108:7232   */\n            tag_120:\n                /* \"@openzeppelin/contracts-ethereum-package/contracts/GSN/GSNRecipient.sol\":7162:7169   */\n              0x00\n                /* \"@openzeppelin/contracts-ethereum-package/contracts/GSN/GSNRecipient.sol\":7171:7183   */\n              0x60\n                /* \"@openzeppelin/contracts-ethereum-package/contracts/GSN/GSNRecipient.sol\":7202:7225   */\n              tag_162\n              mload(0x40)\n              dup1\n              0x20\n              add\n              0x40\n              mstore\n              dup1\n              0x00\n              dup2\n              mstore\n              pop\n                /* \"@openzeppelin/contracts-ethereum-package/contracts/GSN/GSNRecipient.sol\":7202:7221   */\n              tag_163\n                /* \"@openzeppelin/contracts-ethereum-package/contracts/GSN/GSNRecipient.sol\":7202:7225   */\n              jump\t// in\n            tag_162:\n                /* \"@openzeppelin/contracts-ethereum-package/contracts/GSN/GSNRecipient.sol\":7195:7225   */\n              swap2\n              pop\n              swap2\n              pop\n                /* \"@openzeppelin/contracts-ethereum-package/contracts/GSN/GSNRecipient.sol\":7108:7232   */\n              swap1\n              swap2\n              jump\t// out\n                /* \"@openzeppelin/contracts-ethereum-package/contracts/GSN/GSNRecipient.sol\":7679:7836   */\n            tag_124:\n                /* \"@openzeppelin/contracts-ethereum-package/contracts/GSN/GSNRecipient.sol\":7749:7756   */\n              0x00\n                /* \"@openzeppelin/contracts-ethereum-package/contracts/GSN/GSNRecipient.sol\":7758:7770   */\n              0x60\n                /* \"@openzeppelin/contracts-ethereum-package/contracts/GSN/GSNRecipient.sol\":7815:7824   */\n              dup3\n                /* \"@openzeppelin/contracts-ethereum-package/contracts/GSN/GSNRecipient.sol\":1315:1317   */\n              0x0b\n                /* \"@openzeppelin/contracts-ethereum-package/contracts/GSN/GSNRecipient.sol\":7790:7824   */\n              add\n                /* \"@openzeppelin/contracts-ethereum-package/contracts/GSN/GSNRecipient.sol\":7782:7829   */\n              mload(0x40)\n              dup1\n              0x20\n              add\n              0x40\n              mstore\n              dup1\n              0x00\n              dup2\n              mstore\n              pop\n              swap2\n              pop\n              swap2\n              pop\n                /* \"@openzeppelin/contracts-ethereum-package/contracts/GSN/GSNRecipient.sol\":7679:7836   */\n              swap2\n              pop\n              swap2\n              jump\t// out\n                /* \"Rubics\":5776:5924  function _postRelayedCall(\r... */\n            tag_153:\n              pop\n              pop\n              pop\n              pop\n              jump\t// out\n                /* \"@openzeppelin/contracts-ethereum-package/contracts/GSN/GSNRecipient.sol\":7394:7548   */\n            tag_163:\n                /* \"@openzeppelin/contracts-ethereum-package/contracts/GSN/GSNRecipient.sol\":7468:7475   */\n              0x00\n                /* \"@openzeppelin/contracts-ethereum-package/contracts/GSN/GSNRecipient.sol\":7477:7489   */\n              0x60\n                /* \"@openzeppelin/contracts-ethereum-package/contracts/GSN/GSNRecipient.sol\":1258:1259   */\n              0x00\n                /* \"@openzeppelin/contracts-ethereum-package/contracts/GSN/GSNRecipient.sol\":7533:7540   */\n              dup4\n                /* \"@openzeppelin/contracts-ethereum-package/contracts/GSN/GSNRecipient.sol\":7501:7541   */\n              swap2\n              pop\n              swap2\n              pop\n                /* \"@openzeppelin/contracts-ethereum-package/contracts/GSN/GSNRecipient.sol\":7394:7548   */\n              swap2\n              pop\n              swap2\n              jump\t// out\n                /* \"Rubics\":1210:5927  contract Seller is GSNRecipientUpgradeSafe {\r... */\n            tag_135:\n              dup3\n              dup1\n              sload\n              0x01\n              dup2\n              0x01\n              and\n              iszero\n              0x0100\n              mul\n              sub\n              and\n              0x02\n              swap1\n              div\n              swap1\n              0x00\n              mstore\n              keccak256(0x00, 0x20)\n              swap1\n              0x1f\n              add\n              0x20\n              swap1\n              div\n              dup2\n              add\n              swap3\n              dup3\n              0x1f\n              lt\n              tag_168\n              jumpi\n              dup1\n              mload\n              not(0xff)\n              and\n              dup4\n              dup1\n              add\n              or\n              dup6\n              sstore\n              jump(tag_167)\n            tag_168:\n              dup3\n              dup1\n              add\n              0x01\n              add\n              dup6\n              sstore\n              dup3\n              iszero\n              tag_167\n              jumpi\n              swap2\n              dup3\n              add\n            tag_169:\n              dup3\n              dup2\n              gt\n              iszero\n              tag_170\n              jumpi\n              dup3\n              mload\n              dup3\n              sstore\n              swap2\n              0x20\n              add\n              swap2\n              swap1\n              0x01\n              add\n              swap1\n              jump(tag_169)\n            tag_170:\n            tag_167:\n              pop\n              swap1\n              pop\n              tag_171\n              swap2\n              swap1\n              tag_172\n              jump\t// in\n            tag_171:\n              pop\n              swap1\n              jump\t// out\n            tag_143:\n              dup3\n              dup1\n              sload\n              0x01\n              dup2\n              0x01\n              and\n              iszero\n              0x0100\n              mul\n              sub\n              and\n              0x02\n              swap1\n              div\n              swap1\n              0x00\n              mstore\n              keccak256(0x00, 0x20)\n              swap1\n              0x1f\n              add\n              0x20\n              swap1\n              div\n              dup2\n              add\n              swap3\n              dup3\n              0x1f\n              lt\n              tag_174\n              jumpi\n              dup1\n              mload\n              not(0xff)\n              and\n              dup4\n              dup1\n              add\n              or\n              dup6\n              sstore\n              jump(tag_173)\n            tag_174:\n              dup3\n              dup1\n              add\n              0x01\n              add\n              dup6\n              sstore\n              dup3\n              iszero\n              tag_173\n              jumpi\n              swap2\n              dup3\n              add\n            tag_175:\n              dup3\n              dup2\n              gt\n              iszero\n              tag_176\n              jumpi\n              dup3\n              mload\n              dup3\n              sstore\n              swap2\n              0x20\n              add\n              swap2\n              swap1\n              0x01\n              add\n              swap1\n              jump(tag_175)\n            tag_176:\n            tag_173:\n              pop\n              swap1\n              pop\n              tag_177\n              swap2\n              swap1\n              tag_172\n              jump\t// in\n            tag_177:\n              pop\n              swap1\n              jump\t// out\n            tag_172:\n              tag_178\n              swap2\n              swap1\n            tag_179:\n              dup1\n              dup3\n              gt\n              iszero\n              tag_180\n              jumpi\n              0x00\n              dup2\n              0x00\n              swap1\n              sstore\n              pop\n              0x01\n              add\n              jump(tag_179)\n            tag_180:\n              pop\n              swap1\n              jump\n            tag_178:\n              swap1\n              jump\t// out\n                /* \"--CODEGEN--\":5:135   */\n            tag_182:\n              0x00\n                /* \"--CODEGEN--\":85:91   */\n              dup2\n                /* \"--CODEGEN--\":72:92   */\n              calldataload\n                /* \"--CODEGEN--\":63:92   */\n              swap1\n              pop\n                /* \"--CODEGEN--\":97:130   */\n              tag_184\n                /* \"--CODEGEN--\":124:129   */\n              dup2\n                /* \"--CODEGEN--\":97:130   */\n              jump(tag_185)\n            tag_184:\n                /* \"--CODEGEN--\":57:135   */\n              swap3\n              swap2\n              pop\n              pop\n              jump\n                /* \"--CODEGEN--\":179:929   */\n            tag_186:\n              0x00\n                /* \"--CODEGEN--\":320:323   */\n              dup3\n                /* \"--CODEGEN--\":313:317   */\n              0x1f\n                /* \"--CODEGEN--\":305:311   */\n              dup4\n                /* \"--CODEGEN--\":301:318   */\n              add\n                /* \"--CODEGEN--\":297:324   */\n              slt\n                /* \"--CODEGEN--\":287:289   */\n              tag_188\n              jumpi\n                /* \"--CODEGEN--\":338:339   */\n              0x00\n                /* \"--CODEGEN--\":335:336   */\n              dup1\n                /* \"--CODEGEN--\":328:340   */\n              revert\n                /* \"--CODEGEN--\":287:289   */\n            tag_188:\n                /* \"--CODEGEN--\":375:381   */\n              dup2\n                /* \"--CODEGEN--\":362:382   */\n              calldataload\n                /* \"--CODEGEN--\":397:501   */\n              tag_189\n                /* \"--CODEGEN--\":412:500   */\n              tag_190\n                /* \"--CODEGEN--\":493:499   */\n              dup3\n                /* \"--CODEGEN--\":412:500   */\n              jump(tag_191)\n            tag_190:\n                /* \"--CODEGEN--\":397:501   */\n              jump(tag_192)\n            tag_189:\n                /* \"--CODEGEN--\":388:501   */\n              swap2\n              pop\n                /* \"--CODEGEN--\":518:523   */\n              dup2\n                /* \"--CODEGEN--\":543:549   */\n              dup2\n                /* \"--CODEGEN--\":536:541   */\n              dup4\n                /* \"--CODEGEN--\":529:550   */\n              mstore\n                /* \"--CODEGEN--\":573:577   */\n              0x20\n                /* \"--CODEGEN--\":565:571   */\n              dup5\n                /* \"--CODEGEN--\":561:578   */\n              add\n                /* \"--CODEGEN--\":551:578   */\n              swap4\n              pop\n                /* \"--CODEGEN--\":595:599   */\n              0x20\n                /* \"--CODEGEN--\":590:593   */\n              dup2\n                /* \"--CODEGEN--\":586:600   */\n              add\n                /* \"--CODEGEN--\":579:600   */\n              swap1\n              pop\n                /* \"--CODEGEN--\":648:654   */\n              dup4\n                /* \"--CODEGEN--\":681:682   */\n              0x00\n                /* \"--CODEGEN--\":666:923   */\n            tag_193:\n                /* \"--CODEGEN--\":691:697   */\n              dup4\n                /* \"--CODEGEN--\":688:689   */\n              dup2\n                /* \"--CODEGEN--\":685:698   */\n              lt\n                /* \"--CODEGEN--\":666:923   */\n              iszero\n              tag_195\n              jumpi\n                /* \"--CODEGEN--\":774:777   */\n              dup2\n                /* \"--CODEGEN--\":761:778   */\n              calldataload\n                /* \"--CODEGEN--\":753:759   */\n              dup7\n                /* \"--CODEGEN--\":749:779   */\n              add\n                /* \"--CODEGEN--\":798:859   */\n              tag_196\n                /* \"--CODEGEN--\":855:858   */\n              dup9\n                /* \"--CODEGEN--\":843:853   */\n              dup3\n                /* \"--CODEGEN--\":798:859   */\n              jump(tag_197)\n            tag_196:\n                /* \"--CODEGEN--\":793:796   */\n              dup5\n                /* \"--CODEGEN--\":786:860   */\n              mstore\n                /* \"--CODEGEN--\":883:887   */\n              0x20\n                /* \"--CODEGEN--\":878:881   */\n              dup5\n                /* \"--CODEGEN--\":874:888   */\n              add\n                /* \"--CODEGEN--\":867:888   */\n              swap4\n              pop\n                /* \"--CODEGEN--\":911:915   */\n              0x20\n                /* \"--CODEGEN--\":906:909   */\n              dup4\n                /* \"--CODEGEN--\":902:916   */\n              add\n                /* \"--CODEGEN--\":895:916   */\n              swap3\n              pop\n                /* \"--CODEGEN--\":723:923   */\n              pop\n                /* \"--CODEGEN--\":713:714   */\n              0x01\n                /* \"--CODEGEN--\":710:711   */\n              dup2\n                /* \"--CODEGEN--\":706:715   */\n              add\n                /* \"--CODEGEN--\":701:715   */\n              swap1\n              pop\n                /* \"--CODEGEN--\":666:923   */\n              jump(tag_193)\n            tag_195:\n                /* \"--CODEGEN--\":670:684   */\n              pop\n                /* \"--CODEGEN--\":280:929   */\n              pop\n              pop\n              pop\n              swap3\n              swap2\n              pop\n              pop\n              jump\n                /* \"--CODEGEN--\":937:1061   */\n            tag_198:\n              0x00\n                /* \"--CODEGEN--\":1014:1020   */\n              dup2\n                /* \"--CODEGEN--\":1001:1021   */\n              calldataload\n                /* \"--CODEGEN--\":992:1021   */\n              swap1\n              pop\n                /* \"--CODEGEN--\":1026:1056   */\n              tag_200\n                /* \"--CODEGEN--\":1050:1055   */\n              dup2\n                /* \"--CODEGEN--\":1026:1056   */\n              jump(tag_201)\n            tag_200:\n                /* \"--CODEGEN--\":986:1061   */\n              swap3\n              swap2\n              pop\n              pop\n              jump\n                /* \"--CODEGEN--\":1068:1198   */\n            tag_202:\n              0x00\n                /* \"--CODEGEN--\":1148:1154   */\n              dup2\n                /* \"--CODEGEN--\":1135:1155   */\n              calldataload\n                /* \"--CODEGEN--\":1126:1155   */\n              swap1\n              pop\n                /* \"--CODEGEN--\":1160:1193   */\n              tag_204\n                /* \"--CODEGEN--\":1187:1192   */\n              dup2\n                /* \"--CODEGEN--\":1160:1193   */\n              jump(tag_205)\n            tag_204:\n                /* \"--CODEGEN--\":1120:1198   */\n              swap3\n              swap2\n              pop\n              pop\n              jump\n                /* \"--CODEGEN--\":1219:1555   */\n            tag_206:\n              0x00\n              dup1\n                /* \"--CODEGEN--\":1333:1336   */\n              dup4\n                /* \"--CODEGEN--\":1326:1330   */\n              0x1f\n                /* \"--CODEGEN--\":1318:1324   */\n              dup5\n                /* \"--CODEGEN--\":1314:1331   */\n              add\n                /* \"--CODEGEN--\":1310:1337   */\n              slt\n                /* \"--CODEGEN--\":1300:1302   */\n              tag_208\n              jumpi\n                /* \"--CODEGEN--\":1351:1352   */\n              0x00\n                /* \"--CODEGEN--\":1348:1349   */\n              dup1\n                /* \"--CODEGEN--\":1341:1353   */\n              revert\n                /* \"--CODEGEN--\":1300:1302   */\n            tag_208:\n                /* \"--CODEGEN--\":1384:1390   */\n              dup3\n                /* \"--CODEGEN--\":1371:1391   */\n              calldataload\n                /* \"--CODEGEN--\":1361:1391   */\n              swap1\n              pop\n                /* \"--CODEGEN--\":1411:1429   */\n              0xffffffffffffffff\n                /* \"--CODEGEN--\":1403:1409   */\n              dup2\n                /* \"--CODEGEN--\":1400:1430   */\n              gt\n                /* \"--CODEGEN--\":1397:1399   */\n              iszero\n              tag_209\n              jumpi\n                /* \"--CODEGEN--\":1443:1444   */\n              0x00\n                /* \"--CODEGEN--\":1440:1441   */\n              dup1\n                /* \"--CODEGEN--\":1433:1445   */\n              revert\n                /* \"--CODEGEN--\":1397:1399   */\n            tag_209:\n                /* \"--CODEGEN--\":1477:1481   */\n              0x20\n                /* \"--CODEGEN--\":1469:1475   */\n              dup4\n                /* \"--CODEGEN--\":1465:1482   */\n              add\n                /* \"--CODEGEN--\":1453:1482   */\n              swap2\n              pop\n                /* \"--CODEGEN--\":1528:1531   */\n              dup4\n                /* \"--CODEGEN--\":1520:1524   */\n              0x01\n                /* \"--CODEGEN--\":1512:1518   */\n              dup3\n                /* \"--CODEGEN--\":1508:1525   */\n              mul\n                /* \"--CODEGEN--\":1498:1506   */\n              dup4\n                /* \"--CODEGEN--\":1494:1526   */\n              add\n                /* \"--CODEGEN--\":1491:1532   */\n              gt\n                /* \"--CODEGEN--\":1488:1490   */\n              iszero\n              tag_210\n              jumpi\n                /* \"--CODEGEN--\":1545:1546   */\n              0x00\n                /* \"--CODEGEN--\":1542:1543   */\n              dup1\n                /* \"--CODEGEN--\":1535:1547   */\n              revert\n                /* \"--CODEGEN--\":1488:1490   */\n            tag_210:\n                /* \"--CODEGEN--\":1293:1555   */\n              swap3\n              pop\n              swap3\n              swap1\n              pop\n              jump\n                /* \"--CODEGEN--\":1564:2004   */\n            tag_211:\n              0x00\n                /* \"--CODEGEN--\":1665:1668   */\n              dup3\n                /* \"--CODEGEN--\":1658:1662   */\n              0x1f\n                /* \"--CODEGEN--\":1650:1656   */\n              dup4\n                /* \"--CODEGEN--\":1646:1663   */\n              add\n                /* \"--CODEGEN--\":1642:1669   */\n              slt\n                /* \"--CODEGEN--\":1632:1634   */\n              tag_213\n              jumpi\n                /* \"--CODEGEN--\":1683:1684   */\n              0x00\n                /* \"--CODEGEN--\":1680:1681   */\n              dup1\n                /* \"--CODEGEN--\":1673:1685   */\n              revert\n                /* \"--CODEGEN--\":1632:1634   */\n            tag_213:\n                /* \"--CODEGEN--\":1720:1726   */\n              dup2\n                /* \"--CODEGEN--\":1707:1727   */\n              calldataload\n                /* \"--CODEGEN--\":1742:1806   */\n              tag_214\n                /* \"--CODEGEN--\":1757:1805   */\n              tag_215\n                /* \"--CODEGEN--\":1798:1804   */\n              dup3\n                /* \"--CODEGEN--\":1757:1805   */\n              jump(tag_216)\n            tag_215:\n                /* \"--CODEGEN--\":1742:1806   */\n              jump(tag_192)\n            tag_214:\n                /* \"--CODEGEN--\":1733:1806   */\n              swap2\n              pop\n                /* \"--CODEGEN--\":1826:1832   */\n              dup1\n                /* \"--CODEGEN--\":1819:1824   */\n              dup3\n                /* \"--CODEGEN--\":1812:1833   */\n              mstore\n                /* \"--CODEGEN--\":1862:1866   */\n              0x20\n                /* \"--CODEGEN--\":1854:1860   */\n              dup4\n                /* \"--CODEGEN--\":1850:1867   */\n              add\n                /* \"--CODEGEN--\":1895:1899   */\n              0x20\n                /* \"--CODEGEN--\":1888:1893   */\n              dup4\n                /* \"--CODEGEN--\":1884:1900   */\n              add\n                /* \"--CODEGEN--\":1930:1933   */\n              dup6\n                /* \"--CODEGEN--\":1921:1927   */\n              dup4\n                /* \"--CODEGEN--\":1916:1919   */\n              dup4\n                /* \"--CODEGEN--\":1912:1928   */\n              add\n                /* \"--CODEGEN--\":1909:1934   */\n              gt\n                /* \"--CODEGEN--\":1906:1908   */\n              iszero\n              tag_217\n              jumpi\n                /* \"--CODEGEN--\":1947:1948   */\n              0x00\n                /* \"--CODEGEN--\":1944:1945   */\n              dup1\n                /* \"--CODEGEN--\":1937:1949   */\n              revert\n                /* \"--CODEGEN--\":1906:1908   */\n            tag_217:\n                /* \"--CODEGEN--\":1957:1998   */\n              tag_218\n                /* \"--CODEGEN--\":1991:1997   */\n              dup4\n                /* \"--CODEGEN--\":1986:1989   */\n              dup3\n                /* \"--CODEGEN--\":1981:1984   */\n              dup5\n                /* \"--CODEGEN--\":1957:1998   */\n              jump(tag_219)\n            tag_218:\n                /* \"--CODEGEN--\":1625:2004   */\n              pop\n              pop\n              pop\n              swap3\n              swap2\n              pop\n              pop\n              jump\n                /* \"--CODEGEN--\":2013:2447   */\n            tag_220:\n              0x00\n                /* \"--CODEGEN--\":2111:2114   */\n              dup3\n                /* \"--CODEGEN--\":2104:2108   */\n              0x1f\n                /* \"--CODEGEN--\":2096:2102   */\n              dup4\n                /* \"--CODEGEN--\":2092:2109   */\n              add\n                /* \"--CODEGEN--\":2088:2115   */\n              slt\n                /* \"--CODEGEN--\":2078:2080   */\n              tag_222\n              jumpi\n                /* \"--CODEGEN--\":2129:2130   */\n              0x00\n                /* \"--CODEGEN--\":2126:2127   */\n              dup1\n                /* \"--CODEGEN--\":2119:2131   */\n              revert\n                /* \"--CODEGEN--\":2078:2080   */\n            tag_222:\n                /* \"--CODEGEN--\":2166:2172   */\n              dup2\n                /* \"--CODEGEN--\":2153:2173   */\n              calldataload\n                /* \"--CODEGEN--\":2188:2249   */\n              tag_223\n                /* \"--CODEGEN--\":2203:2248   */\n              tag_224\n                /* \"--CODEGEN--\":2241:2247   */\n              dup3\n                /* \"--CODEGEN--\":2203:2248   */\n              jump(tag_225)\n            tag_224:\n                /* \"--CODEGEN--\":2188:2249   */\n              jump(tag_192)\n            tag_223:\n                /* \"--CODEGEN--\":2179:2249   */\n              swap2\n              pop\n                /* \"--CODEGEN--\":2269:2275   */\n              dup1\n                /* \"--CODEGEN--\":2262:2267   */\n              dup3\n                /* \"--CODEGEN--\":2255:2276   */\n              mstore\n                /* \"--CODEGEN--\":2305:2309   */\n              0x20\n                /* \"--CODEGEN--\":2297:2303   */\n              dup4\n                /* \"--CODEGEN--\":2293:2310   */\n              add\n                /* \"--CODEGEN--\":2338:2342   */\n              0x20\n                /* \"--CODEGEN--\":2331:2336   */\n              dup4\n                /* \"--CODEGEN--\":2327:2343   */\n              add\n                /* \"--CODEGEN--\":2373:2376   */\n              dup6\n                /* \"--CODEGEN--\":2364:2370   */\n              dup4\n                /* \"--CODEGEN--\":2359:2362   */\n              dup4\n                /* \"--CODEGEN--\":2355:2371   */\n              add\n                /* \"--CODEGEN--\":2352:2377   */\n              gt\n                /* \"--CODEGEN--\":2349:2351   */\n              iszero\n              tag_226\n              jumpi\n                /* \"--CODEGEN--\":2390:2391   */\n              0x00\n                /* \"--CODEGEN--\":2387:2388   */\n              dup1\n                /* \"--CODEGEN--\":2380:2392   */\n              revert\n                /* \"--CODEGEN--\":2349:2351   */\n            tag_226:\n                /* \"--CODEGEN--\":2400:2441   */\n              tag_227\n                /* \"--CODEGEN--\":2434:2440   */\n              dup4\n                /* \"--CODEGEN--\":2429:2432   */\n              dup3\n                /* \"--CODEGEN--\":2424:2427   */\n              dup5\n                /* \"--CODEGEN--\":2400:2441   */\n              jump(tag_219)\n            tag_227:\n                /* \"--CODEGEN--\":2071:2447   */\n              pop\n              pop\n              pop\n              swap3\n              swap2\n              pop\n              pop\n              jump\n                /* \"--CODEGEN--\":2456:2898   */\n            tag_228:\n              0x00\n                /* \"--CODEGEN--\":2558:2561   */\n              dup3\n                /* \"--CODEGEN--\":2551:2555   */\n              0x1f\n                /* \"--CODEGEN--\":2543:2549   */\n              dup4\n                /* \"--CODEGEN--\":2539:2556   */\n              add\n                /* \"--CODEGEN--\":2535:2562   */\n              slt\n                /* \"--CODEGEN--\":2525:2527   */\n              tag_230\n              jumpi\n                /* \"--CODEGEN--\":2576:2577   */\n              0x00\n                /* \"--CODEGEN--\":2573:2574   */\n              dup1\n                /* \"--CODEGEN--\":2566:2578   */\n              revert\n                /* \"--CODEGEN--\":2525:2527   */\n            tag_230:\n                /* \"--CODEGEN--\":2613:2619   */\n              dup2\n                /* \"--CODEGEN--\":2600:2620   */\n              calldataload\n                /* \"--CODEGEN--\":2635:2700   */\n              tag_231\n                /* \"--CODEGEN--\":2650:2699   */\n              tag_232\n                /* \"--CODEGEN--\":2692:2698   */\n              dup3\n                /* \"--CODEGEN--\":2650:2699   */\n              jump(tag_233)\n            tag_232:\n                /* \"--CODEGEN--\":2635:2700   */\n              jump(tag_192)\n            tag_231:\n                /* \"--CODEGEN--\":2626:2700   */\n              swap2\n              pop\n                /* \"--CODEGEN--\":2720:2726   */\n              dup1\n                /* \"--CODEGEN--\":2713:2718   */\n              dup3\n                /* \"--CODEGEN--\":2706:2727   */\n              mstore\n                /* \"--CODEGEN--\":2756:2760   */\n              0x20\n                /* \"--CODEGEN--\":2748:2754   */\n              dup4\n                /* \"--CODEGEN--\":2744:2761   */\n              add\n                /* \"--CODEGEN--\":2789:2793   */\n              0x20\n                /* \"--CODEGEN--\":2782:2787   */\n              dup4\n                /* \"--CODEGEN--\":2778:2794   */\n              add\n                /* \"--CODEGEN--\":2824:2827   */\n              dup6\n                /* \"--CODEGEN--\":2815:2821   */\n              dup4\n                /* \"--CODEGEN--\":2810:2813   */\n              dup4\n                /* \"--CODEGEN--\":2806:2822   */\n              add\n                /* \"--CODEGEN--\":2803:2828   */\n              gt\n                /* \"--CODEGEN--\":2800:2802   */\n              iszero\n              tag_234\n              jumpi\n                /* \"--CODEGEN--\":2841:2842   */\n              0x00\n                /* \"--CODEGEN--\":2838:2839   */\n              dup1\n                /* \"--CODEGEN--\":2831:2843   */\n              revert\n                /* \"--CODEGEN--\":2800:2802   */\n            tag_234:\n                /* \"--CODEGEN--\":2851:2892   */\n              tag_235\n                /* \"--CODEGEN--\":2885:2891   */\n              dup4\n                /* \"--CODEGEN--\":2880:2883   */\n              dup3\n                /* \"--CODEGEN--\":2875:2878   */\n              dup5\n                /* \"--CODEGEN--\":2851:2892   */\n              jump(tag_219)\n            tag_235:\n                /* \"--CODEGEN--\":2518:2898   */\n              pop\n              pop\n              pop\n              swap3\n              swap2\n              pop\n              pop\n              jump\n                /* \"--CODEGEN--\":2939:3508   */\n            tag_197:\n              0x00\n                /* \"--CODEGEN--\":3052:3056   */\n              0x40\n                /* \"--CODEGEN--\":3040:3049   */\n              dup3\n                /* \"--CODEGEN--\":3035:3038   */\n              dup5\n                /* \"--CODEGEN--\":3031:3050   */\n              sub\n                /* \"--CODEGEN--\":3027:3057   */\n              slt\n                /* \"--CODEGEN--\":3024:3026   */\n              iszero\n              tag_237\n              jumpi\n                /* \"--CODEGEN--\":3070:3071   */\n              0x00\n                /* \"--CODEGEN--\":3067:3068   */\n              dup1\n                /* \"--CODEGEN--\":3060:3072   */\n              revert\n                /* \"--CODEGEN--\":3024:3026   */\n            tag_237:\n                /* \"--CODEGEN--\":3088:3108   */\n              tag_238\n                /* \"--CODEGEN--\":3103:3107   */\n              0x40\n                /* \"--CODEGEN--\":3088:3108   */\n              jump(tag_192)\n            tag_238:\n                /* \"--CODEGEN--\":3079:3108   */\n              swap1\n              pop\n                /* \"--CODEGEN--\":3193:3194   */\n              0x00\n                /* \"--CODEGEN--\":3182:3191   */\n              dup3\n                /* \"--CODEGEN--\":3178:3195   */\n              add\n                /* \"--CODEGEN--\":3165:3196   */\n              calldataload\n                /* \"--CODEGEN--\":3216:3234   */\n              0xffffffffffffffff\n                /* \"--CODEGEN--\":3208:3214   */\n              dup2\n                /* \"--CODEGEN--\":3205:3235   */\n              gt\n                /* \"--CODEGEN--\":3202:3204   */\n              iszero\n              tag_239\n              jumpi\n                /* \"--CODEGEN--\":3248:3249   */\n              0x00\n                /* \"--CODEGEN--\":3245:3246   */\n              dup1\n                /* \"--CODEGEN--\":3238:3250   */\n              revert\n                /* \"--CODEGEN--\":3202:3204   */\n            tag_239:\n                /* \"--CODEGEN--\":3283:3338   */\n              tag_240\n                /* \"--CODEGEN--\":3334:3337   */\n              dup5\n                /* \"--CODEGEN--\":3325:3331   */\n              dup3\n                /* \"--CODEGEN--\":3314:3323   */\n              dup6\n                /* \"--CODEGEN--\":3310:3332   */\n              add\n                /* \"--CODEGEN--\":3283:3338   */\n              jump(tag_220)\n            tag_240:\n                /* \"--CODEGEN--\":3276:3280   */\n              0x00\n                /* \"--CODEGEN--\":3269:3274   */\n              dup4\n                /* \"--CODEGEN--\":3265:3281   */\n              add\n                /* \"--CODEGEN--\":3258:3339   */\n              mstore\n                /* \"--CODEGEN--\":3118:3350   */\n              pop\n                /* \"--CODEGEN--\":3404:3406   */\n              0x20\n                /* \"--CODEGEN--\":3437:3486   */\n              tag_241\n                /* \"--CODEGEN--\":3482:3485   */\n              dup5\n                /* \"--CODEGEN--\":3473:3479   */\n              dup3\n                /* \"--CODEGEN--\":3462:3471   */\n              dup6\n                /* \"--CODEGEN--\":3458:3480   */\n              add\n                /* \"--CODEGEN--\":3437:3486   */\n              jump(tag_242)\n            tag_241:\n                /* \"--CODEGEN--\":3430:3434   */\n              0x20\n                /* \"--CODEGEN--\":3423:3428   */\n              dup4\n                /* \"--CODEGEN--\":3419:3435   */\n              add\n                /* \"--CODEGEN--\":3412:3487   */\n              mstore\n                /* \"--CODEGEN--\":3360:3498   */\n              pop\n                /* \"--CODEGEN--\":3018:3508   */\n              swap3\n              swap2\n              pop\n              pop\n              jump\n                /* \"--CODEGEN--\":3515:3645   */\n            tag_242:\n              0x00\n                /* \"--CODEGEN--\":3595:3601   */\n              dup2\n                /* \"--CODEGEN--\":3582:3602   */\n              calldataload\n                /* \"--CODEGEN--\":3573:3602   */\n              swap1\n              pop\n                /* \"--CODEGEN--\":3607:3640   */\n              tag_244\n                /* \"--CODEGEN--\":3634:3639   */\n              dup2\n                /* \"--CODEGEN--\":3607:3640   */\n              jump(tag_245)\n            tag_244:\n                /* \"--CODEGEN--\":3567:3645   */\n              swap3\n              swap2\n              pop\n              pop\n              jump\n                /* \"--CODEGEN--\":3652:3893   */\n            tag_28:\n              0x00\n                /* \"--CODEGEN--\":3756:3758   */\n              0x20\n                /* \"--CODEGEN--\":3744:3753   */\n              dup3\n                /* \"--CODEGEN--\":3735:3742   */\n              dup5\n                /* \"--CODEGEN--\":3731:3754   */\n              sub\n                /* \"--CODEGEN--\":3727:3759   */\n              slt\n                /* \"--CODEGEN--\":3724:3726   */\n              iszero\n              tag_247\n              jumpi\n                /* \"--CODEGEN--\":3772:3773   */\n              0x00\n                /* \"--CODEGEN--\":3769:3770   */\n              dup1\n                /* \"--CODEGEN--\":3762:3774   */\n              revert\n                /* \"--CODEGEN--\":3724:3726   */\n            tag_247:\n                /* \"--CODEGEN--\":3807:3808   */\n              0x00\n                /* \"--CODEGEN--\":3824:3877   */\n              tag_248\n                /* \"--CODEGEN--\":3869:3876   */\n              dup5\n                /* \"--CODEGEN--\":3860:3866   */\n              dup3\n                /* \"--CODEGEN--\":3849:3858   */\n              dup6\n                /* \"--CODEGEN--\":3845:3867   */\n              add\n                /* \"--CODEGEN--\":3824:3877   */\n              jump(tag_182)\n            tag_248:\n                /* \"--CODEGEN--\":3814:3877   */\n              swap2\n              pop\n                /* \"--CODEGEN--\":3786:3883   */\n              pop\n                /* \"--CODEGEN--\":3718:3893   */\n              swap3\n              swap2\n              pop\n              pop\n              jump\n                /* \"--CODEGEN--\":3900:5397   */\n            tag_52:\n              0x00\n              dup1\n              0x00\n              dup1\n              0x00\n              dup1\n              0x00\n              dup1\n              0x00\n              dup1\n              0x00\n                /* \"--CODEGEN--\":4179:4182   */\n              0x0120\n                /* \"--CODEGEN--\":4167:4176   */\n              dup13\n                /* \"--CODEGEN--\":4158:4165   */\n              dup15\n                /* \"--CODEGEN--\":4154:4177   */\n              sub\n                /* \"--CODEGEN--\":4150:4183   */\n              slt\n                /* \"--CODEGEN--\":4147:4149   */\n              iszero\n              tag_250\n              jumpi\n                /* \"--CODEGEN--\":4196:4197   */\n              0x00\n                /* \"--CODEGEN--\":4193:4194   */\n              dup1\n                /* \"--CODEGEN--\":4186:4198   */\n              revert\n                /* \"--CODEGEN--\":4147:4149   */\n            tag_250:\n                /* \"--CODEGEN--\":4231:4232   */\n              0x00\n                /* \"--CODEGEN--\":4248:4301   */\n              tag_251\n                /* \"--CODEGEN--\":4293:4300   */\n              dup15\n                /* \"--CODEGEN--\":4284:4290   */\n              dup3\n                /* \"--CODEGEN--\":4273:4282   */\n              dup16\n                /* \"--CODEGEN--\":4269:4291   */\n              add\n                /* \"--CODEGEN--\":4248:4301   */\n              jump(tag_182)\n            tag_251:\n                /* \"--CODEGEN--\":4238:4301   */\n              swap12\n              pop\n                /* \"--CODEGEN--\":4210:4307   */\n              pop\n                /* \"--CODEGEN--\":4338:4340   */\n              0x20\n                /* \"--CODEGEN--\":4356:4409   */\n              tag_252\n                /* \"--CODEGEN--\":4401:4408   */\n              dup15\n                /* \"--CODEGEN--\":4392:4398   */\n              dup3\n                /* \"--CODEGEN--\":4381:4390   */\n              dup16\n                /* \"--CODEGEN--\":4377:4399   */\n              add\n                /* \"--CODEGEN--\":4356:4409   */\n              jump(tag_182)\n            tag_252:\n                /* \"--CODEGEN--\":4346:4409   */\n              swap11\n              pop\n                /* \"--CODEGEN--\":4317:4415   */\n              pop\n                /* \"--CODEGEN--\":4474:4476   */\n              0x40\n                /* \"--CODEGEN--\":4463:4472   */\n              dup13\n                /* \"--CODEGEN--\":4459:4477   */\n              add\n                /* \"--CODEGEN--\":4446:4478   */\n              calldataload\n                /* \"--CODEGEN--\":4498:4516   */\n              0xffffffffffffffff\n                /* \"--CODEGEN--\":4490:4496   */\n              dup2\n                /* \"--CODEGEN--\":4487:4517   */\n              gt\n                /* \"--CODEGEN--\":4484:4486   */\n              iszero\n              tag_253\n              jumpi\n                /* \"--CODEGEN--\":4530:4531   */\n              0x00\n                /* \"--CODEGEN--\":4527:4528   */\n              dup1\n                /* \"--CODEGEN--\":4520:4532   */\n              revert\n                /* \"--CODEGEN--\":4484:4486   */\n            tag_253:\n                /* \"--CODEGEN--\":4558:4622   */\n              tag_254\n                /* \"--CODEGEN--\":4614:4621   */\n              dup15\n                /* \"--CODEGEN--\":4605:4611   */\n              dup3\n                /* \"--CODEGEN--\":4594:4603   */\n              dup16\n                /* \"--CODEGEN--\":4590:4612   */\n              add\n                /* \"--CODEGEN--\":4558:4622   */\n              jump(tag_206)\n            tag_254:\n                /* \"--CODEGEN--\":4548:4622   */\n              swap10\n              pop\n              swap10\n              pop\n                /* \"--CODEGEN--\":4425:4628   */\n              pop\n                /* \"--CODEGEN--\":4659:4661   */\n              0x60\n                /* \"--CODEGEN--\":4677:4730   */\n              tag_255\n                /* \"--CODEGEN--\":4722:4729   */\n              dup15\n                /* \"--CODEGEN--\":4713:4719   */\n              dup3\n                /* \"--CODEGEN--\":4702:4711   */\n              dup16\n                /* \"--CODEGEN--\":4698:4720   */\n              add\n                /* \"--CODEGEN--\":4677:4730   */\n              jump(tag_242)\n            tag_255:\n                /* \"--CODEGEN--\":4667:4730   */\n              swap8\n              pop\n                /* \"--CODEGEN--\":4638:4736   */\n              pop\n                /* \"--CODEGEN--\":4767:4770   */\n              0x80\n                /* \"--CODEGEN--\":4786:4839   */\n              tag_256\n                /* \"--CODEGEN--\":4831:4838   */\n              dup15\n                /* \"--CODEGEN--\":4822:4828   */\n              dup3\n                /* \"--CODEGEN--\":4811:4820   */\n              dup16\n                /* \"--CODEGEN--\":4807:4829   */\n              add\n                /* \"--CODEGEN--\":4786:4839   */\n              jump(tag_242)\n            tag_256:\n                /* \"--CODEGEN--\":4776:4839   */\n              swap7\n              pop\n                /* \"--CODEGEN--\":4746:4845   */\n              pop\n                /* \"--CODEGEN--\":4876:4879   */\n              0xa0\n                /* \"--CODEGEN--\":4895:4948   */\n              tag_257\n                /* \"--CODEGEN--\":4940:4947   */\n              dup15\n                /* \"--CODEGEN--\":4931:4937   */\n              dup3\n                /* \"--CODEGEN--\":4920:4929   */\n              dup16\n                /* \"--CODEGEN--\":4916:4938   */\n              add\n                /* \"--CODEGEN--\":4895:4948   */\n              jump(tag_242)\n            tag_257:\n                /* \"--CODEGEN--\":4885:4948   */\n              swap6\n              pop\n                /* \"--CODEGEN--\":4855:4954   */\n              pop\n                /* \"--CODEGEN--\":4985:4988   */\n              0xc0\n                /* \"--CODEGEN--\":5004:5057   */\n              tag_258\n                /* \"--CODEGEN--\":5049:5056   */\n              dup15\n                /* \"--CODEGEN--\":5040:5046   */\n              dup3\n                /* \"--CODEGEN--\":5029:5038   */\n              dup16\n                /* \"--CODEGEN--\":5025:5047   */\n              add\n                /* \"--CODEGEN--\":5004:5057   */\n              jump(tag_242)\n            tag_258:\n                /* \"--CODEGEN--\":4994:5057   */\n              swap5\n              pop\n                /* \"--CODEGEN--\":4964:5063   */\n              pop\n                /* \"--CODEGEN--\":5122:5125   */\n              0xe0\n                /* \"--CODEGEN--\":5111:5120   */\n              dup13\n                /* \"--CODEGEN--\":5107:5126   */\n              add\n                /* \"--CODEGEN--\":5094:5127   */\n              calldataload\n                /* \"--CODEGEN--\":5147:5165   */\n              0xffffffffffffffff\n                /* \"--CODEGEN--\":5139:5145   */\n              dup2\n                /* \"--CODEGEN--\":5136:5166   */\n              gt\n                /* \"--CODEGEN--\":5133:5135   */\n              iszero\n              tag_259\n              jumpi\n                /* \"--CODEGEN--\":5179:5180   */\n              0x00\n                /* \"--CODEGEN--\":5176:5177   */\n              dup1\n                /* \"--CODEGEN--\":5169:5181   */\n              revert\n                /* \"--CODEGEN--\":5133:5135   */\n            tag_259:\n                /* \"--CODEGEN--\":5207:5271   */\n              tag_260\n                /* \"--CODEGEN--\":5263:5270   */\n              dup15\n                /* \"--CODEGEN--\":5254:5260   */\n              dup3\n                /* \"--CODEGEN--\":5243:5252   */\n              dup16\n                /* \"--CODEGEN--\":5239:5261   */\n              add\n                /* \"--CODEGEN--\":5207:5271   */\n              jump(tag_206)\n            tag_260:\n                /* \"--CODEGEN--\":5197:5271   */\n              swap4\n              pop\n              swap4\n              pop\n                /* \"--CODEGEN--\":5073:5277   */\n              pop\n                /* \"--CODEGEN--\":5308:5311   */\n              0x0100\n                /* \"--CODEGEN--\":5328:5381   */\n              tag_261\n                /* \"--CODEGEN--\":5373:5380   */\n              dup15\n                /* \"--CODEGEN--\":5364:5370   */\n              dup3\n                /* \"--CODEGEN--\":5353:5362   */\n              dup16\n                /* \"--CODEGEN--\":5349:5371   */\n              add\n                /* \"--CODEGEN--\":5328:5381   */\n              jump(tag_242)\n            tag_261:\n                /* \"--CODEGEN--\":5317:5381   */\n              swap2\n              pop\n                /* \"--CODEGEN--\":5287:5387   */\n              pop\n                /* \"--CODEGEN--\":4141:5397   */\n              swap3\n              swap6\n              swap9\n              swap12\n              pop\n              swap3\n              swap6\n              swap9\n              swap12\n              swap1\n              swap4\n              swap7\n              swap10\n              pop\n              jump\n                /* \"--CODEGEN--\":5404:5749   */\n            tag_45:\n              0x00\n                /* \"--CODEGEN--\":5517:5519   */\n              0x20\n                /* \"--CODEGEN--\":5505:5514   */\n              dup3\n                /* \"--CODEGEN--\":5496:5503   */\n              dup5\n                /* \"--CODEGEN--\":5492:5515   */\n              sub\n                /* \"--CODEGEN--\":5488:5520   */\n              slt\n                /* \"--CODEGEN--\":5485:5487   */\n              iszero\n              tag_263\n              jumpi\n                /* \"--CODEGEN--\":5533:5534   */\n              0x00\n                /* \"--CODEGEN--\":5530:5531   */\n              dup1\n                /* \"--CODEGEN--\":5523:5535   */\n              revert\n                /* \"--CODEGEN--\":5485:5487   */\n            tag_263:\n                /* \"--CODEGEN--\":5596:5597   */\n              0x00\n                /* \"--CODEGEN--\":5585:5594   */\n              dup3\n                /* \"--CODEGEN--\":5581:5598   */\n              add\n                /* \"--CODEGEN--\":5568:5599   */\n              calldataload\n                /* \"--CODEGEN--\":5619:5637   */\n              0xffffffffffffffff\n                /* \"--CODEGEN--\":5611:5617   */\n              dup2\n                /* \"--CODEGEN--\":5608:5638   */\n              gt\n                /* \"--CODEGEN--\":5605:5607   */\n              iszero\n              tag_264\n              jumpi\n                /* \"--CODEGEN--\":5651:5652   */\n              0x00\n                /* \"--CODEGEN--\":5648:5649   */\n              dup1\n                /* \"--CODEGEN--\":5641:5653   */\n              revert\n                /* \"--CODEGEN--\":5605:5607   */\n            tag_264:\n                /* \"--CODEGEN--\":5671:5733   */\n              tag_265\n                /* \"--CODEGEN--\":5725:5732   */\n              dup5\n                /* \"--CODEGEN--\":5716:5722   */\n              dup3\n                /* \"--CODEGEN--\":5705:5714   */\n              dup6\n                /* \"--CODEGEN--\":5701:5723   */\n              add\n                /* \"--CODEGEN--\":5671:5733   */\n              jump(tag_211)\n            tag_265:\n                /* \"--CODEGEN--\":5661:5733   */\n              swap2\n              pop\n                /* \"--CODEGEN--\":5547:5739   */\n              pop\n                /* \"--CODEGEN--\":5479:5749   */\n              swap3\n              swap2\n              pop\n              pop\n              jump\n                /* \"--CODEGEN--\":5756:6471   */\n            tag_84:\n              0x00\n              dup1\n              0x00\n              dup1\n                /* \"--CODEGEN--\":5917:5920   */\n              0x80\n                /* \"--CODEGEN--\":5905:5914   */\n              dup6\n                /* \"--CODEGEN--\":5896:5903   */\n              dup8\n                /* \"--CODEGEN--\":5892:5915   */\n              sub\n                /* \"--CODEGEN--\":5888:5921   */\n              slt\n                /* \"--CODEGEN--\":5885:5887   */\n              iszero\n              tag_267\n              jumpi\n                /* \"--CODEGEN--\":5934:5935   */\n              0x00\n                /* \"--CODEGEN--\":5931:5932   */\n              dup1\n                /* \"--CODEGEN--\":5924:5936   */\n              revert\n                /* \"--CODEGEN--\":5885:5887   */\n            tag_267:\n                /* \"--CODEGEN--\":5997:5998   */\n              0x00\n                /* \"--CODEGEN--\":5986:5995   */\n              dup6\n                /* \"--CODEGEN--\":5982:5999   */\n              add\n                /* \"--CODEGEN--\":5969:6000   */\n              calldataload\n                /* \"--CODEGEN--\":6020:6038   */\n              0xffffffffffffffff\n                /* \"--CODEGEN--\":6012:6018   */\n              dup2\n                /* \"--CODEGEN--\":6009:6039   */\n              gt\n                /* \"--CODEGEN--\":6006:6008   */\n              iszero\n              tag_268\n              jumpi\n                /* \"--CODEGEN--\":6052:6053   */\n              0x00\n                /* \"--CODEGEN--\":6049:6050   */\n              dup1\n                /* \"--CODEGEN--\":6042:6054   */\n              revert\n                /* \"--CODEGEN--\":6006:6008   */\n            tag_268:\n                /* \"--CODEGEN--\":6072:6134   */\n              tag_269\n                /* \"--CODEGEN--\":6126:6133   */\n              dup8\n                /* \"--CODEGEN--\":6117:6123   */\n              dup3\n                /* \"--CODEGEN--\":6106:6115   */\n              dup9\n                /* \"--CODEGEN--\":6102:6124   */\n              add\n                /* \"--CODEGEN--\":6072:6134   */\n              jump(tag_211)\n            tag_269:\n                /* \"--CODEGEN--\":6062:6134   */\n              swap5\n              pop\n                /* \"--CODEGEN--\":5948:6140   */\n              pop\n                /* \"--CODEGEN--\":6171:6173   */\n              0x20\n                /* \"--CODEGEN--\":6189:6239   */\n              tag_270\n                /* \"--CODEGEN--\":6231:6238   */\n              dup8\n                /* \"--CODEGEN--\":6222:6228   */\n              dup3\n                /* \"--CODEGEN--\":6211:6220   */\n              dup9\n                /* \"--CODEGEN--\":6207:6229   */\n              add\n                /* \"--CODEGEN--\":6189:6239   */\n              jump(tag_198)\n            tag_270:\n                /* \"--CODEGEN--\":6179:6239   */\n              swap4\n              pop\n                /* \"--CODEGEN--\":6150:6245   */\n              pop\n                /* \"--CODEGEN--\":6276:6278   */\n              0x40\n                /* \"--CODEGEN--\":6294:6347   */\n              tag_271\n                /* \"--CODEGEN--\":6339:6346   */\n              dup8\n                /* \"--CODEGEN--\":6330:6336   */\n              dup3\n                /* \"--CODEGEN--\":6319:6328   */\n              dup9\n                /* \"--CODEGEN--\":6315:6337   */\n              add\n                /* \"--CODEGEN--\":6294:6347   */\n              jump(tag_242)\n            tag_271:\n                /* \"--CODEGEN--\":6284:6347   */\n              swap3\n              pop\n                /* \"--CODEGEN--\":6255:6353   */\n              pop\n                /* \"--CODEGEN--\":6384:6386   */\n              0x60\n                /* \"--CODEGEN--\":6402:6455   */\n              tag_272\n                /* \"--CODEGEN--\":6447:6454   */\n              dup8\n                /* \"--CODEGEN--\":6438:6444   */\n              dup3\n                /* \"--CODEGEN--\":6427:6436   */\n              dup9\n                /* \"--CODEGEN--\":6423:6445   */\n              add\n                /* \"--CODEGEN--\":6402:6455   */\n              jump(tag_202)\n            tag_272:\n                /* \"--CODEGEN--\":6392:6455   */\n              swap2\n              pop\n                /* \"--CODEGEN--\":6363:6461   */\n              pop\n                /* \"--CODEGEN--\":5879:6471   */\n              swap3\n              swap6\n              swap2\n              swap5\n              pop\n              swap3\n              pop\n              jump\n                /* \"--CODEGEN--\":6478:7723   */\n            tag_76:\n              0x00\n              dup1\n              0x00\n              dup1\n              0x00\n                /* \"--CODEGEN--\":6729:6732   */\n              0xa0\n                /* \"--CODEGEN--\":6717:6726   */\n              dup7\n                /* \"--CODEGEN--\":6708:6715   */\n              dup9\n                /* \"--CODEGEN--\":6704:6727   */\n              sub\n                /* \"--CODEGEN--\":6700:6733   */\n              slt\n                /* \"--CODEGEN--\":6697:6699   */\n              iszero\n              tag_274\n              jumpi\n                /* \"--CODEGEN--\":6746:6747   */\n              0x00\n                /* \"--CODEGEN--\":6743:6744   */\n              dup1\n                /* \"--CODEGEN--\":6736:6748   */\n              revert\n                /* \"--CODEGEN--\":6697:6699   */\n            tag_274:\n                /* \"--CODEGEN--\":6809:6810   */\n              0x00\n                /* \"--CODEGEN--\":6798:6807   */\n              dup7\n                /* \"--CODEGEN--\":6794:6811   */\n              add\n                /* \"--CODEGEN--\":6781:6812   */\n              calldataload\n                /* \"--CODEGEN--\":6832:6850   */\n              0xffffffffffffffff\n                /* \"--CODEGEN--\":6824:6830   */\n              dup2\n                /* \"--CODEGEN--\":6821:6851   */\n              gt\n                /* \"--CODEGEN--\":6818:6820   */\n              iszero\n              tag_275\n              jumpi\n                /* \"--CODEGEN--\":6864:6865   */\n              0x00\n                /* \"--CODEGEN--\":6861:6862   */\n              dup1\n                /* \"--CODEGEN--\":6854:6866   */\n              revert\n                /* \"--CODEGEN--\":6818:6820   */\n            tag_275:\n                /* \"--CODEGEN--\":6884:6947   */\n              tag_276\n                /* \"--CODEGEN--\":6939:6946   */\n              dup9\n                /* \"--CODEGEN--\":6930:6936   */\n              dup3\n                /* \"--CODEGEN--\":6919:6928   */\n              dup10\n                /* \"--CODEGEN--\":6915:6937   */\n              add\n                /* \"--CODEGEN--\":6884:6947   */\n              jump(tag_228)\n            tag_276:\n                /* \"--CODEGEN--\":6874:6947   */\n              swap6\n              pop\n                /* \"--CODEGEN--\":6760:6953   */\n              pop\n                /* \"--CODEGEN--\":7012:7014   */\n              0x20\n                /* \"--CODEGEN--\":7001:7010   */\n              dup7\n                /* \"--CODEGEN--\":6997:7015   */\n              add\n                /* \"--CODEGEN--\":6984:7016   */\n              calldataload\n                /* \"--CODEGEN--\":7036:7054   */\n              0xffffffffffffffff\n                /* \"--CODEGEN--\":7028:7034   */\n              dup2\n                /* \"--CODEGEN--\":7025:7055   */\n              gt\n                /* \"--CODEGEN--\":7022:7024   */\n              iszero\n              tag_277\n              jumpi\n                /* \"--CODEGEN--\":7068:7069   */\n              0x00\n                /* \"--CODEGEN--\":7065:7066   */\n              dup1\n                /* \"--CODEGEN--\":7058:7070   */\n              revert\n                /* \"--CODEGEN--\":7022:7024   */\n            tag_277:\n                /* \"--CODEGEN--\":7088:7151   */\n              tag_278\n                /* \"--CODEGEN--\":7143:7150   */\n              dup9\n                /* \"--CODEGEN--\":7134:7140   */\n              dup3\n                /* \"--CODEGEN--\":7123:7132   */\n              dup10\n                /* \"--CODEGEN--\":7119:7141   */\n              add\n                /* \"--CODEGEN--\":7088:7151   */\n              jump(tag_228)\n            tag_278:\n                /* \"--CODEGEN--\":7078:7151   */\n              swap5\n              pop\n                /* \"--CODEGEN--\":6963:7157   */\n              pop\n                /* \"--CODEGEN--\":7216:7218   */\n              0x40\n                /* \"--CODEGEN--\":7205:7214   */\n              dup7\n                /* \"--CODEGEN--\":7201:7219   */\n              add\n                /* \"--CODEGEN--\":7188:7220   */\n              calldataload\n                /* \"--CODEGEN--\":7240:7258   */\n              0xffffffffffffffff\n                /* \"--CODEGEN--\":7232:7238   */\n              dup2\n                /* \"--CODEGEN--\":7229:7259   */\n              gt\n                /* \"--CODEGEN--\":7226:7228   */\n              iszero\n              tag_279\n              jumpi\n                /* \"--CODEGEN--\":7272:7273   */\n              0x00\n                /* \"--CODEGEN--\":7269:7270   */\n              dup1\n                /* \"--CODEGEN--\":7262:7274   */\n              revert\n                /* \"--CODEGEN--\":7226:7228   */\n            tag_279:\n                /* \"--CODEGEN--\":7292:7355   */\n              tag_280\n                /* \"--CODEGEN--\":7347:7354   */\n              dup9\n                /* \"--CODEGEN--\":7338:7344   */\n              dup3\n                /* \"--CODEGEN--\":7327:7336   */\n              dup10\n                /* \"--CODEGEN--\":7323:7345   */\n              add\n                /* \"--CODEGEN--\":7292:7355   */\n              jump(tag_228)\n            tag_280:\n                /* \"--CODEGEN--\":7282:7355   */\n              swap4\n              pop\n                /* \"--CODEGEN--\":7167:7361   */\n              pop\n                /* \"--CODEGEN--\":7392:7394   */\n              0x60\n                /* \"--CODEGEN--\":7410:7463   */\n              tag_281\n                /* \"--CODEGEN--\":7455:7462   */\n              dup9\n                /* \"--CODEGEN--\":7446:7452   */\n              dup3\n                /* \"--CODEGEN--\":7435:7444   */\n              dup10\n                /* \"--CODEGEN--\":7431:7453   */\n              add\n                /* \"--CODEGEN--\":7410:7463   */\n              jump(tag_242)\n            tag_281:\n                /* \"--CODEGEN--\":7400:7463   */\n              swap3\n              pop\n                /* \"--CODEGEN--\":7371:7469   */\n              pop\n                /* \"--CODEGEN--\":7528:7531   */\n              0x80\n                /* \"--CODEGEN--\":7517:7526   */\n              dup7\n                /* \"--CODEGEN--\":7513:7532   */\n              add\n                /* \"--CODEGEN--\":7500:7533   */\n              calldataload\n                /* \"--CODEGEN--\":7553:7571   */\n              0xffffffffffffffff\n                /* \"--CODEGEN--\":7545:7551   */\n              dup2\n                /* \"--CODEGEN--\":7542:7572   */\n              gt\n                /* \"--CODEGEN--\":7539:7541   */\n              iszero\n              tag_282\n              jumpi\n                /* \"--CODEGEN--\":7585:7586   */\n              0x00\n                /* \"--CODEGEN--\":7582:7583   */\n              dup1\n                /* \"--CODEGEN--\":7575:7587   */\n              revert\n                /* \"--CODEGEN--\":7539:7541   */\n            tag_282:\n                /* \"--CODEGEN--\":7605:7707   */\n              tag_283\n                /* \"--CODEGEN--\":7699:7706   */\n              dup9\n                /* \"--CODEGEN--\":7690:7696   */\n              dup3\n                /* \"--CODEGEN--\":7679:7688   */\n              dup10\n                /* \"--CODEGEN--\":7675:7697   */\n              add\n                /* \"--CODEGEN--\":7605:7707   */\n              jump(tag_186)\n            tag_283:\n                /* \"--CODEGEN--\":7595:7707   */\n              swap2\n              pop\n                /* \"--CODEGEN--\":7479:7713   */\n              pop\n                /* \"--CODEGEN--\":6691:7723   */\n              swap3\n              swap6\n              pop\n              swap3\n              swap6\n              swap1\n              swap4\n              pop\n              jump\n                /* \"--CODEGEN--\":7730:8665   */\n            tag_23:\n              0x00\n              dup1\n              0x00\n              dup1\n                /* \"--CODEGEN--\":7915:7918   */\n              0x80\n                /* \"--CODEGEN--\":7903:7912   */\n              dup6\n                /* \"--CODEGEN--\":7894:7901   */\n              dup8\n                /* \"--CODEGEN--\":7890:7913   */\n              sub\n                /* \"--CODEGEN--\":7886:7919   */\n              slt\n                /* \"--CODEGEN--\":7883:7885   */\n              iszero\n              tag_285\n              jumpi\n                /* \"--CODEGEN--\":7932:7933   */\n              0x00\n                /* \"--CODEGEN--\":7929:7930   */\n              dup1\n                /* \"--CODEGEN--\":7922:7934   */\n              revert\n                /* \"--CODEGEN--\":7883:7885   */\n            tag_285:\n                /* \"--CODEGEN--\":7995:7996   */\n              0x00\n                /* \"--CODEGEN--\":7984:7993   */\n              dup6\n                /* \"--CODEGEN--\":7980:7997   */\n              add\n                /* \"--CODEGEN--\":7967:7998   */\n              calldataload\n                /* \"--CODEGEN--\":8018:8036   */\n              0xffffffffffffffff\n                /* \"--CODEGEN--\":8010:8016   */\n              dup2\n                /* \"--CODEGEN--\":8007:8037   */\n              gt\n                /* \"--CODEGEN--\":8004:8006   */\n              iszero\n              tag_286\n              jumpi\n                /* \"--CODEGEN--\":8050:8051   */\n              0x00\n                /* \"--CODEGEN--\":8047:8048   */\n              dup1\n                /* \"--CODEGEN--\":8040:8052   */\n              revert\n                /* \"--CODEGEN--\":8004:8006   */\n            tag_286:\n                /* \"--CODEGEN--\":8070:8133   */\n              tag_287\n                /* \"--CODEGEN--\":8125:8132   */\n              dup8\n                /* \"--CODEGEN--\":8116:8122   */\n              dup3\n                /* \"--CODEGEN--\":8105:8114   */\n              dup9\n                /* \"--CODEGEN--\":8101:8123   */\n              add\n                /* \"--CODEGEN--\":8070:8133   */\n              jump(tag_228)\n            tag_287:\n                /* \"--CODEGEN--\":8060:8133   */\n              swap5\n              pop\n                /* \"--CODEGEN--\":7946:8139   */\n              pop\n                /* \"--CODEGEN--\":8170:8172   */\n              0x20\n                /* \"--CODEGEN--\":8188:8241   */\n              tag_288\n                /* \"--CODEGEN--\":8233:8240   */\n              dup8\n                /* \"--CODEGEN--\":8224:8230   */\n              dup3\n                /* \"--CODEGEN--\":8213:8222   */\n              dup9\n                /* \"--CODEGEN--\":8209:8231   */\n              add\n                /* \"--CODEGEN--\":8188:8241   */\n              jump(tag_242)\n            tag_288:\n                /* \"--CODEGEN--\":8178:8241   */\n              swap4\n              pop\n                /* \"--CODEGEN--\":8149:8247   */\n              pop\n                /* \"--CODEGEN--\":8306:8308   */\n              0x40\n                /* \"--CODEGEN--\":8295:8304   */\n              dup6\n                /* \"--CODEGEN--\":8291:8309   */\n              add\n                /* \"--CODEGEN--\":8278:8310   */\n              calldataload\n                /* \"--CODEGEN--\":8330:8348   */\n              0xffffffffffffffff\n                /* \"--CODEGEN--\":8322:8328   */\n              dup2\n                /* \"--CODEGEN--\":8319:8349   */\n              gt\n                /* \"--CODEGEN--\":8316:8318   */\n              iszero\n              tag_289\n              jumpi\n                /* \"--CODEGEN--\":8362:8363   */\n              0x00\n                /* \"--CODEGEN--\":8359:8360   */\n              dup1\n                /* \"--CODEGEN--\":8352:8364   */\n              revert\n                /* \"--CODEGEN--\":8316:8318   */\n            tag_289:\n                /* \"--CODEGEN--\":8382:8445   */\n              tag_290\n                /* \"--CODEGEN--\":8437:8444   */\n              dup8\n                /* \"--CODEGEN--\":8428:8434   */\n              dup3\n                /* \"--CODEGEN--\":8417:8426   */\n              dup9\n                /* \"--CODEGEN--\":8413:8435   */\n              add\n                /* \"--CODEGEN--\":8382:8445   */\n              jump(tag_228)\n            tag_290:\n                /* \"--CODEGEN--\":8372:8445   */\n              swap3\n              pop\n                /* \"--CODEGEN--\":8257:8451   */\n              pop\n                /* \"--CODEGEN--\":8510:8512   */\n              0x60\n                /* \"--CODEGEN--\":8499:8508   */\n              dup6\n                /* \"--CODEGEN--\":8495:8513   */\n              add\n                /* \"--CODEGEN--\":8482:8514   */\n              calldataload\n                /* \"--CODEGEN--\":8534:8552   */\n              0xffffffffffffffff\n                /* \"--CODEGEN--\":8526:8532   */\n              dup2\n                /* \"--CODEGEN--\":8523:8553   */\n              gt\n                /* \"--CODEGEN--\":8520:8522   */\n              iszero\n              tag_291\n              jumpi\n                /* \"--CODEGEN--\":8566:8567   */\n              0x00\n                /* \"--CODEGEN--\":8563:8564   */\n              dup1\n                /* \"--CODEGEN--\":8556:8568   */\n              revert\n                /* \"--CODEGEN--\":8520:8522   */\n            tag_291:\n                /* \"--CODEGEN--\":8586:8649   */\n              tag_292\n                /* \"--CODEGEN--\":8641:8648   */\n              dup8\n                /* \"--CODEGEN--\":8632:8638   */\n              dup3\n                /* \"--CODEGEN--\":8621:8630   */\n              dup9\n                /* \"--CODEGEN--\":8617:8639   */\n              add\n                /* \"--CODEGEN--\":8586:8649   */\n              jump(tag_228)\n            tag_292:\n                /* \"--CODEGEN--\":8576:8649   */\n              swap2\n              pop\n                /* \"--CODEGEN--\":8461:8655   */\n              pop\n                /* \"--CODEGEN--\":7877:8665   */\n              swap3\n              swap6\n              swap2\n              swap5\n              pop\n              swap3\n              pop\n              jump\n                /* \"--CODEGEN--\":8672:8785   */\n            tag_293:\n                /* \"--CODEGEN--\":8755:8779   */\n              tag_295\n                /* \"--CODEGEN--\":8773:8778   */\n              dup2\n                /* \"--CODEGEN--\":8755:8779   */\n              jump(tag_296)\n            tag_295:\n                /* \"--CODEGEN--\":8750:8753   */\n              dup3\n                /* \"--CODEGEN--\":8743:8780   */\n              mstore\n                /* \"--CODEGEN--\":8737:8785   */\n              pop\n              pop\n              jump\n                /* \"--CODEGEN--\":8792:8896   */\n            tag_297:\n                /* \"--CODEGEN--\":8869:8890   */\n              tag_299\n                /* \"--CODEGEN--\":8884:8889   */\n              dup2\n                /* \"--CODEGEN--\":8869:8890   */\n              jump(tag_300)\n            tag_299:\n                /* \"--CODEGEN--\":8864:8867   */\n              dup3\n                /* \"--CODEGEN--\":8857:8891   */\n              mstore\n                /* \"--CODEGEN--\":8851:8896   */\n              pop\n              pop\n              jump\n                /* \"--CODEGEN--\":8903:9016   */\n            tag_301:\n                /* \"--CODEGEN--\":8986:9010   */\n              tag_303\n                /* \"--CODEGEN--\":9004:9009   */\n              dup2\n                /* \"--CODEGEN--\":8986:9010   */\n              jump(tag_304)\n            tag_303:\n                /* \"--CODEGEN--\":8981:8984   */\n              dup3\n                /* \"--CODEGEN--\":8974:9011   */\n              mstore\n                /* \"--CODEGEN--\":8968:9016   */\n              pop\n              pop\n              jump\n                /* \"--CODEGEN--\":9023:9366   */\n            tag_305:\n              0x00\n                /* \"--CODEGEN--\":9133:9171   */\n              tag_307\n                /* \"--CODEGEN--\":9165:9170   */\n              dup3\n                /* \"--CODEGEN--\":9133:9171   */\n              jump(tag_308)\n            tag_307:\n                /* \"--CODEGEN--\":9183:9253   */\n              tag_309\n                /* \"--CODEGEN--\":9246:9252   */\n              dup2\n                /* \"--CODEGEN--\":9241:9244   */\n              dup6\n                /* \"--CODEGEN--\":9183:9253   */\n              jump(tag_310)\n            tag_309:\n                /* \"--CODEGEN--\":9176:9253   */\n              swap4\n              pop\n                /* \"--CODEGEN--\":9258:9310   */\n              tag_311\n                /* \"--CODEGEN--\":9303:9309   */\n              dup2\n                /* \"--CODEGEN--\":9298:9301   */\n              dup6\n                /* \"--CODEGEN--\":9291:9295   */\n              0x20\n                /* \"--CODEGEN--\":9284:9289   */\n              dup7\n                /* \"--CODEGEN--\":9280:9296   */\n              add\n                /* \"--CODEGEN--\":9258:9310   */\n              jump(tag_312)\n            tag_311:\n                /* \"--CODEGEN--\":9331:9360   */\n              tag_313\n                /* \"--CODEGEN--\":9353:9359   */\n              dup2\n                /* \"--CODEGEN--\":9331:9360   */\n              jump(tag_314)\n            tag_313:\n                /* \"--CODEGEN--\":9326:9329   */\n              dup5\n                /* \"--CODEGEN--\":9322:9361   */\n              add\n                /* \"--CODEGEN--\":9315:9361   */\n              swap2\n              pop\n                /* \"--CODEGEN--\":9113:9366   */\n              pop\n              swap3\n              swap2\n              pop\n              pop\n              jump\n                /* \"--CODEGEN--\":9373:9720   */\n            tag_315:\n              0x00\n                /* \"--CODEGEN--\":9485:9524   */\n              tag_317\n                /* \"--CODEGEN--\":9518:9523   */\n              dup3\n                /* \"--CODEGEN--\":9485:9524   */\n              jump(tag_318)\n            tag_317:\n                /* \"--CODEGEN--\":9536:9607   */\n              tag_319\n                /* \"--CODEGEN--\":9600:9606   */\n              dup2\n                /* \"--CODEGEN--\":9595:9598   */\n              dup6\n                /* \"--CODEGEN--\":9536:9607   */\n              jump(tag_320)\n            tag_319:\n                /* \"--CODEGEN--\":9529:9607   */\n              swap4\n              pop\n                /* \"--CODEGEN--\":9612:9664   */\n              tag_321\n                /* \"--CODEGEN--\":9657:9663   */\n              dup2\n                /* \"--CODEGEN--\":9652:9655   */\n              dup6\n                /* \"--CODEGEN--\":9645:9649   */\n              0x20\n                /* \"--CODEGEN--\":9638:9643   */\n              dup7\n                /* \"--CODEGEN--\":9634:9650   */\n              add\n                /* \"--CODEGEN--\":9612:9664   */\n              jump(tag_312)\n            tag_321:\n                /* \"--CODEGEN--\":9685:9714   */\n              tag_322\n                /* \"--CODEGEN--\":9707:9713   */\n              dup2\n                /* \"--CODEGEN--\":9685:9714   */\n              jump(tag_314)\n            tag_322:\n                /* \"--CODEGEN--\":9680:9683   */\n              dup5\n                /* \"--CODEGEN--\":9676:9715   */\n              add\n                /* \"--CODEGEN--\":9669:9715   */\n              swap2\n              pop\n                /* \"--CODEGEN--\":9465:9720   */\n              pop\n              swap3\n              swap2\n              pop\n              pop\n              jump\n                /* \"--CODEGEN--\":9727:10066   */\n            tag_323:\n              0x00\n                /* \"--CODEGEN--\":9835:9870   */\n              tag_325\n                /* \"--CODEGEN--\":9864:9869   */\n              dup3\n                /* \"--CODEGEN--\":9835:9870   */\n              jump(tag_326)\n            tag_325:\n                /* \"--CODEGEN--\":9882:9953   */\n              tag_327\n                /* \"--CODEGEN--\":9946:9952   */\n              dup2\n                /* \"--CODEGEN--\":9941:9944   */\n              dup6\n                /* \"--CODEGEN--\":9882:9953   */\n              jump(tag_320)\n            tag_327:\n                /* \"--CODEGEN--\":9875:9953   */\n              swap4\n              pop\n                /* \"--CODEGEN--\":9958:10010   */\n              tag_328\n                /* \"--CODEGEN--\":10003:10009   */\n              dup2\n                /* \"--CODEGEN--\":9998:10001   */\n              dup6\n                /* \"--CODEGEN--\":9991:9995   */\n              0x20\n                /* \"--CODEGEN--\":9984:9989   */\n              dup7\n                /* \"--CODEGEN--\":9980:9996   */\n              add\n                /* \"--CODEGEN--\":9958:10010   */\n              jump(tag_312)\n            tag_328:\n                /* \"--CODEGEN--\":10031:10060   */\n              tag_329\n                /* \"--CODEGEN--\":10053:10059   */\n              dup2\n                /* \"--CODEGEN--\":10031:10060   */\n              jump(tag_314)\n            tag_329:\n                /* \"--CODEGEN--\":10026:10029   */\n              dup5\n                /* \"--CODEGEN--\":10022:10061   */\n              add\n                /* \"--CODEGEN--\":10015:10061   */\n              swap2\n              pop\n                /* \"--CODEGEN--\":9815:10066   */\n              pop\n              swap3\n              swap2\n              pop\n              pop\n              jump\n                /* \"--CODEGEN--\":10074:10447   */\n            tag_330:\n              0x00\n                /* \"--CODEGEN--\":10234:10301   */\n              tag_332\n                /* \"--CODEGEN--\":10298:10300   */\n              0x24\n                /* \"--CODEGEN--\":10293:10296   */\n              dup4\n                /* \"--CODEGEN--\":10234:10301   */\n              jump(tag_320)\n            tag_332:\n                /* \"--CODEGEN--\":10227:10301   */\n              swap2\n              pop\n                /* \"--CODEGEN--\":10334:10368   */\n              0x47534e526563697069656e743a2063616c6c6572206973206e6f742052656c61\n                /* \"--CODEGEN--\":10330:10331   */\n              0x00\n                /* \"--CODEGEN--\":10325:10328   */\n              dup4\n                /* \"--CODEGEN--\":10321:10332   */\n              add\n                /* \"--CODEGEN--\":10314:10369   */\n              mstore\n                /* \"--CODEGEN--\":10403:10409   */\n              0x7948756200000000000000000000000000000000000000000000000000000000\n                /* \"--CODEGEN--\":10398:10400   */\n              0x20\n                /* \"--CODEGEN--\":10393:10396   */\n              dup4\n                /* \"--CODEGEN--\":10389:10401   */\n              add\n                /* \"--CODEGEN--\":10382:10410   */\n              mstore\n                /* \"--CODEGEN--\":10438:10440   */\n              0x40\n                /* \"--CODEGEN--\":10433:10436   */\n              dup3\n                /* \"--CODEGEN--\":10429:10441   */\n              add\n                /* \"--CODEGEN--\":10422:10441   */\n              swap1\n              pop\n                /* \"--CODEGEN--\":10220:10447   */\n              swap2\n              swap1\n              pop\n              jump\n                /* \"--CODEGEN--\":10455:10568   */\n            tag_333:\n                /* \"--CODEGEN--\":10538:10562   */\n              tag_335\n                /* \"--CODEGEN--\":10556:10561   */\n              dup2\n                /* \"--CODEGEN--\":10538:10562   */\n              jump(tag_336)\n            tag_335:\n                /* \"--CODEGEN--\":10533:10536   */\n              dup3\n                /* \"--CODEGEN--\":10526:10563   */\n              mstore\n                /* \"--CODEGEN--\":10520:10568   */\n              pop\n              pop\n              jump\n                /* \"--CODEGEN--\":10575:10788   */\n            tag_41:\n              0x00\n                /* \"--CODEGEN--\":10693:10695   */\n              0x20\n                /* \"--CODEGEN--\":10682:10691   */\n              dup3\n                /* \"--CODEGEN--\":10678:10696   */\n              add\n                /* \"--CODEGEN--\":10670:10696   */\n              swap1\n              pop\n                /* \"--CODEGEN--\":10707:10778   */\n              tag_338\n                /* \"--CODEGEN--\":10775:10776   */\n              0x00\n                /* \"--CODEGEN--\":10764:10773   */\n              dup4\n                /* \"--CODEGEN--\":10760:10777   */\n              add\n                /* \"--CODEGEN--\":10751:10757   */\n              dup5\n                /* \"--CODEGEN--\":10707:10778   */\n              jump(tag_293)\n            tag_338:\n                /* \"--CODEGEN--\":10664:10788   */\n              swap3\n              swap2\n              pop\n              pop\n              jump\n                /* \"--CODEGEN--\":10795:11718   */\n            tag_96:\n              0x00\n                /* \"--CODEGEN--\":11085:11088   */\n              0xa0\n                /* \"--CODEGEN--\":11074:11083   */\n              dup3\n                /* \"--CODEGEN--\":11070:11089   */\n              add\n                /* \"--CODEGEN--\":11062:11089   */\n              swap1\n              pop\n                /* \"--CODEGEN--\":11100:11171   */\n              tag_340\n                /* \"--CODEGEN--\":11168:11169   */\n              0x00\n                /* \"--CODEGEN--\":11157:11166   */\n              dup4\n                /* \"--CODEGEN--\":11153:11170   */\n              add\n                /* \"--CODEGEN--\":11144:11150   */\n              dup9\n                /* \"--CODEGEN--\":11100:11171   */\n              jump(tag_293)\n            tag_340:\n                /* \"--CODEGEN--\":11219:11228   */\n              dup2\n                /* \"--CODEGEN--\":11213:11217   */\n              dup2\n                /* \"--CODEGEN--\":11209:11229   */\n              sub\n                /* \"--CODEGEN--\":11204:11206   */\n              0x20\n                /* \"--CODEGEN--\":11193:11202   */\n              dup4\n                /* \"--CODEGEN--\":11189:11207   */\n              add\n                /* \"--CODEGEN--\":11182:11230   */\n              mstore\n                /* \"--CODEGEN--\":11244:11322   */\n              tag_341\n                /* \"--CODEGEN--\":11317:11321   */\n              dup2\n                /* \"--CODEGEN--\":11308:11314   */\n              dup8\n                /* \"--CODEGEN--\":11244:11322   */\n              jump(tag_315)\n            tag_341:\n                /* \"--CODEGEN--\":11236:11322   */\n              swap1\n              pop\n                /* \"--CODEGEN--\":11333:11405   */\n              tag_342\n                /* \"--CODEGEN--\":11401:11403   */\n              0x40\n                /* \"--CODEGEN--\":11390:11399   */\n              dup4\n                /* \"--CODEGEN--\":11386:11404   */\n              add\n                /* \"--CODEGEN--\":11377:11383   */\n              dup7\n                /* \"--CODEGEN--\":11333:11405   */\n              jump(tag_333)\n            tag_342:\n                /* \"--CODEGEN--\":11453:11462   */\n              dup2\n                /* \"--CODEGEN--\":11447:11451   */\n              dup2\n                /* \"--CODEGEN--\":11443:11463   */\n              sub\n                /* \"--CODEGEN--\":11438:11440   */\n              0x60\n                /* \"--CODEGEN--\":11427:11436   */\n              dup4\n                /* \"--CODEGEN--\":11423:11441   */\n              add\n                /* \"--CODEGEN--\":11416:11464   */\n              mstore\n                /* \"--CODEGEN--\":11478:11556   */\n              tag_343\n                /* \"--CODEGEN--\":11551:11555   */\n              dup2\n                /* \"--CODEGEN--\":11542:11548   */\n              dup6\n                /* \"--CODEGEN--\":11478:11556   */\n              jump(tag_315)\n            tag_343:\n                /* \"--CODEGEN--\":11470:11556   */\n              swap1\n              pop\n                /* \"--CODEGEN--\":11605:11614   */\n              dup2\n                /* \"--CODEGEN--\":11599:11603   */\n              dup2\n                /* \"--CODEGEN--\":11595:11615   */\n              sub\n                /* \"--CODEGEN--\":11589:11592   */\n              0x80\n                /* \"--CODEGEN--\":11578:11587   */\n              dup4\n                /* \"--CODEGEN--\":11574:11593   */\n              add\n                /* \"--CODEGEN--\":11567:11616   */\n              mstore\n                /* \"--CODEGEN--\":11630:11708   */\n              tag_344\n                /* \"--CODEGEN--\":11703:11707   */\n              dup2\n                /* \"--CODEGEN--\":11694:11700   */\n              dup5\n                /* \"--CODEGEN--\":11630:11708   */\n              jump(tag_315)\n            tag_344:\n                /* \"--CODEGEN--\":11622:11708   */\n              swap1\n              pop\n                /* \"--CODEGEN--\":11056:11718   */\n              swap7\n              swap6\n              pop\n              pop\n              pop\n              pop\n              pop\n              pop\n              jump\n                /* \"--CODEGEN--\":11725:12724   */\n            tag_31:\n              0x00\n                /* \"--CODEGEN--\":12025:12028   */\n              0xc0\n                /* \"--CODEGEN--\":12014:12023   */\n              dup3\n                /* \"--CODEGEN--\":12010:12029   */\n              add\n                /* \"--CODEGEN--\":12002:12029   */\n              swap1\n              pop\n                /* \"--CODEGEN--\":12040:12111   */\n              tag_346\n                /* \"--CODEGEN--\":12108:12109   */\n              0x00\n                /* \"--CODEGEN--\":12097:12106   */\n              dup4\n                /* \"--CODEGEN--\":12093:12110   */\n              add\n                /* \"--CODEGEN--\":12084:12090   */\n              dup10\n                /* \"--CODEGEN--\":12040:12111   */\n              jump(tag_293)\n            tag_346:\n                /* \"--CODEGEN--\":12159:12168   */\n              dup2\n                /* \"--CODEGEN--\":12153:12157   */\n              dup2\n                /* \"--CODEGEN--\":12149:12169   */\n              sub\n                /* \"--CODEGEN--\":12144:12146   */\n              0x20\n                /* \"--CODEGEN--\":12133:12142   */\n              dup4\n                /* \"--CODEGEN--\":12129:12147   */\n              add\n                /* \"--CODEGEN--\":12122:12170   */\n              mstore\n                /* \"--CODEGEN--\":12184:12258   */\n              tag_347\n                /* \"--CODEGEN--\":12253:12257   */\n              dup2\n                /* \"--CODEGEN--\":12244:12250   */\n              dup9\n                /* \"--CODEGEN--\":12184:12258   */\n              jump(tag_323)\n            tag_347:\n                /* \"--CODEGEN--\":12176:12258   */\n              swap1\n              pop\n                /* \"--CODEGEN--\":12306:12315   */\n              dup2\n                /* \"--CODEGEN--\":12300:12304   */\n              dup2\n                /* \"--CODEGEN--\":12296:12316   */\n              sub\n                /* \"--CODEGEN--\":12291:12293   */\n              0x40\n                /* \"--CODEGEN--\":12280:12289   */\n              dup4\n                /* \"--CODEGEN--\":12276:12294   */\n              add\n                /* \"--CODEGEN--\":12269:12317   */\n              mstore\n                /* \"--CODEGEN--\":12331:12405   */\n              tag_348\n                /* \"--CODEGEN--\":12400:12404   */\n              dup2\n                /* \"--CODEGEN--\":12391:12397   */\n              dup8\n                /* \"--CODEGEN--\":12331:12405   */\n              jump(tag_323)\n            tag_348:\n                /* \"--CODEGEN--\":12323:12405   */\n              swap1\n              pop\n                /* \"--CODEGEN--\":12453:12462   */\n              dup2\n                /* \"--CODEGEN--\":12447:12451   */\n              dup2\n                /* \"--CODEGEN--\":12443:12463   */\n              sub\n                /* \"--CODEGEN--\":12438:12440   */\n              0x60\n                /* \"--CODEGEN--\":12427:12436   */\n              dup4\n                /* \"--CODEGEN--\":12423:12441   */\n              add\n                /* \"--CODEGEN--\":12416:12464   */\n              mstore\n                /* \"--CODEGEN--\":12478:12552   */\n              tag_349\n                /* \"--CODEGEN--\":12547:12551   */\n              dup2\n                /* \"--CODEGEN--\":12538:12544   */\n              dup7\n                /* \"--CODEGEN--\":12478:12552   */\n              jump(tag_323)\n            tag_349:\n                /* \"--CODEGEN--\":12470:12552   */\n              swap1\n              pop\n                /* \"--CODEGEN--\":12563:12636   */\n              tag_350\n                /* \"--CODEGEN--\":12631:12634   */\n              0x80\n                /* \"--CODEGEN--\":12620:12629   */\n              dup4\n                /* \"--CODEGEN--\":12616:12635   */\n              add\n                /* \"--CODEGEN--\":12607:12613   */\n              dup6\n                /* \"--CODEGEN--\":12563:12636   */\n              jump(tag_333)\n            tag_350:\n                /* \"--CODEGEN--\":12647:12714   */\n              tag_351\n                /* \"--CODEGEN--\":12709:12712   */\n              0xa0\n                /* \"--CODEGEN--\":12698:12707   */\n              dup4\n                /* \"--CODEGEN--\":12694:12713   */\n              add\n                /* \"--CODEGEN--\":12685:12691   */\n              dup5\n                /* \"--CODEGEN--\":12647:12714   */\n              jump(tag_297)\n            tag_351:\n                /* \"--CODEGEN--\":11996:12724   */\n              swap8\n              swap7\n              pop\n              pop\n              pop\n              pop\n              pop\n              pop\n              pop\n              jump\n                /* \"--CODEGEN--\":12731:12944   */\n            tag_48:\n              0x00\n                /* \"--CODEGEN--\":12849:12851   */\n              0x20\n                /* \"--CODEGEN--\":12838:12847   */\n              dup3\n                /* \"--CODEGEN--\":12834:12852   */\n              add\n                /* \"--CODEGEN--\":12826:12852   */\n              swap1\n              pop\n                /* \"--CODEGEN--\":12863:12934   */\n              tag_353\n                /* \"--CODEGEN--\":12931:12932   */\n              0x00\n                /* \"--CODEGEN--\":12920:12929   */\n              dup4\n                /* \"--CODEGEN--\":12916:12933   */\n              add\n                /* \"--CODEGEN--\":12907:12913   */\n              dup5\n                /* \"--CODEGEN--\":12863:12934   */\n              jump(tag_301)\n            tag_353:\n                /* \"--CODEGEN--\":12820:12944   */\n              swap3\n              swap2\n              pop\n              pop\n              jump\n                /* \"--CODEGEN--\":12951:13244   */\n            tag_60:\n              0x00\n                /* \"--CODEGEN--\":13085:13087   */\n              0x20\n                /* \"--CODEGEN--\":13074:13083   */\n              dup3\n                /* \"--CODEGEN--\":13070:13088   */\n              add\n                /* \"--CODEGEN--\":13062:13088   */\n              swap1\n              pop\n                /* \"--CODEGEN--\":13135:13144   */\n              dup2\n                /* \"--CODEGEN--\":13129:13133   */\n              dup2\n                /* \"--CODEGEN--\":13125:13145   */\n              sub\n                /* \"--CODEGEN--\":13121:13122   */\n              0x00\n                /* \"--CODEGEN--\":13110:13119   */\n              dup4\n                /* \"--CODEGEN--\":13106:13123   */\n              add\n                /* \"--CODEGEN--\":13099:13146   */\n              mstore\n                /* \"--CODEGEN--\":13160:13234   */\n              tag_355\n                /* \"--CODEGEN--\":13229:13233   */\n              dup2\n                /* \"--CODEGEN--\":13220:13226   */\n              dup5\n                /* \"--CODEGEN--\":13160:13234   */\n              jump(tag_323)\n            tag_355:\n                /* \"--CODEGEN--\":13152:13234   */\n              swap1\n              pop\n                /* \"--CODEGEN--\":13056:13244   */\n              swap3\n              swap2\n              pop\n              pop\n              jump\n                /* \"--CODEGEN--\":13251:13552   */\n            tag_73:\n              0x00\n                /* \"--CODEGEN--\":13389:13391   */\n              0x20\n                /* \"--CODEGEN--\":13378:13387   */\n              dup3\n                /* \"--CODEGEN--\":13374:13392   */\n              add\n                /* \"--CODEGEN--\":13366:13392   */\n              swap1\n              pop\n                /* \"--CODEGEN--\":13439:13448   */\n              dup2\n                /* \"--CODEGEN--\":13433:13437   */\n              dup2\n                /* \"--CODEGEN--\":13429:13449   */\n              sub\n                /* \"--CODEGEN--\":13425:13426   */\n              0x00\n                /* \"--CODEGEN--\":13414:13423   */\n              dup4\n                /* \"--CODEGEN--\":13410:13427   */\n              add\n                /* \"--CODEGEN--\":13403:13450   */\n              mstore\n                /* \"--CODEGEN--\":13464:13542   */\n              tag_357\n                /* \"--CODEGEN--\":13537:13541   */\n              dup2\n                /* \"--CODEGEN--\":13528:13534   */\n              dup5\n                /* \"--CODEGEN--\":13464:13542   */\n              jump(tag_315)\n            tag_357:\n                /* \"--CODEGEN--\":13456:13542   */\n              swap1\n              pop\n                /* \"--CODEGEN--\":13360:13552   */\n              swap3\n              swap2\n              pop\n              pop\n              jump\n                /* \"--CODEGEN--\":13559:13966   */\n            tag_114:\n              0x00\n                /* \"--CODEGEN--\":13750:13752   */\n              0x20\n                /* \"--CODEGEN--\":13739:13748   */\n              dup3\n                /* \"--CODEGEN--\":13735:13753   */\n              add\n                /* \"--CODEGEN--\":13727:13753   */\n              swap1\n              pop\n                /* \"--CODEGEN--\":13800:13809   */\n              dup2\n                /* \"--CODEGEN--\":13794:13798   */\n              dup2\n                /* \"--CODEGEN--\":13790:13810   */\n              sub\n                /* \"--CODEGEN--\":13786:13787   */\n              0x00\n                /* \"--CODEGEN--\":13775:13784   */\n              dup4\n                /* \"--CODEGEN--\":13771:13788   */\n              add\n                /* \"--CODEGEN--\":13764:13811   */\n              mstore\n                /* \"--CODEGEN--\":13825:13956   */\n              tag_359\n                /* \"--CODEGEN--\":13951:13955   */\n              dup2\n                /* \"--CODEGEN--\":13825:13956   */\n              jump(tag_330)\n            tag_359:\n                /* \"--CODEGEN--\":13817:13956   */\n              swap1\n              pop\n                /* \"--CODEGEN--\":13721:13966   */\n              swap2\n              swap1\n              pop\n              jump\n                /* \"--CODEGEN--\":13973:14186   */\n            tag_36:\n              0x00\n                /* \"--CODEGEN--\":14091:14093   */\n              0x20\n                /* \"--CODEGEN--\":14080:14089   */\n              dup3\n                /* \"--CODEGEN--\":14076:14094   */\n              add\n                /* \"--CODEGEN--\":14068:14094   */\n              swap1\n              pop\n                /* \"--CODEGEN--\":14105:14176   */\n              tag_361\n                /* \"--CODEGEN--\":14173:14174   */\n              0x00\n                /* \"--CODEGEN--\":14162:14171   */\n              dup4\n                /* \"--CODEGEN--\":14158:14175   */\n              add\n                /* \"--CODEGEN--\":14149:14155   */\n              dup5\n                /* \"--CODEGEN--\":14105:14176   */\n              jump(tag_333)\n            tag_361:\n                /* \"--CODEGEN--\":14062:14186   */\n              swap3\n              swap2\n              pop\n              pop\n              jump\n                /* \"--CODEGEN--\":14193:14601   */\n            tag_55:\n              0x00\n                /* \"--CODEGEN--\":14357:14359   */\n              0x40\n                /* \"--CODEGEN--\":14346:14355   */\n              dup3\n                /* \"--CODEGEN--\":14342:14360   */\n              add\n                /* \"--CODEGEN--\":14334:14360   */\n              swap1\n              pop\n                /* \"--CODEGEN--\":14371:14442   */\n              tag_363\n                /* \"--CODEGEN--\":14439:14440   */\n              0x00\n                /* \"--CODEGEN--\":14428:14437   */\n              dup4\n                /* \"--CODEGEN--\":14424:14441   */\n              add\n                /* \"--CODEGEN--\":14415:14421   */\n              dup6\n                /* \"--CODEGEN--\":14371:14442   */\n              jump(tag_333)\n            tag_363:\n                /* \"--CODEGEN--\":14490:14499   */\n              dup2\n                /* \"--CODEGEN--\":14484:14488   */\n              dup2\n                /* \"--CODEGEN--\":14480:14500   */\n              sub\n                /* \"--CODEGEN--\":14475:14477   */\n              0x20\n                /* \"--CODEGEN--\":14464:14473   */\n              dup4\n                /* \"--CODEGEN--\":14460:14478   */\n              add\n                /* \"--CODEGEN--\":14453:14501   */\n              mstore\n                /* \"--CODEGEN--\":14515:14591   */\n              tag_364\n                /* \"--CODEGEN--\":14586:14590   */\n              dup2\n                /* \"--CODEGEN--\":14577:14583   */\n              dup5\n                /* \"--CODEGEN--\":14515:14591   */\n              jump(tag_305)\n            tag_364:\n                /* \"--CODEGEN--\":14507:14591   */\n              swap1\n              pop\n                /* \"--CODEGEN--\":14328:14601   */\n              swap4\n              swap3\n              pop\n              pop\n              pop\n              jump\n                /* \"--CODEGEN--\":14608:14864   */\n            tag_192:\n              0x00\n                /* \"--CODEGEN--\":14670:14672   */\n              0x40\n                /* \"--CODEGEN--\":14664:14673   */\n              mload\n                /* \"--CODEGEN--\":14654:14673   */\n              swap1\n              pop\n                /* \"--CODEGEN--\":14708:14712   */\n              dup2\n                /* \"--CODEGEN--\":14700:14706   */\n              dup2\n                /* \"--CODEGEN--\":14696:14713   */\n              add\n                /* \"--CODEGEN--\":14807:14813   */\n              dup2\n                /* \"--CODEGEN--\":14795:14805   */\n              dup2\n                /* \"--CODEGEN--\":14792:14814   */\n              lt\n                /* \"--CODEGEN--\":14771:14789   */\n              0xffffffffffffffff\n                /* \"--CODEGEN--\":14759:14769   */\n              dup3\n                /* \"--CODEGEN--\":14756:14790   */\n              gt\n                /* \"--CODEGEN--\":14753:14815   */\n              or\n                /* \"--CODEGEN--\":14750:14752   */\n              iszero\n              tag_366\n              jumpi\n                /* \"--CODEGEN--\":14828:14829   */\n              0x00\n                /* \"--CODEGEN--\":14825:14826   */\n              dup1\n                /* \"--CODEGEN--\":14818:14830   */\n              revert\n                /* \"--CODEGEN--\":14750:14752   */\n            tag_366:\n                /* \"--CODEGEN--\":14848:14858   */\n              dup1\n                /* \"--CODEGEN--\":14844:14846   */\n              0x40\n                /* \"--CODEGEN--\":14837:14859   */\n              mstore\n                /* \"--CODEGEN--\":14648:14864   */\n              pop\n              swap2\n              swap1\n              pop\n              jump\n                /* \"--CODEGEN--\":14871:15199   */\n            tag_191:\n              0x00\n                /* \"--CODEGEN--\":15054:15072   */\n              0xffffffffffffffff\n                /* \"--CODEGEN--\":15046:15052   */\n              dup3\n                /* \"--CODEGEN--\":15043:15073   */\n              gt\n                /* \"--CODEGEN--\":15040:15042   */\n              iszero\n              tag_368\n              jumpi\n                /* \"--CODEGEN--\":15086:15087   */\n              0x00\n                /* \"--CODEGEN--\":15083:15084   */\n              dup1\n                /* \"--CODEGEN--\":15076:15088   */\n              revert\n                /* \"--CODEGEN--\":15040:15042   */\n            tag_368:\n                /* \"--CODEGEN--\":15121:15125   */\n              0x20\n                /* \"--CODEGEN--\":15113:15119   */\n              dup3\n                /* \"--CODEGEN--\":15109:15126   */\n              mul\n                /* \"--CODEGEN--\":15101:15126   */\n              swap1\n              pop\n                /* \"--CODEGEN--\":15184:15188   */\n              0x20\n                /* \"--CODEGEN--\":15178:15182   */\n              dup2\n                /* \"--CODEGEN--\":15174:15189   */\n              add\n                /* \"--CODEGEN--\":15166:15189   */\n              swap1\n              pop\n                /* \"--CODEGEN--\":14977:15199   */\n              swap2\n              swap1\n              pop\n              jump\n                /* \"--CODEGEN--\":15206:15527   */\n            tag_216:\n              0x00\n                /* \"--CODEGEN--\":15349:15367   */\n              0xffffffffffffffff\n                /* \"--CODEGEN--\":15341:15347   */\n              dup3\n                /* \"--CODEGEN--\":15338:15368   */\n              gt\n                /* \"--CODEGEN--\":15335:15337   */\n              iszero\n              tag_370\n              jumpi\n                /* \"--CODEGEN--\":15381:15382   */\n              0x00\n                /* \"--CODEGEN--\":15378:15379   */\n              dup1\n                /* \"--CODEGEN--\":15371:15383   */\n              revert\n                /* \"--CODEGEN--\":15335:15337   */\n            tag_370:\n                /* \"--CODEGEN--\":15448:15452   */\n              0x1f\n                /* \"--CODEGEN--\":15444:15453   */\n              not\n                /* \"--CODEGEN--\":15437:15441   */\n              0x1f\n                /* \"--CODEGEN--\":15429:15435   */\n              dup4\n                /* \"--CODEGEN--\":15425:15442   */\n              add\n                /* \"--CODEGEN--\":15421:15454   */\n              and\n                /* \"--CODEGEN--\":15413:15454   */\n              swap1\n              pop\n                /* \"--CODEGEN--\":15512:15516   */\n              0x20\n                /* \"--CODEGEN--\":15506:15510   */\n              dup2\n                /* \"--CODEGEN--\":15502:15517   */\n              add\n                /* \"--CODEGEN--\":15494:15517   */\n              swap1\n              pop\n                /* \"--CODEGEN--\":15272:15527   */\n              swap2\n              swap1\n              pop\n              jump\n                /* \"--CODEGEN--\":15534:15852   */\n            tag_225:\n              0x00\n                /* \"--CODEGEN--\":15674:15692   */\n              0xffffffffffffffff\n                /* \"--CODEGEN--\":15666:15672   */\n              dup3\n                /* \"--CODEGEN--\":15663:15693   */\n              gt\n                /* \"--CODEGEN--\":15660:15662   */\n              iszero\n              tag_372\n              jumpi\n                /* \"--CODEGEN--\":15706:15707   */\n              0x00\n                /* \"--CODEGEN--\":15703:15704   */\n              dup1\n                /* \"--CODEGEN--\":15696:15708   */\n              revert\n                /* \"--CODEGEN--\":15660:15662   */\n            tag_372:\n                /* \"--CODEGEN--\":15773:15777   */\n              0x1f\n                /* \"--CODEGEN--\":15769:15778   */\n              not\n                /* \"--CODEGEN--\":15762:15766   */\n              0x1f\n                /* \"--CODEGEN--\":15754:15760   */\n              dup4\n                /* \"--CODEGEN--\":15750:15767   */\n              add\n                /* \"--CODEGEN--\":15746:15779   */\n              and\n                /* \"--CODEGEN--\":15738:15779   */\n              swap1\n              pop\n                /* \"--CODEGEN--\":15837:15841   */\n              0x20\n                /* \"--CODEGEN--\":15831:15835   */\n              dup2\n                /* \"--CODEGEN--\":15827:15842   */\n              add\n                /* \"--CODEGEN--\":15819:15842   */\n              swap1\n              pop\n                /* \"--CODEGEN--\":15597:15852   */\n              swap2\n              swap1\n              pop\n              jump\n                /* \"--CODEGEN--\":15859:16181   */\n            tag_233:\n              0x00\n                /* \"--CODEGEN--\":16003:16021   */\n              0xffffffffffffffff\n                /* \"--CODEGEN--\":15995:16001   */\n              dup3\n                /* \"--CODEGEN--\":15992:16022   */\n              gt\n                /* \"--CODEGEN--\":15989:15991   */\n              iszero\n              tag_374\n              jumpi\n                /* \"--CODEGEN--\":16035:16036   */\n              0x00\n                /* \"--CODEGEN--\":16032:16033   */\n              dup1\n                /* \"--CODEGEN--\":16025:16037   */\n              revert\n                /* \"--CODEGEN--\":15989:15991   */\n            tag_374:\n                /* \"--CODEGEN--\":16102:16106   */\n              0x1f\n                /* \"--CODEGEN--\":16098:16107   */\n              not\n                /* \"--CODEGEN--\":16091:16095   */\n              0x1f\n                /* \"--CODEGEN--\":16083:16089   */\n              dup4\n                /* \"--CODEGEN--\":16079:16096   */\n              add\n                /* \"--CODEGEN--\":16075:16108   */\n              and\n                /* \"--CODEGEN--\":16067:16108   */\n              swap1\n              pop\n                /* \"--CODEGEN--\":16166:16170   */\n              0x20\n                /* \"--CODEGEN--\":16160:16164   */\n              dup2\n                /* \"--CODEGEN--\":16156:16171   */\n              add\n                /* \"--CODEGEN--\":16148:16171   */\n              swap1\n              pop\n                /* \"--CODEGEN--\":15926:16181   */\n              swap2\n              swap1\n              pop\n              jump\n                /* \"--CODEGEN--\":16188:16309   */\n            tag_308:\n              0x00\n                /* \"--CODEGEN--\":16281:16286   */\n              dup2\n                /* \"--CODEGEN--\":16275:16287   */\n              mload\n                /* \"--CODEGEN--\":16265:16287   */\n              swap1\n              pop\n                /* \"--CODEGEN--\":16246:16309   */\n              swap2\n              swap1\n              pop\n              jump\n                /* \"--CODEGEN--\":16316:16434   */\n            tag_326:\n              0x00\n                /* \"--CODEGEN--\":16406:16411   */\n              dup2\n                /* \"--CODEGEN--\":16400:16412   */\n              mload\n                /* \"--CODEGEN--\":16390:16412   */\n              swap1\n              pop\n                /* \"--CODEGEN--\":16371:16434   */\n              swap2\n              swap1\n              pop\n              jump\n                /* \"--CODEGEN--\":16441:16563   */\n            tag_318:\n              0x00\n                /* \"--CODEGEN--\":16535:16540   */\n              dup2\n                /* \"--CODEGEN--\":16529:16541   */\n              mload\n                /* \"--CODEGEN--\":16519:16541   */\n              swap1\n              pop\n                /* \"--CODEGEN--\":16500:16563   */\n              swap2\n              swap1\n              pop\n              jump\n                /* \"--CODEGEN--\":16571:16733   */\n            tag_310:\n              0x00\n                /* \"--CODEGEN--\":16685:16691   */\n              dup3\n                /* \"--CODEGEN--\":16680:16683   */\n              dup3\n                /* \"--CODEGEN--\":16673:16692   */\n              mstore\n                /* \"--CODEGEN--\":16722:16726   */\n              0x20\n                /* \"--CODEGEN--\":16717:16720   */\n              dup3\n                /* \"--CODEGEN--\":16713:16727   */\n              add\n                /* \"--CODEGEN--\":16698:16727   */\n              swap1\n              pop\n                /* \"--CODEGEN--\":16666:16733   */\n              swap3\n              swap2\n              pop\n              pop\n              jump\n                /* \"--CODEGEN--\":16742:16905   */\n            tag_320:\n              0x00\n                /* \"--CODEGEN--\":16857:16863   */\n              dup3\n                /* \"--CODEGEN--\":16852:16855   */\n              dup3\n                /* \"--CODEGEN--\":16845:16864   */\n              mstore\n                /* \"--CODEGEN--\":16894:16898   */\n              0x20\n                /* \"--CODEGEN--\":16889:16892   */\n              dup3\n                /* \"--CODEGEN--\":16885:16899   */\n              add\n                /* \"--CODEGEN--\":16870:16899   */\n              swap1\n              pop\n                /* \"--CODEGEN--\":16838:16905   */\n              swap3\n              swap2\n              pop\n              pop\n              jump\n                /* \"--CODEGEN--\":16913:17004   */\n            tag_296:\n              0x00\n                /* \"--CODEGEN--\":16975:16999   */\n              tag_381\n                /* \"--CODEGEN--\":16993:16998   */\n              dup3\n                /* \"--CODEGEN--\":16975:16999   */\n              jump(tag_382)\n            tag_381:\n                /* \"--CODEGEN--\":16964:16999   */\n              swap1\n              pop\n                /* \"--CODEGEN--\":16958:17004   */\n              swap2\n              swap1\n              pop\n              jump\n                /* \"--CODEGEN--\":17011:17096   */\n            tag_300:\n              0x00\n                /* \"--CODEGEN--\":17084:17089   */\n              dup2\n                /* \"--CODEGEN--\":17077:17090   */\n              iszero\n                /* \"--CODEGEN--\":17070:17091   */\n              iszero\n                /* \"--CODEGEN--\":17059:17091   */\n              swap1\n              pop\n                /* \"--CODEGEN--\":17053:17096   */\n              swap2\n              swap1\n              pop\n              jump\n                /* \"--CODEGEN--\":17103:17175   */\n            tag_304:\n              0x00\n                /* \"--CODEGEN--\":17165:17170   */\n              dup2\n                /* \"--CODEGEN--\":17154:17170   */\n              swap1\n              pop\n                /* \"--CODEGEN--\":17148:17175   */\n              swap2\n              swap1\n              pop\n              jump\n                /* \"--CODEGEN--\":17182:17303   */\n            tag_382:\n              0x00\n                /* \"--CODEGEN--\":17255:17297   */\n              0xffffffffffffffffffffffffffffffffffffffff\n                /* \"--CODEGEN--\":17248:17253   */\n              dup3\n                /* \"--CODEGEN--\":17244:17298   */\n              and\n                /* \"--CODEGEN--\":17233:17298   */\n              swap1\n              pop\n                /* \"--CODEGEN--\":17227:17303   */\n              swap2\n              swap1\n              pop\n              jump\n                /* \"--CODEGEN--\":17310:17382   */\n            tag_336:\n              0x00\n                /* \"--CODEGEN--\":17372:17377   */\n              dup2\n                /* \"--CODEGEN--\":17361:17377   */\n              swap1\n              pop\n                /* \"--CODEGEN--\":17355:17382   */\n              swap2\n              swap1\n              pop\n              jump\n                /* \"--CODEGEN--\":17390:17535   */\n            tag_219:\n                /* \"--CODEGEN--\":17471:17477   */\n              dup3\n                /* \"--CODEGEN--\":17466:17469   */\n              dup2\n                /* \"--CODEGEN--\":17461:17464   */\n              dup4\n                /* \"--CODEGEN--\":17448:17478   */\n              calldatacopy\n                /* \"--CODEGEN--\":17527:17528   */\n              0x00\n                /* \"--CODEGEN--\":17518:17524   */\n              dup4\n                /* \"--CODEGEN--\":17513:17516   */\n              dup4\n                /* \"--CODEGEN--\":17509:17525   */\n              add\n                /* \"--CODEGEN--\":17502:17529   */\n              mstore\n                /* \"--CODEGEN--\":17441:17535   */\n              pop\n              pop\n              pop\n              jump\n                /* \"--CODEGEN--\":17544:17812   */\n            tag_312:\n                /* \"--CODEGEN--\":17609:17610   */\n              0x00\n                /* \"--CODEGEN--\":17616:17717   */\n            tag_389:\n                /* \"--CODEGEN--\":17630:17636   */\n              dup4\n                /* \"--CODEGEN--\":17627:17628   */\n              dup2\n                /* \"--CODEGEN--\":17624:17637   */\n              lt\n                /* \"--CODEGEN--\":17616:17717   */\n              iszero\n              tag_391\n              jumpi\n                /* \"--CODEGEN--\":17706:17707   */\n              dup1\n                /* \"--CODEGEN--\":17701:17704   */\n              dup3\n                /* \"--CODEGEN--\":17697:17708   */\n              add\n                /* \"--CODEGEN--\":17691:17709   */\n              mload\n                /* \"--CODEGEN--\":17687:17688   */\n              dup2\n                /* \"--CODEGEN--\":17682:17685   */\n              dup5\n                /* \"--CODEGEN--\":17678:17689   */\n              add\n                /* \"--CODEGEN--\":17671:17710   */\n              mstore\n                /* \"--CODEGEN--\":17652:17654   */\n              0x20\n                /* \"--CODEGEN--\":17649:17650   */\n              dup2\n                /* \"--CODEGEN--\":17645:17655   */\n              add\n                /* \"--CODEGEN--\":17640:17655   */\n              swap1\n              pop\n                /* \"--CODEGEN--\":17616:17717   */\n              jump(tag_389)\n            tag_391:\n                /* \"--CODEGEN--\":17732:17738   */\n              dup4\n                /* \"--CODEGEN--\":17729:17730   */\n              dup2\n                /* \"--CODEGEN--\":17726:17739   */\n              gt\n                /* \"--CODEGEN--\":17723:17725   */\n              iszero\n              tag_392\n              jumpi\n                /* \"--CODEGEN--\":17797:17798   */\n              0x00\n                /* \"--CODEGEN--\":17788:17794   */\n              dup5\n                /* \"--CODEGEN--\":17783:17786   */\n              dup5\n                /* \"--CODEGEN--\":17779:17795   */\n              add\n                /* \"--CODEGEN--\":17772:17799   */\n              mstore\n                /* \"--CODEGEN--\":17723:17725   */\n            tag_392:\n                /* \"--CODEGEN--\":17593:17812   */\n              pop\n              pop\n              pop\n              pop\n              jump\n                /* \"--CODEGEN--\":17820:17917   */\n            tag_314:\n              0x00\n                /* \"--CODEGEN--\":17908:17910   */\n              0x1f\n                /* \"--CODEGEN--\":17904:17911   */\n              not\n                /* \"--CODEGEN--\":17899:17901   */\n              0x1f\n                /* \"--CODEGEN--\":17892:17897   */\n              dup4\n                /* \"--CODEGEN--\":17888:17902   */\n              add\n                /* \"--CODEGEN--\":17884:17912   */\n              and\n                /* \"--CODEGEN--\":17874:17912   */\n              swap1\n              pop\n                /* \"--CODEGEN--\":17868:17917   */\n              swap2\n              swap1\n              pop\n              jump\n                /* \"--CODEGEN--\":17925:18042   */\n            tag_185:\n                /* \"--CODEGEN--\":17994:18018   */\n              tag_395\n                /* \"--CODEGEN--\":18012:18017   */\n              dup2\n                /* \"--CODEGEN--\":17994:18018   */\n              jump(tag_296)\n            tag_395:\n                /* \"--CODEGEN--\":17987:17992   */\n              dup2\n                /* \"--CODEGEN--\":17984:18019   */\n              eq\n                /* \"--CODEGEN--\":17974:17976   */\n              tag_396\n              jumpi\n                /* \"--CODEGEN--\":18033:18034   */\n              0x00\n                /* \"--CODEGEN--\":18030:18031   */\n              dup1\n                /* \"--CODEGEN--\":18023:18035   */\n              revert\n                /* \"--CODEGEN--\":17974:17976   */\n            tag_396:\n                /* \"--CODEGEN--\":17968:18042   */\n              pop\n              jump\n                /* \"--CODEGEN--\":18049:18160   */\n            tag_201:\n                /* \"--CODEGEN--\":18115:18136   */\n              tag_398\n                /* \"--CODEGEN--\":18130:18135   */\n              dup2\n                /* \"--CODEGEN--\":18115:18136   */\n              jump(tag_300)\n            tag_398:\n                /* \"--CODEGEN--\":18108:18113   */\n              dup2\n                /* \"--CODEGEN--\":18105:18137   */\n              eq\n                /* \"--CODEGEN--\":18095:18097   */\n              tag_399\n              jumpi\n                /* \"--CODEGEN--\":18151:18152   */\n              0x00\n                /* \"--CODEGEN--\":18148:18149   */\n              dup1\n                /* \"--CODEGEN--\":18141:18153   */\n              revert\n                /* \"--CODEGEN--\":18095:18097   */\n            tag_399:\n                /* \"--CODEGEN--\":18089:18160   */\n              pop\n              jump\n                /* \"--CODEGEN--\":18167:18284   */\n            tag_205:\n                /* \"--CODEGEN--\":18236:18260   */\n              tag_401\n                /* \"--CODEGEN--\":18254:18259   */\n              dup2\n                /* \"--CODEGEN--\":18236:18260   */\n              jump(tag_304)\n            tag_401:\n                /* \"--CODEGEN--\":18229:18234   */\n              dup2\n                /* \"--CODEGEN--\":18226:18261   */\n              eq\n                /* \"--CODEGEN--\":18216:18218   */\n              tag_402\n              jumpi\n                /* \"--CODEGEN--\":18275:18276   */\n              0x00\n                /* \"--CODEGEN--\":18272:18273   */\n              dup1\n                /* \"--CODEGEN--\":18265:18277   */\n              revert\n                /* \"--CODEGEN--\":18216:18218   */\n            tag_402:\n                /* \"--CODEGEN--\":18210:18284   */\n              pop\n              jump\n                /* \"--CODEGEN--\":18291:18408   */\n            tag_245:\n                /* \"--CODEGEN--\":18360:18384   */\n              tag_404\n                /* \"--CODEGEN--\":18378:18383   */\n              dup2\n                /* \"--CODEGEN--\":18360:18384   */\n              jump(tag_336)\n            tag_404:\n                /* \"--CODEGEN--\":18353:18358   */\n              dup2\n                /* \"--CODEGEN--\":18350:18385   */\n              eq\n                /* \"--CODEGEN--\":18340:18342   */\n              tag_405\n              jumpi\n                /* \"--CODEGEN--\":18399:18400   */\n              0x00\n                /* \"--CODEGEN--\":18396:18397   */\n              dup1\n                /* \"--CODEGEN--\":18389:18401   */\n              revert\n                /* \"--CODEGEN--\":18340:18342   */\n            tag_405:\n                /* \"--CODEGEN--\":18334:18408   */\n              pop\n              jump\n\n            auxdata: 0xa264697066735822122095cf5301422cd6e5882fd74f60f92abe63ee4652d1cd43392cda1b4a8605c03b64736f6c63430006000033\n        }\n    }\n\n    auxdata: 0xa2646970667358221220d53a3c593ddb35d079a57cada78c87fa8e28f7c330fbc7a2dbd5547a982abada64736f6c63430006000033\n}\n","bytecode":{"linkReferences":{},"object":"608060405234801561001057600080fd5b50612450806100206000396000f3fe608060405260043610620000385760003560e01c80637ee454cb146200003d578063cee26ed5146200006d578063d1ef59a314620000b1575b600080fd5b3480156200004a57600080fd5b5062000055620000d1565b604051620000649190620004c4565b60405180910390f35b3480156200007a57600080fd5b5062000099600480360362000093919081019062000383565b62000161565b604051620000a89190620004a7565b60405180910390f35b620000cf6004803603620000c99190810190620002e2565b6200019e565b005b606060008054806020026020016040519081016040528092919081815260200182805480156200015757602002820191906000526020600020905b8160009054906101000a900473ffffffffffffffffffffffffffffffffffffffff1673ffffffffffffffffffffffffffffffffffffffff16815260200190600101908083116200010c575b5050505050905090565b600081815481106200016f57fe5b906000526020600020016000915054906101000a900473ffffffffffffffffffffffffffffffffffffffff1681565b670429d069189e00003414620001b357600080fd5b60003484338585604051620001c89062000261565b620001d79493929190620004e8565b6040518091039082f0905080158015620001f5573d6000803e3d6000fd5b5090506000819080600181540180825580915050600190039060005260206000200160009091909190916101000a81548173ffffffffffffffffffffffffffffffffffffffff021916908373ffffffffffffffffffffffffffffffffffffffff16021790555050505050565b611d3680620006e583390190565b600082601f8301126200028157600080fd5b813562000298620002928262000578565b6200054a565b91508082526020830160208301858383011115620002b557600080fd5b620002c283828462000674565b50505092915050565b600081359050620002dc81620006ca565b92915050565b600080600060608486031215620002f857600080fd5b600084013567ffffffffffffffff8111156200031357600080fd5b62000321868287016200026f565b935050602084013567ffffffffffffffff8111156200033f57600080fd5b6200034d868287016200026f565b925050604084013567ffffffffffffffff8111156200036b57600080fd5b62000379868287016200026f565b9150509250925092565b6000602082840312156200039657600080fd5b6000620003a684828501620002cb565b91505092915050565b6000620003bd8383620003da565b60208301905092915050565b620003d48162000638565b82525050565b620003e581620005fa565b82525050565b620003f681620005fa565b82525050565b60006200040982620005b5565b620004158185620005d8565b93506200042283620005a5565b8060005b83811015620004595781516200043d8882620003af565b97506200044a83620005cb565b92505060018101905062000426565b5085935050505092915050565b60006200047382620005c0565b6200047f8185620005e9565b93506200049181856020860162000683565b6200049c81620006b9565b840191505092915050565b6000602082019050620004be6000830184620003eb565b92915050565b60006020820190508181036000830152620004e08184620003fc565b905092915050565b6000608082019050818103600083015262000504818762000466565b9050620005156020830186620003c9565b818103604083015262000529818562000466565b905081810360608301526200053f818462000466565b905095945050505050565b6000604051905081810181811067ffffffffffffffff821117156200056e57600080fd5b8060405250919050565b600067ffffffffffffffff8211156200059057600080fd5b601f19601f8301169050602081019050919050565b6000819050602082019050919050565b600081519050919050565b600081519050919050565b6000602082019050919050565b600082825260208201905092915050565b600082825260208201905092915050565b600062000607826200060e565b9050919050565b600073ffffffffffffffffffffffffffffffffffffffff82169050919050565b6000819050919050565b600062000645826200064c565b9050919050565b6000620006598262000660565b9050919050565b60006200066d826200060e565b9050919050565b82818337600083830152505050565b60005b83811015620006a357808201518184015260208101905062000686565b83811115620006b3576000848401525b50505050565b6000601f19601f8301169050919050565b620006d5816200062e565b8114620006e157600080fd5b5056fe608060405260405162001d3638038062001d368339818101604052620000299190810190620001e1565b836099908051906020019062000041929190620000bf565b5082609860006101000a81548173ffffffffffffffffffffffffffffffffffffffff021916908373ffffffffffffffffffffffffffffffffffffffff16021790555081609a90805190602001906200009b929190620000bf565b5080609b9080519060200190620000b4929190620000bf565b505050505062000377565b828054600181600116156101000203166002900490600052602060002090601f016020900481019282601f106200010257805160ff191683800117855562000133565b8280016001018555821562000133579182015b828111156200013257825182559160200191906001019062000115565b5b50905062000142919062000146565b5090565b6200016b91905b80821115620001675760008160009055506001016200014d565b5090565b90565b6000815190506200017f816200035d565b92915050565b600082601f8301126200019757600080fd5b8151620001ae620001a882620002c6565b62000298565b91508082526020830160208301858383011115620001cb57600080fd5b620001d883828462000327565b50505092915050565b60008060008060808587031215620001f857600080fd5b600085015167ffffffffffffffff8111156200021357600080fd5b620002218782880162000185565b945050602062000234878288016200016e565b935050604085015167ffffffffffffffff8111156200025257600080fd5b620002608782880162000185565b925050606085015167ffffffffffffffff8111156200027e57600080fd5b6200028c8782880162000185565b91505092959194509250565b6000604051905081810181811067ffffffffffffffff82111715620002bc57600080fd5b8060405250919050565b600067ffffffffffffffff821115620002de57600080fd5b601f19601f8301169050602081019050919050565b6000620003008262000307565b9050919050565b600073ffffffffffffffffffffffffffffffffffffffff82169050919050565b60005b83811015620003475780820151818401526020810190506200032a565b8381111562000357576000848401525b50505050565b6200036881620002f3565b81146200037457600080fd5b50565b6119af80620003876000396000f3fe6080604052600436106100e85760003560e01c806395ee3ce01161008a578063c6a262a011610059578063c6a262a0146102f1578063e06e0e2214610308578063e95f1f3c14610331578063ef2712331461035c576100e8565b806395ee3ce014610254578063abeea5311461027f578063ad61ccd5146102aa578063bd93610d146102d5576100e8565b806374e861d6116100c657806374e861d61461018357806380274db7146101ae57806383947ea0146101eb578063875c1d9c14610229576100e8565b806307877cff146100ed5780630a795662146101165780632986c0e514610158575b600080fd5b3480156100f957600080fd5b50610114600480360361010f91908101906113a1565b610387565b005b34801561012257600080fd5b5061013d600480360361013891908101906110e5565b61041a565b60405161014f9695949392919061161c565b60405180910390f35b34801561016457600080fd5b5061016d61064b565b60405161017a9190611711565b60405180910390f35b34801561018f57600080fd5b50610198610651565b6040516101a59190611599565b60405180910390f35b3480156101ba57600080fd5b506101d560048036036101d0919081019061120e565b61067b565b6040516101e29190611692565b60405180910390f35b3480156101f757600080fd5b50610212600480360361020d919081019061110e565b610702565b60405161022092919061172c565b60405180910390f35b34801561023557600080fd5b5061023e61074b565b60405161024b91906116ad565b60405180910390f35b34801561026057600080fd5b506102696107e9565b6040516102769190611599565b60405180910390f35b34801561028b57600080fd5b5061029461080f565b6040516102a191906116ad565b60405180910390f35b3480156102b657600080fd5b506102bf6108ad565b6040516102cc91906116cf565b60405180910390f35b6102ef60048036036102ea91908101906112ca565b6108ea565b005b3480156102fd57600080fd5b50610306610ab9565b005b34801561031457600080fd5b5061032f600480360361032a919081019061124f565b610bad565b005b34801561033d57600080fd5b50610346610c34565b6040516103539190611711565b60405180910390f35b34801561036857600080fd5b50610371610c3e565b60405161037e91906116ad565b60405180910390f35b600073117623a2ebb93359967c83de51360b09cdcb0e0390508073ffffffffffffffffffffffffffffffffffffffff16630a97bed030878787876040518663ffffffff1660e01b81526004016103e19594939291906115b4565b600060405180830381600087803b1580156103fb57600080fd5b505af115801561040f573d6000803e3d6000fd5b505050505050505050565b609d6020528060005260406000206000915090508060000160009054906101000a900473ffffffffffffffffffffffffffffffffffffffff1690806001018054600181600116156101000203166002900480601f0160208091040260200160405190810160405280929190818152602001828054600181600116156101000203166002900480156104ec5780601f106104c1576101008083540402835291602001916104ec565b820191906000526020600020905b8154815290600101906020018083116104cf57829003601f168201915b505050505090806002018054600181600116156101000203166002900480601f01602080910402602001604051908101604052809291908181526020018280546001816001161561010002031660029004801561058a5780601f1061055f5761010080835404028352916020019161058a565b820191906000526020600020905b81548152906001019060200180831161056d57829003601f168201915b505050505090806003018054600181600116156101000203166002900480601f0160208091040260200160405190810160405280929190818152602001828054600181600116156101000203166002900480156106285780601f106105fd57610100808354040283529160200191610628565b820191906000526020600020905b81548152906001019060200180831161060b57829003601f168201915b5050505050908060040154908060050160009054906101000a900460ff16905086565b609c5481565b6000606560009054906101000a900473ffffffffffffffffffffffffffffffffffffffff16905090565b6000610685610651565b73ffffffffffffffffffffffffffffffffffffffff163373ffffffffffffffffffffffffffffffffffffffff16146106f2576040517f08c379a00000000000000000000000000000000000000000000000000000000081526004016106e9906116f1565b60405180910390fd5b6106fb82610cdc565b9050919050565b600060606000609754141561072257610719610cf3565b9150915061073b565b61073660008081111561073157fe5b610d17565b915091505b9b509b9950505050505050505050565b609a8054600181600116156101000203166002900480601f0160208091040260200160405190810160405280929190818152602001828054600181600116156101000203166002900480156107e15780601f106107b6576101008083540402835291602001916107e1565b820191906000526020600020905b8154815290600101906020018083116107c457829003601f168201915b505050505081565b609860009054906101000a900473ffffffffffffffffffffffffffffffffffffffff1681565b609b8054600181600116156101000203166002900480601f0160208091040260200160405190810160405280929190818152602001828054600181600116156101000203166002900480156108a55780601f1061087a576101008083540402835291602001916108a5565b820191906000526020600020905b81548152906001019060200180831161088857829003601f168201915b505050505081565b60606040518060400160405280600581526020017f312e302e30000000000000000000000000000000000000000000000000000000815250905090565b8134146108f657600080fd5b60006097819055506000609d60003373ffffffffffffffffffffffffffffffffffffffff1673ffffffffffffffffffffffffffffffffffffffff1681526020019081526020016000209050338160000160006101000a81548173ffffffffffffffffffffffffffffffffffffffff021916908373ffffffffffffffffffffffffffffffffffffffff1602179055508481600101908051906020019061099c929190610d4e565b50858160020190805190602001906109b5929190610d4e565b50838160030190805190602001906109ce929190610d4e565b5082816004018190555060008160050160006101000a81548160ff0219169083151502179055506000609d60003373ffffffffffffffffffffffffffffffffffffffff1673ffffffffffffffffffffffffffffffffffffffff16815260200190815260200160002090508251609c8190555060008090505b8351811015610aaf57838181518110610a5b57fe5b60200260200101518260060160008381526020019081526020016000206000820151816000019080519060200190610a94929190610dce565b50602082015181600101559050508080600101915050610a46565b5050505050505050565b60016097819055506000609d60003373ffffffffffffffffffffffffffffffffffffffff1673ffffffffffffffffffffffffffffffffffffffff16815260200190815260200160002090508060050160009054906101000a900460ff1615610b2057600080fd5b609860009054906101000a900473ffffffffffffffffffffffffffffffffffffffff1673ffffffffffffffffffffffffffffffffffffffff166108fc82600401549081150290604051600060405180830381858888f19350505050158015610b8c573d6000803e3d6000fd5b5060018160050160006101000a81548160ff02191690831515021790555050565b610bb5610651565b73ffffffffffffffffffffffffffffffffffffffff163373ffffffffffffffffffffffffffffffffffffffff1614610c22576040517f08c379a0000000000000000000000000000000000000000000000000000000008152600401610c19906116f1565b60405180910390fd5b610c2e84848484610d38565b50505050565b6000609c54905090565b60998054600181600116156101000203166002900480601f016020809104026020016040519081016040528092919081815260200182805460018160011615610100020316600290048015610cd45780601f10610ca957610100808354040283529160200191610cd4565b820191906000526020600020905b815481529060010190602001808311610cb757829003601f168201915b505050505081565b6000806097541415610ced57610cee565b5b919050565b60006060610d0f60405180602001604052806000815250610d3e565b915091509091565b6000606082600b016040518060200160405280600081525091509150915091565b50505050565b6000606060008391509150915091565b828054600181600116156101000203166002900490600052602060002090601f016020900481019282601f10610d8f57805160ff1916838001178555610dbd565b82800160010185558215610dbd579182015b82811115610dbc578251825591602001919060010190610da1565b5b509050610dca9190610e4e565b5090565b828054600181600116156101000203166002900490600052602060002090601f016020900481019282601f10610e0f57805160ff1916838001178555610e3d565b82800160010185558215610e3d579182015b82811115610e3c578251825591602001919060010190610e21565b5b509050610e4a9190610e4e565b5090565b610e7091905b80821115610e6c576000816000905550600101610e54565b5090565b90565b600081359050610e828161191d565b92915050565b600082601f830112610e9957600080fd5b8135610eac610ea782611789565b61175c565b9150818183526020840193506020810190508360005b83811015610ef25781358601610ed8888261106c565b845260208401935060208301925050600181019050610ec2565b5050505092915050565b600081359050610f0b81611934565b92915050565b600081359050610f208161194b565b92915050565b60008083601f840112610f3857600080fd5b8235905067ffffffffffffffff811115610f5157600080fd5b602083019150836001820283011115610f6957600080fd5b9250929050565b600082601f830112610f8157600080fd5b8135610f94610f8f826117b1565b61175c565b91508082526020830160208301858383011115610fb057600080fd5b610fbb8382846118ca565b50505092915050565b600082601f830112610fd557600080fd5b8135610fe8610fe3826117dd565b61175c565b9150808252602083016020830185838301111561100457600080fd5b61100f8382846118ca565b50505092915050565b600082601f83011261102957600080fd5b813561103c61103782611809565b61175c565b9150808252602083016020830185838301111561105857600080fd5b6110638382846118ca565b50505092915050565b60006040828403121561107e57600080fd5b611088604061175c565b9050600082013567ffffffffffffffff8111156110a457600080fd5b6110b084828501610fc4565b60008301525060206110c4848285016110d0565b60208301525092915050565b6000813590506110df81611962565b92915050565b6000602082840312156110f757600080fd5b600061110584828501610e73565b91505092915050565b60008060008060008060008060008060006101208c8e03121561113057600080fd5b600061113e8e828f01610e73565b9b5050602061114f8e828f01610e73565b9a505060408c013567ffffffffffffffff81111561116c57600080fd5b6111788e828f01610f26565b9950995050606061118b8e828f016110d0565b975050608061119c8e828f016110d0565b96505060a06111ad8e828f016110d0565b95505060c06111be8e828f016110d0565b94505060e08c013567ffffffffffffffff8111156111db57600080fd5b6111e78e828f01610f26565b93509350506101006111fb8e828f016110d0565b9150509295989b509295989b9093969950565b60006020828403121561122057600080fd5b600082013567ffffffffffffffff81111561123a57600080fd5b61124684828501610f70565b91505092915050565b6000806000806080858703121561126557600080fd5b600085013567ffffffffffffffff81111561127f57600080fd5b61128b87828801610f70565b945050602061129c87828801610efc565b93505060406112ad878288016110d0565b92505060606112be87828801610f11565b91505092959194509250565b600080600080600060a086880312156112e257600080fd5b600086013567ffffffffffffffff8111156112fc57600080fd5b61130888828901611018565b955050602086013567ffffffffffffffff81111561132557600080fd5b61133188828901611018565b945050604086013567ffffffffffffffff81111561134e57600080fd5b61135a88828901611018565b935050606061136b888289016110d0565b925050608086013567ffffffffffffffff81111561138857600080fd5b61139488828901610e88565b9150509295509295909350565b600080600080608085870312156113b757600080fd5b600085013567ffffffffffffffff8111156113d157600080fd5b6113dd87828801611018565b94505060206113ee878288016110d0565b935050604085013567ffffffffffffffff81111561140b57600080fd5b61141787828801611018565b925050606085013567ffffffffffffffff81111561143457600080fd5b61144087828801611018565b91505092959194509250565b61145581611878565b82525050565b6114648161188a565b82525050565b61147381611896565b82525050565b600061148482611835565b61148e8185611856565b935061149e8185602086016118d9565b6114a78161190c565b840191505092915050565b60006114bd8261184b565b6114c78185611867565b93506114d78185602086016118d9565b6114e08161190c565b840191505092915050565b60006114f682611840565b6115008185611867565b93506115108185602086016118d9565b6115198161190c565b840191505092915050565b6000611531602483611867565b91507f47534e526563697069656e743a2063616c6c6572206973206e6f742052656c6160008301527f79487562000000000000000000000000000000000000000000000000000000006020830152604082019050919050565b611593816118c0565b82525050565b60006020820190506115ae600083018461144c565b92915050565b600060a0820190506115c9600083018861144c565b81810360208301526115db81876114b2565b90506115ea604083018661158a565b81810360608301526115fc81856114b2565b9050818103608083015261161081846114b2565b90509695505050505050565b600060c082019050611631600083018961144c565b818103602083015261164381886114eb565b9050818103604083015261165781876114eb565b9050818103606083015261166b81866114eb565b905061167a608083018561158a565b61168760a083018461145b565b979650505050505050565b60006020820190506116a7600083018461146a565b92915050565b600060208201905081810360008301526116c781846114eb565b905092915050565b600060208201905081810360008301526116e981846114b2565b905092915050565b6000602082019050818103600083015261170a81611524565b9050919050565b6000602082019050611726600083018461158a565b92915050565b6000604082019050611741600083018561158a565b81810360208301526117538184611479565b90509392505050565b6000604051905081810181811067ffffffffffffffff8211171561177f57600080fd5b8060405250919050565b600067ffffffffffffffff8211156117a057600080fd5b602082029050602081019050919050565b600067ffffffffffffffff8211156117c857600080fd5b601f19601f8301169050602081019050919050565b600067ffffffffffffffff8211156117f457600080fd5b601f19601f8301169050602081019050919050565b600067ffffffffffffffff82111561182057600080fd5b601f19601f8301169050602081019050919050565b600081519050919050565b600081519050919050565b600081519050919050565b600082825260208201905092915050565b600082825260208201905092915050565b6000611883826118a0565b9050919050565b60008115159050919050565b6000819050919050565b600073ffffffffffffffffffffffffffffffffffffffff82169050919050565b6000819050919050565b82818337600083830152505050565b60005b838110156118f75780820151818401526020810190506118dc565b83811115611906576000848401525b50505050565b6000601f19601f8301169050919050565b61192681611878565b811461193157600080fd5b50565b61193d8161188a565b811461194857600080fd5b50565b61195481611896565b811461195f57600080fd5b50565b61196b816118c0565b811461197657600080fd5b5056fea264697066735822122095cf5301422cd6e5882fd74f60f92abe63ee4652d1cd43392cda1b4a8605c03b64736f6c63430006000033a2646970667358221220d53a3c593ddb35d079a57cada78c87fa8e28f7c330fbc7a2dbd5547a982abada64736f6c63430006000033","opcodes":"PUSH1 0x80 PUSH1 0x40 MSTORE CALLVALUE DUP1 ISZERO PUSH2 0x10 JUMPI PUSH1 0x0 DUP1 REVERT JUMPDEST POP PUSH2 0x2450 DUP1 PUSH2 0x20 PUSH1 0x0 CODECOPY PUSH1 0x0 RETURN INVALID PUSH1 0x80 PUSH1 0x40 MSTORE PUSH1 0x4 CALLDATASIZE LT PUSH3 0x38 JUMPI PUSH1 0x0 CALLDATALOAD PUSH1 0xE0 SHR DUP1 PUSH4 0x7EE454CB EQ PUSH3 0x3D JUMPI DUP1 PUSH4 0xCEE26ED5 EQ PUSH3 0x6D JUMPI DUP1 PUSH4 0xD1EF59A3 EQ PUSH3 0xB1 JUMPI JUMPDEST PUSH1 0x0 DUP1 REVERT JUMPDEST CALLVALUE DUP1 ISZERO PUSH3 0x4A JUMPI PUSH1 0x0 DUP1 REVERT JUMPDEST POP PUSH3 0x55 PUSH3 0xD1 JUMP JUMPDEST PUSH1 0x40 MLOAD PUSH3 0x64 SWAP2 SWAP1 PUSH3 0x4C4 JUMP JUMPDEST PUSH1 0x40 MLOAD DUP1 SWAP2 SUB SWAP1 RETURN JUMPDEST CALLVALUE DUP1 ISZERO PUSH3 0x7A JUMPI PUSH1 0x0 DUP1 REVERT JUMPDEST POP PUSH3 0x99 PUSH1 0x4 DUP1 CALLDATASIZE SUB PUSH3 0x93 SWAP2 SWAP1 DUP2 ADD SWAP1 PUSH3 0x383 JUMP JUMPDEST PUSH3 0x161 JUMP JUMPDEST PUSH1 0x40 MLOAD PUSH3 0xA8 SWAP2 SWAP1 PUSH3 0x4A7 JUMP JUMPDEST PUSH1 0x40 MLOAD DUP1 SWAP2 SUB SWAP1 RETURN JUMPDEST PUSH3 0xCF PUSH1 0x4 DUP1 CALLDATASIZE SUB PUSH3 0xC9 SWAP2 SWAP1 DUP2 ADD SWAP1 PUSH3 0x2E2 JUMP JUMPDEST PUSH3 0x19E JUMP JUMPDEST STOP JUMPDEST PUSH1 0x60 PUSH1 0x0 DUP1 SLOAD DUP1 PUSH1 0x20 MUL PUSH1 0x20 ADD PUSH1 0x40 MLOAD SWAP1 DUP2 ADD PUSH1 0x40 MSTORE DUP1 SWAP3 SWAP2 SWAP1 DUP2 DUP2 MSTORE PUSH1 0x20 ADD DUP3 DUP1 SLOAD DUP1 ISZERO PUSH3 0x157 JUMPI PUSH1 0x20 MUL DUP3 ADD SWAP2 SWAP1 PUSH1 0x0 MSTORE PUSH1 0x20 PUSH1 0x0 KECCAK256 SWAP1 JUMPDEST DUP2 PUSH1 0x0 SWAP1 SLOAD SWAP1 PUSH2 0x100 EXP SWAP1 DIV PUSH20 0xFFFFFFFFFFFFFFFFFFFFFFFFFFFFFFFFFFFFFFFF AND PUSH20 0xFFFFFFFFFFFFFFFFFFFFFFFFFFFFFFFFFFFFFFFF AND DUP2 MSTORE PUSH1 0x20 ADD SWAP1 PUSH1 0x1 ADD SWAP1 DUP1 DUP4 GT PUSH3 0x10C JUMPI JUMPDEST POP POP POP POP POP SWAP1 POP SWAP1 JUMP JUMPDEST PUSH1 0x0 DUP2 DUP2 SLOAD DUP2 LT PUSH3 0x16F JUMPI INVALID JUMPDEST SWAP1 PUSH1 0x0 MSTORE PUSH1 0x20 PUSH1 0x0 KECCAK256 ADD PUSH1 0x0 SWAP2 POP SLOAD SWAP1 PUSH2 0x100 EXP SWAP1 DIV PUSH20 0xFFFFFFFFFFFFFFFFFFFFFFFFFFFFFFFFFFFFFFFF AND DUP2 JUMP JUMPDEST PUSH8 0x429D069189E0000 CALLVALUE EQ PUSH3 0x1B3 JUMPI PUSH1 0x0 DUP1 REVERT JUMPDEST PUSH1 0x0 CALLVALUE DUP5 CALLER DUP6 DUP6 PUSH1 0x40 MLOAD PUSH3 0x1C8 SWAP1 PUSH3 0x261 JUMP JUMPDEST PUSH3 0x1D7 SWAP5 SWAP4 SWAP3 SWAP2 SWAP1 PUSH3 0x4E8 JUMP JUMPDEST PUSH1 0x40 MLOAD DUP1 SWAP2 SUB SWAP1 DUP3 CREATE SWAP1 POP DUP1 ISZERO DUP1 ISZERO PUSH3 0x1F5 JUMPI RETURNDATASIZE PUSH1 0x0 DUP1 RETURNDATACOPY RETURNDATASIZE PUSH1 0x0 REVERT JUMPDEST POP SWAP1 POP PUSH1 0x0 DUP2 SWAP1 DUP1 PUSH1 0x1 DUP2 SLOAD ADD DUP1 DUP3 SSTORE DUP1 SWAP2 POP POP PUSH1 0x1 SWAP1 SUB SWAP1 PUSH1 0x0 MSTORE PUSH1 0x20 PUSH1 0x0 KECCAK256 ADD PUSH1 0x0 SWAP1 SWAP2 SWAP1 SWAP2 SWAP1 SWAP2 PUSH2 0x100 EXP DUP2 SLOAD DUP2 PUSH20 0xFFFFFFFFFFFFFFFFFFFFFFFFFFFFFFFFFFFFFFFF MUL NOT AND SWAP1 DUP4 PUSH20 0xFFFFFFFFFFFFFFFFFFFFFFFFFFFFFFFFFFFFFFFF AND MUL OR SWAP1 SSTORE POP POP POP POP POP JUMP JUMPDEST PUSH2 0x1D36 DUP1 PUSH3 0x6E5 DUP4 CODECOPY ADD SWAP1 JUMP JUMPDEST PUSH1 0x0 DUP3 PUSH1 0x1F DUP4 ADD SLT PUSH3 0x281 JUMPI PUSH1 0x0 DUP1 REVERT JUMPDEST DUP2 CALLDATALOAD PUSH3 0x298 PUSH3 0x292 DUP3 PUSH3 0x578 JUMP JUMPDEST PUSH3 0x54A JUMP JUMPDEST SWAP2 POP DUP1 DUP3 MSTORE PUSH1 0x20 DUP4 ADD PUSH1 0x20 DUP4 ADD DUP6 DUP4 DUP4 ADD GT ISZERO PUSH3 0x2B5 JUMPI PUSH1 0x0 DUP1 REVERT JUMPDEST PUSH3 0x2C2 DUP4 DUP3 DUP5 PUSH3 0x674 JUMP JUMPDEST POP POP POP SWAP3 SWAP2 POP POP JUMP JUMPDEST PUSH1 0x0 DUP2 CALLDATALOAD SWAP1 POP PUSH3 0x2DC DUP2 PUSH3 0x6CA JUMP JUMPDEST SWAP3 SWAP2 POP POP JUMP JUMPDEST PUSH1 0x0 DUP1 PUSH1 0x0 PUSH1 0x60 DUP5 DUP7 SUB SLT ISZERO PUSH3 0x2F8 JUMPI PUSH1 0x0 DUP1 REVERT JUMPDEST PUSH1 0x0 DUP5 ADD CALLDATALOAD PUSH8 0xFFFFFFFFFFFFFFFF DUP2 GT ISZERO PUSH3 0x313 JUMPI PUSH1 0x0 DUP1 REVERT JUMPDEST PUSH3 0x321 DUP7 DUP3 DUP8 ADD PUSH3 0x26F JUMP JUMPDEST SWAP4 POP POP PUSH1 0x20 DUP5 ADD CALLDATALOAD PUSH8 0xFFFFFFFFFFFFFFFF DUP2 GT ISZERO PUSH3 0x33F JUMPI PUSH1 0x0 DUP1 REVERT JUMPDEST PUSH3 0x34D DUP7 DUP3 DUP8 ADD PUSH3 0x26F JUMP JUMPDEST SWAP3 POP POP PUSH1 0x40 DUP5 ADD CALLDATALOAD PUSH8 0xFFFFFFFFFFFFFFFF DUP2 GT ISZERO PUSH3 0x36B JUMPI PUSH1 0x0 DUP1 REVERT JUMPDEST PUSH3 0x379 DUP7 DUP3 DUP8 ADD PUSH3 0x26F JUMP JUMPDEST SWAP2 POP POP SWAP3 POP SWAP3 POP SWAP3 JUMP JUMPDEST PUSH1 0x0 PUSH1 0x20 DUP3 DUP5 SUB SLT ISZERO PUSH3 0x396 JUMPI PUSH1 0x0 DUP1 REVERT JUMPDEST PUSH1 0x0 PUSH3 0x3A6 DUP5 DUP3 DUP6 ADD PUSH3 0x2CB JUMP JUMPDEST SWAP2 POP POP SWAP3 SWAP2 POP POP JUMP JUMPDEST PUSH1 0x0 PUSH3 0x3BD DUP4 DUP4 PUSH3 0x3DA JUMP JUMPDEST PUSH1 0x20 DUP4 ADD SWAP1 POP SWAP3 SWAP2 POP POP JUMP JUMPDEST PUSH3 0x3D4 DUP2 PUSH3 0x638 JUMP JUMPDEST DUP3 MSTORE POP POP JUMP JUMPDEST PUSH3 0x3E5 DUP2 PUSH3 0x5FA JUMP JUMPDEST DUP3 MSTORE POP POP JUMP JUMPDEST PUSH3 0x3F6 DUP2 PUSH3 0x5FA JUMP JUMPDEST DUP3 MSTORE POP POP JUMP JUMPDEST PUSH1 0x0 PUSH3 0x409 DUP3 PUSH3 0x5B5 JUMP JUMPDEST PUSH3 0x415 DUP2 DUP6 PUSH3 0x5D8 JUMP JUMPDEST SWAP4 POP PUSH3 0x422 DUP4 PUSH3 0x5A5 JUMP JUMPDEST DUP1 PUSH1 0x0 JUMPDEST DUP4 DUP2 LT ISZERO PUSH3 0x459 JUMPI DUP2 MLOAD PUSH3 0x43D DUP9 DUP3 PUSH3 0x3AF JUMP JUMPDEST SWAP8 POP PUSH3 0x44A DUP4 PUSH3 0x5CB JUMP JUMPDEST SWAP3 POP POP PUSH1 0x1 DUP2 ADD SWAP1 POP PUSH3 0x426 JUMP JUMPDEST POP DUP6 SWAP4 POP POP POP POP SWAP3 SWAP2 POP POP JUMP JUMPDEST PUSH1 0x0 PUSH3 0x473 DUP3 PUSH3 0x5C0 JUMP JUMPDEST PUSH3 0x47F DUP2 DUP6 PUSH3 0x5E9 JUMP JUMPDEST SWAP4 POP PUSH3 0x491 DUP2 DUP6 PUSH1 0x20 DUP7 ADD PUSH3 0x683 JUMP JUMPDEST PUSH3 0x49C DUP2 PUSH3 0x6B9 JUMP JUMPDEST DUP5 ADD SWAP2 POP POP SWAP3 SWAP2 POP POP JUMP JUMPDEST PUSH1 0x0 PUSH1 0x20 DUP3 ADD SWAP1 POP PUSH3 0x4BE PUSH1 0x0 DUP4 ADD DUP5 PUSH3 0x3EB JUMP JUMPDEST SWAP3 SWAP2 POP POP JUMP JUMPDEST PUSH1 0x0 PUSH1 0x20 DUP3 ADD SWAP1 POP DUP2 DUP2 SUB PUSH1 0x0 DUP4 ADD MSTORE PUSH3 0x4E0 DUP2 DUP5 PUSH3 0x3FC JUMP JUMPDEST SWAP1 POP SWAP3 SWAP2 POP POP JUMP JUMPDEST PUSH1 0x0 PUSH1 0x80 DUP3 ADD SWAP1 POP DUP2 DUP2 SUB PUSH1 0x0 DUP4 ADD MSTORE PUSH3 0x504 DUP2 DUP8 PUSH3 0x466 JUMP JUMPDEST SWAP1 POP PUSH3 0x515 PUSH1 0x20 DUP4 ADD DUP7 PUSH3 0x3C9 JUMP JUMPDEST DUP2 DUP2 SUB PUSH1 0x40 DUP4 ADD MSTORE PUSH3 0x529 DUP2 DUP6 PUSH3 0x466 JUMP JUMPDEST SWAP1 POP DUP2 DUP2 SUB PUSH1 0x60 DUP4 ADD MSTORE PUSH3 0x53F DUP2 DUP5 PUSH3 0x466 JUMP JUMPDEST SWAP1 POP SWAP6 SWAP5 POP POP POP POP POP JUMP JUMPDEST PUSH1 0x0 PUSH1 0x40 MLOAD SWAP1 POP DUP2 DUP2 ADD DUP2 DUP2 LT PUSH8 0xFFFFFFFFFFFFFFFF DUP3 GT OR ISZERO PUSH3 0x56E JUMPI PUSH1 0x0 DUP1 REVERT JUMPDEST DUP1 PUSH1 0x40 MSTORE POP SWAP2 SWAP1 POP JUMP JUMPDEST PUSH1 0x0 PUSH8 0xFFFFFFFFFFFFFFFF DUP3 GT ISZERO PUSH3 0x590 JUMPI PUSH1 0x0 DUP1 REVERT JUMPDEST PUSH1 0x1F NOT PUSH1 0x1F DUP4 ADD AND SWAP1 POP PUSH1 0x20 DUP2 ADD SWAP1 POP SWAP2 SWAP1 POP JUMP JUMPDEST PUSH1 0x0 DUP2 SWAP1 POP PUSH1 0x20 DUP3 ADD SWAP1 POP SWAP2 SWAP1 POP JUMP JUMPDEST PUSH1 0x0 DUP2 MLOAD SWAP1 POP SWAP2 SWAP1 POP JUMP JUMPDEST PUSH1 0x0 DUP2 MLOAD SWAP1 POP SWAP2 SWAP1 POP JUMP JUMPDEST PUSH1 0x0 PUSH1 0x20 DUP3 ADD SWAP1 POP SWAP2 SWAP1 POP JUMP JUMPDEST PUSH1 0x0 DUP3 DUP3 MSTORE PUSH1 0x20 DUP3 ADD SWAP1 POP SWAP3 SWAP2 POP POP JUMP JUMPDEST PUSH1 0x0 DUP3 DUP3 MSTORE PUSH1 0x20 DUP3 ADD SWAP1 POP SWAP3 SWAP2 POP POP JUMP JUMPDEST PUSH1 0x0 PUSH3 0x607 DUP3 PUSH3 0x60E JUMP JUMPDEST SWAP1 POP SWAP2 SWAP1 POP JUMP JUMPDEST PUSH1 0x0 PUSH20 0xFFFFFFFFFFFFFFFFFFFFFFFFFFFFFFFFFFFFFFFF DUP3 AND SWAP1 POP SWAP2 SWAP1 POP JUMP JUMPDEST PUSH1 0x0 DUP2 SWAP1 POP SWAP2 SWAP1 POP JUMP JUMPDEST PUSH1 0x0 PUSH3 0x645 DUP3 PUSH3 0x64C JUMP JUMPDEST SWAP1 POP SWAP2 SWAP1 POP JUMP JUMPDEST PUSH1 0x0 PUSH3 0x659 DUP3 PUSH3 0x660 JUMP JUMPDEST SWAP1 POP SWAP2 SWAP1 POP JUMP JUMPDEST PUSH1 0x0 PUSH3 0x66D DUP3 PUSH3 0x60E JUMP JUMPDEST SWAP1 POP SWAP2 SWAP1 POP JUMP JUMPDEST DUP3 DUP2 DUP4 CALLDATACOPY PUSH1 0x0 DUP4 DUP4 ADD MSTORE POP POP POP JUMP JUMPDEST PUSH1 0x0 JUMPDEST DUP4 DUP2 LT ISZERO PUSH3 0x6A3 JUMPI DUP1 DUP3 ADD MLOAD DUP2 DUP5 ADD MSTORE PUSH1 0x20 DUP2 ADD SWAP1 POP PUSH3 0x686 JUMP JUMPDEST DUP4 DUP2 GT ISZERO PUSH3 0x6B3 JUMPI PUSH1 0x0 DUP5 DUP5 ADD MSTORE JUMPDEST POP POP POP POP JUMP JUMPDEST PUSH1 0x0 PUSH1 0x1F NOT PUSH1 0x1F DUP4 ADD AND SWAP1 POP SWAP2 SWAP1 POP JUMP JUMPDEST PUSH3 0x6D5 DUP2 PUSH3 0x62E JUMP JUMPDEST DUP2 EQ PUSH3 0x6E1 JUMPI PUSH1 0x0 DUP1 REVERT JUMPDEST POP JUMP INVALID PUSH1 0x80 PUSH1 0x40 MSTORE PUSH1 0x40 MLOAD PUSH3 0x1D36 CODESIZE SUB DUP1 PUSH3 0x1D36 DUP4 CODECOPY DUP2 DUP2 ADD PUSH1 0x40 MSTORE PUSH3 0x29 SWAP2 SWAP1 DUP2 ADD SWAP1 PUSH3 0x1E1 JUMP JUMPDEST DUP4 PUSH1 0x99 SWAP1 DUP1 MLOAD SWAP1 PUSH1 0x20 ADD SWAP1 PUSH3 0x41 SWAP3 SWAP2 SWAP1 PUSH3 0xBF JUMP JUMPDEST POP DUP3 PUSH1 0x98 PUSH1 0x0 PUSH2 0x100 EXP DUP2 SLOAD DUP2 PUSH20 0xFFFFFFFFFFFFFFFFFFFFFFFFFFFFFFFFFFFFFFFF MUL NOT AND SWAP1 DUP4 PUSH20 0xFFFFFFFFFFFFFFFFFFFFFFFFFFFFFFFFFFFFFFFF AND MUL OR SWAP1 SSTORE POP DUP2 PUSH1 0x9A SWAP1 DUP1 MLOAD SWAP1 PUSH1 0x20 ADD SWAP1 PUSH3 0x9B SWAP3 SWAP2 SWAP1 PUSH3 0xBF JUMP JUMPDEST POP DUP1 PUSH1 0x9B SWAP1 DUP1 MLOAD SWAP1 PUSH1 0x20 ADD SWAP1 PUSH3 0xB4 SWAP3 SWAP2 SWAP1 PUSH3 0xBF JUMP JUMPDEST POP POP POP POP POP PUSH3 0x377 JUMP JUMPDEST DUP3 DUP1 SLOAD PUSH1 0x1 DUP2 PUSH1 0x1 AND ISZERO PUSH2 0x100 MUL SUB AND PUSH1 0x2 SWAP1 DIV SWAP1 PUSH1 0x0 MSTORE PUSH1 0x20 PUSH1 0x0 KECCAK256 SWAP1 PUSH1 0x1F ADD PUSH1 0x20 SWAP1 DIV DUP2 ADD SWAP3 DUP3 PUSH1 0x1F LT PUSH3 0x102 JUMPI DUP1 MLOAD PUSH1 0xFF NOT AND DUP4 DUP1 ADD OR DUP6 SSTORE PUSH3 0x133 JUMP JUMPDEST DUP3 DUP1 ADD PUSH1 0x1 ADD DUP6 SSTORE DUP3 ISZERO PUSH3 0x133 JUMPI SWAP2 DUP3 ADD JUMPDEST DUP3 DUP2 GT ISZERO PUSH3 0x132 JUMPI DUP3 MLOAD DUP3 SSTORE SWAP2 PUSH1 0x20 ADD SWAP2 SWAP1 PUSH1 0x1 ADD SWAP1 PUSH3 0x115 JUMP JUMPDEST JUMPDEST POP SWAP1 POP PUSH3 0x142 SWAP2 SWAP1 PUSH3 0x146 JUMP JUMPDEST POP SWAP1 JUMP JUMPDEST PUSH3 0x16B SWAP2 SWAP1 JUMPDEST DUP1 DUP3 GT ISZERO PUSH3 0x167 JUMPI PUSH1 0x0 DUP2 PUSH1 0x0 SWAP1 SSTORE POP PUSH1 0x1 ADD PUSH3 0x14D JUMP JUMPDEST POP SWAP1 JUMP JUMPDEST SWAP1 JUMP JUMPDEST PUSH1 0x0 DUP2 MLOAD SWAP1 POP PUSH3 0x17F DUP2 PUSH3 0x35D JUMP JUMPDEST SWAP3 SWAP2 POP POP JUMP JUMPDEST PUSH1 0x0 DUP3 PUSH1 0x1F DUP4 ADD SLT PUSH3 0x197 JUMPI PUSH1 0x0 DUP1 REVERT JUMPDEST DUP2 MLOAD PUSH3 0x1AE PUSH3 0x1A8 DUP3 PUSH3 0x2C6 JUMP JUMPDEST PUSH3 0x298 JUMP JUMPDEST SWAP2 POP DUP1 DUP3 MSTORE PUSH1 0x20 DUP4 ADD PUSH1 0x20 DUP4 ADD DUP6 DUP4 DUP4 ADD GT ISZERO PUSH3 0x1CB JUMPI PUSH1 0x0 DUP1 REVERT JUMPDEST PUSH3 0x1D8 DUP4 DUP3 DUP5 PUSH3 0x327 JUMP JUMPDEST POP POP POP SWAP3 SWAP2 POP POP JUMP JUMPDEST PUSH1 0x0 DUP1 PUSH1 0x0 DUP1 PUSH1 0x80 DUP6 DUP8 SUB SLT ISZERO PUSH3 0x1F8 JUMPI PUSH1 0x0 DUP1 REVERT JUMPDEST PUSH1 0x0 DUP6 ADD MLOAD PUSH8 0xFFFFFFFFFFFFFFFF DUP2 GT ISZERO PUSH3 0x213 JUMPI PUSH1 0x0 DUP1 REVERT JUMPDEST PUSH3 0x221 DUP8 DUP3 DUP9 ADD PUSH3 0x185 JUMP JUMPDEST SWAP5 POP POP PUSH1 0x20 PUSH3 0x234 DUP8 DUP3 DUP9 ADD PUSH3 0x16E JUMP JUMPDEST SWAP4 POP POP PUSH1 0x40 DUP6 ADD MLOAD PUSH8 0xFFFFFFFFFFFFFFFF DUP2 GT ISZERO PUSH3 0x252 JUMPI PUSH1 0x0 DUP1 REVERT JUMPDEST PUSH3 0x260 DUP8 DUP3 DUP9 ADD PUSH3 0x185 JUMP JUMPDEST SWAP3 POP POP PUSH1 0x60 DUP6 ADD MLOAD PUSH8 0xFFFFFFFFFFFFFFFF DUP2 GT ISZERO PUSH3 0x27E JUMPI PUSH1 0x0 DUP1 REVERT JUMPDEST PUSH3 0x28C DUP8 DUP3 DUP9 ADD PUSH3 0x185 JUMP JUMPDEST SWAP2 POP POP SWAP3 SWAP6 SWAP2 SWAP5 POP SWAP3 POP JUMP JUMPDEST PUSH1 0x0 PUSH1 0x40 MLOAD SWAP1 POP DUP2 DUP2 ADD DUP2 DUP2 LT PUSH8 0xFFFFFFFFFFFFFFFF DUP3 GT OR ISZERO PUSH3 0x2BC JUMPI PUSH1 0x0 DUP1 REVERT JUMPDEST DUP1 PUSH1 0x40 MSTORE POP SWAP2 SWAP1 POP JUMP JUMPDEST PUSH1 0x0 PUSH8 0xFFFFFFFFFFFFFFFF DUP3 GT ISZERO PUSH3 0x2DE JUMPI PUSH1 0x0 DUP1 REVERT JUMPDEST PUSH1 0x1F NOT PUSH1 0x1F DUP4 ADD AND SWAP1 POP PUSH1 0x20 DUP2 ADD SWAP1 POP SWAP2 SWAP1 POP JUMP JUMPDEST PUSH1 0x0 PUSH3 0x300 DUP3 PUSH3 0x307 JUMP JUMPDEST SWAP1 POP SWAP2 SWAP1 POP JUMP JUMPDEST PUSH1 0x0 PUSH20 0xFFFFFFFFFFFFFFFFFFFFFFFFFFFFFFFFFFFFFFFF DUP3 AND SWAP1 POP SWAP2 SWAP1 POP JUMP JUMPDEST PUSH1 0x0 JUMPDEST DUP4 DUP2 LT ISZERO PUSH3 0x347 JUMPI DUP1 DUP3 ADD MLOAD DUP2 DUP5 ADD MSTORE PUSH1 0x20 DUP2 ADD SWAP1 POP PUSH3 0x32A JUMP JUMPDEST DUP4 DUP2 GT ISZERO PUSH3 0x357 JUMPI PUSH1 0x0 DUP5 DUP5 ADD MSTORE JUMPDEST POP POP POP POP JUMP JUMPDEST PUSH3 0x368 DUP2 PUSH3 0x2F3 JUMP JUMPDEST DUP2 EQ PUSH3 0x374 JUMPI PUSH1 0x0 DUP1 REVERT JUMPDEST POP JUMP JUMPDEST PUSH2 0x19AF DUP1 PUSH3 0x387 PUSH1 0x0 CODECOPY PUSH1 0x0 RETURN INVALID PUSH1 0x80 PUSH1 0x40 MSTORE PUSH1 0x4 CALLDATASIZE LT PUSH2 0xE8 JUMPI PUSH1 0x0 CALLDATALOAD PUSH1 0xE0 SHR DUP1 PUSH4 0x95EE3CE0 GT PUSH2 0x8A JUMPI DUP1 PUSH4 0xC6A262A0 GT PUSH2 0x59 JUMPI DUP1 PUSH4 0xC6A262A0 EQ PUSH2 0x2F1 JUMPI DUP1 PUSH4 0xE06E0E22 EQ PUSH2 0x308 JUMPI DUP1 PUSH4 0xE95F1F3C EQ PUSH2 0x331 JUMPI DUP1 PUSH4 0xEF271233 EQ PUSH2 0x35C JUMPI PUSH2 0xE8 JUMP JUMPDEST DUP1 PUSH4 0x95EE3CE0 EQ PUSH2 0x254 JUMPI DUP1 PUSH4 0xABEEA531 EQ PUSH2 0x27F JUMPI DUP1 PUSH4 0xAD61CCD5 EQ PUSH2 0x2AA JUMPI DUP1 PUSH4 0xBD93610D EQ PUSH2 0x2D5 JUMPI PUSH2 0xE8 JUMP JUMPDEST DUP1 PUSH4 0x74E861D6 GT PUSH2 0xC6 JUMPI DUP1 PUSH4 0x74E861D6 EQ PUSH2 0x183 JUMPI DUP1 PUSH4 0x80274DB7 EQ PUSH2 0x1AE JUMPI DUP1 PUSH4 0x83947EA0 EQ PUSH2 0x1EB JUMPI DUP1 PUSH4 0x875C1D9C EQ PUSH2 0x229 JUMPI PUSH2 0xE8 JUMP JUMPDEST DUP1 PUSH4 0x7877CFF EQ PUSH2 0xED JUMPI DUP1 PUSH4 0xA795662 EQ PUSH2 0x116 JUMPI DUP1 PUSH4 0x2986C0E5 EQ PUSH2 0x158 JUMPI JUMPDEST PUSH1 0x0 DUP1 REVERT JUMPDEST CALLVALUE DUP1 ISZERO PUSH2 0xF9 JUMPI PUSH1 0x0 DUP1 REVERT JUMPDEST POP PUSH2 0x114 PUSH1 0x4 DUP1 CALLDATASIZE SUB PUSH2 0x10F SWAP2 SWAP1 DUP2 ADD SWAP1 PUSH2 0x13A1 JUMP JUMPDEST PUSH2 0x387 JUMP JUMPDEST STOP JUMPDEST CALLVALUE DUP1 ISZERO PUSH2 0x122 JUMPI PUSH1 0x0 DUP1 REVERT JUMPDEST POP PUSH2 0x13D PUSH1 0x4 DUP1 CALLDATASIZE SUB PUSH2 0x138 SWAP2 SWAP1 DUP2 ADD SWAP1 PUSH2 0x10E5 JUMP JUMPDEST PUSH2 0x41A JUMP JUMPDEST PUSH1 0x40 MLOAD PUSH2 0x14F SWAP7 SWAP6 SWAP5 SWAP4 SWAP3 SWAP2 SWAP1 PUSH2 0x161C JUMP JUMPDEST PUSH1 0x40 MLOAD DUP1 SWAP2 SUB SWAP1 RETURN JUMPDEST CALLVALUE DUP1 ISZERO PUSH2 0x164 JUMPI PUSH1 0x0 DUP1 REVERT JUMPDEST POP PUSH2 0x16D PUSH2 0x64B JUMP JUMPDEST PUSH1 0x40 MLOAD PUSH2 0x17A SWAP2 SWAP1 PUSH2 0x1711 JUMP JUMPDEST PUSH1 0x40 MLOAD DUP1 SWAP2 SUB SWAP1 RETURN JUMPDEST CALLVALUE DUP1 ISZERO PUSH2 0x18F JUMPI PUSH1 0x0 DUP1 REVERT JUMPDEST POP PUSH2 0x198 PUSH2 0x651 JUMP JUMPDEST PUSH1 0x40 MLOAD PUSH2 0x1A5 SWAP2 SWAP1 PUSH2 0x1599 JUMP JUMPDEST PUSH1 0x40 MLOAD DUP1 SWAP2 SUB SWAP1 RETURN JUMPDEST CALLVALUE DUP1 ISZERO PUSH2 0x1BA JUMPI PUSH1 0x0 DUP1 REVERT JUMPDEST POP PUSH2 0x1D5 PUSH1 0x4 DUP1 CALLDATASIZE SUB PUSH2 0x1D0 SWAP2 SWAP1 DUP2 ADD SWAP1 PUSH2 0x120E JUMP JUMPDEST PUSH2 0x67B JUMP JUMPDEST PUSH1 0x40 MLOAD PUSH2 0x1E2 SWAP2 SWAP1 PUSH2 0x1692 JUMP JUMPDEST PUSH1 0x40 MLOAD DUP1 SWAP2 SUB SWAP1 RETURN JUMPDEST CALLVALUE DUP1 ISZERO PUSH2 0x1F7 JUMPI PUSH1 0x0 DUP1 REVERT JUMPDEST POP PUSH2 0x212 PUSH1 0x4 DUP1 CALLDATASIZE SUB PUSH2 0x20D SWAP2 SWAP1 DUP2 ADD SWAP1 PUSH2 0x110E JUMP JUMPDEST PUSH2 0x702 JUMP JUMPDEST PUSH1 0x40 MLOAD PUSH2 0x220 SWAP3 SWAP2 SWAP1 PUSH2 0x172C JUMP JUMPDEST PUSH1 0x40 MLOAD DUP1 SWAP2 SUB SWAP1 RETURN JUMPDEST CALLVALUE DUP1 ISZERO PUSH2 0x235 JUMPI PUSH1 0x0 DUP1 REVERT JUMPDEST POP PUSH2 0x23E PUSH2 0x74B JUMP JUMPDEST PUSH1 0x40 MLOAD PUSH2 0x24B SWAP2 SWAP1 PUSH2 0x16AD JUMP JUMPDEST PUSH1 0x40 MLOAD DUP1 SWAP2 SUB SWAP1 RETURN JUMPDEST CALLVALUE DUP1 ISZERO PUSH2 0x260 JUMPI PUSH1 0x0 DUP1 REVERT JUMPDEST POP PUSH2 0x269 PUSH2 0x7E9 JUMP JUMPDEST PUSH1 0x40 MLOAD PUSH2 0x276 SWAP2 SWAP1 PUSH2 0x1599 JUMP JUMPDEST PUSH1 0x40 MLOAD DUP1 SWAP2 SUB SWAP1 RETURN JUMPDEST CALLVALUE DUP1 ISZERO PUSH2 0x28B JUMPI PUSH1 0x0 DUP1 REVERT JUMPDEST POP PUSH2 0x294 PUSH2 0x80F JUMP JUMPDEST PUSH1 0x40 MLOAD PUSH2 0x2A1 SWAP2 SWAP1 PUSH2 0x16AD JUMP JUMPDEST PUSH1 0x40 MLOAD DUP1 SWAP2 SUB SWAP1 RETURN JUMPDEST CALLVALUE DUP1 ISZERO PUSH2 0x2B6 JUMPI PUSH1 0x0 DUP1 REVERT JUMPDEST POP PUSH2 0x2BF PUSH2 0x8AD JUMP JUMPDEST PUSH1 0x40 MLOAD PUSH2 0x2CC SWAP2 SWAP1 PUSH2 0x16CF JUMP JUMPDEST PUSH1 0x40 MLOAD DUP1 SWAP2 SUB SWAP1 RETURN JUMPDEST PUSH2 0x2EF PUSH1 0x4 DUP1 CALLDATASIZE SUB PUSH2 0x2EA SWAP2 SWAP1 DUP2 ADD SWAP1 PUSH2 0x12CA JUMP JUMPDEST PUSH2 0x8EA JUMP JUMPDEST STOP JUMPDEST CALLVALUE DUP1 ISZERO PUSH2 0x2FD JUMPI PUSH1 0x0 DUP1 REVERT JUMPDEST POP PUSH2 0x306 PUSH2 0xAB9 JUMP JUMPDEST STOP JUMPDEST CALLVALUE DUP1 ISZERO PUSH2 0x314 JUMPI PUSH1 0x0 DUP1 REVERT JUMPDEST POP PUSH2 0x32F PUSH1 0x4 DUP1 CALLDATASIZE SUB PUSH2 0x32A SWAP2 SWAP1 DUP2 ADD SWAP1 PUSH2 0x124F JUMP JUMPDEST PUSH2 0xBAD JUMP JUMPDEST STOP JUMPDEST CALLVALUE DUP1 ISZERO PUSH2 0x33D JUMPI PUSH1 0x0 DUP1 REVERT JUMPDEST POP PUSH2 0x346 PUSH2 0xC34 JUMP JUMPDEST PUSH1 0x40 MLOAD PUSH2 0x353 SWAP2 SWAP1 PUSH2 0x1711 JUMP JUMPDEST PUSH1 0x40 MLOAD DUP1 SWAP2 SUB SWAP1 RETURN JUMPDEST CALLVALUE DUP1 ISZERO PUSH2 0x368 JUMPI PUSH1 0x0 DUP1 REVERT JUMPDEST POP PUSH2 0x371 PUSH2 0xC3E JUMP JUMPDEST PUSH1 0x40 MLOAD PUSH2 0x37E SWAP2 SWAP1 PUSH2 0x16AD JUMP JUMPDEST PUSH1 0x40 MLOAD DUP1 SWAP2 SUB SWAP1 RETURN JUMPDEST PUSH1 0x0 PUSH20 0x117623A2EBB93359967C83DE51360B09CDCB0E03 SWAP1 POP DUP1 PUSH20 0xFFFFFFFFFFFFFFFFFFFFFFFFFFFFFFFFFFFFFFFF AND PUSH4 0xA97BED0 ADDRESS DUP8 DUP8 DUP8 DUP8 PUSH1 0x40 MLOAD DUP7 PUSH4 0xFFFFFFFF AND PUSH1 0xE0 SHL DUP2 MSTORE PUSH1 0x4 ADD PUSH2 0x3E1 SWAP6 SWAP5 SWAP4 SWAP3 SWAP2 SWAP1 PUSH2 0x15B4 JUMP JUMPDEST PUSH1 0x0 PUSH1 0x40 MLOAD DUP1 DUP4 SUB DUP2 PUSH1 0x0 DUP8 DUP1 EXTCODESIZE ISZERO DUP1 ISZERO PUSH2 0x3FB JUMPI PUSH1 0x0 DUP1 REVERT JUMPDEST POP GAS CALL ISZERO DUP1 ISZERO PUSH2 0x40F JUMPI RETURNDATASIZE PUSH1 0x0 DUP1 RETURNDATACOPY RETURNDATASIZE PUSH1 0x0 REVERT JUMPDEST POP POP POP POP POP POP POP POP POP JUMP JUMPDEST PUSH1 0x9D PUSH1 0x20 MSTORE DUP1 PUSH1 0x0 MSTORE PUSH1 0x40 PUSH1 0x0 KECCAK256 PUSH1 0x0 SWAP2 POP SWAP1 POP DUP1 PUSH1 0x0 ADD PUSH1 0x0 SWAP1 SLOAD SWAP1 PUSH2 0x100 EXP SWAP1 DIV PUSH20 0xFFFFFFFFFFFFFFFFFFFFFFFFFFFFFFFFFFFFFFFF AND SWAP1 DUP1 PUSH1 0x1 ADD DUP1 SLOAD PUSH1 0x1 DUP2 PUSH1 0x1 AND ISZERO PUSH2 0x100 MUL SUB AND PUSH1 0x2 SWAP1 DIV DUP1 PUSH1 0x1F ADD PUSH1 0x20 DUP1 SWAP2 DIV MUL PUSH1 0x20 ADD PUSH1 0x40 MLOAD SWAP1 DUP2 ADD PUSH1 0x40 MSTORE DUP1 SWAP3 SWAP2 SWAP1 DUP2 DUP2 MSTORE PUSH1 0x20 ADD DUP3 DUP1 SLOAD PUSH1 0x1 DUP2 PUSH1 0x1 AND ISZERO PUSH2 0x100 MUL SUB AND PUSH1 0x2 SWAP1 DIV DUP1 ISZERO PUSH2 0x4EC JUMPI DUP1 PUSH1 0x1F LT PUSH2 0x4C1 JUMPI PUSH2 0x100 DUP1 DUP4 SLOAD DIV MUL DUP4 MSTORE SWAP2 PUSH1 0x20 ADD SWAP2 PUSH2 0x4EC JUMP JUMPDEST DUP3 ADD SWAP2 SWAP1 PUSH1 0x0 MSTORE PUSH1 0x20 PUSH1 0x0 KECCAK256 SWAP1 JUMPDEST DUP2 SLOAD DUP2 MSTORE SWAP1 PUSH1 0x1 ADD SWAP1 PUSH1 0x20 ADD DUP1 DUP4 GT PUSH2 0x4CF JUMPI DUP3 SWAP1 SUB PUSH1 0x1F AND DUP3 ADD SWAP2 JUMPDEST POP POP POP POP POP SWAP1 DUP1 PUSH1 0x2 ADD DUP1 SLOAD PUSH1 0x1 DUP2 PUSH1 0x1 AND ISZERO PUSH2 0x100 MUL SUB AND PUSH1 0x2 SWAP1 DIV DUP1 PUSH1 0x1F ADD PUSH1 0x20 DUP1 SWAP2 DIV MUL PUSH1 0x20 ADD PUSH1 0x40 MLOAD SWAP1 DUP2 ADD PUSH1 0x40 MSTORE DUP1 SWAP3 SWAP2 SWAP1 DUP2 DUP2 MSTORE PUSH1 0x20 ADD DUP3 DUP1 SLOAD PUSH1 0x1 DUP2 PUSH1 0x1 AND ISZERO PUSH2 0x100 MUL SUB AND PUSH1 0x2 SWAP1 DIV DUP1 ISZERO PUSH2 0x58A JUMPI DUP1 PUSH1 0x1F LT PUSH2 0x55F JUMPI PUSH2 0x100 DUP1 DUP4 SLOAD DIV MUL DUP4 MSTORE SWAP2 PUSH1 0x20 ADD SWAP2 PUSH2 0x58A JUMP JUMPDEST DUP3 ADD SWAP2 SWAP1 PUSH1 0x0 MSTORE PUSH1 0x20 PUSH1 0x0 KECCAK256 SWAP1 JUMPDEST DUP2 SLOAD DUP2 MSTORE SWAP1 PUSH1 0x1 ADD SWAP1 PUSH1 0x20 ADD DUP1 DUP4 GT PUSH2 0x56D JUMPI DUP3 SWAP1 SUB PUSH1 0x1F AND DUP3 ADD SWAP2 JUMPDEST POP POP POP POP POP SWAP1 DUP1 PUSH1 0x3 ADD DUP1 SLOAD PUSH1 0x1 DUP2 PUSH1 0x1 AND ISZERO PUSH2 0x100 MUL SUB AND PUSH1 0x2 SWAP1 DIV DUP1 PUSH1 0x1F ADD PUSH1 0x20 DUP1 SWAP2 DIV MUL PUSH1 0x20 ADD PUSH1 0x40 MLOAD SWAP1 DUP2 ADD PUSH1 0x40 MSTORE DUP1 SWAP3 SWAP2 SWAP1 DUP2 DUP2 MSTORE PUSH1 0x20 ADD DUP3 DUP1 SLOAD PUSH1 0x1 DUP2 PUSH1 0x1 AND ISZERO PUSH2 0x100 MUL SUB AND PUSH1 0x2 SWAP1 DIV DUP1 ISZERO PUSH2 0x628 JUMPI DUP1 PUSH1 0x1F LT PUSH2 0x5FD JUMPI PUSH2 0x100 DUP1 DUP4 SLOAD DIV MUL DUP4 MSTORE SWAP2 PUSH1 0x20 ADD SWAP2 PUSH2 0x628 JUMP JUMPDEST DUP3 ADD SWAP2 SWAP1 PUSH1 0x0 MSTORE PUSH1 0x20 PUSH1 0x0 KECCAK256 SWAP1 JUMPDEST DUP2 SLOAD DUP2 MSTORE SWAP1 PUSH1 0x1 ADD SWAP1 PUSH1 0x20 ADD DUP1 DUP4 GT PUSH2 0x60B JUMPI DUP3 SWAP1 SUB PUSH1 0x1F AND DUP3 ADD SWAP2 JUMPDEST POP POP POP POP POP SWAP1 DUP1 PUSH1 0x4 ADD SLOAD SWAP1 DUP1 PUSH1 0x5 ADD PUSH1 0x0 SWAP1 SLOAD SWAP1 PUSH2 0x100 EXP SWAP1 DIV PUSH1 0xFF AND SWAP1 POP DUP7 JUMP JUMPDEST PUSH1 0x9C SLOAD DUP2 JUMP JUMPDEST PUSH1 0x0 PUSH1 0x65 PUSH1 0x0 SWAP1 SLOAD SWAP1 PUSH2 0x100 EXP SWAP1 DIV PUSH20 0xFFFFFFFFFFFFFFFFFFFFFFFFFFFFFFFFFFFFFFFF AND SWAP1 POP SWAP1 JUMP JUMPDEST PUSH1 0x0 PUSH2 0x685 PUSH2 0x651 JUMP JUMPDEST PUSH20 0xFFFFFFFFFFFFFFFFFFFFFFFFFFFFFFFFFFFFFFFF AND CALLER PUSH20 0xFFFFFFFFFFFFFFFFFFFFFFFFFFFFFFFFFFFFFFFF AND EQ PUSH2 0x6F2 JUMPI PUSH1 0x40 MLOAD PUSH32 0x8C379A000000000000000000000000000000000000000000000000000000000 DUP2 MSTORE PUSH1 0x4 ADD PUSH2 0x6E9 SWAP1 PUSH2 0x16F1 JUMP JUMPDEST PUSH1 0x40 MLOAD DUP1 SWAP2 SUB SWAP1 REVERT JUMPDEST PUSH2 0x6FB DUP3 PUSH2 0xCDC JUMP JUMPDEST SWAP1 POP SWAP2 SWAP1 POP JUMP JUMPDEST PUSH1 0x0 PUSH1 0x60 PUSH1 0x0 PUSH1 0x97 SLOAD EQ ISZERO PUSH2 0x722 JUMPI PUSH2 0x719 PUSH2 0xCF3 JUMP JUMPDEST SWAP2 POP SWAP2 POP PUSH2 0x73B JUMP JUMPDEST PUSH2 0x736 PUSH1 0x0 DUP1 DUP2 GT ISZERO PUSH2 0x731 JUMPI INVALID JUMPDEST PUSH2 0xD17 JUMP JUMPDEST SWAP2 POP SWAP2 POP JUMPDEST SWAP12 POP SWAP12 SWAP10 POP POP POP POP POP POP POP POP POP POP JUMP JUMPDEST PUSH1 0x9A DUP1 SLOAD PUSH1 0x1 DUP2 PUSH1 0x1 AND ISZERO PUSH2 0x100 MUL SUB AND PUSH1 0x2 SWAP1 DIV DUP1 PUSH1 0x1F ADD PUSH1 0x20 DUP1 SWAP2 DIV MUL PUSH1 0x20 ADD PUSH1 0x40 MLOAD SWAP1 DUP2 ADD PUSH1 0x40 MSTORE DUP1 SWAP3 SWAP2 SWAP1 DUP2 DUP2 MSTORE PUSH1 0x20 ADD DUP3 DUP1 SLOAD PUSH1 0x1 DUP2 PUSH1 0x1 AND ISZERO PUSH2 0x100 MUL SUB AND PUSH1 0x2 SWAP1 DIV DUP1 ISZERO PUSH2 0x7E1 JUMPI DUP1 PUSH1 0x1F LT PUSH2 0x7B6 JUMPI PUSH2 0x100 DUP1 DUP4 SLOAD DIV MUL DUP4 MSTORE SWAP2 PUSH1 0x20 ADD SWAP2 PUSH2 0x7E1 JUMP JUMPDEST DUP3 ADD SWAP2 SWAP1 PUSH1 0x0 MSTORE PUSH1 0x20 PUSH1 0x0 KECCAK256 SWAP1 JUMPDEST DUP2 SLOAD DUP2 MSTORE SWAP1 PUSH1 0x1 ADD SWAP1 PUSH1 0x20 ADD DUP1 DUP4 GT PUSH2 0x7C4 JUMPI DUP3 SWAP1 SUB PUSH1 0x1F AND DUP3 ADD SWAP2 JUMPDEST POP POP POP POP POP DUP2 JUMP JUMPDEST PUSH1 0x98 PUSH1 0x0 SWAP1 SLOAD SWAP1 PUSH2 0x100 EXP SWAP1 DIV PUSH20 0xFFFFFFFFFFFFFFFFFFFFFFFFFFFFFFFFFFFFFFFF AND DUP2 JUMP JUMPDEST PUSH1 0x9B DUP1 SLOAD PUSH1 0x1 DUP2 PUSH1 0x1 AND ISZERO PUSH2 0x100 MUL SUB AND PUSH1 0x2 SWAP1 DIV DUP1 PUSH1 0x1F ADD PUSH1 0x20 DUP1 SWAP2 DIV MUL PUSH1 0x20 ADD PUSH1 0x40 MLOAD SWAP1 DUP2 ADD PUSH1 0x40 MSTORE DUP1 SWAP3 SWAP2 SWAP1 DUP2 DUP2 MSTORE PUSH1 0x20 ADD DUP3 DUP1 SLOAD PUSH1 0x1 DUP2 PUSH1 0x1 AND ISZERO PUSH2 0x100 MUL SUB AND PUSH1 0x2 SWAP1 DIV DUP1 ISZERO PUSH2 0x8A5 JUMPI DUP1 PUSH1 0x1F LT PUSH2 0x87A JUMPI PUSH2 0x100 DUP1 DUP4 SLOAD DIV MUL DUP4 MSTORE SWAP2 PUSH1 0x20 ADD SWAP2 PUSH2 0x8A5 JUMP JUMPDEST DUP3 ADD SWAP2 SWAP1 PUSH1 0x0 MSTORE PUSH1 0x20 PUSH1 0x0 KECCAK256 SWAP1 JUMPDEST DUP2 SLOAD DUP2 MSTORE SWAP1 PUSH1 0x1 ADD SWAP1 PUSH1 0x20 ADD DUP1 DUP4 GT PUSH2 0x888 JUMPI DUP3 SWAP1 SUB PUSH1 0x1F AND DUP3 ADD SWAP2 JUMPDEST POP POP POP POP POP DUP2 JUMP JUMPDEST PUSH1 0x60 PUSH1 0x40 MLOAD DUP1 PUSH1 0x40 ADD PUSH1 0x40 MSTORE DUP1 PUSH1 0x5 DUP2 MSTORE PUSH1 0x20 ADD PUSH32 0x312E302E30000000000000000000000000000000000000000000000000000000 DUP2 MSTORE POP SWAP1 POP SWAP1 JUMP JUMPDEST DUP2 CALLVALUE EQ PUSH2 0x8F6 JUMPI PUSH1 0x0 DUP1 REVERT JUMPDEST PUSH1 0x0 PUSH1 0x97 DUP2 SWAP1 SSTORE POP PUSH1 0x0 PUSH1 0x9D PUSH1 0x0 CALLER PUSH20 0xFFFFFFFFFFFFFFFFFFFFFFFFFFFFFFFFFFFFFFFF AND PUSH20 0xFFFFFFFFFFFFFFFFFFFFFFFFFFFFFFFFFFFFFFFF AND DUP2 MSTORE PUSH1 0x20 ADD SWAP1 DUP2 MSTORE PUSH1 0x20 ADD PUSH1 0x0 KECCAK256 SWAP1 POP CALLER DUP2 PUSH1 0x0 ADD PUSH1 0x0 PUSH2 0x100 EXP DUP2 SLOAD DUP2 PUSH20 0xFFFFFFFFFFFFFFFFFFFFFFFFFFFFFFFFFFFFFFFF MUL NOT AND SWAP1 DUP4 PUSH20 0xFFFFFFFFFFFFFFFFFFFFFFFFFFFFFFFFFFFFFFFF AND MUL OR SWAP1 SSTORE POP DUP5 DUP2 PUSH1 0x1 ADD SWAP1 DUP1 MLOAD SWAP1 PUSH1 0x20 ADD SWAP1 PUSH2 0x99C SWAP3 SWAP2 SWAP1 PUSH2 0xD4E JUMP JUMPDEST POP DUP6 DUP2 PUSH1 0x2 ADD SWAP1 DUP1 MLOAD SWAP1 PUSH1 0x20 ADD SWAP1 PUSH2 0x9B5 SWAP3 SWAP2 SWAP1 PUSH2 0xD4E JUMP JUMPDEST POP DUP4 DUP2 PUSH1 0x3 ADD SWAP1 DUP1 MLOAD SWAP1 PUSH1 0x20 ADD SWAP1 PUSH2 0x9CE SWAP3 SWAP2 SWAP1 PUSH2 0xD4E JUMP JUMPDEST POP DUP3 DUP2 PUSH1 0x4 ADD DUP2 SWAP1 SSTORE POP PUSH1 0x0 DUP2 PUSH1 0x5 ADD PUSH1 0x0 PUSH2 0x100 EXP DUP2 SLOAD DUP2 PUSH1 0xFF MUL NOT AND SWAP1 DUP4 ISZERO ISZERO MUL OR SWAP1 SSTORE POP PUSH1 0x0 PUSH1 0x9D PUSH1 0x0 CALLER PUSH20 0xFFFFFFFFFFFFFFFFFFFFFFFFFFFFFFFFFFFFFFFF AND PUSH20 0xFFFFFFFFFFFFFFFFFFFFFFFFFFFFFFFFFFFFFFFF AND DUP2 MSTORE PUSH1 0x20 ADD SWAP1 DUP2 MSTORE PUSH1 0x20 ADD PUSH1 0x0 KECCAK256 SWAP1 POP DUP3 MLOAD PUSH1 0x9C DUP2 SWAP1 SSTORE POP PUSH1 0x0 DUP1 SWAP1 POP JUMPDEST DUP4 MLOAD DUP2 LT ISZERO PUSH2 0xAAF JUMPI DUP4 DUP2 DUP2 MLOAD DUP2 LT PUSH2 0xA5B JUMPI INVALID JUMPDEST PUSH1 0x20 MUL PUSH1 0x20 ADD ADD MLOAD DUP3 PUSH1 0x6 ADD PUSH1 0x0 DUP4 DUP2 MSTORE PUSH1 0x20 ADD SWAP1 DUP2 MSTORE PUSH1 0x20 ADD PUSH1 0x0 KECCAK256 PUSH1 0x0 DUP3 ADD MLOAD DUP2 PUSH1 0x0 ADD SWAP1 DUP1 MLOAD SWAP1 PUSH1 0x20 ADD SWAP1 PUSH2 0xA94 SWAP3 SWAP2 SWAP1 PUSH2 0xDCE JUMP JUMPDEST POP PUSH1 0x20 DUP3 ADD MLOAD DUP2 PUSH1 0x1 ADD SSTORE SWAP1 POP POP DUP1 DUP1 PUSH1 0x1 ADD SWAP2 POP POP PUSH2 0xA46 JUMP JUMPDEST POP POP POP POP POP POP POP POP JUMP JUMPDEST PUSH1 0x1 PUSH1 0x97 DUP2 SWAP1 SSTORE POP PUSH1 0x0 PUSH1 0x9D PUSH1 0x0 CALLER PUSH20 0xFFFFFFFFFFFFFFFFFFFFFFFFFFFFFFFFFFFFFFFF AND PUSH20 0xFFFFFFFFFFFFFFFFFFFFFFFFFFFFFFFFFFFFFFFF AND DUP2 MSTORE PUSH1 0x20 ADD SWAP1 DUP2 MSTORE PUSH1 0x20 ADD PUSH1 0x0 KECCAK256 SWAP1 POP DUP1 PUSH1 0x5 ADD PUSH1 0x0 SWAP1 SLOAD SWAP1 PUSH2 0x100 EXP SWAP1 DIV PUSH1 0xFF AND ISZERO PUSH2 0xB20 JUMPI PUSH1 0x0 DUP1 REVERT JUMPDEST PUSH1 0x98 PUSH1 0x0 SWAP1 SLOAD SWAP1 PUSH2 0x100 EXP SWAP1 DIV PUSH20 0xFFFFFFFFFFFFFFFFFFFFFFFFFFFFFFFFFFFFFFFF AND PUSH20 0xFFFFFFFFFFFFFFFFFFFFFFFFFFFFFFFFFFFFFFFF AND PUSH2 0x8FC DUP3 PUSH1 0x4 ADD SLOAD SWAP1 DUP2 ISZERO MUL SWAP1 PUSH1 0x40 MLOAD PUSH1 0x0 PUSH1 0x40 MLOAD DUP1 DUP4 SUB DUP2 DUP6 DUP9 DUP9 CALL SWAP4 POP POP POP POP ISZERO DUP1 ISZERO PUSH2 0xB8C JUMPI RETURNDATASIZE PUSH1 0x0 DUP1 RETURNDATACOPY RETURNDATASIZE PUSH1 0x0 REVERT JUMPDEST POP PUSH1 0x1 DUP2 PUSH1 0x5 ADD PUSH1 0x0 PUSH2 0x100 EXP DUP2 SLOAD DUP2 PUSH1 0xFF MUL NOT AND SWAP1 DUP4 ISZERO ISZERO MUL OR SWAP1 SSTORE POP POP JUMP JUMPDEST PUSH2 0xBB5 PUSH2 0x651 JUMP JUMPDEST PUSH20 0xFFFFFFFFFFFFFFFFFFFFFFFFFFFFFFFFFFFFFFFF AND CALLER PUSH20 0xFFFFFFFFFFFFFFFFFFFFFFFFFFFFFFFFFFFFFFFF AND EQ PUSH2 0xC22 JUMPI PUSH1 0x40 MLOAD PUSH32 0x8C379A000000000000000000000000000000000000000000000000000000000 DUP2 MSTORE PUSH1 0x4 ADD PUSH2 0xC19 SWAP1 PUSH2 0x16F1 JUMP JUMPDEST PUSH1 0x40 MLOAD DUP1 SWAP2 SUB SWAP1 REVERT JUMPDEST PUSH2 0xC2E DUP5 DUP5 DUP5 DUP5 PUSH2 0xD38 JUMP JUMPDEST POP POP POP POP JUMP JUMPDEST PUSH1 0x0 PUSH1 0x9C SLOAD SWAP1 POP SWAP1 JUMP JUMPDEST PUSH1 0x99 DUP1 SLOAD PUSH1 0x1 DUP2 PUSH1 0x1 AND ISZERO PUSH2 0x100 MUL SUB AND PUSH1 0x2 SWAP1 DIV DUP1 PUSH1 0x1F ADD PUSH1 0x20 DUP1 SWAP2 DIV MUL PUSH1 0x20 ADD PUSH1 0x40 MLOAD SWAP1 DUP2 ADD PUSH1 0x40 MSTORE DUP1 SWAP3 SWAP2 SWAP1 DUP2 DUP2 MSTORE PUSH1 0x20 ADD DUP3 DUP1 SLOAD PUSH1 0x1 DUP2 PUSH1 0x1 AND ISZERO PUSH2 0x100 MUL SUB AND PUSH1 0x2 SWAP1 DIV DUP1 ISZERO PUSH2 0xCD4 JUMPI DUP1 PUSH1 0x1F LT PUSH2 0xCA9 JUMPI PUSH2 0x100 DUP1 DUP4 SLOAD DIV MUL DUP4 MSTORE SWAP2 PUSH1 0x20 ADD SWAP2 PUSH2 0xCD4 JUMP JUMPDEST DUP3 ADD SWAP2 SWAP1 PUSH1 0x0 MSTORE PUSH1 0x20 PUSH1 0x0 KECCAK256 SWAP1 JUMPDEST DUP2 SLOAD DUP2 MSTORE SWAP1 PUSH1 0x1 ADD SWAP1 PUSH1 0x20 ADD DUP1 DUP4 GT PUSH2 0xCB7 JUMPI DUP3 SWAP1 SUB PUSH1 0x1F AND DUP3 ADD SWAP2 JUMPDEST POP POP POP POP POP DUP2 JUMP JUMPDEST PUSH1 0x0 DUP1 PUSH1 0x97 SLOAD EQ ISZERO PUSH2 0xCED JUMPI PUSH2 0xCEE JUMP JUMPDEST JUMPDEST SWAP2 SWAP1 POP JUMP JUMPDEST PUSH1 0x0 PUSH1 0x60 PUSH2 0xD0F PUSH1 0x40 MLOAD DUP1 PUSH1 0x20 ADD PUSH1 0x40 MSTORE DUP1 PUSH1 0x0 DUP2 MSTORE POP PUSH2 0xD3E JUMP JUMPDEST SWAP2 POP SWAP2 POP SWAP1 SWAP2 JUMP JUMPDEST PUSH1 0x0 PUSH1 0x60 DUP3 PUSH1 0xB ADD PUSH1 0x40 MLOAD DUP1 PUSH1 0x20 ADD PUSH1 0x40 MSTORE DUP1 PUSH1 0x0 DUP2 MSTORE POP SWAP2 POP SWAP2 POP SWAP2 POP SWAP2 JUMP JUMPDEST POP POP POP POP JUMP JUMPDEST PUSH1 0x0 PUSH1 0x60 PUSH1 0x0 DUP4 SWAP2 POP SWAP2 POP SWAP2 POP SWAP2 JUMP JUMPDEST DUP3 DUP1 SLOAD PUSH1 0x1 DUP2 PUSH1 0x1 AND ISZERO PUSH2 0x100 MUL SUB AND PUSH1 0x2 SWAP1 DIV SWAP1 PUSH1 0x0 MSTORE PUSH1 0x20 PUSH1 0x0 KECCAK256 SWAP1 PUSH1 0x1F ADD PUSH1 0x20 SWAP1 DIV DUP2 ADD SWAP3 DUP3 PUSH1 0x1F LT PUSH2 0xD8F JUMPI DUP1 MLOAD PUSH1 0xFF NOT AND DUP4 DUP1 ADD OR DUP6 SSTORE PUSH2 0xDBD JUMP JUMPDEST DUP3 DUP1 ADD PUSH1 0x1 ADD DUP6 SSTORE DUP3 ISZERO PUSH2 0xDBD JUMPI SWAP2 DUP3 ADD JUMPDEST DUP3 DUP2 GT ISZERO PUSH2 0xDBC JUMPI DUP3 MLOAD DUP3 SSTORE SWAP2 PUSH1 0x20 ADD SWAP2 SWAP1 PUSH1 0x1 ADD SWAP1 PUSH2 0xDA1 JUMP JUMPDEST JUMPDEST POP SWAP1 POP PUSH2 0xDCA SWAP2 SWAP1 PUSH2 0xE4E JUMP JUMPDEST POP SWAP1 JUMP JUMPDEST DUP3 DUP1 SLOAD PUSH1 0x1 DUP2 PUSH1 0x1 AND ISZERO PUSH2 0x100 MUL SUB AND PUSH1 0x2 SWAP1 DIV SWAP1 PUSH1 0x0 MSTORE PUSH1 0x20 PUSH1 0x0 KECCAK256 SWAP1 PUSH1 0x1F ADD PUSH1 0x20 SWAP1 DIV DUP2 ADD SWAP3 DUP3 PUSH1 0x1F LT PUSH2 0xE0F JUMPI DUP1 MLOAD PUSH1 0xFF NOT AND DUP4 DUP1 ADD OR DUP6 SSTORE PUSH2 0xE3D JUMP JUMPDEST DUP3 DUP1 ADD PUSH1 0x1 ADD DUP6 SSTORE DUP3 ISZERO PUSH2 0xE3D JUMPI SWAP2 DUP3 ADD JUMPDEST DUP3 DUP2 GT ISZERO PUSH2 0xE3C JUMPI DUP3 MLOAD DUP3 SSTORE SWAP2 PUSH1 0x20 ADD SWAP2 SWAP1 PUSH1 0x1 ADD SWAP1 PUSH2 0xE21 JUMP JUMPDEST JUMPDEST POP SWAP1 POP PUSH2 0xE4A SWAP2 SWAP1 PUSH2 0xE4E JUMP JUMPDEST POP SWAP1 JUMP JUMPDEST PUSH2 0xE70 SWAP2 SWAP1 JUMPDEST DUP1 DUP3 GT ISZERO PUSH2 0xE6C JUMPI PUSH1 0x0 DUP2 PUSH1 0x0 SWAP1 SSTORE POP PUSH1 0x1 ADD PUSH2 0xE54 JUMP JUMPDEST POP SWAP1 JUMP JUMPDEST SWAP1 JUMP JUMPDEST PUSH1 0x0 DUP2 CALLDATALOAD SWAP1 POP PUSH2 0xE82 DUP2 PUSH2 0x191D JUMP JUMPDEST SWAP3 SWAP2 POP POP JUMP JUMPDEST PUSH1 0x0 DUP3 PUSH1 0x1F DUP4 ADD SLT PUSH2 0xE99 JUMPI PUSH1 0x0 DUP1 REVERT JUMPDEST DUP2 CALLDATALOAD PUSH2 0xEAC PUSH2 0xEA7 DUP3 PUSH2 0x1789 JUMP JUMPDEST PUSH2 0x175C JUMP JUMPDEST SWAP2 POP DUP2 DUP2 DUP4 MSTORE PUSH1 0x20 DUP5 ADD SWAP4 POP PUSH1 0x20 DUP2 ADD SWAP1 POP DUP4 PUSH1 0x0 JUMPDEST DUP4 DUP2 LT ISZERO PUSH2 0xEF2 JUMPI DUP2 CALLDATALOAD DUP7 ADD PUSH2 0xED8 DUP9 DUP3 PUSH2 0x106C JUMP JUMPDEST DUP5 MSTORE PUSH1 0x20 DUP5 ADD SWAP4 POP PUSH1 0x20 DUP4 ADD SWAP3 POP POP PUSH1 0x1 DUP2 ADD SWAP1 POP PUSH2 0xEC2 JUMP JUMPDEST POP POP POP POP SWAP3 SWAP2 POP POP JUMP JUMPDEST PUSH1 0x0 DUP2 CALLDATALOAD SWAP1 POP PUSH2 0xF0B DUP2 PUSH2 0x1934 JUMP JUMPDEST SWAP3 SWAP2 POP POP JUMP JUMPDEST PUSH1 0x0 DUP2 CALLDATALOAD SWAP1 POP PUSH2 0xF20 DUP2 PUSH2 0x194B JUMP JUMPDEST SWAP3 SWAP2 POP POP JUMP JUMPDEST PUSH1 0x0 DUP1 DUP4 PUSH1 0x1F DUP5 ADD SLT PUSH2 0xF38 JUMPI PUSH1 0x0 DUP1 REVERT JUMPDEST DUP3 CALLDATALOAD SWAP1 POP PUSH8 0xFFFFFFFFFFFFFFFF DUP2 GT ISZERO PUSH2 0xF51 JUMPI PUSH1 0x0 DUP1 REVERT JUMPDEST PUSH1 0x20 DUP4 ADD SWAP2 POP DUP4 PUSH1 0x1 DUP3 MUL DUP4 ADD GT ISZERO PUSH2 0xF69 JUMPI PUSH1 0x0 DUP1 REVERT JUMPDEST SWAP3 POP SWAP3 SWAP1 POP JUMP JUMPDEST PUSH1 0x0 DUP3 PUSH1 0x1F DUP4 ADD SLT PUSH2 0xF81 JUMPI PUSH1 0x0 DUP1 REVERT JUMPDEST DUP2 CALLDATALOAD PUSH2 0xF94 PUSH2 0xF8F DUP3 PUSH2 0x17B1 JUMP JUMPDEST PUSH2 0x175C JUMP JUMPDEST SWAP2 POP DUP1 DUP3 MSTORE PUSH1 0x20 DUP4 ADD PUSH1 0x20 DUP4 ADD DUP6 DUP4 DUP4 ADD GT ISZERO PUSH2 0xFB0 JUMPI PUSH1 0x0 DUP1 REVERT JUMPDEST PUSH2 0xFBB DUP4 DUP3 DUP5 PUSH2 0x18CA JUMP JUMPDEST POP POP POP SWAP3 SWAP2 POP POP JUMP JUMPDEST PUSH1 0x0 DUP3 PUSH1 0x1F DUP4 ADD SLT PUSH2 0xFD5 JUMPI PUSH1 0x0 DUP1 REVERT JUMPDEST DUP2 CALLDATALOAD PUSH2 0xFE8 PUSH2 0xFE3 DUP3 PUSH2 0x17DD JUMP JUMPDEST PUSH2 0x175C JUMP JUMPDEST SWAP2 POP DUP1 DUP3 MSTORE PUSH1 0x20 DUP4 ADD PUSH1 0x20 DUP4 ADD DUP6 DUP4 DUP4 ADD GT ISZERO PUSH2 0x1004 JUMPI PUSH1 0x0 DUP1 REVERT JUMPDEST PUSH2 0x100F DUP4 DUP3 DUP5 PUSH2 0x18CA JUMP JUMPDEST POP POP POP SWAP3 SWAP2 POP POP JUMP JUMPDEST PUSH1 0x0 DUP3 PUSH1 0x1F DUP4 ADD SLT PUSH2 0x1029 JUMPI PUSH1 0x0 DUP1 REVERT JUMPDEST DUP2 CALLDATALOAD PUSH2 0x103C PUSH2 0x1037 DUP3 PUSH2 0x1809 JUMP JUMPDEST PUSH2 0x175C JUMP JUMPDEST SWAP2 POP DUP1 DUP3 MSTORE PUSH1 0x20 DUP4 ADD PUSH1 0x20 DUP4 ADD DUP6 DUP4 DUP4 ADD GT ISZERO PUSH2 0x1058 JUMPI PUSH1 0x0 DUP1 REVERT JUMPDEST PUSH2 0x1063 DUP4 DUP3 DUP5 PUSH2 0x18CA JUMP JUMPDEST POP POP POP SWAP3 SWAP2 POP POP JUMP JUMPDEST PUSH1 0x0 PUSH1 0x40 DUP3 DUP5 SUB SLT ISZERO PUSH2 0x107E JUMPI PUSH1 0x0 DUP1 REVERT JUMPDEST PUSH2 0x1088 PUSH1 0x40 PUSH2 0x175C JUMP JUMPDEST SWAP1 POP PUSH1 0x0 DUP3 ADD CALLDATALOAD PUSH8 0xFFFFFFFFFFFFFFFF DUP2 GT ISZERO PUSH2 0x10A4 JUMPI PUSH1 0x0 DUP1 REVERT JUMPDEST PUSH2 0x10B0 DUP5 DUP3 DUP6 ADD PUSH2 0xFC4 JUMP JUMPDEST PUSH1 0x0 DUP4 ADD MSTORE POP PUSH1 0x20 PUSH2 0x10C4 DUP5 DUP3 DUP6 ADD PUSH2 0x10D0 JUMP JUMPDEST PUSH1 0x20 DUP4 ADD MSTORE POP SWAP3 SWAP2 POP POP JUMP JUMPDEST PUSH1 0x0 DUP2 CALLDATALOAD SWAP1 POP PUSH2 0x10DF DUP2 PUSH2 0x1962 JUMP JUMPDEST SWAP3 SWAP2 POP POP JUMP JUMPDEST PUSH1 0x0 PUSH1 0x20 DUP3 DUP5 SUB SLT ISZERO PUSH2 0x10F7 JUMPI PUSH1 0x0 DUP1 REVERT JUMPDEST PUSH1 0x0 PUSH2 0x1105 DUP5 DUP3 DUP6 ADD PUSH2 0xE73 JUMP JUMPDEST SWAP2 POP POP SWAP3 SWAP2 POP POP JUMP JUMPDEST PUSH1 0x0 DUP1 PUSH1 0x0 DUP1 PUSH1 0x0 DUP1 PUSH1 0x0 DUP1 PUSH1 0x0 DUP1 PUSH1 0x0 PUSH2 0x120 DUP13 DUP15 SUB SLT ISZERO PUSH2 0x1130 JUMPI PUSH1 0x0 DUP1 REVERT JUMPDEST PUSH1 0x0 PUSH2 0x113E DUP15 DUP3 DUP16 ADD PUSH2 0xE73 JUMP JUMPDEST SWAP12 POP POP PUSH1 0x20 PUSH2 0x114F DUP15 DUP3 DUP16 ADD PUSH2 0xE73 JUMP JUMPDEST SWAP11 POP POP PUSH1 0x40 DUP13 ADD CALLDATALOAD PUSH8 0xFFFFFFFFFFFFFFFF DUP2 GT ISZERO PUSH2 0x116C JUMPI PUSH1 0x0 DUP1 REVERT JUMPDEST PUSH2 0x1178 DUP15 DUP3 DUP16 ADD PUSH2 0xF26 JUMP JUMPDEST SWAP10 POP SWAP10 POP POP PUSH1 0x60 PUSH2 0x118B DUP15 DUP3 DUP16 ADD PUSH2 0x10D0 JUMP JUMPDEST SWAP8 POP POP PUSH1 0x80 PUSH2 0x119C DUP15 DUP3 DUP16 ADD PUSH2 0x10D0 JUMP JUMPDEST SWAP7 POP POP PUSH1 0xA0 PUSH2 0x11AD DUP15 DUP3 DUP16 ADD PUSH2 0x10D0 JUMP JUMPDEST SWAP6 POP POP PUSH1 0xC0 PUSH2 0x11BE DUP15 DUP3 DUP16 ADD PUSH2 0x10D0 JUMP JUMPDEST SWAP5 POP POP PUSH1 0xE0 DUP13 ADD CALLDATALOAD PUSH8 0xFFFFFFFFFFFFFFFF DUP2 GT ISZERO PUSH2 0x11DB JUMPI PUSH1 0x0 DUP1 REVERT JUMPDEST PUSH2 0x11E7 DUP15 DUP3 DUP16 ADD PUSH2 0xF26 JUMP JUMPDEST SWAP4 POP SWAP4 POP POP PUSH2 0x100 PUSH2 0x11FB DUP15 DUP3 DUP16 ADD PUSH2 0x10D0 JUMP JUMPDEST SWAP2 POP POP SWAP3 SWAP6 SWAP9 SWAP12 POP SWAP3 SWAP6 SWAP9 SWAP12 SWAP1 SWAP4 SWAP7 SWAP10 POP JUMP JUMPDEST PUSH1 0x0 PUSH1 0x20 DUP3 DUP5 SUB SLT ISZERO PUSH2 0x1220 JUMPI PUSH1 0x0 DUP1 REVERT JUMPDEST PUSH1 0x0 DUP3 ADD CALLDATALOAD PUSH8 0xFFFFFFFFFFFFFFFF DUP2 GT ISZERO PUSH2 0x123A JUMPI PUSH1 0x0 DUP1 REVERT JUMPDEST PUSH2 0x1246 DUP5 DUP3 DUP6 ADD PUSH2 0xF70 JUMP JUMPDEST SWAP2 POP POP SWAP3 SWAP2 POP POP JUMP JUMPDEST PUSH1 0x0 DUP1 PUSH1 0x0 DUP1 PUSH1 0x80 DUP6 DUP8 SUB SLT ISZERO PUSH2 0x1265 JUMPI PUSH1 0x0 DUP1 REVERT JUMPDEST PUSH1 0x0 DUP6 ADD CALLDATALOAD PUSH8 0xFFFFFFFFFFFFFFFF DUP2 GT ISZERO PUSH2 0x127F JUMPI PUSH1 0x0 DUP1 REVERT JUMPDEST PUSH2 0x128B DUP8 DUP3 DUP9 ADD PUSH2 0xF70 JUMP JUMPDEST SWAP5 POP POP PUSH1 0x20 PUSH2 0x129C DUP8 DUP3 DUP9 ADD PUSH2 0xEFC JUMP JUMPDEST SWAP4 POP POP PUSH1 0x40 PUSH2 0x12AD DUP8 DUP3 DUP9 ADD PUSH2 0x10D0 JUMP JUMPDEST SWAP3 POP POP PUSH1 0x60 PUSH2 0x12BE DUP8 DUP3 DUP9 ADD PUSH2 0xF11 JUMP JUMPDEST SWAP2 POP POP SWAP3 SWAP6 SWAP2 SWAP5 POP SWAP3 POP JUMP JUMPDEST PUSH1 0x0 DUP1 PUSH1 0x0 DUP1 PUSH1 0x0 PUSH1 0xA0 DUP7 DUP9 SUB SLT ISZERO PUSH2 0x12E2 JUMPI PUSH1 0x0 DUP1 REVERT JUMPDEST PUSH1 0x0 DUP7 ADD CALLDATALOAD PUSH8 0xFFFFFFFFFFFFFFFF DUP2 GT ISZERO PUSH2 0x12FC JUMPI PUSH1 0x0 DUP1 REVERT JUMPDEST PUSH2 0x1308 DUP9 DUP3 DUP10 ADD PUSH2 0x1018 JUMP JUMPDEST SWAP6 POP POP PUSH1 0x20 DUP7 ADD CALLDATALOAD PUSH8 0xFFFFFFFFFFFFFFFF DUP2 GT ISZERO PUSH2 0x1325 JUMPI PUSH1 0x0 DUP1 REVERT JUMPDEST PUSH2 0x1331 DUP9 DUP3 DUP10 ADD PUSH2 0x1018 JUMP JUMPDEST SWAP5 POP POP PUSH1 0x40 DUP7 ADD CALLDATALOAD PUSH8 0xFFFFFFFFFFFFFFFF DUP2 GT ISZERO PUSH2 0x134E JUMPI PUSH1 0x0 DUP1 REVERT JUMPDEST PUSH2 0x135A DUP9 DUP3 DUP10 ADD PUSH2 0x1018 JUMP JUMPDEST SWAP4 POP POP PUSH1 0x60 PUSH2 0x136B DUP9 DUP3 DUP10 ADD PUSH2 0x10D0 JUMP JUMPDEST SWAP3 POP POP PUSH1 0x80 DUP7 ADD CALLDATALOAD PUSH8 0xFFFFFFFFFFFFFFFF DUP2 GT ISZERO PUSH2 0x1388 JUMPI PUSH1 0x0 DUP1 REVERT JUMPDEST PUSH2 0x1394 DUP9 DUP3 DUP10 ADD PUSH2 0xE88 JUMP JUMPDEST SWAP2 POP POP SWAP3 SWAP6 POP SWAP3 SWAP6 SWAP1 SWAP4 POP JUMP JUMPDEST PUSH1 0x0 DUP1 PUSH1 0x0 DUP1 PUSH1 0x80 DUP6 DUP8 SUB SLT ISZERO PUSH2 0x13B7 JUMPI PUSH1 0x0 DUP1 REVERT JUMPDEST PUSH1 0x0 DUP6 ADD CALLDATALOAD PUSH8 0xFFFFFFFFFFFFFFFF DUP2 GT ISZERO PUSH2 0x13D1 JUMPI PUSH1 0x0 DUP1 REVERT JUMPDEST PUSH2 0x13DD DUP8 DUP3 DUP9 ADD PUSH2 0x1018 JUMP JUMPDEST SWAP5 POP POP PUSH1 0x20 PUSH2 0x13EE DUP8 DUP3 DUP9 ADD PUSH2 0x10D0 JUMP JUMPDEST SWAP4 POP POP PUSH1 0x40 DUP6 ADD CALLDATALOAD PUSH8 0xFFFFFFFFFFFFFFFF DUP2 GT ISZERO PUSH2 0x140B JUMPI PUSH1 0x0 DUP1 REVERT JUMPDEST PUSH2 0x1417 DUP8 DUP3 DUP9 ADD PUSH2 0x1018 JUMP JUMPDEST SWAP3 POP POP PUSH1 0x60 DUP6 ADD CALLDATALOAD PUSH8 0xFFFFFFFFFFFFFFFF DUP2 GT ISZERO PUSH2 0x1434 JUMPI PUSH1 0x0 DUP1 REVERT JUMPDEST PUSH2 0x1440 DUP8 DUP3 DUP9 ADD PUSH2 0x1018 JUMP JUMPDEST SWAP2 POP POP SWAP3 SWAP6 SWAP2 SWAP5 POP SWAP3 POP JUMP JUMPDEST PUSH2 0x1455 DUP2 PUSH2 0x1878 JUMP JUMPDEST DUP3 MSTORE POP POP JUMP JUMPDEST PUSH2 0x1464 DUP2 PUSH2 0x188A JUMP JUMPDEST DUP3 MSTORE POP POP JUMP JUMPDEST PUSH2 0x1473 DUP2 PUSH2 0x1896 JUMP JUMPDEST DUP3 MSTORE POP POP JUMP JUMPDEST PUSH1 0x0 PUSH2 0x1484 DUP3 PUSH2 0x1835 JUMP JUMPDEST PUSH2 0x148E DUP2 DUP6 PUSH2 0x1856 JUMP JUMPDEST SWAP4 POP PUSH2 0x149E DUP2 DUP6 PUSH1 0x20 DUP7 ADD PUSH2 0x18D9 JUMP JUMPDEST PUSH2 0x14A7 DUP2 PUSH2 0x190C JUMP JUMPDEST DUP5 ADD SWAP2 POP POP SWAP3 SWAP2 POP POP JUMP JUMPDEST PUSH1 0x0 PUSH2 0x14BD DUP3 PUSH2 0x184B JUMP JUMPDEST PUSH2 0x14C7 DUP2 DUP6 PUSH2 0x1867 JUMP JUMPDEST SWAP4 POP PUSH2 0x14D7 DUP2 DUP6 PUSH1 0x20 DUP7 ADD PUSH2 0x18D9 JUMP JUMPDEST PUSH2 0x14E0 DUP2 PUSH2 0x190C JUMP JUMPDEST DUP5 ADD SWAP2 POP POP SWAP3 SWAP2 POP POP JUMP JUMPDEST PUSH1 0x0 PUSH2 0x14F6 DUP3 PUSH2 0x1840 JUMP JUMPDEST PUSH2 0x1500 DUP2 DUP6 PUSH2 0x1867 JUMP JUMPDEST SWAP4 POP PUSH2 0x1510 DUP2 DUP6 PUSH1 0x20 DUP7 ADD PUSH2 0x18D9 JUMP JUMPDEST PUSH2 0x1519 DUP2 PUSH2 0x190C JUMP JUMPDEST DUP5 ADD SWAP2 POP POP SWAP3 SWAP2 POP POP JUMP JUMPDEST PUSH1 0x0 PUSH2 0x1531 PUSH1 0x24 DUP4 PUSH2 0x1867 JUMP JUMPDEST SWAP2 POP PUSH32 0x47534E526563697069656E743A2063616C6C6572206973206E6F742052656C61 PUSH1 0x0 DUP4 ADD MSTORE PUSH32 0x7948756200000000000000000000000000000000000000000000000000000000 PUSH1 0x20 DUP4 ADD MSTORE PUSH1 0x40 DUP3 ADD SWAP1 POP SWAP2 SWAP1 POP JUMP JUMPDEST PUSH2 0x1593 DUP2 PUSH2 0x18C0 JUMP JUMPDEST DUP3 MSTORE POP POP JUMP JUMPDEST PUSH1 0x0 PUSH1 0x20 DUP3 ADD SWAP1 POP PUSH2 0x15AE PUSH1 0x0 DUP4 ADD DUP5 PUSH2 0x144C JUMP JUMPDEST SWAP3 SWAP2 POP POP JUMP JUMPDEST PUSH1 0x0 PUSH1 0xA0 DUP3 ADD SWAP1 POP PUSH2 0x15C9 PUSH1 0x0 DUP4 ADD DUP9 PUSH2 0x144C JUMP JUMPDEST DUP2 DUP2 SUB PUSH1 0x20 DUP4 ADD MSTORE PUSH2 0x15DB DUP2 DUP8 PUSH2 0x14B2 JUMP JUMPDEST SWAP1 POP PUSH2 0x15EA PUSH1 0x40 DUP4 ADD DUP7 PUSH2 0x158A JUMP JUMPDEST DUP2 DUP2 SUB PUSH1 0x60 DUP4 ADD MSTORE PUSH2 0x15FC DUP2 DUP6 PUSH2 0x14B2 JUMP JUMPDEST SWAP1 POP DUP2 DUP2 SUB PUSH1 0x80 DUP4 ADD MSTORE PUSH2 0x1610 DUP2 DUP5 PUSH2 0x14B2 JUMP JUMPDEST SWAP1 POP SWAP7 SWAP6 POP POP POP POP POP POP JUMP JUMPDEST PUSH1 0x0 PUSH1 0xC0 DUP3 ADD SWAP1 POP PUSH2 0x1631 PUSH1 0x0 DUP4 ADD DUP10 PUSH2 0x144C JUMP JUMPDEST DUP2 DUP2 SUB PUSH1 0x20 DUP4 ADD MSTORE PUSH2 0x1643 DUP2 DUP9 PUSH2 0x14EB JUMP JUMPDEST SWAP1 POP DUP2 DUP2 SUB PUSH1 0x40 DUP4 ADD MSTORE PUSH2 0x1657 DUP2 DUP8 PUSH2 0x14EB JUMP JUMPDEST SWAP1 POP DUP2 DUP2 SUB PUSH1 0x60 DUP4 ADD MSTORE PUSH2 0x166B DUP2 DUP7 PUSH2 0x14EB JUMP JUMPDEST SWAP1 POP PUSH2 0x167A PUSH1 0x80 DUP4 ADD DUP6 PUSH2 0x158A JUMP JUMPDEST PUSH2 0x1687 PUSH1 0xA0 DUP4 ADD DUP5 PUSH2 0x145B JUMP JUMPDEST SWAP8 SWAP7 POP POP POP POP POP POP POP JUMP JUMPDEST PUSH1 0x0 PUSH1 0x20 DUP3 ADD SWAP1 POP PUSH2 0x16A7 PUSH1 0x0 DUP4 ADD DUP5 PUSH2 0x146A JUMP JUMPDEST SWAP3 SWAP2 POP POP JUMP JUMPDEST PUSH1 0x0 PUSH1 0x20 DUP3 ADD SWAP1 POP DUP2 DUP2 SUB PUSH1 0x0 DUP4 ADD MSTORE PUSH2 0x16C7 DUP2 DUP5 PUSH2 0x14EB JUMP JUMPDEST SWAP1 POP SWAP3 SWAP2 POP POP JUMP JUMPDEST PUSH1 0x0 PUSH1 0x20 DUP3 ADD SWAP1 POP DUP2 DUP2 SUB PUSH1 0x0 DUP4 ADD MSTORE PUSH2 0x16E9 DUP2 DUP5 PUSH2 0x14B2 JUMP JUMPDEST SWAP1 POP SWAP3 SWAP2 POP POP JUMP JUMPDEST PUSH1 0x0 PUSH1 0x20 DUP3 ADD SWAP1 POP DUP2 DUP2 SUB PUSH1 0x0 DUP4 ADD MSTORE PUSH2 0x170A DUP2 PUSH2 0x1524 JUMP JUMPDEST SWAP1 POP SWAP2 SWAP1 POP JUMP JUMPDEST PUSH1 0x0 PUSH1 0x20 DUP3 ADD SWAP1 POP PUSH2 0x1726 PUSH1 0x0 DUP4 ADD DUP5 PUSH2 0x158A JUMP JUMPDEST SWAP3 SWAP2 POP POP JUMP JUMPDEST PUSH1 0x0 PUSH1 0x40 DUP3 ADD SWAP1 POP PUSH2 0x1741 PUSH1 0x0 DUP4 ADD DUP6 PUSH2 0x158A JUMP JUMPDEST DUP2 DUP2 SUB PUSH1 0x20 DUP4 ADD MSTORE PUSH2 0x1753 DUP2 DUP5 PUSH2 0x1479 JUMP JUMPDEST SWAP1 POP SWAP4 SWAP3 POP POP POP JUMP JUMPDEST PUSH1 0x0 PUSH1 0x40 MLOAD SWAP1 POP DUP2 DUP2 ADD DUP2 DUP2 LT PUSH8 0xFFFFFFFFFFFFFFFF DUP3 GT OR ISZERO PUSH2 0x177F JUMPI PUSH1 0x0 DUP1 REVERT JUMPDEST DUP1 PUSH1 0x40 MSTORE POP SWAP2 SWAP1 POP JUMP JUMPDEST PUSH1 0x0 PUSH8 0xFFFFFFFFFFFFFFFF DUP3 GT ISZERO PUSH2 0x17A0 JUMPI PUSH1 0x0 DUP1 REVERT JUMPDEST PUSH1 0x20 DUP3 MUL SWAP1 POP PUSH1 0x20 DUP2 ADD SWAP1 POP SWAP2 SWAP1 POP JUMP JUMPDEST PUSH1 0x0 PUSH8 0xFFFFFFFFFFFFFFFF DUP3 GT ISZERO PUSH2 0x17C8 JUMPI PUSH1 0x0 DUP1 REVERT JUMPDEST PUSH1 0x1F NOT PUSH1 0x1F DUP4 ADD AND SWAP1 POP PUSH1 0x20 DUP2 ADD SWAP1 POP SWAP2 SWAP1 POP JUMP JUMPDEST PUSH1 0x0 PUSH8 0xFFFFFFFFFFFFFFFF DUP3 GT ISZERO PUSH2 0x17F4 JUMPI PUSH1 0x0 DUP1 REVERT JUMPDEST PUSH1 0x1F NOT PUSH1 0x1F DUP4 ADD AND SWAP1 POP PUSH1 0x20 DUP2 ADD SWAP1 POP SWAP2 SWAP1 POP JUMP JUMPDEST PUSH1 0x0 PUSH8 0xFFFFFFFFFFFFFFFF DUP3 GT ISZERO PUSH2 0x1820 JUMPI PUSH1 0x0 DUP1 REVERT JUMPDEST PUSH1 0x1F NOT PUSH1 0x1F DUP4 ADD AND SWAP1 POP PUSH1 0x20 DUP2 ADD SWAP1 POP SWAP2 SWAP1 POP JUMP JUMPDEST PUSH1 0x0 DUP2 MLOAD SWAP1 POP SWAP2 SWAP1 POP JUMP JUMPDEST PUSH1 0x0 DUP2 MLOAD SWAP1 POP SWAP2 SWAP1 POP JUMP JUMPDEST PUSH1 0x0 DUP2 MLOAD SWAP1 POP SWAP2 SWAP1 POP JUMP JUMPDEST PUSH1 0x0 DUP3 DUP3 MSTORE PUSH1 0x20 DUP3 ADD SWAP1 POP SWAP3 SWAP2 POP POP JUMP JUMPDEST PUSH1 0x0 DUP3 DUP3 MSTORE PUSH1 0x20 DUP3 ADD SWAP1 POP SWAP3 SWAP2 POP POP JUMP JUMPDEST PUSH1 0x0 PUSH2 0x1883 DUP3 PUSH2 0x18A0 JUMP JUMPDEST SWAP1 POP SWAP2 SWAP1 POP JUMP JUMPDEST PUSH1 0x0 DUP2 ISZERO ISZERO SWAP1 POP SWAP2 SWAP1 POP JUMP JUMPDEST PUSH1 0x0 DUP2 SWAP1 POP SWAP2 SWAP1 POP JUMP JUMPDEST PUSH1 0x0 PUSH20 0xFFFFFFFFFFFFFFFFFFFFFFFFFFFFFFFFFFFFFFFF DUP3 AND SWAP1 POP SWAP2 SWAP1 POP JUMP JUMPDEST PUSH1 0x0 DUP2 SWAP1 POP SWAP2 SWAP1 POP JUMP JUMPDEST DUP3 DUP2 DUP4 CALLDATACOPY PUSH1 0x0 DUP4 DUP4 ADD MSTORE POP POP POP JUMP JUMPDEST PUSH1 0x0 JUMPDEST DUP4 DUP2 LT ISZERO PUSH2 0x18F7 JUMPI DUP1 DUP3 ADD MLOAD DUP2 DUP5 ADD MSTORE PUSH1 0x20 DUP2 ADD SWAP1 POP PUSH2 0x18DC JUMP JUMPDEST DUP4 DUP2 GT ISZERO PUSH2 0x1906 JUMPI PUSH1 0x0 DUP5 DUP5 ADD MSTORE JUMPDEST POP POP POP POP JUMP JUMPDEST PUSH1 0x0 PUSH1 0x1F NOT PUSH1 0x1F DUP4 ADD AND SWAP1 POP SWAP2 SWAP1 POP JUMP JUMPDEST PUSH2 0x1926 DUP2 PUSH2 0x1878 JUMP JUMPDEST DUP2 EQ PUSH2 0x1931 JUMPI PUSH1 0x0 DUP1 REVERT JUMPDEST POP JUMP JUMPDEST PUSH2 0x193D DUP2 PUSH2 0x188A JUMP JUMPDEST DUP2 EQ PUSH2 0x1948 JUMPI PUSH1 0x0 DUP1 REVERT JUMPDEST POP JUMP JUMPDEST PUSH2 0x1954 DUP2 PUSH2 0x1896 JUMP JUMPDEST DUP2 EQ PUSH2 0x195F JUMPI PUSH1 0x0 DUP1 REVERT JUMPDEST POP JUMP JUMPDEST PUSH2 0x196B DUP2 PUSH2 0x18C0 JUMP JUMPDEST DUP2 EQ PUSH2 0x1976 JUMPI PUSH1 0x0 DUP1 REVERT JUMPDEST POP JUMP INVALID LOG2 PUSH5 0x6970667358 0x22 SLT KECCAK256 SWAP6 0xCF MSTORE8 ADD TIMESTAMP 0x2C 0xD6 0xE5 DUP9 0x2F 0xD7 0x4F PUSH1 0xF9 0x2A 0xBE PUSH4 0xEE4652D1 0xCD NUMBER CODECOPY 0x2C 0xDA SHL 0x4A DUP7 SDIV 0xC0 EXTCODESIZE PUSH5 0x736F6C6343 STOP MOD STOP STOP CALLER LOG2 PUSH5 0x6970667358 0x22 SLT KECCAK256 0xD5 GASPRICE EXTCODECOPY MSIZE RETURNDATASIZE 0xDB CALLDATALOAD 0xD0 PUSH26 0xA57CADA78C87FA8E28F7C330FBC7A2DBD5547A982ABADA64736F PUSH13 0x63430006000033000000000000 "},"gasEstimates":{"creation":{"codeDepositCost":"1859200","executionCost":"1962","totalCost":"1861162"},"external":{"createSeller(string,string,string)":"infinite","getSellers()":"infinite","sellers(uint256)":"2356"}},"methodIdentifiers":{"createSeller(string,string,string)":"d1ef59a3","getSellers()":"7ee454cb","sellers(uint256)":"cee26ed5"}},"storageLayout":{"storage":[{"astId":7,"contract":"Rubics:Factory","label":"sellers","offset":0,"slot":"0","type":"t_array(t_address)dyn_storage"}],"types":{"t_address":{"encoding":"inplace","label":"address","numberOfBytes":"20"},"t_array(t_address)dyn_storage":{"base":"t_address","encoding":"dynamic_array","label":"address[]","numberOfBytes":"32"}}},"userdoc":{"methods":{}}}