{"abi":[{"inputs":[{"internalType":"address","name":"sellerContractAddress","type":"address"},{"internalType":"string","name":"productName","type":"string"},{"internalType":"uint256","name":"productPrice","type":"uint256"},{"internalType":"string","name":"productCategory","type":"string"},{"internalType":"string","name":"productImage","type":"string"}],"name":"createProductItem","outputs":[],"stateMutability":"nonpayable","type":"function"},{"inputs":[],"name":"getProductsCount","outputs":[{"internalType":"uint256","name":"","type":"uint256"}],"stateMutability":"view","type":"function"},{"inputs":[{"internalType":"uint256","name":"","type":"uint256"}],"name":"products","outputs":[{"internalType":"string","name":"productName","type":"string"},{"internalType":"uint256","name":"productPrice","type":"uint256"},{"internalType":"string","name":"productCategory","type":"string"},{"internalType":"string","name":"productImage","type":"string"},{"internalType":"address","name":"sellerAddress","type":"address"},{"internalType":"bool","name":"inStock","type":"bool"}],"stateMutability":"view","type":"function"}],"devdoc":{"methods":{}},"evm":{"assembly":"    /* \"Rubics\":5931:7128  contract ShopProducts {\r... */\n  mstore(0x40, 0x80)\n  callvalue\n    /* \"--CODEGEN--\":8:17   */\n  dup1\n    /* \"--CODEGEN--\":5:7   */\n  iszero\n  tag_1\n  jumpi\n    /* \"--CODEGEN--\":30:31   */\n  0x00\n    /* \"--CODEGEN--\":27:28   */\n  dup1\n    /* \"--CODEGEN--\":20:32   */\n  revert\n    /* \"--CODEGEN--\":5:7   */\ntag_1:\n    /* \"Rubics\":5931:7128  contract ShopProducts {\r... */\n  pop\n  dataSize(sub_0)\n  dup1\n  dataOffset(sub_0)\n  0x00\n  codecopy\n  0x00\n  return\nstop\n\nsub_0: assembly {\n        /* \"Rubics\":5931:7128  contract ShopProducts {\r... */\n      mstore(0x40, 0x80)\n      callvalue\n        /* \"--CODEGEN--\":8:17   */\n      dup1\n        /* \"--CODEGEN--\":5:7   */\n      iszero\n      tag_1\n      jumpi\n        /* \"--CODEGEN--\":30:31   */\n      0x00\n        /* \"--CODEGEN--\":27:28   */\n      dup1\n        /* \"--CODEGEN--\":20:32   */\n      revert\n        /* \"--CODEGEN--\":5:7   */\n    tag_1:\n        /* \"Rubics\":5931:7128  contract ShopProducts {\r... */\n      pop\n      jumpi(tag_2, lt(calldatasize, 0x04))\n      shr(0xe0, calldataload(0x00))\n      dup1\n      0x0a97bed0\n      eq\n      tag_3\n      jumpi\n      dup1\n      0x5786fd40\n      eq\n      tag_4\n      jumpi\n      dup1\n      0x7acc0b20\n      eq\n      tag_5\n      jumpi\n    tag_2:\n      0x00\n      dup1\n      revert\n        /* \"Rubics\":6280:7018  function createProductItem(\r... */\n    tag_3:\n      tag_6\n      0x04\n      dup1\n      calldatasize\n      sub\n      tag_7\n      swap2\n      swap1\n      dup2\n      add\n      swap1\n      jump(tag_8)\n    tag_7:\n      tag_9\n      jump\t// in\n    tag_6:\n      stop\n        /* \"Rubics\":7026:7125  function getProductsCount() public view returns (uint256) {\r... */\n    tag_4:\n      tag_10\n      tag_11\n      jump\t// in\n    tag_10:\n      mload(0x40)\n      tag_12\n      swap2\n      swap1\n      jump(tag_13)\n    tag_12:\n      mload(0x40)\n      dup1\n      swap2\n      sub\n      swap1\n      return\n        /* \"Rubics\":6242:6271  ProductItem[] public products */\n    tag_5:\n      tag_14\n      0x04\n      dup1\n      calldatasize\n      sub\n      tag_15\n      swap2\n      swap1\n      dup2\n      add\n      swap1\n      jump(tag_16)\n    tag_15:\n      tag_17\n      jump\t// in\n    tag_14:\n      mload(0x40)\n      tag_18\n      swap7\n      swap6\n      swap5\n      swap4\n      swap3\n      swap2\n      swap1\n      jump(tag_19)\n    tag_18:\n      mload(0x40)\n      dup1\n      swap2\n      sub\n      swap1\n      return\n        /* \"Rubics\":6280:7018  function createProductItem(\r... */\n    tag_9:\n        /* \"Rubics\":6524:6554  ProductItem storage newProduct */\n      0x00\n        /* \"Rubics\":6557:6565  products */\n      dup1\n        /* \"Rubics\":6557:6572  products.push() */\n      0x01\n      dup2\n        /* \"--CODEGEN--\":39:40   */\n      0x01\n        /* \"--CODEGEN--\":33:36   */\n      dup2\n        /* \"--CODEGEN--\":27:37   */\n      sload\n        /* \"--CODEGEN--\":23:41   */\n      add\n        /* \"--CODEGEN--\":57:67   */\n      dup1\n        /* \"--CODEGEN--\":52:55   */\n      dup3\n        /* \"--CODEGEN--\":45:68   */\n      sstore\n        /* \"--CODEGEN--\":79:89   */\n      dup1\n        /* \"--CODEGEN--\":72:89   */\n      swap2\n      pop\n        /* \"--CODEGEN--\":0:93   */\n      pop\n        /* \"Rubics\":6557:6572  products.push() */\n      sub\n      swap1\n      0x00\n      mstore\n      keccak256(0x00, 0x20)\n      swap1\n      0x05\n      mul\n      add\n        /* \"Rubics\":6524:6572  ProductItem storage newProduct = products.push() */\n      swap1\n      pop\n        /* \"Rubics\":6608:6619  productName */\n      dup8\n      dup8\n        /* \"Rubics\":6583:6593  newProduct */\n      dup3\n        /* \"Rubics\":6583:6605  newProduct.productName */\n      0x00\n      add\n        /* \"Rubics\":6583:6619  newProduct.productName = productName */\n      swap2\n      swap1\n      tag_22\n      swap3\n      swap2\n      swap1\n      tag_23\n      jump\t// in\n    tag_22:\n      pop\n        /* \"Rubics\":6656:6668  productPrice */\n      dup6\n        /* \"Rubics\":6630:6640  newProduct */\n      dup2\n        /* \"Rubics\":6630:6653  newProduct.productPrice */\n      0x01\n      add\n        /* \"Rubics\":6630:6668  newProduct.productPrice = productPrice */\n      dup2\n      swap1\n      sstore\n      pop\n        /* \"Rubics\":6708:6723  productCategory */\n      dup5\n      dup5\n        /* \"Rubics\":6679:6689  newProduct */\n      dup3\n        /* \"Rubics\":6679:6705  newProduct.productCategory */\n      0x02\n      add\n        /* \"Rubics\":6679:6723  newProduct.productCategory = productCategory */\n      swap2\n      swap1\n      tag_24\n      swap3\n      swap2\n      swap1\n      tag_23\n      jump\t// in\n    tag_24:\n      pop\n        /* \"Rubics\":6760:6772  productImage */\n      dup3\n      dup3\n        /* \"Rubics\":6734:6744  newProduct */\n      dup3\n        /* \"Rubics\":6734:6757  newProduct.productImage */\n      0x03\n      add\n        /* \"Rubics\":6734:6772  newProduct.productImage = productImage */\n      swap2\n      swap1\n      tag_25\n      swap3\n      swap2\n      swap1\n      tag_23\n      jump\t// in\n    tag_25:\n      pop\n        /* \"Rubics\":6810:6831  sellerContractAddress */\n      dup9\n        /* \"Rubics\":6783:6793  newProduct */\n      dup2\n        /* \"Rubics\":6783:6807  newProduct.sellerAddress */\n      0x04\n      add\n      0x00\n        /* \"Rubics\":6783:6831  newProduct.sellerAddress = sellerContractAddress */\n      0x0100\n      exp\n      dup2\n      sload\n      dup2\n      0xffffffffffffffffffffffffffffffffffffffff\n      mul\n      not\n      and\n      swap1\n      dup4\n      0xffffffffffffffffffffffffffffffffffffffff\n      and\n      mul\n      or\n      swap1\n      sstore\n      pop\n        /* \"Rubics\":6863:6867  true */\n      0x01\n        /* \"Rubics\":6842:6852  newProduct */\n      dup2\n        /* \"Rubics\":6842:6860  newProduct.inStock */\n      0x04\n      add\n      0x14\n        /* \"Rubics\":6842:6867  newProduct.inStock = true */\n      0x0100\n      exp\n      dup2\n      sload\n      dup2\n      0xff\n      mul\n      not\n      and\n      swap1\n      dup4\n      iszero\n      iszero\n      mul\n      or\n      swap1\n      sstore\n      pop\n        /* \"Rubics\":6280:7018  function createProductItem(\r... */\n      pop\n      pop\n      pop\n      pop\n      pop\n      pop\n      pop\n      pop\n      pop\n      jump\t// out\n        /* \"Rubics\":7026:7125  function getProductsCount() public view returns (uint256) {\r... */\n    tag_11:\n        /* \"Rubics\":7075:7082  uint256 */\n      0x00\n        /* \"Rubics\":7102:7110  products */\n      dup1\n        /* \"Rubics\":7102:7117  products.length */\n      dup1\n      sload\n      swap1\n      pop\n        /* \"Rubics\":7095:7117  return products.length */\n      swap1\n      pop\n        /* \"Rubics\":7026:7125  function getProductsCount() public view returns (uint256) {\r... */\n      swap1\n      jump\t// out\n        /* \"Rubics\":6242:6271  ProductItem[] public products */\n    tag_17:\n      0x00\n      dup2\n      dup2\n      sload\n      dup2\n      lt\n      tag_27\n      jumpi\n      invalid\n    tag_27:\n      swap1\n      0x00\n      mstore\n      keccak256(0x00, 0x20)\n      swap1\n      0x05\n      mul\n      add\n      0x00\n      swap2\n      pop\n      swap1\n      pop\n      dup1\n      0x00\n      add\n      dup1\n      sload\n      0x01\n      dup2\n      0x01\n      and\n      iszero\n      0x0100\n      mul\n      sub\n      and\n      0x02\n      swap1\n      div\n      dup1\n      0x1f\n      add\n      0x20\n      dup1\n      swap2\n      div\n      mul\n      0x20\n      add\n      mload(0x40)\n      swap1\n      dup2\n      add\n      0x40\n      mstore\n      dup1\n      swap3\n      swap2\n      swap1\n      dup2\n      dup2\n      mstore\n      0x20\n      add\n      dup3\n      dup1\n      sload\n      0x01\n      dup2\n      0x01\n      and\n      iszero\n      0x0100\n      mul\n      sub\n      and\n      0x02\n      swap1\n      div\n      dup1\n      iszero\n      tag_29\n      jumpi\n      dup1\n      0x1f\n      lt\n      tag_30\n      jumpi\n      0x0100\n      dup1\n      dup4\n      sload\n      div\n      mul\n      dup4\n      mstore\n      swap2\n      0x20\n      add\n      swap2\n      jump(tag_29)\n    tag_30:\n      dup3\n      add\n      swap2\n      swap1\n      0x00\n      mstore\n      keccak256(0x00, 0x20)\n      swap1\n    tag_31:\n      dup2\n      sload\n      dup2\n      mstore\n      swap1\n      0x01\n      add\n      swap1\n      0x20\n      add\n      dup1\n      dup4\n      gt\n      tag_31\n      jumpi\n      dup3\n      swap1\n      sub\n      0x1f\n      and\n      dup3\n      add\n      swap2\n    tag_29:\n      pop\n      pop\n      pop\n      pop\n      pop\n      swap1\n      dup1\n      0x01\n      add\n      sload\n      swap1\n      dup1\n      0x02\n      add\n      dup1\n      sload\n      0x01\n      dup2\n      0x01\n      and\n      iszero\n      0x0100\n      mul\n      sub\n      and\n      0x02\n      swap1\n      div\n      dup1\n      0x1f\n      add\n      0x20\n      dup1\n      swap2\n      div\n      mul\n      0x20\n      add\n      mload(0x40)\n      swap1\n      dup2\n      add\n      0x40\n      mstore\n      dup1\n      swap3\n      swap2\n      swap1\n      dup2\n      dup2\n      mstore\n      0x20\n      add\n      dup3\n      dup1\n      sload\n      0x01\n      dup2\n      0x01\n      and\n      iszero\n      0x0100\n      mul\n      sub\n      and\n      0x02\n      swap1\n      div\n      dup1\n      iszero\n      tag_32\n      jumpi\n      dup1\n      0x1f\n      lt\n      tag_33\n      jumpi\n      0x0100\n      dup1\n      dup4\n      sload\n      div\n      mul\n      dup4\n      mstore\n      swap2\n      0x20\n      add\n      swap2\n      jump(tag_32)\n    tag_33:\n      dup3\n      add\n      swap2\n      swap1\n      0x00\n      mstore\n      keccak256(0x00, 0x20)\n      swap1\n    tag_34:\n      dup2\n      sload\n      dup2\n      mstore\n      swap1\n      0x01\n      add\n      swap1\n      0x20\n      add\n      dup1\n      dup4\n      gt\n      tag_34\n      jumpi\n      dup3\n      swap1\n      sub\n      0x1f\n      and\n      dup3\n      add\n      swap2\n    tag_32:\n      pop\n      pop\n      pop\n      pop\n      pop\n      swap1\n      dup1\n      0x03\n      add\n      dup1\n      sload\n      0x01\n      dup2\n      0x01\n      and\n      iszero\n      0x0100\n      mul\n      sub\n      and\n      0x02\n      swap1\n      div\n      dup1\n      0x1f\n      add\n      0x20\n      dup1\n      swap2\n      div\n      mul\n      0x20\n      add\n      mload(0x40)\n      swap1\n      dup2\n      add\n      0x40\n      mstore\n      dup1\n      swap3\n      swap2\n      swap1\n      dup2\n      dup2\n      mstore\n      0x20\n      add\n      dup3\n      dup1\n      sload\n      0x01\n      dup2\n      0x01\n      and\n      iszero\n      0x0100\n      mul\n      sub\n      and\n      0x02\n      swap1\n      div\n      dup1\n      iszero\n      tag_35\n      jumpi\n      dup1\n      0x1f\n      lt\n      tag_36\n      jumpi\n      0x0100\n      dup1\n      dup4\n      sload\n      div\n      mul\n      dup4\n      mstore\n      swap2\n      0x20\n      add\n      swap2\n      jump(tag_35)\n    tag_36:\n      dup3\n      add\n      swap2\n      swap1\n      0x00\n      mstore\n      keccak256(0x00, 0x20)\n      swap1\n    tag_37:\n      dup2\n      sload\n      dup2\n      mstore\n      swap1\n      0x01\n      add\n      swap1\n      0x20\n      add\n      dup1\n      dup4\n      gt\n      tag_37\n      jumpi\n      dup3\n      swap1\n      sub\n      0x1f\n      and\n      dup3\n      add\n      swap2\n    tag_35:\n      pop\n      pop\n      pop\n      pop\n      pop\n      swap1\n      dup1\n      0x04\n      add\n      0x00\n      swap1\n      sload\n      swap1\n      0x0100\n      exp\n      swap1\n      div\n      0xffffffffffffffffffffffffffffffffffffffff\n      and\n      swap1\n      dup1\n      0x04\n      add\n      0x14\n      swap1\n      sload\n      swap1\n      0x0100\n      exp\n      swap1\n      div\n      0xff\n      and\n      swap1\n      pop\n      dup7\n      jump\t// out\n        /* \"Rubics\":5931:7128  contract ShopProducts {\r... */\n    tag_23:\n      dup3\n      dup1\n      sload\n      0x01\n      dup2\n      0x01\n      and\n      iszero\n      0x0100\n      mul\n      sub\n      and\n      0x02\n      swap1\n      div\n      swap1\n      0x00\n      mstore\n      keccak256(0x00, 0x20)\n      swap1\n      0x1f\n      add\n      0x20\n      swap1\n      div\n      dup2\n      add\n      swap3\n      dup3\n      0x1f\n      lt\n      tag_39\n      jumpi\n      dup1\n      calldataload\n      not(0xff)\n      and\n      dup4\n      dup1\n      add\n      or\n      dup6\n      sstore\n      jump(tag_38)\n    tag_39:\n      dup3\n      dup1\n      add\n      0x01\n      add\n      dup6\n      sstore\n      dup3\n      iszero\n      tag_38\n      jumpi\n      swap2\n      dup3\n      add\n    tag_40:\n      dup3\n      dup2\n      gt\n      iszero\n      tag_41\n      jumpi\n      dup3\n      calldataload\n      dup3\n      sstore\n      swap2\n      0x20\n      add\n      swap2\n      swap1\n      0x01\n      add\n      swap1\n      jump(tag_40)\n    tag_41:\n    tag_38:\n      pop\n      swap1\n      pop\n      tag_42\n      swap2\n      swap1\n      tag_43\n      jump\t// in\n    tag_42:\n      pop\n      swap1\n      jump\t// out\n    tag_43:\n      tag_44\n      swap2\n      swap1\n    tag_45:\n      dup1\n      dup3\n      gt\n      iszero\n      tag_46\n      jumpi\n      0x00\n      dup2\n      0x00\n      swap1\n      sstore\n      pop\n      0x01\n      add\n      jump(tag_45)\n    tag_46:\n      pop\n      swap1\n      jump\n    tag_44:\n      swap1\n      jump\t// out\n        /* \"--CODEGEN--\":5:135   */\n    tag_48:\n      0x00\n        /* \"--CODEGEN--\":85:91   */\n      dup2\n        /* \"--CODEGEN--\":72:92   */\n      calldataload\n        /* \"--CODEGEN--\":63:92   */\n      swap1\n      pop\n        /* \"--CODEGEN--\":97:130   */\n      tag_50\n        /* \"--CODEGEN--\":124:129   */\n      dup2\n        /* \"--CODEGEN--\":97:130   */\n      jump(tag_51)\n    tag_50:\n        /* \"--CODEGEN--\":57:135   */\n      swap3\n      swap2\n      pop\n      pop\n      jump\n        /* \"--CODEGEN--\":157:494   */\n    tag_52:\n      0x00\n      dup1\n        /* \"--CODEGEN--\":272:275   */\n      dup4\n        /* \"--CODEGEN--\":265:269   */\n      0x1f\n        /* \"--CODEGEN--\":257:263   */\n      dup5\n        /* \"--CODEGEN--\":253:270   */\n      add\n        /* \"--CODEGEN--\":249:276   */\n      slt\n        /* \"--CODEGEN--\":239:241   */\n      tag_54\n      jumpi\n        /* \"--CODEGEN--\":290:291   */\n      0x00\n        /* \"--CODEGEN--\":287:288   */\n      dup1\n        /* \"--CODEGEN--\":280:292   */\n      revert\n        /* \"--CODEGEN--\":239:241   */\n    tag_54:\n        /* \"--CODEGEN--\":323:329   */\n      dup3\n        /* \"--CODEGEN--\":310:330   */\n      calldataload\n        /* \"--CODEGEN--\":300:330   */\n      swap1\n      pop\n        /* \"--CODEGEN--\":350:368   */\n      0xffffffffffffffff\n        /* \"--CODEGEN--\":342:348   */\n      dup2\n        /* \"--CODEGEN--\":339:369   */\n      gt\n        /* \"--CODEGEN--\":336:338   */\n      iszero\n      tag_55\n      jumpi\n        /* \"--CODEGEN--\":382:383   */\n      0x00\n        /* \"--CODEGEN--\":379:380   */\n      dup1\n        /* \"--CODEGEN--\":372:384   */\n      revert\n        /* \"--CODEGEN--\":336:338   */\n    tag_55:\n        /* \"--CODEGEN--\":416:420   */\n      0x20\n        /* \"--CODEGEN--\":408:414   */\n      dup4\n        /* \"--CODEGEN--\":404:421   */\n      add\n        /* \"--CODEGEN--\":392:421   */\n      swap2\n      pop\n        /* \"--CODEGEN--\":467:470   */\n      dup4\n        /* \"--CODEGEN--\":459:463   */\n      0x01\n        /* \"--CODEGEN--\":451:457   */\n      dup3\n        /* \"--CODEGEN--\":447:464   */\n      mul\n        /* \"--CODEGEN--\":437:445   */\n      dup4\n        /* \"--CODEGEN--\":433:465   */\n      add\n        /* \"--CODEGEN--\":430:471   */\n      gt\n        /* \"--CODEGEN--\":427:429   */\n      iszero\n      tag_56\n      jumpi\n        /* \"--CODEGEN--\":484:485   */\n      0x00\n        /* \"--CODEGEN--\":481:482   */\n      dup1\n        /* \"--CODEGEN--\":474:486   */\n      revert\n        /* \"--CODEGEN--\":427:429   */\n    tag_56:\n        /* \"--CODEGEN--\":232:494   */\n      swap3\n      pop\n      swap3\n      swap1\n      pop\n      jump\n        /* \"--CODEGEN--\":502:632   */\n    tag_57:\n      0x00\n        /* \"--CODEGEN--\":582:588   */\n      dup2\n        /* \"--CODEGEN--\":569:589   */\n      calldataload\n        /* \"--CODEGEN--\":560:589   */\n      swap1\n      pop\n        /* \"--CODEGEN--\":594:627   */\n      tag_59\n        /* \"--CODEGEN--\":621:626   */\n      dup2\n        /* \"--CODEGEN--\":594:627   */\n      jump(tag_60)\n    tag_59:\n        /* \"--CODEGEN--\":554:632   */\n      swap3\n      swap2\n      pop\n      pop\n      jump\n        /* \"--CODEGEN--\":639:1760   */\n    tag_8:\n      0x00\n      dup1\n      0x00\n      dup1\n      0x00\n      dup1\n      0x00\n      dup1\n        /* \"--CODEGEN--\":871:874   */\n      0xa0\n        /* \"--CODEGEN--\":859:868   */\n      dup10\n        /* \"--CODEGEN--\":850:857   */\n      dup12\n        /* \"--CODEGEN--\":846:869   */\n      sub\n        /* \"--CODEGEN--\":842:875   */\n      slt\n        /* \"--CODEGEN--\":839:841   */\n      iszero\n      tag_62\n      jumpi\n        /* \"--CODEGEN--\":888:889   */\n      0x00\n        /* \"--CODEGEN--\":885:886   */\n      dup1\n        /* \"--CODEGEN--\":878:890   */\n      revert\n        /* \"--CODEGEN--\":839:841   */\n    tag_62:\n        /* \"--CODEGEN--\":923:924   */\n      0x00\n        /* \"--CODEGEN--\":940:993   */\n      tag_63\n        /* \"--CODEGEN--\":985:992   */\n      dup12\n        /* \"--CODEGEN--\":976:982   */\n      dup3\n        /* \"--CODEGEN--\":965:974   */\n      dup13\n        /* \"--CODEGEN--\":961:983   */\n      add\n        /* \"--CODEGEN--\":940:993   */\n      jump(tag_48)\n    tag_63:\n        /* \"--CODEGEN--\":930:993   */\n      swap9\n      pop\n        /* \"--CODEGEN--\":902:999   */\n      pop\n        /* \"--CODEGEN--\":1058:1060   */\n      0x20\n        /* \"--CODEGEN--\":1047:1056   */\n      dup10\n        /* \"--CODEGEN--\":1043:1061   */\n      add\n        /* \"--CODEGEN--\":1030:1062   */\n      calldataload\n        /* \"--CODEGEN--\":1082:1100   */\n      0xffffffffffffffff\n        /* \"--CODEGEN--\":1074:1080   */\n      dup2\n        /* \"--CODEGEN--\":1071:1101   */\n      gt\n        /* \"--CODEGEN--\":1068:1070   */\n      iszero\n      tag_64\n      jumpi\n        /* \"--CODEGEN--\":1114:1115   */\n      0x00\n        /* \"--CODEGEN--\":1111:1112   */\n      dup1\n        /* \"--CODEGEN--\":1104:1116   */\n      revert\n        /* \"--CODEGEN--\":1068:1070   */\n    tag_64:\n        /* \"--CODEGEN--\":1142:1207   */\n      tag_65\n        /* \"--CODEGEN--\":1199:1206   */\n      dup12\n        /* \"--CODEGEN--\":1190:1196   */\n      dup3\n        /* \"--CODEGEN--\":1179:1188   */\n      dup13\n        /* \"--CODEGEN--\":1175:1197   */\n      add\n        /* \"--CODEGEN--\":1142:1207   */\n      jump(tag_52)\n    tag_65:\n        /* \"--CODEGEN--\":1132:1207   */\n      swap8\n      pop\n      swap8\n      pop\n        /* \"--CODEGEN--\":1009:1213   */\n      pop\n        /* \"--CODEGEN--\":1244:1246   */\n      0x40\n        /* \"--CODEGEN--\":1262:1315   */\n      tag_66\n        /* \"--CODEGEN--\":1307:1314   */\n      dup12\n        /* \"--CODEGEN--\":1298:1304   */\n      dup3\n        /* \"--CODEGEN--\":1287:1296   */\n      dup13\n        /* \"--CODEGEN--\":1283:1305   */\n      add\n        /* \"--CODEGEN--\":1262:1315   */\n      jump(tag_57)\n    tag_66:\n        /* \"--CODEGEN--\":1252:1315   */\n      swap6\n      pop\n        /* \"--CODEGEN--\":1223:1321   */\n      pop\n        /* \"--CODEGEN--\":1380:1382   */\n      0x60\n        /* \"--CODEGEN--\":1369:1378   */\n      dup10\n        /* \"--CODEGEN--\":1365:1383   */\n      add\n        /* \"--CODEGEN--\":1352:1384   */\n      calldataload\n        /* \"--CODEGEN--\":1404:1422   */\n      0xffffffffffffffff\n        /* \"--CODEGEN--\":1396:1402   */\n      dup2\n        /* \"--CODEGEN--\":1393:1423   */\n      gt\n        /* \"--CODEGEN--\":1390:1392   */\n      iszero\n      tag_67\n      jumpi\n        /* \"--CODEGEN--\":1436:1437   */\n      0x00\n        /* \"--CODEGEN--\":1433:1434   */\n      dup1\n        /* \"--CODEGEN--\":1426:1438   */\n      revert\n        /* \"--CODEGEN--\":1390:1392   */\n    tag_67:\n        /* \"--CODEGEN--\":1464:1529   */\n      tag_68\n        /* \"--CODEGEN--\":1521:1528   */\n      dup12\n        /* \"--CODEGEN--\":1512:1518   */\n      dup3\n        /* \"--CODEGEN--\":1501:1510   */\n      dup13\n        /* \"--CODEGEN--\":1497:1519   */\n      add\n        /* \"--CODEGEN--\":1464:1529   */\n      jump(tag_52)\n    tag_68:\n        /* \"--CODEGEN--\":1454:1529   */\n      swap5\n      pop\n      swap5\n      pop\n        /* \"--CODEGEN--\":1331:1535   */\n      pop\n        /* \"--CODEGEN--\":1594:1597   */\n      0x80\n        /* \"--CODEGEN--\":1583:1592   */\n      dup10\n        /* \"--CODEGEN--\":1579:1598   */\n      add\n        /* \"--CODEGEN--\":1566:1599   */\n      calldataload\n        /* \"--CODEGEN--\":1619:1637   */\n      0xffffffffffffffff\n        /* \"--CODEGEN--\":1611:1617   */\n      dup2\n        /* \"--CODEGEN--\":1608:1638   */\n      gt\n        /* \"--CODEGEN--\":1605:1607   */\n      iszero\n      tag_69\n      jumpi\n        /* \"--CODEGEN--\":1651:1652   */\n      0x00\n        /* \"--CODEGEN--\":1648:1649   */\n      dup1\n        /* \"--CODEGEN--\":1641:1653   */\n      revert\n        /* \"--CODEGEN--\":1605:1607   */\n    tag_69:\n        /* \"--CODEGEN--\":1679:1744   */\n      tag_70\n        /* \"--CODEGEN--\":1736:1743   */\n      dup12\n        /* \"--CODEGEN--\":1727:1733   */\n      dup3\n        /* \"--CODEGEN--\":1716:1725   */\n      dup13\n        /* \"--CODEGEN--\":1712:1734   */\n      add\n        /* \"--CODEGEN--\":1679:1744   */\n      jump(tag_52)\n    tag_70:\n        /* \"--CODEGEN--\":1669:1744   */\n      swap3\n      pop\n      swap3\n      pop\n        /* \"--CODEGEN--\":1545:1750   */\n      pop\n        /* \"--CODEGEN--\":833:1760   */\n      swap3\n      swap6\n      swap9\n      pop\n      swap3\n      swap6\n      swap9\n      swap1\n      swap4\n      swap7\n      pop\n      jump\n        /* \"--CODEGEN--\":1767:2008   */\n    tag_16:\n      0x00\n        /* \"--CODEGEN--\":1871:1873   */\n      0x20\n        /* \"--CODEGEN--\":1859:1868   */\n      dup3\n        /* \"--CODEGEN--\":1850:1857   */\n      dup5\n        /* \"--CODEGEN--\":1846:1869   */\n      sub\n        /* \"--CODEGEN--\":1842:1874   */\n      slt\n        /* \"--CODEGEN--\":1839:1841   */\n      iszero\n      tag_72\n      jumpi\n        /* \"--CODEGEN--\":1887:1888   */\n      0x00\n        /* \"--CODEGEN--\":1884:1885   */\n      dup1\n        /* \"--CODEGEN--\":1877:1889   */\n      revert\n        /* \"--CODEGEN--\":1839:1841   */\n    tag_72:\n        /* \"--CODEGEN--\":1922:1923   */\n      0x00\n        /* \"--CODEGEN--\":1939:1992   */\n      tag_73\n        /* \"--CODEGEN--\":1984:1991   */\n      dup5\n        /* \"--CODEGEN--\":1975:1981   */\n      dup3\n        /* \"--CODEGEN--\":1964:1973   */\n      dup6\n        /* \"--CODEGEN--\":1960:1982   */\n      add\n        /* \"--CODEGEN--\":1939:1992   */\n      jump(tag_57)\n    tag_73:\n        /* \"--CODEGEN--\":1929:1992   */\n      swap2\n      pop\n        /* \"--CODEGEN--\":1901:1998   */\n      pop\n        /* \"--CODEGEN--\":1833:2008   */\n      swap3\n      swap2\n      pop\n      pop\n      jump\n        /* \"--CODEGEN--\":2015:2128   */\n    tag_74:\n        /* \"--CODEGEN--\":2098:2122   */\n      tag_76\n        /* \"--CODEGEN--\":2116:2121   */\n      dup2\n        /* \"--CODEGEN--\":2098:2122   */\n      jump(tag_77)\n    tag_76:\n        /* \"--CODEGEN--\":2093:2096   */\n      dup3\n        /* \"--CODEGEN--\":2086:2123   */\n      mstore\n        /* \"--CODEGEN--\":2080:2128   */\n      pop\n      pop\n      jump\n        /* \"--CODEGEN--\":2135:2239   */\n    tag_78:\n        /* \"--CODEGEN--\":2212:2233   */\n      tag_80\n        /* \"--CODEGEN--\":2227:2232   */\n      dup2\n        /* \"--CODEGEN--\":2212:2233   */\n      jump(tag_81)\n    tag_80:\n        /* \"--CODEGEN--\":2207:2210   */\n      dup3\n        /* \"--CODEGEN--\":2200:2234   */\n      mstore\n        /* \"--CODEGEN--\":2194:2239   */\n      pop\n      pop\n      jump\n        /* \"--CODEGEN--\":2246:2585   */\n    tag_82:\n      0x00\n        /* \"--CODEGEN--\":2354:2389   */\n      tag_84\n        /* \"--CODEGEN--\":2383:2388   */\n      dup3\n        /* \"--CODEGEN--\":2354:2389   */\n      jump(tag_85)\n    tag_84:\n        /* \"--CODEGEN--\":2401:2472   */\n      tag_86\n        /* \"--CODEGEN--\":2465:2471   */\n      dup2\n        /* \"--CODEGEN--\":2460:2463   */\n      dup6\n        /* \"--CODEGEN--\":2401:2472   */\n      jump(tag_87)\n    tag_86:\n        /* \"--CODEGEN--\":2394:2472   */\n      swap4\n      pop\n        /* \"--CODEGEN--\":2477:2529   */\n      tag_88\n        /* \"--CODEGEN--\":2522:2528   */\n      dup2\n        /* \"--CODEGEN--\":2517:2520   */\n      dup6\n        /* \"--CODEGEN--\":2510:2514   */\n      0x20\n        /* \"--CODEGEN--\":2503:2508   */\n      dup7\n        /* \"--CODEGEN--\":2499:2515   */\n      add\n        /* \"--CODEGEN--\":2477:2529   */\n      jump(tag_89)\n    tag_88:\n        /* \"--CODEGEN--\":2550:2579   */\n      tag_90\n        /* \"--CODEGEN--\":2572:2578   */\n      dup2\n        /* \"--CODEGEN--\":2550:2579   */\n      jump(tag_91)\n    tag_90:\n        /* \"--CODEGEN--\":2545:2548   */\n      dup5\n        /* \"--CODEGEN--\":2541:2580   */\n      add\n        /* \"--CODEGEN--\":2534:2580   */\n      swap2\n      pop\n        /* \"--CODEGEN--\":2334:2585   */\n      pop\n      swap3\n      swap2\n      pop\n      pop\n      jump\n        /* \"--CODEGEN--\":2592:2705   */\n    tag_92:\n        /* \"--CODEGEN--\":2675:2699   */\n      tag_94\n        /* \"--CODEGEN--\":2693:2698   */\n      dup2\n        /* \"--CODEGEN--\":2675:2699   */\n      jump(tag_95)\n    tag_94:\n        /* \"--CODEGEN--\":2670:2673   */\n      dup3\n        /* \"--CODEGEN--\":2663:2700   */\n      mstore\n        /* \"--CODEGEN--\":2657:2705   */\n      pop\n      pop\n      jump\n        /* \"--CODEGEN--\":2712:3711   */\n    tag_19:\n      0x00\n        /* \"--CODEGEN--\":3012:3015   */\n      0xc0\n        /* \"--CODEGEN--\":3001:3010   */\n      dup3\n        /* \"--CODEGEN--\":2997:3016   */\n      add\n        /* \"--CODEGEN--\":2989:3016   */\n      swap1\n      pop\n        /* \"--CODEGEN--\":3063:3072   */\n      dup2\n        /* \"--CODEGEN--\":3057:3061   */\n      dup2\n        /* \"--CODEGEN--\":3053:3073   */\n      sub\n        /* \"--CODEGEN--\":3049:3050   */\n      0x00\n        /* \"--CODEGEN--\":3038:3047   */\n      dup4\n        /* \"--CODEGEN--\":3034:3051   */\n      add\n        /* \"--CODEGEN--\":3027:3074   */\n      mstore\n        /* \"--CODEGEN--\":3088:3162   */\n      tag_97\n        /* \"--CODEGEN--\":3157:3161   */\n      dup2\n        /* \"--CODEGEN--\":3148:3154   */\n      dup10\n        /* \"--CODEGEN--\":3088:3162   */\n      jump(tag_82)\n    tag_97:\n        /* \"--CODEGEN--\":3080:3162   */\n      swap1\n      pop\n        /* \"--CODEGEN--\":3173:3245   */\n      tag_98\n        /* \"--CODEGEN--\":3241:3243   */\n      0x20\n        /* \"--CODEGEN--\":3230:3239   */\n      dup4\n        /* \"--CODEGEN--\":3226:3244   */\n      add\n        /* \"--CODEGEN--\":3217:3223   */\n      dup9\n        /* \"--CODEGEN--\":3173:3245   */\n      jump(tag_92)\n    tag_98:\n        /* \"--CODEGEN--\":3293:3302   */\n      dup2\n        /* \"--CODEGEN--\":3287:3291   */\n      dup2\n        /* \"--CODEGEN--\":3283:3303   */\n      sub\n        /* \"--CODEGEN--\":3278:3280   */\n      0x40\n        /* \"--CODEGEN--\":3267:3276   */\n      dup4\n        /* \"--CODEGEN--\":3263:3281   */\n      add\n        /* \"--CODEGEN--\":3256:3304   */\n      mstore\n        /* \"--CODEGEN--\":3318:3392   */\n      tag_99\n        /* \"--CODEGEN--\":3387:3391   */\n      dup2\n        /* \"--CODEGEN--\":3378:3384   */\n      dup8\n        /* \"--CODEGEN--\":3318:3392   */\n      jump(tag_82)\n    tag_99:\n        /* \"--CODEGEN--\":3310:3392   */\n      swap1\n      pop\n        /* \"--CODEGEN--\":3440:3449   */\n      dup2\n        /* \"--CODEGEN--\":3434:3438   */\n      dup2\n        /* \"--CODEGEN--\":3430:3450   */\n      sub\n        /* \"--CODEGEN--\":3425:3427   */\n      0x60\n        /* \"--CODEGEN--\":3414:3423   */\n      dup4\n        /* \"--CODEGEN--\":3410:3428   */\n      add\n        /* \"--CODEGEN--\":3403:3451   */\n      mstore\n        /* \"--CODEGEN--\":3465:3539   */\n      tag_100\n        /* \"--CODEGEN--\":3534:3538   */\n      dup2\n        /* \"--CODEGEN--\":3525:3531   */\n      dup7\n        /* \"--CODEGEN--\":3465:3539   */\n      jump(tag_82)\n    tag_100:\n        /* \"--CODEGEN--\":3457:3539   */\n      swap1\n      pop\n        /* \"--CODEGEN--\":3550:3623   */\n      tag_101\n        /* \"--CODEGEN--\":3618:3621   */\n      0x80\n        /* \"--CODEGEN--\":3607:3616   */\n      dup4\n        /* \"--CODEGEN--\":3603:3622   */\n      add\n        /* \"--CODEGEN--\":3594:3600   */\n      dup6\n        /* \"--CODEGEN--\":3550:3623   */\n      jump(tag_74)\n    tag_101:\n        /* \"--CODEGEN--\":3634:3701   */\n      tag_102\n        /* \"--CODEGEN--\":3696:3699   */\n      0xa0\n        /* \"--CODEGEN--\":3685:3694   */\n      dup4\n        /* \"--CODEGEN--\":3681:3700   */\n      add\n        /* \"--CODEGEN--\":3672:3678   */\n      dup5\n        /* \"--CODEGEN--\":3634:3701   */\n      jump(tag_78)\n    tag_102:\n        /* \"--CODEGEN--\":2983:3711   */\n      swap8\n      swap7\n      pop\n      pop\n      pop\n      pop\n      pop\n      pop\n      pop\n      jump\n        /* \"--CODEGEN--\":3718:3931   */\n    tag_13:\n      0x00\n        /* \"--CODEGEN--\":3836:3838   */\n      0x20\n        /* \"--CODEGEN--\":3825:3834   */\n      dup3\n        /* \"--CODEGEN--\":3821:3839   */\n      add\n        /* \"--CODEGEN--\":3813:3839   */\n      swap1\n      pop\n        /* \"--CODEGEN--\":3850:3921   */\n      tag_104\n        /* \"--CODEGEN--\":3918:3919   */\n      0x00\n        /* \"--CODEGEN--\":3907:3916   */\n      dup4\n        /* \"--CODEGEN--\":3903:3920   */\n      add\n        /* \"--CODEGEN--\":3894:3900   */\n      dup5\n        /* \"--CODEGEN--\":3850:3921   */\n      jump(tag_92)\n    tag_104:\n        /* \"--CODEGEN--\":3807:3931   */\n      swap3\n      swap2\n      pop\n      pop\n      jump\n        /* \"--CODEGEN--\":3938:4056   */\n    tag_85:\n      0x00\n        /* \"--CODEGEN--\":4028:4033   */\n      dup2\n        /* \"--CODEGEN--\":4022:4034   */\n      mload\n        /* \"--CODEGEN--\":4012:4034   */\n      swap1\n      pop\n        /* \"--CODEGEN--\":3993:4056   */\n      swap2\n      swap1\n      pop\n      jump\n        /* \"--CODEGEN--\":4064:4227   */\n    tag_87:\n      0x00\n        /* \"--CODEGEN--\":4179:4185   */\n      dup3\n        /* \"--CODEGEN--\":4174:4177   */\n      dup3\n        /* \"--CODEGEN--\":4167:4186   */\n      mstore\n        /* \"--CODEGEN--\":4216:4220   */\n      0x20\n        /* \"--CODEGEN--\":4211:4214   */\n      dup3\n        /* \"--CODEGEN--\":4207:4221   */\n      add\n        /* \"--CODEGEN--\":4192:4221   */\n      swap1\n      pop\n        /* \"--CODEGEN--\":4160:4227   */\n      swap3\n      swap2\n      pop\n      pop\n      jump\n        /* \"--CODEGEN--\":4235:4326   */\n    tag_77:\n      0x00\n        /* \"--CODEGEN--\":4297:4321   */\n      tag_108\n        /* \"--CODEGEN--\":4315:4320   */\n      dup3\n        /* \"--CODEGEN--\":4297:4321   */\n      jump(tag_109)\n    tag_108:\n        /* \"--CODEGEN--\":4286:4321   */\n      swap1\n      pop\n        /* \"--CODEGEN--\":4280:4326   */\n      swap2\n      swap1\n      pop\n      jump\n        /* \"--CODEGEN--\":4333:4418   */\n    tag_81:\n      0x00\n        /* \"--CODEGEN--\":4406:4411   */\n      dup2\n        /* \"--CODEGEN--\":4399:4412   */\n      iszero\n        /* \"--CODEGEN--\":4392:4413   */\n      iszero\n        /* \"--CODEGEN--\":4381:4413   */\n      swap1\n      pop\n        /* \"--CODEGEN--\":4375:4418   */\n      swap2\n      swap1\n      pop\n      jump\n        /* \"--CODEGEN--\":4425:4546   */\n    tag_109:\n      0x00\n        /* \"--CODEGEN--\":4498:4540   */\n      0xffffffffffffffffffffffffffffffffffffffff\n        /* \"--CODEGEN--\":4491:4496   */\n      dup3\n        /* \"--CODEGEN--\":4487:4541   */\n      and\n        /* \"--CODEGEN--\":4476:4541   */\n      swap1\n      pop\n        /* \"--CODEGEN--\":4470:4546   */\n      swap2\n      swap1\n      pop\n      jump\n        /* \"--CODEGEN--\":4553:4625   */\n    tag_95:\n      0x00\n        /* \"--CODEGEN--\":4615:4620   */\n      dup2\n        /* \"--CODEGEN--\":4604:4620   */\n      swap1\n      pop\n        /* \"--CODEGEN--\":4598:4625   */\n      swap2\n      swap1\n      pop\n      jump\n        /* \"--CODEGEN--\":4633:4901   */\n    tag_89:\n        /* \"--CODEGEN--\":4698:4699   */\n      0x00\n        /* \"--CODEGEN--\":4705:4806   */\n    tag_114:\n        /* \"--CODEGEN--\":4719:4725   */\n      dup4\n        /* \"--CODEGEN--\":4716:4717   */\n      dup2\n        /* \"--CODEGEN--\":4713:4726   */\n      lt\n        /* \"--CODEGEN--\":4705:4806   */\n      iszero\n      tag_116\n      jumpi\n        /* \"--CODEGEN--\":4795:4796   */\n      dup1\n        /* \"--CODEGEN--\":4790:4793   */\n      dup3\n        /* \"--CODEGEN--\":4786:4797   */\n      add\n        /* \"--CODEGEN--\":4780:4798   */\n      mload\n        /* \"--CODEGEN--\":4776:4777   */\n      dup2\n        /* \"--CODEGEN--\":4771:4774   */\n      dup5\n        /* \"--CODEGEN--\":4767:4778   */\n      add\n        /* \"--CODEGEN--\":4760:4799   */\n      mstore\n        /* \"--CODEGEN--\":4741:4743   */\n      0x20\n        /* \"--CODEGEN--\":4738:4739   */\n      dup2\n        /* \"--CODEGEN--\":4734:4744   */\n      add\n        /* \"--CODEGEN--\":4729:4744   */\n      swap1\n      pop\n        /* \"--CODEGEN--\":4705:4806   */\n      jump(tag_114)\n    tag_116:\n        /* \"--CODEGEN--\":4821:4827   */\n      dup4\n        /* \"--CODEGEN--\":4818:4819   */\n      dup2\n        /* \"--CODEGEN--\":4815:4828   */\n      gt\n        /* \"--CODEGEN--\":4812:4814   */\n      iszero\n      tag_117\n      jumpi\n        /* \"--CODEGEN--\":4886:4887   */\n      0x00\n        /* \"--CODEGEN--\":4877:4883   */\n      dup5\n        /* \"--CODEGEN--\":4872:4875   */\n      dup5\n        /* \"--CODEGEN--\":4868:4884   */\n      add\n        /* \"--CODEGEN--\":4861:4888   */\n      mstore\n        /* \"--CODEGEN--\":4812:4814   */\n    tag_117:\n        /* \"--CODEGEN--\":4682:4901   */\n      pop\n      pop\n      pop\n      pop\n      jump\n        /* \"--CODEGEN--\":4909:5006   */\n    tag_91:\n      0x00\n        /* \"--CODEGEN--\":4997:4999   */\n      0x1f\n        /* \"--CODEGEN--\":4993:5000   */\n      not\n        /* \"--CODEGEN--\":4988:4990   */\n      0x1f\n        /* \"--CODEGEN--\":4981:4986   */\n      dup4\n        /* \"--CODEGEN--\":4977:4991   */\n      add\n        /* \"--CODEGEN--\":4973:5001   */\n      and\n        /* \"--CODEGEN--\":4963:5001   */\n      swap1\n      pop\n        /* \"--CODEGEN--\":4957:5006   */\n      swap2\n      swap1\n      pop\n      jump\n        /* \"--CODEGEN--\":5014:5131   */\n    tag_51:\n        /* \"--CODEGEN--\":5083:5107   */\n      tag_120\n        /* \"--CODEGEN--\":5101:5106   */\n      dup2\n        /* \"--CODEGEN--\":5083:5107   */\n      jump(tag_77)\n    tag_120:\n        /* \"--CODEGEN--\":5076:5081   */\n      dup2\n        /* \"--CODEGEN--\":5073:5108   */\n      eq\n        /* \"--CODEGEN--\":5063:5065   */\n      tag_121\n      jumpi\n        /* \"--CODEGEN--\":5122:5123   */\n      0x00\n        /* \"--CODEGEN--\":5119:5120   */\n      dup1\n        /* \"--CODEGEN--\":5112:5124   */\n      revert\n        /* \"--CODEGEN--\":5063:5065   */\n    tag_121:\n        /* \"--CODEGEN--\":5057:5131   */\n      pop\n      jump\n        /* \"--CODEGEN--\":5138:5255   */\n    tag_60:\n        /* \"--CODEGEN--\":5207:5231   */\n      tag_123\n        /* \"--CODEGEN--\":5225:5230   */\n      dup2\n        /* \"--CODEGEN--\":5207:5231   */\n      jump(tag_95)\n    tag_123:\n        /* \"--CODEGEN--\":5200:5205   */\n      dup2\n        /* \"--CODEGEN--\":5197:5232   */\n      eq\n        /* \"--CODEGEN--\":5187:5189   */\n      tag_124\n      jumpi\n        /* \"--CODEGEN--\":5246:5247   */\n      0x00\n        /* \"--CODEGEN--\":5243:5244   */\n      dup1\n        /* \"--CODEGEN--\":5236:5248   */\n      revert\n        /* \"--CODEGEN--\":5187:5189   */\n    tag_124:\n        /* \"--CODEGEN--\":5181:5255   */\n      pop\n      jump\n\n    auxdata: 0xa264697066735822122016ce8eaa89111c6c8180369cd08dd9d2a1e544aa219e49fdd494c9fe3970b88c64736f6c63430006000033\n}\n","bytecode":{"linkReferences":{},"object":"608060405234801561001057600080fd5b506107e3806100206000396000f3fe608060405234801561001057600080fd5b50600436106100415760003560e01c80630a97bed0146100465780635786fd40146100625780637acc0b2014610080575b600080fd5b610060600480360361005b91908101906104eb565b6100b5565b005b61006a610188565b60405161007791906106bc565b60405180910390f35b61009a600480360361009591908101906105b7565b610194565b6040516100ac96959493929190610646565b60405180910390f35b600080600181600181540180825580915050039060005260206000209060050201905087878260000191906100eb9291906103d2565b5085816001018190555084848260020191906101089291906103d2565b50828282600301919061011c9291906103d2565b50888160040160006101000a81548173ffffffffffffffffffffffffffffffffffffffff021916908373ffffffffffffffffffffffffffffffffffffffff16021790555060018160040160146101000a81548160ff021916908315150217905550505050505050505050565b60008080549050905090565b600081815481106101a157fe5b9060005260206000209060050201600091509050806000018054600181600116156101000203166002900480601f01602080910402602001604051908101604052809291908181526020018280546001816001161561010002031660029004801561024d5780601f106102225761010080835404028352916020019161024d565b820191906000526020600020905b81548152906001019060200180831161023057829003601f168201915b505050505090806001015490806002018054600181600116156101000203166002900480601f0160208091040260200160405190810160405280929190818152602001828054600181600116156101000203166002900480156102f15780601f106102c6576101008083540402835291602001916102f1565b820191906000526020600020905b8154815290600101906020018083116102d457829003601f168201915b505050505090806003018054600181600116156101000203166002900480601f01602080910402602001604051908101604052809291908181526020018280546001816001161561010002031660029004801561038f5780601f106103645761010080835404028352916020019161038f565b820191906000526020600020905b81548152906001019060200180831161037257829003601f168201915b5050505050908060040160009054906101000a900473ffffffffffffffffffffffffffffffffffffffff16908060040160149054906101000a900460ff16905086565b828054600181600116156101000203166002900490600052602060002090601f016020900481019282601f1061041357803560ff1916838001178555610441565b82800160010185558215610441579182015b82811115610440578235825591602001919060010190610425565b5b50905061044e9190610452565b5090565b61047491905b80821115610470576000816000905550600101610458565b5090565b90565b6000813590506104868161077f565b92915050565b60008083601f84011261049e57600080fd5b8235905067ffffffffffffffff8111156104b757600080fd5b6020830191508360018202830111156104cf57600080fd5b9250929050565b6000813590506104e581610796565b92915050565b60008060008060008060008060a0898b03121561050757600080fd5b60006105158b828c01610477565b985050602089013567ffffffffffffffff81111561053257600080fd5b61053e8b828c0161048c565b975097505060406105518b828c016104d6565b955050606089013567ffffffffffffffff81111561056e57600080fd5b61057a8b828c0161048c565b9450945050608089013567ffffffffffffffff81111561059957600080fd5b6105a58b828c0161048c565b92509250509295985092959890939650565b6000602082840312156105c957600080fd5b60006105d7848285016104d6565b91505092915050565b6105e9816106f3565b82525050565b6105f881610705565b82525050565b6000610609826106d7565b61061381856106e2565b935061062381856020860161073b565b61062c8161076e565b840191505092915050565b61064081610731565b82525050565b600060c082019050818103600083015261066081896105fe565b905061066f6020830188610637565b818103604083015261068181876105fe565b9050818103606083015261069581866105fe565b90506106a460808301856105e0565b6106b160a08301846105ef565b979650505050505050565b60006020820190506106d16000830184610637565b92915050565b600081519050919050565b600082825260208201905092915050565b60006106fe82610711565b9050919050565b60008115159050919050565b600073ffffffffffffffffffffffffffffffffffffffff82169050919050565b6000819050919050565b60005b8381101561075957808201518184015260208101905061073e565b83811115610768576000848401525b50505050565b6000601f19601f8301169050919050565b610788816106f3565b811461079357600080fd5b50565b61079f81610731565b81146107aa57600080fd5b5056fea264697066735822122016ce8eaa89111c6c8180369cd08dd9d2a1e544aa219e49fdd494c9fe3970b88c64736f6c63430006000033","opcodes":"PUSH1 0x80 PUSH1 0x40 MSTORE CALLVALUE DUP1 ISZERO PUSH2 0x10 JUMPI PUSH1 0x0 DUP1 REVERT JUMPDEST POP PUSH2 0x7E3 DUP1 PUSH2 0x20 PUSH1 0x0 CODECOPY PUSH1 0x0 RETURN INVALID PUSH1 0x80 PUSH1 0x40 MSTORE CALLVALUE DUP1 ISZERO PUSH2 0x10 JUMPI PUSH1 0x0 DUP1 REVERT JUMPDEST POP PUSH1 0x4 CALLDATASIZE LT PUSH2 0x41 JUMPI PUSH1 0x0 CALLDATALOAD PUSH1 0xE0 SHR DUP1 PUSH4 0xA97BED0 EQ PUSH2 0x46 JUMPI DUP1 PUSH4 0x5786FD40 EQ PUSH2 0x62 JUMPI DUP1 PUSH4 0x7ACC0B20 EQ PUSH2 0x80 JUMPI JUMPDEST PUSH1 0x0 DUP1 REVERT JUMPDEST PUSH2 0x60 PUSH1 0x4 DUP1 CALLDATASIZE SUB PUSH2 0x5B SWAP2 SWAP1 DUP2 ADD SWAP1 PUSH2 0x4EB JUMP JUMPDEST PUSH2 0xB5 JUMP JUMPDEST STOP JUMPDEST PUSH2 0x6A PUSH2 0x188 JUMP JUMPDEST PUSH1 0x40 MLOAD PUSH2 0x77 SWAP2 SWAP1 PUSH2 0x6BC JUMP JUMPDEST PUSH1 0x40 MLOAD DUP1 SWAP2 SUB SWAP1 RETURN JUMPDEST PUSH2 0x9A PUSH1 0x4 DUP1 CALLDATASIZE SUB PUSH2 0x95 SWAP2 SWAP1 DUP2 ADD SWAP1 PUSH2 0x5B7 JUMP JUMPDEST PUSH2 0x194 JUMP JUMPDEST PUSH1 0x40 MLOAD PUSH2 0xAC SWAP7 SWAP6 SWAP5 SWAP4 SWAP3 SWAP2 SWAP1 PUSH2 0x646 JUMP JUMPDEST PUSH1 0x40 MLOAD DUP1 SWAP2 SUB SWAP1 RETURN JUMPDEST PUSH1 0x0 DUP1 PUSH1 0x1 DUP2 PUSH1 0x1 DUP2 SLOAD ADD DUP1 DUP3 SSTORE DUP1 SWAP2 POP POP SUB SWAP1 PUSH1 0x0 MSTORE PUSH1 0x20 PUSH1 0x0 KECCAK256 SWAP1 PUSH1 0x5 MUL ADD SWAP1 POP DUP8 DUP8 DUP3 PUSH1 0x0 ADD SWAP2 SWAP1 PUSH2 0xEB SWAP3 SWAP2 SWAP1 PUSH2 0x3D2 JUMP JUMPDEST POP DUP6 DUP2 PUSH1 0x1 ADD DUP2 SWAP1 SSTORE POP DUP5 DUP5 DUP3 PUSH1 0x2 ADD SWAP2 SWAP1 PUSH2 0x108 SWAP3 SWAP2 SWAP1 PUSH2 0x3D2 JUMP JUMPDEST POP DUP3 DUP3 DUP3 PUSH1 0x3 ADD SWAP2 SWAP1 PUSH2 0x11C SWAP3 SWAP2 SWAP1 PUSH2 0x3D2 JUMP JUMPDEST POP DUP9 DUP2 PUSH1 0x4 ADD PUSH1 0x0 PUSH2 0x100 EXP DUP2 SLOAD DUP2 PUSH20 0xFFFFFFFFFFFFFFFFFFFFFFFFFFFFFFFFFFFFFFFF MUL NOT AND SWAP1 DUP4 PUSH20 0xFFFFFFFFFFFFFFFFFFFFFFFFFFFFFFFFFFFFFFFF AND MUL OR SWAP1 SSTORE POP PUSH1 0x1 DUP2 PUSH1 0x4 ADD PUSH1 0x14 PUSH2 0x100 EXP DUP2 SLOAD DUP2 PUSH1 0xFF MUL NOT AND SWAP1 DUP4 ISZERO ISZERO MUL OR SWAP1 SSTORE POP POP POP POP POP POP POP POP POP POP JUMP JUMPDEST PUSH1 0x0 DUP1 DUP1 SLOAD SWAP1 POP SWAP1 POP SWAP1 JUMP JUMPDEST PUSH1 0x0 DUP2 DUP2 SLOAD DUP2 LT PUSH2 0x1A1 JUMPI INVALID JUMPDEST SWAP1 PUSH1 0x0 MSTORE PUSH1 0x20 PUSH1 0x0 KECCAK256 SWAP1 PUSH1 0x5 MUL ADD PUSH1 0x0 SWAP2 POP SWAP1 POP DUP1 PUSH1 0x0 ADD DUP1 SLOAD PUSH1 0x1 DUP2 PUSH1 0x1 AND ISZERO PUSH2 0x100 MUL SUB AND PUSH1 0x2 SWAP1 DIV DUP1 PUSH1 0x1F ADD PUSH1 0x20 DUP1 SWAP2 DIV MUL PUSH1 0x20 ADD PUSH1 0x40 MLOAD SWAP1 DUP2 ADD PUSH1 0x40 MSTORE DUP1 SWAP3 SWAP2 SWAP1 DUP2 DUP2 MSTORE PUSH1 0x20 ADD DUP3 DUP1 SLOAD PUSH1 0x1 DUP2 PUSH1 0x1 AND ISZERO PUSH2 0x100 MUL SUB AND PUSH1 0x2 SWAP1 DIV DUP1 ISZERO PUSH2 0x24D JUMPI DUP1 PUSH1 0x1F LT PUSH2 0x222 JUMPI PUSH2 0x100 DUP1 DUP4 SLOAD DIV MUL DUP4 MSTORE SWAP2 PUSH1 0x20 ADD SWAP2 PUSH2 0x24D JUMP JUMPDEST DUP3 ADD SWAP2 SWAP1 PUSH1 0x0 MSTORE PUSH1 0x20 PUSH1 0x0 KECCAK256 SWAP1 JUMPDEST DUP2 SLOAD DUP2 MSTORE SWAP1 PUSH1 0x1 ADD SWAP1 PUSH1 0x20 ADD DUP1 DUP4 GT PUSH2 0x230 JUMPI DUP3 SWAP1 SUB PUSH1 0x1F AND DUP3 ADD SWAP2 JUMPDEST POP POP POP POP POP SWAP1 DUP1 PUSH1 0x1 ADD SLOAD SWAP1 DUP1 PUSH1 0x2 ADD DUP1 SLOAD PUSH1 0x1 DUP2 PUSH1 0x1 AND ISZERO PUSH2 0x100 MUL SUB AND PUSH1 0x2 SWAP1 DIV DUP1 PUSH1 0x1F ADD PUSH1 0x20 DUP1 SWAP2 DIV MUL PUSH1 0x20 ADD PUSH1 0x40 MLOAD SWAP1 DUP2 ADD PUSH1 0x40 MSTORE DUP1 SWAP3 SWAP2 SWAP1 DUP2 DUP2 MSTORE PUSH1 0x20 ADD DUP3 DUP1 SLOAD PUSH1 0x1 DUP2 PUSH1 0x1 AND ISZERO PUSH2 0x100 MUL SUB AND PUSH1 0x2 SWAP1 DIV DUP1 ISZERO PUSH2 0x2F1 JUMPI DUP1 PUSH1 0x1F LT PUSH2 0x2C6 JUMPI PUSH2 0x100 DUP1 DUP4 SLOAD DIV MUL DUP4 MSTORE SWAP2 PUSH1 0x20 ADD SWAP2 PUSH2 0x2F1 JUMP JUMPDEST DUP3 ADD SWAP2 SWAP1 PUSH1 0x0 MSTORE PUSH1 0x20 PUSH1 0x0 KECCAK256 SWAP1 JUMPDEST DUP2 SLOAD DUP2 MSTORE SWAP1 PUSH1 0x1 ADD SWAP1 PUSH1 0x20 ADD DUP1 DUP4 GT PUSH2 0x2D4 JUMPI DUP3 SWAP1 SUB PUSH1 0x1F AND DUP3 ADD SWAP2 JUMPDEST POP POP POP POP POP SWAP1 DUP1 PUSH1 0x3 ADD DUP1 SLOAD PUSH1 0x1 DUP2 PUSH1 0x1 AND ISZERO PUSH2 0x100 MUL SUB AND PUSH1 0x2 SWAP1 DIV DUP1 PUSH1 0x1F ADD PUSH1 0x20 DUP1 SWAP2 DIV MUL PUSH1 0x20 ADD PUSH1 0x40 MLOAD SWAP1 DUP2 ADD PUSH1 0x40 MSTORE DUP1 SWAP3 SWAP2 SWAP1 DUP2 DUP2 MSTORE PUSH1 0x20 ADD DUP3 DUP1 SLOAD PUSH1 0x1 DUP2 PUSH1 0x1 AND ISZERO PUSH2 0x100 MUL SUB AND PUSH1 0x2 SWAP1 DIV DUP1 ISZERO PUSH2 0x38F JUMPI DUP1 PUSH1 0x1F LT PUSH2 0x364 JUMPI PUSH2 0x100 DUP1 DUP4 SLOAD DIV MUL DUP4 MSTORE SWAP2 PUSH1 0x20 ADD SWAP2 PUSH2 0x38F JUMP JUMPDEST DUP3 ADD SWAP2 SWAP1 PUSH1 0x0 MSTORE PUSH1 0x20 PUSH1 0x0 KECCAK256 SWAP1 JUMPDEST DUP2 SLOAD DUP2 MSTORE SWAP1 PUSH1 0x1 ADD SWAP1 PUSH1 0x20 ADD DUP1 DUP4 GT PUSH2 0x372 JUMPI DUP3 SWAP1 SUB PUSH1 0x1F AND DUP3 ADD SWAP2 JUMPDEST POP POP POP POP POP SWAP1 DUP1 PUSH1 0x4 ADD PUSH1 0x0 SWAP1 SLOAD SWAP1 PUSH2 0x100 EXP SWAP1 DIV PUSH20 0xFFFFFFFFFFFFFFFFFFFFFFFFFFFFFFFFFFFFFFFF AND SWAP1 DUP1 PUSH1 0x4 ADD PUSH1 0x14 SWAP1 SLOAD SWAP1 PUSH2 0x100 EXP SWAP1 DIV PUSH1 0xFF AND SWAP1 POP DUP7 JUMP JUMPDEST DUP3 DUP1 SLOAD PUSH1 0x1 DUP2 PUSH1 0x1 AND ISZERO PUSH2 0x100 MUL SUB AND PUSH1 0x2 SWAP1 DIV SWAP1 PUSH1 0x0 MSTORE PUSH1 0x20 PUSH1 0x0 KECCAK256 SWAP1 PUSH1 0x1F ADD PUSH1 0x20 SWAP1 DIV DUP2 ADD SWAP3 DUP3 PUSH1 0x1F LT PUSH2 0x413 JUMPI DUP1 CALLDATALOAD PUSH1 0xFF NOT AND DUP4 DUP1 ADD OR DUP6 SSTORE PUSH2 0x441 JUMP JUMPDEST DUP3 DUP1 ADD PUSH1 0x1 ADD DUP6 SSTORE DUP3 ISZERO PUSH2 0x441 JUMPI SWAP2 DUP3 ADD JUMPDEST DUP3 DUP2 GT ISZERO PUSH2 0x440 JUMPI DUP3 CALLDATALOAD DUP3 SSTORE SWAP2 PUSH1 0x20 ADD SWAP2 SWAP1 PUSH1 0x1 ADD SWAP1 PUSH2 0x425 JUMP JUMPDEST JUMPDEST POP SWAP1 POP PUSH2 0x44E SWAP2 SWAP1 PUSH2 0x452 JUMP JUMPDEST POP SWAP1 JUMP JUMPDEST PUSH2 0x474 SWAP2 SWAP1 JUMPDEST DUP1 DUP3 GT ISZERO PUSH2 0x470 JUMPI PUSH1 0x0 DUP2 PUSH1 0x0 SWAP1 SSTORE POP PUSH1 0x1 ADD PUSH2 0x458 JUMP JUMPDEST POP SWAP1 JUMP JUMPDEST SWAP1 JUMP JUMPDEST PUSH1 0x0 DUP2 CALLDATALOAD SWAP1 POP PUSH2 0x486 DUP2 PUSH2 0x77F JUMP JUMPDEST SWAP3 SWAP2 POP POP JUMP JUMPDEST PUSH1 0x0 DUP1 DUP4 PUSH1 0x1F DUP5 ADD SLT PUSH2 0x49E JUMPI PUSH1 0x0 DUP1 REVERT JUMPDEST DUP3 CALLDATALOAD SWAP1 POP PUSH8 0xFFFFFFFFFFFFFFFF DUP2 GT ISZERO PUSH2 0x4B7 JUMPI PUSH1 0x0 DUP1 REVERT JUMPDEST PUSH1 0x20 DUP4 ADD SWAP2 POP DUP4 PUSH1 0x1 DUP3 MUL DUP4 ADD GT ISZERO PUSH2 0x4CF JUMPI PUSH1 0x0 DUP1 REVERT JUMPDEST SWAP3 POP SWAP3 SWAP1 POP JUMP JUMPDEST PUSH1 0x0 DUP2 CALLDATALOAD SWAP1 POP PUSH2 0x4E5 DUP2 PUSH2 0x796 JUMP JUMPDEST SWAP3 SWAP2 POP POP JUMP JUMPDEST PUSH1 0x0 DUP1 PUSH1 0x0 DUP1 PUSH1 0x0 DUP1 PUSH1 0x0 DUP1 PUSH1 0xA0 DUP10 DUP12 SUB SLT ISZERO PUSH2 0x507 JUMPI PUSH1 0x0 DUP1 REVERT JUMPDEST PUSH1 0x0 PUSH2 0x515 DUP12 DUP3 DUP13 ADD PUSH2 0x477 JUMP JUMPDEST SWAP9 POP POP PUSH1 0x20 DUP10 ADD CALLDATALOAD PUSH8 0xFFFFFFFFFFFFFFFF DUP2 GT ISZERO PUSH2 0x532 JUMPI PUSH1 0x0 DUP1 REVERT JUMPDEST PUSH2 0x53E DUP12 DUP3 DUP13 ADD PUSH2 0x48C JUMP JUMPDEST SWAP8 POP SWAP8 POP POP PUSH1 0x40 PUSH2 0x551 DUP12 DUP3 DUP13 ADD PUSH2 0x4D6 JUMP JUMPDEST SWAP6 POP POP PUSH1 0x60 DUP10 ADD CALLDATALOAD PUSH8 0xFFFFFFFFFFFFFFFF DUP2 GT ISZERO PUSH2 0x56E JUMPI PUSH1 0x0 DUP1 REVERT JUMPDEST PUSH2 0x57A DUP12 DUP3 DUP13 ADD PUSH2 0x48C JUMP JUMPDEST SWAP5 POP SWAP5 POP POP PUSH1 0x80 DUP10 ADD CALLDATALOAD PUSH8 0xFFFFFFFFFFFFFFFF DUP2 GT ISZERO PUSH2 0x599 JUMPI PUSH1 0x0 DUP1 REVERT JUMPDEST PUSH2 0x5A5 DUP12 DUP3 DUP13 ADD PUSH2 0x48C JUMP JUMPDEST SWAP3 POP SWAP3 POP POP SWAP3 SWAP6 SWAP9 POP SWAP3 SWAP6 SWAP9 SWAP1 SWAP4 SWAP7 POP JUMP JUMPDEST PUSH1 0x0 PUSH1 0x20 DUP3 DUP5 SUB SLT ISZERO PUSH2 0x5C9 JUMPI PUSH1 0x0 DUP1 REVERT JUMPDEST PUSH1 0x0 PUSH2 0x5D7 DUP5 DUP3 DUP6 ADD PUSH2 0x4D6 JUMP JUMPDEST SWAP2 POP POP SWAP3 SWAP2 POP POP JUMP JUMPDEST PUSH2 0x5E9 DUP2 PUSH2 0x6F3 JUMP JUMPDEST DUP3 MSTORE POP POP JUMP JUMPDEST PUSH2 0x5F8 DUP2 PUSH2 0x705 JUMP JUMPDEST DUP3 MSTORE POP POP JUMP JUMPDEST PUSH1 0x0 PUSH2 0x609 DUP3 PUSH2 0x6D7 JUMP JUMPDEST PUSH2 0x613 DUP2 DUP6 PUSH2 0x6E2 JUMP JUMPDEST SWAP4 POP PUSH2 0x623 DUP2 DUP6 PUSH1 0x20 DUP7 ADD PUSH2 0x73B JUMP JUMPDEST PUSH2 0x62C DUP2 PUSH2 0x76E JUMP JUMPDEST DUP5 ADD SWAP2 POP POP SWAP3 SWAP2 POP POP JUMP JUMPDEST PUSH2 0x640 DUP2 PUSH2 0x731 JUMP JUMPDEST DUP3 MSTORE POP POP JUMP JUMPDEST PUSH1 0x0 PUSH1 0xC0 DUP3 ADD SWAP1 POP DUP2 DUP2 SUB PUSH1 0x0 DUP4 ADD MSTORE PUSH2 0x660 DUP2 DUP10 PUSH2 0x5FE JUMP JUMPDEST SWAP1 POP PUSH2 0x66F PUSH1 0x20 DUP4 ADD DUP9 PUSH2 0x637 JUMP JUMPDEST DUP2 DUP2 SUB PUSH1 0x40 DUP4 ADD MSTORE PUSH2 0x681 DUP2 DUP8 PUSH2 0x5FE JUMP JUMPDEST SWAP1 POP DUP2 DUP2 SUB PUSH1 0x60 DUP4 ADD MSTORE PUSH2 0x695 DUP2 DUP7 PUSH2 0x5FE JUMP JUMPDEST SWAP1 POP PUSH2 0x6A4 PUSH1 0x80 DUP4 ADD DUP6 PUSH2 0x5E0 JUMP JUMPDEST PUSH2 0x6B1 PUSH1 0xA0 DUP4 ADD DUP5 PUSH2 0x5EF JUMP JUMPDEST SWAP8 SWAP7 POP POP POP POP POP POP POP JUMP JUMPDEST PUSH1 0x0 PUSH1 0x20 DUP3 ADD SWAP1 POP PUSH2 0x6D1 PUSH1 0x0 DUP4 ADD DUP5 PUSH2 0x637 JUMP JUMPDEST SWAP3 SWAP2 POP POP JUMP JUMPDEST PUSH1 0x0 DUP2 MLOAD SWAP1 POP SWAP2 SWAP1 POP JUMP JUMPDEST PUSH1 0x0 DUP3 DUP3 MSTORE PUSH1 0x20 DUP3 ADD SWAP1 POP SWAP3 SWAP2 POP POP JUMP JUMPDEST PUSH1 0x0 PUSH2 0x6FE DUP3 PUSH2 0x711 JUMP JUMPDEST SWAP1 POP SWAP2 SWAP1 POP JUMP JUMPDEST PUSH1 0x0 DUP2 ISZERO ISZERO SWAP1 POP SWAP2 SWAP1 POP JUMP JUMPDEST PUSH1 0x0 PUSH20 0xFFFFFFFFFFFFFFFFFFFFFFFFFFFFFFFFFFFFFFFF DUP3 AND SWAP1 POP SWAP2 SWAP1 POP JUMP JUMPDEST PUSH1 0x0 DUP2 SWAP1 POP SWAP2 SWAP1 POP JUMP JUMPDEST PUSH1 0x0 JUMPDEST DUP4 DUP2 LT ISZERO PUSH2 0x759 JUMPI DUP1 DUP3 ADD MLOAD DUP2 DUP5 ADD MSTORE PUSH1 0x20 DUP2 ADD SWAP1 POP PUSH2 0x73E JUMP JUMPDEST DUP4 DUP2 GT ISZERO PUSH2 0x768 JUMPI PUSH1 0x0 DUP5 DUP5 ADD MSTORE JUMPDEST POP POP POP POP JUMP JUMPDEST PUSH1 0x0 PUSH1 0x1F NOT PUSH1 0x1F DUP4 ADD AND SWAP1 POP SWAP2 SWAP1 POP JUMP JUMPDEST PUSH2 0x788 DUP2 PUSH2 0x6F3 JUMP JUMPDEST DUP2 EQ PUSH2 0x793 JUMPI PUSH1 0x0 DUP1 REVERT JUMPDEST POP JUMP JUMPDEST PUSH2 0x79F DUP2 PUSH2 0x731 JUMP JUMPDEST DUP2 EQ PUSH2 0x7AA JUMPI PUSH1 0x0 DUP1 REVERT JUMPDEST POP JUMP INVALID LOG2 PUSH5 0x6970667358 0x22 SLT KECCAK256 AND 0xCE DUP15 0xAA DUP10 GT SHR PUSH13 0x8180369CD08DD9D2A1E544AA21 SWAP15 0x49 REVERT 0xD4 SWAP5 0xC9 INVALID CODECOPY PUSH17 0xB88C64736F6C6343000600003300000000 "},"gasEstimates":{"creation":{"codeDepositCost":"403800","executionCost":"443","totalCost":"404243"},"external":{"createProductItem(address,string,uint256,string,string)":"infinite","getProductsCount()":"1145","products(uint256)":"infinite"}},"methodIdentifiers":{"createProductItem(address,string,uint256,string,string)":"0a97bed0","getProductsCount()":"5786fd40","products(uint256)":"7acc0b20"}},"storageLayout":{"storage":[{"astId":397,"contract":"Rubics:ShopProducts","label":"products","offset":0,"slot":"0","type":"t_array(t_struct(ProductItem)394_storage)dyn_storage"}],"types":{"t_address":{"encoding":"inplace","label":"address","numberOfBytes":"20"},"t_array(t_struct(ProductItem)394_storage)dyn_storage":{"base":"t_struct(ProductItem)394_storage","encoding":"dynamic_array","label":"struct ShopProducts.ProductItem[]","numberOfBytes":"32"},"t_bool":{"encoding":"inplace","label":"bool","numberOfBytes":"1"},"t_string_storage":{"encoding":"bytes","label":"string","numberOfBytes":"32"},"t_struct(ProductItem)394_storage":{"encoding":"inplace","label":"struct ShopProducts.ProductItem","members":[{"astId":383,"contract":"Rubics:ShopProducts","label":"productName","offset":0,"slot":"0","type":"t_string_storage"},{"astId":385,"contract":"Rubics:ShopProducts","label":"productPrice","offset":0,"slot":"1","type":"t_uint256"},{"astId":387,"contract":"Rubics:ShopProducts","label":"productCategory","offset":0,"slot":"2","type":"t_string_storage"},{"astId":389,"contract":"Rubics:ShopProducts","label":"productImage","offset":0,"slot":"3","type":"t_string_storage"},{"astId":391,"contract":"Rubics:ShopProducts","label":"sellerAddress","offset":0,"slot":"4","type":"t_address"},{"astId":393,"contract":"Rubics:ShopProducts","label":"inStock","offset":20,"slot":"4","type":"t_bool"}],"numberOfBytes":"160"},"t_uint256":{"encoding":"inplace","label":"uint256","numberOfBytes":"32"}}},"userdoc":{"methods":{}}}